{"abi":[{"type":"constructor","inputs":[{"name":"_eggs","type":"address","internalType":"address"}],"stateMutability":"nonpayable"},{"type":"function","name":"approve","inputs":[{"name":"to","type":"address","internalType":"address"},{"name":"tokenId","type":"uint256","internalType":"uint256"}],"outputs":[],"stateMutability":"nonpayable"},{"type":"function","name":"balanceOf","inputs":[{"name":"owner","type":"address","internalType":"address"}],"outputs":[{"name":"","type":"uint256","internalType":"uint256"}],"stateMutability":"view"},{"type":"function","name":"buyEggs","inputs":[{"name":"_amount","type":"uint256","internalType":"uint256"}],"outputs":[],"stateMutability":"payable"},{"type":"function","name":"createAnt","inputs":[],"outputs":[],"stateMutability":"nonpayable"},{"type":"function","name":"eggs","inputs":[],"outputs":[{"name":"","type":"address","internalType":"contract IEgg"}],"stateMutability":"view"},{"type":"function","name":"getAntPrice","inputs":[],"outputs":[{"name":"","type":"uint256","internalType":"uint256"}],"stateMutability":"view"},{"type":"function","name":"getAntsCreated","inputs":[],"outputs":[{"name":"","type":"uint256","internalType":"uint256"}],"stateMutability":"view"},{"type":"function","name":"getApproved","inputs":[{"name":"tokenId","type":"uint256","internalType":"uint256"}],"outputs":[{"name":"","type":"address","internalType":"address"}],"stateMutability":"view"},{"type":"function","name":"getEggPrice","inputs":[],"outputs":[{"name":"","type":"uint256","internalType":"uint256"}],"stateMutability":"view"},{"type":"function","name":"isApprovedForAll","inputs":[{"name":"owner","type":"address","internalType":"address"},{"name":"operator","type":"address","internalType":"address"}],"outputs":[{"name":"","type":"bool","internalType":"bool"}],"stateMutability":"view"},{"type":"function","name":"name","inputs":[],"outputs":[{"name":"","type":"string","internalType":"string"}],"stateMutability":"view"},{"type":"function","name":"owner","inputs":[],"outputs":[{"name":"","type":"address","internalType":"address"}],"stateMutability":"view"},{"type":"function","name":"ownerOf","inputs":[{"name":"tokenId","type":"uint256","internalType":"uint256"}],"outputs":[{"name":"","type":"address","internalType":"address"}],"stateMutability":"view"},{"type":"function","name":"renounceOwnership","inputs":[],"outputs":[],"stateMutability":"nonpayable"},{"type":"function","name":"safeTransferFrom","inputs":[{"name":"from","type":"address","internalType":"address"},{"name":"to","type":"address","internalType":"address"},{"name":"tokenId","type":"uint256","internalType":"uint256"}],"outputs":[],"stateMutability":"nonpayable"},{"type":"function","name":"safeTransferFrom","inputs":[{"name":"from","type":"address","internalType":"address"},{"name":"to","type":"address","internalType":"address"},{"name":"tokenId","type":"uint256","internalType":"uint256"},{"name":"data","type":"bytes","internalType":"bytes"}],"outputs":[],"stateMutability":"nonpayable"},{"type":"function","name":"sellAnt","inputs":[{"name":"_antId","type":"uint256","internalType":"uint256"}],"outputs":[],"stateMutability":"nonpayable"},{"type":"function","name":"setApprovalForAll","inputs":[{"name":"operator","type":"address","internalType":"address"},{"name":"approved","type":"bool","internalType":"bool"}],"outputs":[],"stateMutability":"nonpayable"},{"type":"function","name":"supportsInterface","inputs":[{"name":"interfaceId","type":"bytes4","internalType":"bytes4"}],"outputs":[{"name":"","type":"bool","internalType":"bool"}],"stateMutability":"view"},{"type":"function","name":"symbol","inputs":[],"outputs":[{"name":"","type":"string","internalType":"string"}],"stateMutability":"view"},{"type":"function","name":"tokenURI","inputs":[{"name":"tokenId","type":"uint256","internalType":"uint256"}],"outputs":[{"name":"","type":"string","internalType":"string"}],"stateMutability":"view"},{"type":"function","name":"transferFrom","inputs":[{"name":"from","type":"address","internalType":"address"},{"name":"to","type":"address","internalType":"address"},{"name":"tokenId","type":"uint256","internalType":"uint256"}],"outputs":[],"stateMutability":"nonpayable"},{"type":"function","name":"transferOwnership","inputs":[{"name":"newOwner","type":"address","internalType":"address"}],"outputs":[],"stateMutability":"nonpayable"},{"type":"function","name":"updatePrices","inputs":[{"name":"newEggPrice","type":"uint256","internalType":"uint256"},{"name":"newAntPrice","type":"uint256","internalType":"uint256"}],"outputs":[],"stateMutability":"nonpayable"},{"type":"event","name":"AntCreated","inputs":[{"name":"owner","type":"address","indexed":false,"internalType":"address"},{"name":"antId","type":"uint256","indexed":false,"internalType":"uint256"}],"anonymous":false},{"type":"event","name":"AntCreated","inputs":[],"anonymous":false},{"type":"event","name":"AntSold","inputs":[{"name":"owner","type":"address","indexed":false,"internalType":"address"},{"name":"antId","type":"uint256","indexed":false,"internalType":"uint256"}],"anonymous":false},{"type":"event","name":"AntSold","inputs":[],"anonymous":false},{"type":"event","name":"Approval","inputs":[{"name":"owner","type":"address","indexed":true,"internalType":"address"},{"name":"approved","type":"address","indexed":true,"internalType":"address"},{"name":"tokenId","type":"uint256","indexed":true,"internalType":"uint256"}],"anonymous":false},{"type":"event","name":"ApprovalForAll","inputs":[{"name":"owner","type":"address","indexed":true,"internalType":"address"},{"name":"operator","type":"address","indexed":true,"internalType":"address"},{"name":"approved","type":"bool","indexed":false,"internalType":"bool"}],"anonymous":false},{"type":"event","name":"EggsBought","inputs":[{"name":"owner","type":"address","indexed":false,"internalType":"address"},{"name":"amount","type":"uint256","indexed":false,"internalType":"uint256"}],"anonymous":false},{"type":"event","name":"OwnershipTransferred","inputs":[{"name":"previousOwner","type":"address","indexed":true,"internalType":"address"},{"name":"newOwner","type":"address","indexed":true,"internalType":"address"}],"anonymous":false},{"type":"event","name":"PricesUpdated","inputs":[{"name":"newEggPrice","type":"uint256","indexed":false,"internalType":"uint256"},{"name":"newAntPrice","type":"uint256","indexed":false,"internalType":"uint256"}],"anonymous":false},{"type":"event","name":"Transfer","inputs":[{"name":"from","type":"address","indexed":true,"internalType":"address"},{"name":"to","type":"address","indexed":true,"internalType":"address"},{"name":"tokenId","type":"uint256","indexed":true,"internalType":"uint256"}],"anonymous":false},{"type":"error","name":"AlreadyExists","inputs":[]},{"type":"error","name":"AntPriceMustBeLessThanEggPrice","inputs":[]},{"type":"error","name":"NoEggs","inputs":[]},{"type":"error","name":"NoZeroAddress","inputs":[]},{"type":"error","name":"NotAntOwner","inputs":[]},{"type":"error","name":"TransferFailed","inputs":[]},{"type":"error","name":"WrongEtherSent","inputs":[]},{"type":"error","name":"ZeroAmount","inputs":[]}],"bytecode":{"object":"0x60a0604052662386f26fc10000600755660e35fa931a000060085560006009553480156200002c57600080fd5b5060405162002663380380620026638339810160408190526200004f9162000135565b6040518060400160405280600b81526020016a43727970746f20416e747360a81b81525060405180604001604052806004815260200163414e545360e01b8152508160009081620000a191906200020c565b506001620000b082826200020c565b505050620000cd620000c7620000df60201b60201c565b620000e3565b6001600160a01b0316608052620002d8565b3390565b600680546001600160a01b038381166001600160a01b0319831681179093556040519116919082907f8be0079c531659141344cd1fd0a4f28419497f9722a3daafe3b4186f6b6457e090600090a35050565b6000602082840312156200014857600080fd5b81516001600160a01b03811681146200016057600080fd5b9392505050565b634e487b7160e01b600052604160045260246000fd5b600181811c908216806200019257607f821691505b602082108103620001b357634e487b7160e01b600052602260045260246000fd5b50919050565b601f8211156200020757600081815260208120601f850160051c81016020861015620001e25750805b601f850160051c820191505b818110156200020357828155600101620001ee565b5050505b505050565b81516001600160401b0381111562000228576200022862000167565b62000240816200023984546200017d565b84620001b9565b602080601f8311600181146200027857600084156200025f5750858301515b600019600386901b1c1916600185901b17855562000203565b600085815260208120601f198616915b82811015620002a95788860151825594840194600190910190840162000288565b5085821015620002c85787850151600019600388901b60f8161c191681555b5050505050600190811b01905550565b60805161235a6200030960003960008181610426015281816108c901528181610a2b0152610bb3015261235a6000f3fe60806040526004361061018b5760003560e01c80636352211e116100d6578063b88d4fde1161007f578063e985e9c511610059578063e985e9c514610448578063ef88d7f01461049e578063f2fde38b146104be57600080fd5b8063b88d4fde146103d4578063c87b56dd146103f4578063e33f76cf1461041457600080fd5b80638da5cb5b116100b05780638da5cb5b1461037457806395d89b411461039f578063a22cb465146103b457600080fd5b80636352211e1461031f57806370a082311461033f578063715018a61461035f57600080fd5b80632e61a7bf116101385780634fd53596116101125780634fd53596146102d7578063514b1570146102ea57806361dcb054146102ff57600080fd5b80632e61a7bf1461028d5780633d871229146102a257806342842e0e146102b757600080fd5b8063095ea7b311610169578063095ea7b31461022c57806323b872dd1461024e578063248452bd1461026e57600080fd5b806301ffc9a71461019057806306fdde03146101c5578063081812fc146101e7575b600080fd5b34801561019c57600080fd5b506101b06101ab366004611e8a565b6104de565b60405190151581526020015b60405180910390f35b3480156101d157600080fd5b506101da6105c3565b6040516101bc9190611f15565b3480156101f357600080fd5b50610207610202366004611f28565b610655565b60405173ffffffffffffffffffffffffffffffffffffffff90911681526020016101bc565b34801561023857600080fd5b5061024c610247366004611f6a565b610689565b005b34801561025a57600080fd5b5061024c610269366004611f94565b610811565b34801561027a57600080fd5b506008545b6040519081526020016101bc565b34801561029957600080fd5b5061024c610898565b3480156102ae57600080fd5b5060095461027f565b3480156102c357600080fd5b5061024c6102d2366004611f94565b610ae3565b61024c6102e5366004611f28565b610afe565b3480156102f657600080fd5b5060075461027f565b34801561030b57600080fd5b5061024c61031a366004611f28565b610c5b565b34801561032b57600080fd5b5061020761033a366004611f28565b610d82565b34801561034b57600080fd5b5061027f61035a366004611fd0565b610df4565b34801561036b57600080fd5b5061024c610ea8565b34801561038057600080fd5b5060065473ffffffffffffffffffffffffffffffffffffffff16610207565b3480156103ab57600080fd5b506101da610ebc565b3480156103c057600080fd5b5061024c6103cf366004611feb565b610ecb565b3480156103e057600080fd5b5061024c6103ef366004612056565b610eda565b34801561040057600080fd5b506101da61040f366004611f28565b610f68565b34801561042057600080fd5b506102077f000000000000000000000000000000000000000000000000000000000000000081565b34801561045457600080fd5b506101b0610463366004612150565b73ffffffffffffffffffffffffffffffffffffffff918216600090815260056020908152604080832093909416825291909152205460ff1690565b3480156104aa57600080fd5b5061024c6104b9366004612183565b610fdc565b3480156104ca57600080fd5b5061024c6104d9366004611fd0565b61109f565b60007fffffffff0000000000000000000000000000000000000000000000000000000082167f80ac58cd00000000000000000000000000000000000000000000000000000000148061057157507fffffffff0000000000000000000000000000000000000000000000000000000082167f5b5e139f00000000000000000000000000000000000000000000000000000000145b806105bd57507f01ffc9a7000000000000000000000000000000000000000000000000000000007fffffffff000000000000000000000000000000000000000000000000000000008316145b92915050565b6060600080546105d2906121a5565b80601f01602080910402602001604051908101604052809291908181526020018280546105fe906121a5565b801561064b5780601f106106205761010080835404028352916020019161064b565b820191906000526020600020905b81548152906001019060200180831161062e57829003601f168201915b5050505050905090565b60006106608261113c565b5060009081526004602052604090205473ffffffffffffffffffffffffffffffffffffffff1690565b600061069482610d82565b90508073ffffffffffffffffffffffffffffffffffffffff168373ffffffffffffffffffffffffffffffffffffffff160361073c5760405162461bcd60e51b815260206004820152602160248201527f4552433732313a20617070726f76616c20746f2063757272656e74206f776e6560448201527f720000000000000000000000000000000000000000000000000000000000000060648201526084015b60405180910390fd5b3373ffffffffffffffffffffffffffffffffffffffff82161480610790575073ffffffffffffffffffffffffffffffffffffffff8116600090815260056020908152604080832033845290915290205460ff165b6108025760405162461bcd60e51b815260206004820152603d60248201527f4552433732313a20617070726f76652063616c6c6572206973206e6f7420746f60448201527f6b656e206f776e6572206f7220617070726f76656420666f7220616c6c0000006064820152608401610733565b61080c83836111ad565b505050565b61081b338261124d565b61088d5760405162461bcd60e51b815260206004820152602d60248201527f4552433732313a2063616c6c6572206973206e6f7420746f6b656e206f776e6560448201527f72206f7220617070726f766564000000000000000000000000000000000000006064820152608401610733565b61080c83838361130d565b6040517f70a082310000000000000000000000000000000000000000000000000000000081523360048201526001907f000000000000000000000000000000000000000000000000000000000000000073ffffffffffffffffffffffffffffffffffffffff16906370a0823190602401602060405180830381865afa158015610925573d6000803e3d6000fd5b505050506040513d601f19601f8201168201806040525081019061094991906121f8565b1015610981576040517f6c308a2f00000000000000000000000000000000000000000000000000000000815260040160405180910390fd5b600060096000815461099290612240565b918290555060008181526002602052604090205490915073ffffffffffffffffffffffffffffffffffffffff16156109f6576040517f23369fa600000000000000000000000000000000000000000000000000000000815260040160405180910390fd5b6040517f9dc29fac000000000000000000000000000000000000000000000000000000008152336004820152600160248201527f000000000000000000000000000000000000000000000000000000000000000073ffffffffffffffffffffffffffffffffffffffff1690639dc29fac90604401600060405180830381600087803b158015610a8457600080fd5b505af1158015610a98573d6000803e3d6000fd5b50505050610aa633826115ba565b60408051338152602081018390527fb1cbc86b8a6c13dcf7e6ddddcd361135b8af8664acc668744eeb932a9beb4f2691015b60405180910390a150565b61080c83838360405180602001604052806000815250610eda565b80600003610b38576040517f1f2a200500000000000000000000000000000000000000000000000000000000815260040160405180910390fd5b3460075482610b479190612278565b14610b7e576040517f2f1e736300000000000000000000000000000000000000000000000000000000815260040160405180910390fd5b6040517f40c10f19000000000000000000000000000000000000000000000000000000008152336004820152602481018290527f000000000000000000000000000000000000000000000000000000000000000073ffffffffffffffffffffffffffffffffffffffff16906340c10f1990604401600060405180830381600087803b158015610c0c57600080fd5b505af1158015610c20573d6000803e3d6000fd5b505060408051338152602081018590527fecedcda9002dd5028204a70dddaa2155459b6dff3c3e20543450a189e736dc499350019050610ad8565b60008181526002602052604090205473ffffffffffffffffffffffffffffffffffffffff163314610cb8576040517f16bea89400000000000000000000000000000000000000000000000000000000815260040160405180910390fd5b610cc181611791565b60085460405160009133918381818185875af1925050503d8060008114610d04576040519150601f19603f3d011682016040523d82523d6000602084013e610d09565b606091505b5050905080610d44576040517f90b8ec1800000000000000000000000000000000000000000000000000000000815260040160405180910390fd5b60408051338152602081018490527fe67bffe95663d01ae462a2e747de3f59667442026226e1ff426a25bfe4b81fb391015b60405180910390a15050565b60008181526002602052604081205473ffffffffffffffffffffffffffffffffffffffff16806105bd5760405162461bcd60e51b815260206004820152601860248201527f4552433732313a20696e76616c696420746f6b656e20494400000000000000006044820152606401610733565b600073ffffffffffffffffffffffffffffffffffffffff8216610e7f5760405162461bcd60e51b815260206004820152602960248201527f4552433732313a2061646472657373207a65726f206973206e6f74206120766160448201527f6c6964206f776e657200000000000000000000000000000000000000000000006064820152608401610733565b5073ffffffffffffffffffffffffffffffffffffffff1660009081526003602052604090205490565b610eb0611869565b610eba60006118d0565b565b6060600180546105d2906121a5565b610ed6338383611947565b5050565b610ee4338361124d565b610f565760405162461bcd60e51b815260206004820152602d60248201527f4552433732313a2063616c6c6572206973206e6f7420746f6b656e206f776e6560448201527f72206f7220617070726f766564000000000000000000000000000000000000006064820152608401610733565b610f6284848484611a5a565b50505050565b6060610f738261113c565b6000610f8a60408051602081019091526000815290565b90506000815111610faa5760405180602001604052806000815250610fd5565b80610fb484611ae3565b604051602001610fc592919061228f565b6040516020818303038152906040525b9392505050565b610fe4611869565b811580610fef575080155b15611026576040517f1f2a200500000000000000000000000000000000000000000000000000000000815260040160405180910390fd5b81811061105f576040517f28cf0d4c00000000000000000000000000000000000000000000000000000000815260040160405180910390fd5b6007829055600881905560408051838152602081018390527f6546f60f34df611fa42503098acc39d5ab88bc73febe64b3cc14e5a92e3a66a79101610d76565b6110a7611869565b73ffffffffffffffffffffffffffffffffffffffff81166111305760405162461bcd60e51b815260206004820152602660248201527f4f776e61626c653a206e6577206f776e657220697320746865207a65726f206160448201527f64647265737300000000000000000000000000000000000000000000000000006064820152608401610733565b611139816118d0565b50565b60008181526002602052604090205473ffffffffffffffffffffffffffffffffffffffff166111395760405162461bcd60e51b815260206004820152601860248201527f4552433732313a20696e76616c696420746f6b656e20494400000000000000006044820152606401610733565b600081815260046020526040902080547fffffffffffffffffffffffff00000000000000000000000000000000000000001673ffffffffffffffffffffffffffffffffffffffff8416908117909155819061120782610d82565b73ffffffffffffffffffffffffffffffffffffffff167f8c5be1e5ebec7d5bd14f71427d1e84f3dd0314c0f7b2291e5b200ac8c7c3b92560405160405180910390a45050565b60008061125983610d82565b90508073ffffffffffffffffffffffffffffffffffffffff168473ffffffffffffffffffffffffffffffffffffffff1614806112c7575073ffffffffffffffffffffffffffffffffffffffff80821660009081526005602090815260408083209388168352929052205460ff165b8061130557508373ffffffffffffffffffffffffffffffffffffffff166112ed84610655565b73ffffffffffffffffffffffffffffffffffffffff16145b949350505050565b8273ffffffffffffffffffffffffffffffffffffffff1661132d82610d82565b73ffffffffffffffffffffffffffffffffffffffff16146113b65760405162461bcd60e51b815260206004820152602560248201527f4552433732313a207472616e736665722066726f6d20696e636f72726563742060448201527f6f776e65720000000000000000000000000000000000000000000000000000006064820152608401610733565b73ffffffffffffffffffffffffffffffffffffffff821661143e5760405162461bcd60e51b8152602060048201526024808201527f4552433732313a207472616e7366657220746f20746865207a65726f2061646460448201527f72657373000000000000000000000000000000000000000000000000000000006064820152608401610733565b8273ffffffffffffffffffffffffffffffffffffffff1661145e82610d82565b73ffffffffffffffffffffffffffffffffffffffff16146114e75760405162461bcd60e51b815260206004820152602560248201527f4552433732313a207472616e736665722066726f6d20696e636f72726563742060448201527f6f776e65720000000000000000000000000000000000000000000000000000006064820152608401610733565b600081815260046020908152604080832080547fffffffffffffffffffffffff000000000000000000000000000000000000000090811690915573ffffffffffffffffffffffffffffffffffffffff8781168086526003855283862080547fffffffffffffffffffffffffffffffffffffffffffffffffffffffffffffffff01905590871680865283862080546001019055868652600290945282852080549092168417909155905184937fddf252ad1be2c89b69c2b068fc378daa952ba7f163c4a11628f55a4df523b3ef91a4505050565b73ffffffffffffffffffffffffffffffffffffffff821661161d5760405162461bcd60e51b815260206004820181905260248201527f4552433732313a206d696e7420746f20746865207a65726f20616464726573736044820152606401610733565b60008181526002602052604090205473ffffffffffffffffffffffffffffffffffffffff161561168f5760405162461bcd60e51b815260206004820152601c60248201527f4552433732313a20746f6b656e20616c7265616479206d696e746564000000006044820152606401610733565b60008181526002602052604090205473ffffffffffffffffffffffffffffffffffffffff16156117015760405162461bcd60e51b815260206004820152601c60248201527f4552433732313a20746f6b656e20616c7265616479206d696e746564000000006044820152606401610733565b73ffffffffffffffffffffffffffffffffffffffff8216600081815260036020908152604080832080546001019055848352600290915280822080547fffffffffffffffffffffffff0000000000000000000000000000000000000000168417905551839291907fddf252ad1be2c89b69c2b068fc378daa952ba7f163c4a11628f55a4df523b3ef908290a45050565b600061179c82610d82565b90506117a782610d82565b600083815260046020908152604080832080547fffffffffffffffffffffffff000000000000000000000000000000000000000090811690915573ffffffffffffffffffffffffffffffffffffffff85168085526003845282852080547fffffffffffffffffffffffffffffffffffffffffffffffffffffffffffffffff0190558785526002909352818420805490911690555192935084927fddf252ad1be2c89b69c2b068fc378daa952ba7f163c4a11628f55a4df523b3ef908390a45050565b60065473ffffffffffffffffffffffffffffffffffffffff163314610eba5760405162461bcd60e51b815260206004820181905260248201527f4f776e61626c653a2063616c6c6572206973206e6f7420746865206f776e65726044820152606401610733565b6006805473ffffffffffffffffffffffffffffffffffffffff8381167fffffffffffffffffffffffff0000000000000000000000000000000000000000831681179093556040519116919082907f8be0079c531659141344cd1fd0a4f28419497f9722a3daafe3b4186f6b6457e090600090a35050565b8173ffffffffffffffffffffffffffffffffffffffff168373ffffffffffffffffffffffffffffffffffffffff16036119c25760405162461bcd60e51b815260206004820152601960248201527f4552433732313a20617070726f766520746f2063616c6c6572000000000000006044820152606401610733565b73ffffffffffffffffffffffffffffffffffffffff83811660008181526005602090815260408083209487168084529482529182902080547fffffffffffffffffffffffffffffffffffffffffffffffffffffffffffffff001686151590811790915591519182527f17307eab39ab6107e8899845ad3d59bd9653f200f220920489ca2b5937696c31910160405180910390a3505050565b611a6584848461130d565b611a7184848484611ba1565b610f625760405162461bcd60e51b815260206004820152603260248201527f4552433732313a207472616e7366657220746f206e6f6e20455243373231526560448201527f63656976657220696d706c656d656e74657200000000000000000000000000006064820152608401610733565b60606000611af083611d7a565b600101905060008167ffffffffffffffff811115611b1057611b10612027565b6040519080825280601f01601f191660200182016040528015611b3a576020820181803683370190505b5090508181016020015b7fffffffffffffffffffffffffffffffffffffffffffffffffffffffffffffffff017f3031323334353637383961626364656600000000000000000000000000000000600a86061a8153600a8504945084611b4457509392505050565b600073ffffffffffffffffffffffffffffffffffffffff84163b15611d6f576040517f150b7a0200000000000000000000000000000000000000000000000000000000815273ffffffffffffffffffffffffffffffffffffffff85169063150b7a0290611c189033908990889088906004016122be565b6020604051808303816000875af1925050508015611c71575060408051601f3d9081017fffffffffffffffffffffffffffffffffffffffffffffffffffffffffffffffe0168201909252611c6e91810190612307565b60015b611d24573d808015611c9f576040519150601f19603f3d011682016040523d82523d6000602084013e611ca4565b606091505b508051600003611d1c5760405162461bcd60e51b815260206004820152603260248201527f4552433732313a207472616e7366657220746f206e6f6e20455243373231526560448201527f63656976657220696d706c656d656e74657200000000000000000000000000006064820152608401610733565b805181602001fd5b7fffffffff00000000000000000000000000000000000000000000000000000000167f150b7a0200000000000000000000000000000000000000000000000000000000149050611305565b506001949350505050565b6000807a184f03e93ff9f4daa797ed6e38ed64bf6a1f0100000000000000008310611dc3577a184f03e93ff9f4daa797ed6e38ed64bf6a1f010000000000000000830492506040015b6d04ee2d6d415b85acef81000000008310611def576d04ee2d6d415b85acef8100000000830492506020015b662386f26fc100008310611e0d57662386f26fc10000830492506010015b6305f5e1008310611e25576305f5e100830492506008015b6127108310611e3957612710830492506004015b60648310611e4b576064830492506002015b600a83106105bd5760010192915050565b7fffffffff000000000000000000000000000000000000000000000000000000008116811461113957600080fd5b600060208284031215611e9c57600080fd5b8135610fd581611e5c565b60005b83811015611ec2578181015183820152602001611eaa565b50506000910152565b60008151808452611ee3816020860160208601611ea7565b601f017fffffffffffffffffffffffffffffffffffffffffffffffffffffffffffffffe0169290920160200192915050565b602081526000610fd56020830184611ecb565b600060208284031215611f3a57600080fd5b5035919050565b803573ffffffffffffffffffffffffffffffffffffffff81168114611f6557600080fd5b919050565b60008060408385031215611f7d57600080fd5b611f8683611f41565b946020939093013593505050565b600080600060608486031215611fa957600080fd5b611fb284611f41565b9250611fc060208501611f41565b9150604084013590509250925092565b600060208284031215611fe257600080fd5b610fd582611f41565b60008060408385031215611ffe57600080fd5b61200783611f41565b91506020830135801515811461201c57600080fd5b809150509250929050565b7f4e487b7100000000000000000000000000000000000000000000000000000000600052604160045260246000fd5b6000806000806080858703121561206c57600080fd5b61207585611f41565b935061208360208601611f41565b925060408501359150606085013567ffffffffffffffff808211156120a757600080fd5b818701915087601f8301126120bb57600080fd5b8135818111156120cd576120cd612027565b604051601f82017fffffffffffffffffffffffffffffffffffffffffffffffffffffffffffffffe0908116603f0116810190838211818310171561211357612113612027565b816040528281528a602084870101111561212c57600080fd5b82602086016020830137600060208483010152809550505050505092959194509250565b6000806040838503121561216357600080fd5b61216c83611f41565b915061217a60208401611f41565b90509250929050565b6000806040838503121561219657600080fd5b50508035926020909101359150565b600181811c908216806121b957607f821691505b6020821081036121f2577f4e487b7100000000000000000000000000000000000000000000000000000000600052602260045260246000fd5b50919050565b60006020828403121561220a57600080fd5b5051919050565b7f4e487b7100000000000000000000000000000000000000000000000000000000600052601160045260246000fd5b60007fffffffffffffffffffffffffffffffffffffffffffffffffffffffffffffffff820361227157612271612211565b5060010190565b80820281158282048414176105bd576105bd612211565b600083516122a1818460208801611ea7565b8351908301906122b5818360208801611ea7565b01949350505050565b600073ffffffffffffffffffffffffffffffffffffffff8087168352808616602084015250836040830152608060608301526122fd6080830184611ecb565b9695505050505050565b60006020828403121561231957600080fd5b8151610fd581611e5c56fea2646970667358221220ac8a7707cc1c77a8d788e1bb6ea98e0e0930ef3bd2d0a2db4f4e5e2f53395b4564736f6c63430008130033","linkReferences":{}},"methodIdentifiers":{"approve(address,uint256)":"095ea7b3","balanceOf(address)":"70a08231","buyEggs(uint256)":"4fd53596","createAnt()":"2e61a7bf","eggs()":"e33f76cf","getAntPrice()":"248452bd","getAntsCreated()":"3d871229","getApproved(uint256)":"081812fc","getEggPrice()":"514b1570","isApprovedForAll(address,address)":"e985e9c5","name()":"06fdde03","owner()":"8da5cb5b","ownerOf(uint256)":"6352211e","renounceOwnership()":"715018a6","safeTransferFrom(address,address,uint256)":"42842e0e","safeTransferFrom(address,address,uint256,bytes)":"b88d4fde","sellAnt(uint256)":"61dcb054","setApprovalForAll(address,bool)":"a22cb465","supportsInterface(bytes4)":"01ffc9a7","symbol()":"95d89b41","tokenURI(uint256)":"c87b56dd","transferFrom(address,address,uint256)":"23b872dd","transferOwnership(address)":"f2fde38b","updatePrices(uint256,uint256)":"ef88d7f0"},"id":35}