{"abi":[{"type":"constructor","inputs":[{"name":"_eggs","type":"address","internalType":"address"},{"name":"_governance","type":"address","internalType":"address"},{"name":"_linkAddress","type":"address","internalType":"address"},{"name":"_wrapperAddress","type":"address","internalType":"address"}],"stateMutability":"nonpayable"},{"type":"function","name":"MAX_EGGS_TO_LAY","inputs":[],"outputs":[{"name":"","type":"uint256","internalType":"uint256"}],"stateMutability":"view"},{"type":"function","name":"OVIPOSITION_DELAY","inputs":[],"outputs":[{"name":"","type":"uint256","internalType":"uint256"}],"stateMutability":"view"},{"type":"function","name":"PREOVIPOSITION_PERIOD","inputs":[],"outputs":[{"name":"","type":"uint256","internalType":"uint256"}],"stateMutability":"view"},{"type":"function","name":"acceptOwnership","inputs":[],"outputs":[],"stateMutability":"nonpayable"},{"type":"function","name":"approve","inputs":[{"name":"to","type":"address","internalType":"address"},{"name":"tokenId","type":"uint256","internalType":"uint256"}],"outputs":[],"stateMutability":"nonpayable"},{"type":"function","name":"balanceOf","inputs":[{"name":"owner","type":"address","internalType":"address"}],"outputs":[{"name":"","type":"uint256","internalType":"uint256"}],"stateMutability":"view"},{"type":"function","name":"buyEggs","inputs":[{"name":"_amount","type":"uint256","internalType":"uint256"}],"outputs":[],"stateMutability":"payable"},{"type":"function","name":"createAnt","inputs":[],"outputs":[{"name":"_antId","type":"uint256","internalType":"uint256"}],"stateMutability":"nonpayable"},{"type":"function","name":"eggs","inputs":[],"outputs":[{"name":"","type":"address","internalType":"contract IEgg"}],"stateMutability":"view"},{"type":"function","name":"getAntPrice","inputs":[],"outputs":[{"name":"","type":"uint256","internalType":"uint256"}],"stateMutability":"view"},{"type":"function","name":"getAntsCreated","inputs":[],"outputs":[{"name":"","type":"uint256","internalType":"uint256"}],"stateMutability":"view"},{"type":"function","name":"getApproved","inputs":[{"name":"tokenId","type":"uint256","internalType":"uint256"}],"outputs":[{"name":"","type":"address","internalType":"address"}],"stateMutability":"view"},{"type":"function","name":"getEggPrice","inputs":[],"outputs":[{"name":"","type":"uint256","internalType":"uint256"}],"stateMutability":"view"},{"type":"function","name":"getOvipositionPeriod","inputs":[{"name":"_antId","type":"uint256","internalType":"uint256"}],"outputs":[{"name":"ovipositionPeriod","type":"uint256","internalType":"uint256"}],"stateMutability":"view"},{"type":"function","name":"getOvipositionRequest","inputs":[{"name":"_requestId","type":"uint256","internalType":"uint256"}],"outputs":[{"name":"","type":"tuple","internalType":"struct ICryptoAnts.OvipositionRequest","components":[{"name":"paid","type":"uint256","internalType":"uint256"},{"name":"fulfilled","type":"bool","internalType":"bool"},{"name":"ant","type":"tuple","internalType":"struct ICryptoAnts.Ant","components":[{"name":"owner","type":"address","internalType":"address"},{"name":"id","type":"uint256","internalType":"uint256"}]}]}],"stateMutability":"view"},{"type":"function","name":"isApprovedForAll","inputs":[{"name":"owner","type":"address","internalType":"address"},{"name":"operator","type":"address","internalType":"address"}],"outputs":[{"name":"","type":"bool","internalType":"bool"}],"stateMutability":"view"},{"type":"function","name":"name","inputs":[],"outputs":[{"name":"","type":"string","internalType":"string"}],"stateMutability":"view"},{"type":"function","name":"owner","inputs":[],"outputs":[{"name":"","type":"address","internalType":"address"}],"stateMutability":"view"},{"type":"function","name":"ownerOf","inputs":[{"name":"tokenId","type":"uint256","internalType":"uint256"}],"outputs":[{"name":"","type":"address","internalType":"address"}],"stateMutability":"view"},{"type":"function","name":"rawFulfillRandomWords","inputs":[{"name":"_requestId","type":"uint256","internalType":"uint256"},{"name":"_randomWords","type":"uint256[]","internalType":"uint256[]"}],"outputs":[],"stateMutability":"nonpayable"},{"type":"function","name":"safeTransferFrom","inputs":[{"name":"from","type":"address","internalType":"address"},{"name":"to","type":"address","internalType":"address"},{"name":"tokenId","type":"uint256","internalType":"uint256"}],"outputs":[],"stateMutability":"nonpayable"},{"type":"function","name":"safeTransferFrom","inputs":[{"name":"from","type":"address","internalType":"address"},{"name":"to","type":"address","internalType":"address"},{"name":"tokenId","type":"uint256","internalType":"uint256"},{"name":"data","type":"bytes","internalType":"bytes"}],"outputs":[],"stateMutability":"nonpayable"},{"type":"function","name":"sellAnt","inputs":[{"name":"_antId","type":"uint256","internalType":"uint256"}],"outputs":[],"stateMutability":"nonpayable"},{"type":"function","name":"setApprovalForAll","inputs":[{"name":"operator","type":"address","internalType":"address"},{"name":"approved","type":"bool","internalType":"bool"}],"outputs":[],"stateMutability":"nonpayable"},{"type":"function","name":"startOviposition","inputs":[{"name":"_antId","type":"uint256","internalType":"uint256"}],"outputs":[{"name":"requestId","type":"uint256","internalType":"uint256"}],"stateMutability":"nonpayable"},{"type":"function","name":"supportsInterface","inputs":[{"name":"interfaceId","type":"bytes4","internalType":"bytes4"}],"outputs":[{"name":"","type":"bool","internalType":"bool"}],"stateMutability":"view"},{"type":"function","name":"symbol","inputs":[],"outputs":[{"name":"","type":"string","internalType":"string"}],"stateMutability":"view"},{"type":"function","name":"tokenURI","inputs":[{"name":"tokenId","type":"uint256","internalType":"uint256"}],"outputs":[{"name":"","type":"string","internalType":"string"}],"stateMutability":"view"},{"type":"function","name":"transferFrom","inputs":[{"name":"from","type":"address","internalType":"address"},{"name":"to","type":"address","internalType":"address"},{"name":"tokenId","type":"uint256","internalType":"uint256"}],"outputs":[],"stateMutability":"nonpayable"},{"type":"function","name":"transferOwnership","inputs":[{"name":"to","type":"address","internalType":"address"}],"outputs":[],"stateMutability":"nonpayable"},{"type":"function","name":"updatePrices","inputs":[{"name":"_newEggPrice","type":"uint256","internalType":"uint256"},{"name":"_newAntPrice","type":"uint256","internalType":"uint256"}],"outputs":[],"stateMutability":"nonpayable"},{"type":"function","name":"withdrawEther","inputs":[{"name":"_receiver","type":"address","internalType":"address"},{"name":"_amount","type":"uint256","internalType":"uint256"}],"outputs":[],"stateMutability":"nonpayable"},{"type":"function","name":"withdrawLink","inputs":[{"name":"_receiver","type":"address","internalType":"address"},{"name":"_amount","type":"uint256","internalType":"uint256"}],"outputs":[],"stateMutability":"nonpayable"},{"type":"event","name":"AntCreated","inputs":[{"name":"owner","type":"address","indexed":false,"internalType":"address"},{"name":"antId","type":"uint256","indexed":false,"internalType":"uint256"},{"name":"ovipositionPeriod","type":"uint256","indexed":false,"internalType":"uint256"}],"anonymous":false},{"type":"event","name":"AntSold","inputs":[{"name":"owner","type":"address","indexed":false,"internalType":"address"},{"name":"antId","type":"uint256","indexed":false,"internalType":"uint256"}],"anonymous":false},{"type":"event","name":"Approval","inputs":[{"name":"owner","type":"address","indexed":true,"internalType":"address"},{"name":"approved","type":"address","indexed":true,"internalType":"address"},{"name":"tokenId","type":"uint256","indexed":true,"internalType":"uint256"}],"anonymous":false},{"type":"event","name":"ApprovalForAll","inputs":[{"name":"owner","type":"address","indexed":true,"internalType":"address"},{"name":"operator","type":"address","indexed":true,"internalType":"address"},{"name":"approved","type":"bool","indexed":false,"internalType":"bool"}],"anonymous":false},{"type":"event","name":"EggsBought","inputs":[{"name":"owner","type":"address","indexed":false,"internalType":"address"},{"name":"amount","type":"uint256","indexed":false,"internalType":"uint256"}],"anonymous":false},{"type":"event","name":"EggsLaid","inputs":[{"name":"owner","type":"address","indexed":false,"internalType":"address"},{"name":"antId","type":"uint256","indexed":false,"internalType":"uint256"},{"name":"eggsLaid","type":"uint256","indexed":false,"internalType":"uint256"},{"name":"isAntDead","type":"bool","indexed":false,"internalType":"bool"}],"anonymous":false},{"type":"event","name":"OvipositionPeriodReset","inputs":[{"name":"antId","type":"uint256","indexed":false,"internalType":"uint256"},{"name":"ovipositionPeriod","type":"uint256","indexed":false,"internalType":"uint256"}],"anonymous":false},{"type":"event","name":"OvipositionRequestFulfilled","inputs":[{"name":"requestId","type":"uint256","indexed":false,"internalType":"uint256"},{"name":"paid","type":"uint256","indexed":false,"internalType":"uint256"}],"anonymous":false},{"type":"event","name":"OvipositionRequested","inputs":[{"name":"requestId","type":"uint256","indexed":false,"internalType":"uint256"},{"name":"paid","type":"uint256","indexed":false,"internalType":"uint256"}],"anonymous":false},{"type":"event","name":"OwnershipTransferRequested","inputs":[{"name":"from","type":"address","indexed":true,"internalType":"address"},{"name":"to","type":"address","indexed":true,"internalType":"address"}],"anonymous":false},{"type":"event","name":"OwnershipTransferred","inputs":[{"name":"from","type":"address","indexed":true,"internalType":"address"},{"name":"to","type":"address","indexed":true,"internalType":"address"}],"anonymous":false},{"type":"event","name":"PricesUpdated","inputs":[{"name":"newEggPrice","type":"uint256","indexed":false,"internalType":"uint256"},{"name":"newAntPrice","type":"uint256","indexed":false,"internalType":"uint256"}],"anonymous":false},{"type":"event","name":"Transfer","inputs":[{"name":"from","type":"address","indexed":true,"internalType":"address"},{"name":"to","type":"address","indexed":true,"internalType":"address"},{"name":"tokenId","type":"uint256","indexed":true,"internalType":"uint256"}],"anonymous":false},{"type":"error","name":"AntPriceMustBeLessThanEggPrice","inputs":[]},{"type":"error","name":"ERC721IncorrectOwner","inputs":[{"name":"sender","type":"address","internalType":"address"},{"name":"tokenId","type":"uint256","internalType":"uint256"},{"name":"owner","type":"address","internalType":"address"}]},{"type":"error","name":"ERC721InsufficientApproval","inputs":[{"name":"operator","type":"address","internalType":"address"},{"name":"tokenId","type":"uint256","internalType":"uint256"}]},{"type":"error","name":"ERC721InvalidApprover","inputs":[{"name":"approver","type":"address","internalType":"address"}]},{"type":"error","name":"ERC721InvalidOperator","inputs":[{"name":"operator","type":"address","internalType":"address"}]},{"type":"error","name":"ERC721InvalidOwner","inputs":[{"name":"owner","type":"address","internalType":"address"}]},{"type":"error","name":"ERC721InvalidReceiver","inputs":[{"name":"receiver","type":"address","internalType":"address"}]},{"type":"error","name":"ERC721InvalidSender","inputs":[{"name":"sender","type":"address","internalType":"address"}]},{"type":"error","name":"ERC721NonexistentToken","inputs":[{"name":"tokenId","type":"uint256","internalType":"uint256"}]},{"type":"error","name":"InsufficientFunds","inputs":[{"name":"balance","type":"uint256","internalType":"uint256"},{"name":"paid","type":"uint256","internalType":"uint256"}]},{"type":"error","name":"NoEggs","inputs":[]},{"type":"error","name":"NotAntOwner","inputs":[]},{"type":"error","name":"PreOvipositionPeriod","inputs":[]},{"type":"error","name":"RequestNotFound","inputs":[{"name":"requestId","type":"uint256","internalType":"uint256"}]},{"type":"error","name":"TransferFailed","inputs":[]},{"type":"error","name":"WrongEtherSent","inputs":[]},{"type":"error","name":"ZeroAddress","inputs":[]},{"type":"error","name":"ZeroAmount","inputs":[]}],"bytecode":{"object":"0x610100604052662386f26fc10000600855660e35fa931a00006009556000600a553480156200002d57600080fd5b506040516200337c3803806200337c83398101604081905262000050916200023c565b8280600084846040518060400160405280600b81526020016a43727970746f20416e747360a81b81525060405180604001604052806004815260200163414e545360e01b8152508160009081620000a891906200033e565b506001620000b782826200033e565b5050506001600160a01b03918216608052811660a0528216620001215760405162461bcd60e51b815260206004820152601860248201527f43616e6e6f7420736574206f776e657220746f207a65726f000000000000000060448201526064015b60405180910390fd5b600680546001600160a01b0319166001600160a01b03848116919091179091558116156200015457620001548162000173565b5050506001600160a01b0393841660c0525090911660e052506200040a565b336001600160a01b03821603620001cd5760405162461bcd60e51b815260206004820152601760248201527f43616e6e6f74207472616e7366657220746f2073656c66000000000000000000604482015260640162000118565b600780546001600160a01b0319166001600160a01b03838116918217909255600654604051919216907fed8889f560326eb138920d842192f0eb3dd22b4f139c87a2c57538e05bae127890600090a350565b80516001600160a01b03811681146200023757600080fd5b919050565b600080600080608085870312156200025357600080fd5b6200025e856200021f565b93506200026e602086016200021f565b92506200027e604086016200021f565b91506200028e606086016200021f565b905092959194509250565b634e487b7160e01b600052604160045260246000fd5b600181811c90821680620002c457607f821691505b602082108103620002e557634e487b7160e01b600052602260045260246000fd5b50919050565b601f8211156200033957600081815260208120601f850160051c81016020861015620003145750805b601f850160051c820191505b81811015620003355782815560010162000320565b5050505b505050565b81516001600160401b038111156200035a576200035a62000299565b62000372816200036b8454620002af565b84620002eb565b602080601f831160018114620003aa5760008415620003915750858301515b600019600386901b1c1916600185901b17855562000335565b600085815260208120601f198616915b82811015620003db57888601518255948401946001909101908401620003ba565b5085821015620003fa5787850151600019600388901b60f8161c191681555b5050505050600190811b01905550565b60805160a05160c05160e051612f006200047c60003960008181610f46015261127601526000818161059f015281816109c001528181610b2a01528181610cd501526124310152600081816108310152818161129b01528181611cb90152611dc201526000611c8f0152612f006000f3fe6080604052600436106101fe5760003560e01c806354b7faae1161011d57806395d89b41116100b0578063e33f76cf1161007f578063e985e9c511610064578063e985e9c5146105ee578063ef88d7f014610637578063f2fde38b1461065757600080fd5b8063e33f76cf1461058d578063e5f9598c146105c157600080fd5b806395d89b4114610518578063a22cb4651461052d578063b88d4fde1461054d578063c87b56dd1461056d57600080fd5b806373edb143116100ec57806373edb1431461046b57806379ba50971461048b57806386f47873146104a05780638da5cb5b146104fa57600080fd5b806354b7faae146103eb57806361dcb0541461040b5780636352211e1461042b57806370a082311461044b57600080fd5b80632d577eef116101955780634fd53596116101645780634fd535961461038d578063514b1570146103a0578063522f6815146103b5578063538795d5146103d557600080fd5b80632d577eef1461032c5780632e61a7bf146103435780633d8712291461035857806342842e0e1461036d57600080fd5b80631d292ef1116101d15780631d292ef1146102b45780631fe543e3146102d757806323b872dd146102f7578063248452bd1461031757600080fd5b806301ffc9a71461020357806306fdde0314610238578063081812fc1461025a578063095ea7b314610292575b600080fd5b34801561020f57600080fd5b5061022361021e366004612801565b610677565b60405190151581526020015b60405180910390f35b34801561024457600080fd5b5061024d61075c565b60405161022f919061288c565b34801561026657600080fd5b5061027a61027536600461289f565b6107ee565b6040516001600160a01b03909116815260200161022f565b34801561029e57600080fd5b506102b26102ad3660046128d4565b610817565b005b3480156102c057600080fd5b506102c9600a81565b60405190815260200161022f565b3480156102e357600080fd5b506102b26102f236600461297c565b610826565b34801561030357600080fd5b506102b2610312366004612a2e565b6108c7565b34801561032357600080fd5b506009546102c9565b34801561033857600080fd5b506102c96203f48081565b34801561034f57600080fd5b506102c9610984565b34801561036457600080fd5b50600a546102c9565b34801561037957600080fd5b506102b2610388366004612a2e565b610c00565b6102b261039b36600461289f565b610c20565b3480156103ac57600080fd5b506008546102c9565b3480156103c157600080fd5b506102b26103d03660046128d4565b610d76565b3480156103e157600080fd5b506102c961025881565b3480156103f757600080fd5b506102b26104063660046128d4565b610e85565b34801561041757600080fd5b506102b261042636600461289f565b610ff1565b34801561043757600080fd5b5061027a61044636600461289f565b61110b565b34801561045757600080fd5b506102c9610466366004612a6a565b611116565b34801561047757600080fd5b506102c961048636600461289f565b611177565b34801561049757600080fd5b506102b26114d2565b3480156104ac57600080fd5b506104c06104bb36600461289f565b6115b9565b60408051825181526020808401511515818301529282015180516001600160a01b031692820192909252910151606082015260800161022f565b34801561050657600080fd5b506006546001600160a01b031661027a565b34801561052457600080fd5b5061024d61161c565b34801561053957600080fd5b506102b2610548366004612a93565b61162b565b34801561055957600080fd5b506102b2610568366004612aca565b611636565b34801561057957600080fd5b5061024d61058836600461289f565b61164d565b34801561059957600080fd5b5061027a7f000000000000000000000000000000000000000000000000000000000000000081565b3480156105cd57600080fd5b506102c96105dc36600461289f565b6000908152600c602052604090205490565b3480156105fa57600080fd5b50610223610609366004612ba8565b6001600160a01b03918216600090815260056020908152604080832093909416825291909152205460ff1690565b34801561064357600080fd5b506102b2610652366004612bdb565b6116c2565b34801561066357600080fd5b506102b2610672366004612a6a565b611785565b60007fffffffff0000000000000000000000000000000000000000000000000000000082167f80ac58cd00000000000000000000000000000000000000000000000000000000148061070a57507fffffffff0000000000000000000000000000000000000000000000000000000082167f5b5e139f00000000000000000000000000000000000000000000000000000000145b8061075657507f01ffc9a7000000000000000000000000000000000000000000000000000000007fffffffff000000000000000000000000000000000000000000000000000000008316145b92915050565b60606000805461076b90612bfd565b80601f016020809104026020016040519081016040528092919081815260200182805461079790612bfd565b80156107e45780601f106107b9576101008083540402835291602001916107e4565b820191906000526020600020905b8154815290600101906020018083116107c757829003601f168201915b5050505050905090565b60006107f982611799565b506000828152600460205260409020546001600160a01b0316610756565b6108228282336117eb565b5050565b336001600160a01b037f000000000000000000000000000000000000000000000000000000000000000016146108bd576040517f08c379a000000000000000000000000000000000000000000000000000000000815260206004820152601f60248201527f6f6e6c792056524620563220777261707065722063616e2066756c66696c6c0060448201526064015b60405180910390fd5b61082282826117f8565b6001600160a01b03821661090a576040517f64a0ae92000000000000000000000000000000000000000000000000000000008152600060048201526024016108b4565b600061091783833361195b565b9050836001600160a01b0316816001600160a01b03161461097e576040517f64283d7b0000000000000000000000000000000000000000000000000000000081526001600160a01b03808616600483015260248201849052821660448201526064016108b4565b50505050565b6040517f70a082310000000000000000000000000000000000000000000000000000000081523360048201526000906001906001600160a01b037f000000000000000000000000000000000000000000000000000000000000000016906370a0823190602401602060405180830381865afa158015610a07573d6000803e3d6000fd5b505050506040513d601f19601f82011682018060405250810190610a2b9190612c4a565b1015610a63576040517f6c308a2f00000000000000000000000000000000000000000000000000000000815260040160405180910390fd5b600b54600003610a8857600a60008154610a7c90612c92565b91829055509050610af5565b600b8054610a9890600190612cca565b81548110610aa857610aa8612cdd565b90600052602060002001549050600b805480610ac657610ac6612d0c565b60019003818190600052602060002001600090559055600a6000815480929190610aef90612c92565b91905055505b6040517f9dc29fac000000000000000000000000000000000000000000000000000000008152336004820152600160248201527f00000000000000000000000000000000000000000000000000000000000000006001600160a01b031690639dc29fac90604401600060405180830381600087803b158015610b7657600080fd5b505af1158015610b8a573d6000803e3d6000fd5b50505050610b983382611a8a565b6000610ba661025842612d3b565b6000838152600c602090815260409182902083905581513381529081018590529081018290529091507f0cbdf51017fa3db672d6f94a941b3b47f2c1c169bf808bac7391b8a9269cffab9060600160405180910390a15090565b610c1b83838360405180602001604052806000815250611636565b505050565b80600003610c5a576040517f1f2a200500000000000000000000000000000000000000000000000000000000815260040160405180910390fd5b3460085482610c699190612d4e565b14610ca0576040517f2f1e736300000000000000000000000000000000000000000000000000000000815260040160405180910390fd5b6040517f40c10f19000000000000000000000000000000000000000000000000000000008152336004820152602481018290527f00000000000000000000000000000000000000000000000000000000000000006001600160a01b0316906340c10f1990604401600060405180830381600087803b158015610d2157600080fd5b505af1158015610d35573d6000803e3d6000fd5b505060408051338152602081018590527fecedcda9002dd5028204a70dddaa2155459b6dff3c3e20543450a189e736dc49935001905060405180910390a150565b610d7e611b21565b6001600160a01b038216610dbe576040517fd92e233d00000000000000000000000000000000000000000000000000000000815260040160405180910390fd5b80600003610df8576040517f1f2a200500000000000000000000000000000000000000000000000000000000815260040160405180910390fd5b6000826001600160a01b03168260405160006040518083038185875af1925050503d8060008114610e45576040519150601f19603f3d011682016040523d82523d6000602084013e610e4a565b606091505b5050905080610c1b576040517f90b8ec1800000000000000000000000000000000000000000000000000000000815260040160405180910390fd5b610e8d611b21565b6001600160a01b038216610ecd576040517fd92e233d00000000000000000000000000000000000000000000000000000000815260040160405180910390fd5b80600003610f07576040517f1f2a200500000000000000000000000000000000000000000000000000000000815260040160405180910390fd5b6040517fa9059cbb0000000000000000000000000000000000000000000000000000000081526001600160a01b038381166004830152602482018390527f0000000000000000000000000000000000000000000000000000000000000000919082169063a9059cbb906044016020604051808303816000875af1158015610f92573d6000803e3d6000fd5b505050506040513d601f19601f82011682018060405250810190610fb69190612d65565b1515600003610c1b576040517f90b8ec1800000000000000000000000000000000000000000000000000000000815260040160405180910390fd5b6000818152600260205260409020546001600160a01b03163314611041576040517f16bea89400000000000000000000000000000000000000000000000000000000815260040160405180910390fd5b61104a81611b97565b60095460405160009133918381818185875af1925050503d806000811461108d576040519150601f19603f3d011682016040523d82523d6000602084013e611092565b606091505b50509050806110cd576040517f90b8ec1800000000000000000000000000000000000000000000000000000000815260040160405180910390fd5b60408051338152602081018490527fe67bffe95663d01ae462a2e747de3f59667442026226e1ff426a25bfe4b81fb391015b60405180910390a15050565b600061075682611799565b60006001600160a01b03821661115b576040517f89c62b64000000000000000000000000000000000000000000000000000000008152600060048201526024016108b4565b506001600160a01b031660009081526003602052604090205490565b6000818152600260205260408120546001600160a01b031633146111c7576040517f16bea89400000000000000000000000000000000000000000000000000000000815260040160405180910390fd5b6000828152600c602052604090205442811115611210576040517f53ea709100000000000000000000000000000000000000000000000000000000815260040160405180910390fd5b61121d6203f48082612d3b565b4211156112325761122d83611bf7565b6114cc565b611242620493e060036002611c50565b6040517f4306d354000000000000000000000000000000000000000000000000000000008152620493e060048201529092507f0000000000000000000000000000000000000000000000000000000000000000906000907f00000000000000000000000000000000000000000000000000000000000000006001600160a01b031690634306d35490602401602060405180830381865afa1580156112ea573d6000803e3d6000fd5b505050506040513d601f19601f8201168201806040525081019061130e9190612c4a565b6040517f70a082310000000000000000000000000000000000000000000000000000000081523060048201529091506000906001600160a01b038416906370a0823190602401602060405180830381865afa158015611371573d6000803e3d6000fd5b505050506040513d601f19601f820116820180604052508101906113959190612c4a565b9050818110156113db576040517f03eb8b5400000000000000000000000000000000000000000000000000000000815260048101829052602481018390526044016108b4565b6040805160608101825283815260006020808301828152845180860186523381528083018c90528486019081528a8452600d83529285902093518455516001840180547fffffffffffffffffffffffffffffffffffffffffffffffffffffffffffffff0016911515919091179055905180516002840180547fffffffffffffffffffffffff0000000000000000000000000000000000000000166001600160a01b0390921691909117905581015160039092019190915581518781529081018490527f03bdba022a54045a6998cc489ac4b9dc1de59e776f960b46f69f44fe7676927d910160405180910390a15050505b50919050565b6007546001600160a01b03163314611546576040517f08c379a000000000000000000000000000000000000000000000000000000000815260206004820152601660248201527f4d7573742062652070726f706f736564206f776e65720000000000000000000060448201526064016108b4565b600680547fffffffffffffffffffffffff0000000000000000000000000000000000000000808216339081179093556007805490911690556040516001600160a01b03909116919082907f8be0079c531659141344cd1fd0a4f28419497f9722a3daafe3b4186f6b6457e090600090a350565b6115c161278d565b506000908152600d6020908152604091829020825160608101845281548152600182015460ff161515818401528351808501855260028301546001600160a01b03168152600390920154928201929092529181019190915290565b60606001805461076b90612bfd565b610822338383611e4a565b6116418484846108c7565b61097e84848484611f20565b606061165882611799565b50600061167060408051602081019091526000815290565b9050600081511161169057604051806020016040528060008152506116bb565b8061169a846120e3565b6040516020016116ab929190612d82565b6040516020818303038152906040525b9392505050565b6116ca611b21565b8115806116d5575080155b1561170c576040517f1f2a200500000000000000000000000000000000000000000000000000000000815260040160405180910390fd5b818110611745576040517f28cf0d4c00000000000000000000000000000000000000000000000000000000815260040160405180910390fd5b6008829055600981905560408051838152602081018390527f6546f60f34df611fa42503098acc39d5ab88bc73febe64b3cc14e5a92e3a66a791016110ff565b61178d611b21565b611796816121a1565b50565b6000818152600260205260408120546001600160a01b031680610756576040517f7e273289000000000000000000000000000000000000000000000000000000008152600481018490526024016108b4565b610c1b838383600161227d565b6000828152600d602052604081208054909103611844576040517f4ec726c7000000000000000000000000000000000000000000000000000000008152600481018490526024016108b4565b600181810180547fffffffffffffffffffffffffffffffffffffffffffffffffffffffffffffff0016909117905580546040805185815260208101929092527fbd03fc99dbe54c7b82300ba22cb10a54cde8d793ba3d99933518fe8ad46723e1910160405180910390a16000600a836000815181106118c5576118c5612cdd565b60200260200101516118d79190612db1565b6118e2906001612d3b565b90506000600a6118f28382612d4e565b6118fc9190612cca565b6040805180820190915260028501546001600160a01b0316808252600386015460208301819052875193945091926119539290869086908a90600190811061194657611946612cdd565b60200260200101516123d3565b505050505050565b6000828152600260205260408120546001600160a01b03908116908316156119885761198881848661253e565b6001600160a01b038116156119e4576119a560008560008061227d565b6001600160a01b038116600090815260036020526040902080547fffffffffffffffffffffffffffffffffffffffffffffffffffffffffffffffff0190555b6001600160a01b03851615611a13576001600160a01b0385166000908152600360205260409020805460010190555b60008481526002602052604080822080547fffffffffffffffffffffffff0000000000000000000000000000000000000000166001600160a01b0389811691821790925591518793918516917fddf252ad1be2c89b69c2b068fc378daa952ba7f163c4a11628f55a4df523b3ef91a4949350505050565b6001600160a01b038216611acd576040517f64a0ae92000000000000000000000000000000000000000000000000000000008152600060048201526024016108b4565b6000611adb8383600061195b565b90506001600160a01b03811615610c1b576040517f73c6ac6e000000000000000000000000000000000000000000000000000000008152600060048201526024016108b4565b6006546001600160a01b03163314611b95576040517f08c379a000000000000000000000000000000000000000000000000000000000815260206004820152601660248201527f4f6e6c792063616c6c61626c65206279206f776e65720000000000000000000060448201526064016108b4565b565b611ba0816125d4565b600a8054906000611bb083612dec565b90915550506000818152600c60205260408120819055600b805460018101825591527f0175b7a638427703f0dbe7bb9bbf987a2551717b34e79f33b5b1008d1fa01db90155565b6000611c0561025842612d3b565b6000838152600c602090815260409182902083905581518581529081018390529192507f47fe2b07cdc878aa5c25511db2d5ce596c91cc281fee8c41a0800e7a70a8e1ad91016110ff565b6040517f4306d35400000000000000000000000000000000000000000000000000000000815263ffffffff841660048201526000906001600160a01b037f0000000000000000000000000000000000000000000000000000000000000000811691634000aea0917f00000000000000000000000000000000000000000000000000000000000000009190821690634306d35490602401602060405180830381865afa158015611d03573d6000803e3d6000fd5b505050506040513d601f19601f82011682018060405250810190611d279190612c4a565b6040805163ffffffff808b16602083015261ffff8a169282019290925290871660608201526080016040516020818303038152906040526040518463ffffffff1660e01b8152600401611d7c93929190612e21565b6020604051808303816000875af1158015611d9b573d6000803e3d6000fd5b505050506040513d601f19601f82011682018060405250810190611dbf9190612d65565b507f00000000000000000000000000000000000000000000000000000000000000006001600160a01b031663fc2a88c36040518163ffffffff1660e01b8152600401602060405180830381865afa158015611e1e573d6000803e3d6000fd5b505050506040513d601f19601f82011682018060405250810190611e429190612c4a565b949350505050565b6001600160a01b038216611e95576040517f5b08ba180000000000000000000000000000000000000000000000000000000081526001600160a01b03831660048201526024016108b4565b6001600160a01b0383811660008181526005602090815260408083209487168084529482529182902080547fffffffffffffffffffffffffffffffffffffffffffffffffffffffffffffff001686151590811790915591519182527f17307eab39ab6107e8899845ad3d59bd9653f200f220920489ca2b5937696c31910160405180910390a3505050565b6001600160a01b0383163b1561097e576040517f150b7a020000000000000000000000000000000000000000000000000000000081526001600160a01b0384169063150b7a0290611f7b903390889087908790600401612e52565b6020604051808303816000875af1925050508015611fd4575060408051601f3d9081017fffffffffffffffffffffffffffffffffffffffffffffffffffffffffffffffe0168201909252611fd191810190612e8e565b60015b612056573d808015612002576040519150601f19603f3d011682016040523d82523d6000602084013e612007565b606091505b50805160000361204e576040517f64a0ae920000000000000000000000000000000000000000000000000000000081526001600160a01b03851660048201526024016108b4565b805181602001fd5b7fffffffff0000000000000000000000000000000000000000000000000000000081167f150b7a0200000000000000000000000000000000000000000000000000000000146120dc576040517f64a0ae920000000000000000000000000000000000000000000000000000000081526001600160a01b03851660048201526024016108b4565b5050505050565b606060006120f083612628565b600101905060008167ffffffffffffffff811115612110576121106128fe565b6040519080825280601f01601f19166020018201604052801561213a576020820181803683370190505b5090508181016020015b7fffffffffffffffffffffffffffffffffffffffffffffffffffffffffffffffff017f3031323334353637383961626364656600000000000000000000000000000000600a86061a8153600a850494508461214457509392505050565b336001600160a01b03821603612213576040517f08c379a000000000000000000000000000000000000000000000000000000000815260206004820152601760248201527f43616e6e6f74207472616e7366657220746f2073656c6600000000000000000060448201526064016108b4565b600780547fffffffffffffffffffffffff0000000000000000000000000000000000000000166001600160a01b03838116918217909255600654604051919216907fed8889f560326eb138920d842192f0eb3dd22b4f139c87a2c57538e05bae127890600090a350565b808061229157506001600160a01b03821615155b1561238b5760006122a184611799565b90506001600160a01b038316158015906122cd5750826001600160a01b0316816001600160a01b031614155b80156122ff57506001600160a01b0380821660009081526005602090815260408083209387168352929052205460ff16155b15612341576040517fa9fbf51f0000000000000000000000000000000000000000000000000000000081526001600160a01b03841660048201526024016108b4565b81156123895783856001600160a01b0316826001600160a01b03167f8c5be1e5ebec7d5bd14f71427d1e84f3dd0314c0f7b2291e5b200ac8c7c3b92560405160405180910390a45b505b5050600090815260046020526040902080547fffffffffffffffffffffffff0000000000000000000000000000000000000000166001600160a01b0392909216919091179055565b600080806123e2606485612db1565b905060005b868160ff1610156124d3576040517f40c10f190000000000000000000000000000000000000000000000000000000081526001600160a01b038a81166004830152600160248301527f000000000000000000000000000000000000000000000000000000000000000016906340c10f1990604401600060405180830381600087803b15801561247557600080fd5b505af1158015612489573d6000803e3d6000fd5b50505050838061249890612c92565b9450508582116124b457600192506124af88611b97565b6124d3565b816124be81612dec565b925050806124cb81612eab565b9150506123e7565b50816124e2576124e287611bf7565b604080516001600160a01b038a1681526020810189905290810184905282151560608201527f35c2aefc1515b62d05210ad6bb893701bf76878cdd0221a726a236663bdfd5449060800160405180910390a15050505050505050565b61254983838361270a565b610c1b576001600160a01b038316612590576040517f7e273289000000000000000000000000000000000000000000000000000000008152600481018290526024016108b4565b6040517f177e802f0000000000000000000000000000000000000000000000000000000081526001600160a01b0383166004820152602481018290526044016108b4565b60006125e3600083600061195b565b90506001600160a01b038116610822576040517f7e273289000000000000000000000000000000000000000000000000000000008152600481018390526024016108b4565b6000807a184f03e93ff9f4daa797ed6e38ed64bf6a1f0100000000000000008310612671577a184f03e93ff9f4daa797ed6e38ed64bf6a1f010000000000000000830492506040015b6d04ee2d6d415b85acef8100000000831061269d576d04ee2d6d415b85acef8100000000830492506020015b662386f26fc1000083106126bb57662386f26fc10000830492506010015b6305f5e10083106126d3576305f5e100830492506008015b61271083106126e757612710830492506004015b606483106126f9576064830492506002015b600a83106107565760010192915050565b60006001600160a01b03831615801590611e425750826001600160a01b0316846001600160a01b0316148061276457506001600160a01b0380851660009081526005602090815260408083209387168352929052205460ff165b80611e425750506000908152600460205260409020546001600160a01b03908116911614919050565b6040518060600160405280600081526020016000151581526020016127ce604051806040016040528060006001600160a01b03168152602001600081525090565b905290565b7fffffffff000000000000000000000000000000000000000000000000000000008116811461179657600080fd5b60006020828403121561281357600080fd5b81356116bb816127d3565b60005b83811015612839578181015183820152602001612821565b50506000910152565b6000815180845261285a81602086016020860161281e565b601f017fffffffffffffffffffffffffffffffffffffffffffffffffffffffffffffffe0169290920160200192915050565b6020815260006116bb6020830184612842565b6000602082840312156128b157600080fd5b5035919050565b80356001600160a01b03811681146128cf57600080fd5b919050565b600080604083850312156128e757600080fd5b6128f0836128b8565b946020939093013593505050565b7f4e487b7100000000000000000000000000000000000000000000000000000000600052604160045260246000fd5b604051601f82017fffffffffffffffffffffffffffffffffffffffffffffffffffffffffffffffe016810167ffffffffffffffff81118282101715612974576129746128fe565b604052919050565b6000806040838503121561298f57600080fd5b8235915060208084013567ffffffffffffffff808211156129af57600080fd5b818601915086601f8301126129c357600080fd5b8135818111156129d5576129d56128fe565b8060051b91506129e684830161292d565b8181529183018401918481019089841115612a0057600080fd5b938501935b83851015612a1e57843582529385019390850190612a05565b8096505050505050509250929050565b600080600060608486031215612a4357600080fd5b612a4c846128b8565b9250612a5a602085016128b8565b9150604084013590509250925092565b600060208284031215612a7c57600080fd5b6116bb826128b8565b801515811461179657600080fd5b60008060408385031215612aa657600080fd5b612aaf836128b8565b91506020830135612abf81612a85565b809150509250929050565b60008060008060808587031215612ae057600080fd5b612ae9856128b8565b93506020612af88187016128b8565b935060408601359250606086013567ffffffffffffffff80821115612b1c57600080fd5b818801915088601f830112612b3057600080fd5b813581811115612b4257612b426128fe565b612b72847fffffffffffffffffffffffffffffffffffffffffffffffffffffffffffffffe0601f8401160161292d565b91508082528984828501011115612b8857600080fd5b808484018584013760008482840101525080935050505092959194509250565b60008060408385031215612bbb57600080fd5b612bc4836128b8565b9150612bd2602084016128b8565b90509250929050565b60008060408385031215612bee57600080fd5b50508035926020909101359150565b600181811c90821680612c1157607f821691505b6020821081036114cc577f4e487b7100000000000000000000000000000000000000000000000000000000600052602260045260246000fd5b600060208284031215612c5c57600080fd5b5051919050565b7f4e487b7100000000000000000000000000000000000000000000000000000000600052601160045260246000fd5b60007fffffffffffffffffffffffffffffffffffffffffffffffffffffffffffffffff8203612cc357612cc3612c63565b5060010190565b8181038181111561075657610756612c63565b7f4e487b7100000000000000000000000000000000000000000000000000000000600052603260045260246000fd5b7f4e487b7100000000000000000000000000000000000000000000000000000000600052603160045260246000fd5b8082018082111561075657610756612c63565b808202811582820484141761075657610756612c63565b600060208284031215612d7757600080fd5b81516116bb81612a85565b60008351612d9481846020880161281e565b835190830190612da881836020880161281e565b01949350505050565b600082612de7577f4e487b7100000000000000000000000000000000000000000000000000000000600052601260045260246000fd5b500690565b600081612dfb57612dfb612c63565b507fffffffffffffffffffffffffffffffffffffffffffffffffffffffffffffffff0190565b6001600160a01b0384168152826020820152606060408201526000612e496060830184612842565b95945050505050565b60006001600160a01b03808716835280861660208401525083604083015260806060830152612e846080830184612842565b9695505050505050565b600060208284031215612ea057600080fd5b81516116bb816127d3565b600060ff821660ff8103612ec157612ec1612c63565b6001019291505056fea26469706673582212209128efccdca4e6659bd102d8f36008383489cc8b9d3275f645ded79b45a2f11a64736f6c63430008140033","linkReferences":{}},"methodIdentifiers":{"MAX_EGGS_TO_LAY()":"1d292ef1","OVIPOSITION_DELAY()":"2d577eef","PREOVIPOSITION_PERIOD()":"538795d5","acceptOwnership()":"79ba5097","approve(address,uint256)":"095ea7b3","balanceOf(address)":"70a08231","buyEggs(uint256)":"4fd53596","createAnt()":"2e61a7bf","eggs()":"e33f76cf","getAntPrice()":"248452bd","getAntsCreated()":"3d871229","getApproved(uint256)":"081812fc","getEggPrice()":"514b1570","getOvipositionPeriod(uint256)":"e5f9598c","getOvipositionRequest(uint256)":"86f47873","isApprovedForAll(address,address)":"e985e9c5","name()":"06fdde03","owner()":"8da5cb5b","ownerOf(uint256)":"6352211e","rawFulfillRandomWords(uint256,uint256[])":"1fe543e3","safeTransferFrom(address,address,uint256)":"42842e0e","safeTransferFrom(address,address,uint256,bytes)":"b88d4fde","sellAnt(uint256)":"61dcb054","setApprovalForAll(address,bool)":"a22cb465","startOviposition(uint256)":"73edb143","supportsInterface(bytes4)":"01ffc9a7","symbol()":"95d89b41","tokenURI(uint256)":"c87b56dd","transferFrom(address,address,uint256)":"23b872dd","transferOwnership(address)":"f2fde38b","updatePrices(uint256,uint256)":"ef88d7f0","withdrawEther(address,uint256)":"522f6815","withdrawLink(address,uint256)":"54b7faae"},"id":111}