{"abi":[{"type":"constructor","inputs":[{"name":"_eggs","type":"address","internalType":"address"},{"name":"_governance","type":"address","internalType":"address"},{"name":"_linkAddress","type":"address","internalType":"address"},{"name":"_wrapperAddress","type":"address","internalType":"address"}],"stateMutability":"nonpayable"},{"type":"function","name":"MAX_EGGS_TO_LAY","inputs":[],"outputs":[{"name":"","type":"uint256","internalType":"uint256"}],"stateMutability":"view"},{"type":"function","name":"OVIPOSITION_DURATION","inputs":[],"outputs":[{"name":"","type":"uint256","internalType":"uint256"}],"stateMutability":"view"},{"type":"function","name":"PREOVIPOSITION_PERIOD","inputs":[],"outputs":[{"name":"","type":"uint256","internalType":"uint256"}],"stateMutability":"view"},{"type":"function","name":"acceptOwnership","inputs":[],"outputs":[],"stateMutability":"nonpayable"},{"type":"function","name":"approve","inputs":[{"name":"to","type":"address","internalType":"address"},{"name":"tokenId","type":"uint256","internalType":"uint256"}],"outputs":[],"stateMutability":"nonpayable"},{"type":"function","name":"balanceOf","inputs":[{"name":"owner","type":"address","internalType":"address"}],"outputs":[{"name":"","type":"uint256","internalType":"uint256"}],"stateMutability":"view"},{"type":"function","name":"buyEggs","inputs":[{"name":"_amount","type":"uint256","internalType":"uint256"}],"outputs":[],"stateMutability":"payable"},{"type":"function","name":"createAnt","inputs":[],"outputs":[{"name":"_antId","type":"uint256","internalType":"uint256"}],"stateMutability":"nonpayable"},{"type":"function","name":"eggs","inputs":[],"outputs":[{"name":"","type":"address","internalType":"contract IEgg"}],"stateMutability":"view"},{"type":"function","name":"getAntPrice","inputs":[],"outputs":[{"name":"","type":"uint256","internalType":"uint256"}],"stateMutability":"view"},{"type":"function","name":"getAntsCreated","inputs":[],"outputs":[{"name":"","type":"uint256","internalType":"uint256"}],"stateMutability":"view"},{"type":"function","name":"getApproved","inputs":[{"name":"tokenId","type":"uint256","internalType":"uint256"}],"outputs":[{"name":"","type":"address","internalType":"address"}],"stateMutability":"view"},{"type":"function","name":"getEggPrice","inputs":[],"outputs":[{"name":"","type":"uint256","internalType":"uint256"}],"stateMutability":"view"},{"type":"function","name":"getOvipositionPeriod","inputs":[{"name":"_antId","type":"uint256","internalType":"uint256"}],"outputs":[{"name":"ovipositionPeriod","type":"uint256","internalType":"uint256"}],"stateMutability":"view"},{"type":"function","name":"getOvipositionRequest","inputs":[{"name":"_requestId","type":"uint256","internalType":"uint256"}],"outputs":[{"name":"","type":"tuple","internalType":"struct ICryptoAnts.OvipositionRequest","components":[{"name":"paid","type":"uint256","internalType":"uint256"},{"name":"fulfilled","type":"bool","internalType":"bool"},{"name":"ant","type":"tuple","internalType":"struct ICryptoAnts.Ant","components":[{"name":"owner","type":"address","internalType":"address"},{"name":"id","type":"uint256","internalType":"uint256"}]}]}],"stateMutability":"view"},{"type":"function","name":"isApprovedForAll","inputs":[{"name":"owner","type":"address","internalType":"address"},{"name":"operator","type":"address","internalType":"address"}],"outputs":[{"name":"","type":"bool","internalType":"bool"}],"stateMutability":"view"},{"type":"function","name":"name","inputs":[],"outputs":[{"name":"","type":"string","internalType":"string"}],"stateMutability":"view"},{"type":"function","name":"owner","inputs":[],"outputs":[{"name":"","type":"address","internalType":"address"}],"stateMutability":"view"},{"type":"function","name":"ownerOf","inputs":[{"name":"tokenId","type":"uint256","internalType":"uint256"}],"outputs":[{"name":"","type":"address","internalType":"address"}],"stateMutability":"view"},{"type":"function","name":"rawFulfillRandomWords","inputs":[{"name":"_requestId","type":"uint256","internalType":"uint256"},{"name":"_randomWords","type":"uint256[]","internalType":"uint256[]"}],"outputs":[],"stateMutability":"nonpayable"},{"type":"function","name":"safeTransferFrom","inputs":[{"name":"from","type":"address","internalType":"address"},{"name":"to","type":"address","internalType":"address"},{"name":"tokenId","type":"uint256","internalType":"uint256"}],"outputs":[],"stateMutability":"nonpayable"},{"type":"function","name":"safeTransferFrom","inputs":[{"name":"from","type":"address","internalType":"address"},{"name":"to","type":"address","internalType":"address"},{"name":"tokenId","type":"uint256","internalType":"uint256"},{"name":"data","type":"bytes","internalType":"bytes"}],"outputs":[],"stateMutability":"nonpayable"},{"type":"function","name":"sellAnt","inputs":[{"name":"_antId","type":"uint256","internalType":"uint256"}],"outputs":[],"stateMutability":"nonpayable"},{"type":"function","name":"setApprovalForAll","inputs":[{"name":"operator","type":"address","internalType":"address"},{"name":"approved","type":"bool","internalType":"bool"}],"outputs":[],"stateMutability":"nonpayable"},{"type":"function","name":"startOviposition","inputs":[{"name":"_antId","type":"uint256","internalType":"uint256"}],"outputs":[{"name":"requestId","type":"uint256","internalType":"uint256"}],"stateMutability":"nonpayable"},{"type":"function","name":"supportsInterface","inputs":[{"name":"interfaceId","type":"bytes4","internalType":"bytes4"}],"outputs":[{"name":"","type":"bool","internalType":"bool"}],"stateMutability":"view"},{"type":"function","name":"symbol","inputs":[],"outputs":[{"name":"","type":"string","internalType":"string"}],"stateMutability":"view"},{"type":"function","name":"tokenURI","inputs":[{"name":"tokenId","type":"uint256","internalType":"uint256"}],"outputs":[{"name":"","type":"string","internalType":"string"}],"stateMutability":"view"},{"type":"function","name":"transferFrom","inputs":[{"name":"from","type":"address","internalType":"address"},{"name":"to","type":"address","internalType":"address"},{"name":"tokenId","type":"uint256","internalType":"uint256"}],"outputs":[],"stateMutability":"nonpayable"},{"type":"function","name":"transferOwnership","inputs":[{"name":"to","type":"address","internalType":"address"}],"outputs":[],"stateMutability":"nonpayable"},{"type":"function","name":"updatePrices","inputs":[{"name":"_newEggPrice","type":"uint256","internalType":"uint256"},{"name":"_newAntPrice","type":"uint256","internalType":"uint256"}],"outputs":[],"stateMutability":"nonpayable"},{"type":"function","name":"withdrawEther","inputs":[{"name":"_recipient","type":"address","internalType":"address payable"},{"name":"_amount","type":"uint256","internalType":"uint256"}],"outputs":[],"stateMutability":"nonpayable"},{"type":"function","name":"withdrawLink","inputs":[{"name":"_recipient","type":"address","internalType":"address"},{"name":"_amount","type":"uint256","internalType":"uint256"}],"outputs":[],"stateMutability":"nonpayable"},{"type":"event","name":"AntCreated","inputs":[{"name":"owner","type":"address","indexed":false,"internalType":"address"},{"name":"antId","type":"uint256","indexed":false,"internalType":"uint256"},{"name":"ovipositionPeriod","type":"uint256","indexed":false,"internalType":"uint256"}],"anonymous":false},{"type":"event","name":"AntSold","inputs":[{"name":"owner","type":"address","indexed":false,"internalType":"address"},{"name":"antId","type":"uint256","indexed":false,"internalType":"uint256"},{"name":"price","type":"uint256","indexed":false,"internalType":"uint256"}],"anonymous":false},{"type":"event","name":"Approval","inputs":[{"name":"owner","type":"address","indexed":true,"internalType":"address"},{"name":"approved","type":"address","indexed":true,"internalType":"address"},{"name":"tokenId","type":"uint256","indexed":true,"internalType":"uint256"}],"anonymous":false},{"type":"event","name":"ApprovalForAll","inputs":[{"name":"owner","type":"address","indexed":true,"internalType":"address"},{"name":"operator","type":"address","indexed":true,"internalType":"address"},{"name":"approved","type":"bool","indexed":false,"internalType":"bool"}],"anonymous":false},{"type":"event","name":"EggsBought","inputs":[{"name":"owner","type":"address","indexed":false,"internalType":"address"},{"name":"amount","type":"uint256","indexed":false,"internalType":"uint256"}],"anonymous":false},{"type":"event","name":"EggsLaid","inputs":[{"name":"owner","type":"address","indexed":false,"internalType":"address"},{"name":"antId","type":"uint256","indexed":false,"internalType":"uint256"},{"name":"eggsFertilized","type":"uint256","indexed":false,"internalType":"uint256"},{"name":"eggsLaid","type":"uint256","indexed":false,"internalType":"uint256"},{"name":"isAntDead","type":"bool","indexed":false,"internalType":"bool"}],"anonymous":false},{"type":"event","name":"OvipositionPeriodReset","inputs":[{"name":"antId","type":"uint256","indexed":false,"internalType":"uint256"},{"name":"ovipositionPeriod","type":"uint256","indexed":false,"internalType":"uint256"}],"anonymous":false},{"type":"event","name":"OvipositionRequestFulfilled","inputs":[{"name":"requestId","type":"uint256","indexed":false,"internalType":"uint256"},{"name":"paid","type":"uint256","indexed":false,"internalType":"uint256"}],"anonymous":false},{"type":"event","name":"OvipositionRequested","inputs":[{"name":"requestId","type":"uint256","indexed":false,"internalType":"uint256"},{"name":"paid","type":"uint256","indexed":false,"internalType":"uint256"}],"anonymous":false},{"type":"event","name":"OwnershipTransferRequested","inputs":[{"name":"from","type":"address","indexed":true,"internalType":"address"},{"name":"to","type":"address","indexed":true,"internalType":"address"}],"anonymous":false},{"type":"event","name":"OwnershipTransferred","inputs":[{"name":"from","type":"address","indexed":true,"internalType":"address"},{"name":"to","type":"address","indexed":true,"internalType":"address"}],"anonymous":false},{"type":"event","name":"PricesUpdated","inputs":[{"name":"newEggPrice","type":"uint256","indexed":false,"internalType":"uint256"},{"name":"newAntPrice","type":"uint256","indexed":false,"internalType":"uint256"}],"anonymous":false},{"type":"event","name":"Transfer","inputs":[{"name":"from","type":"address","indexed":true,"internalType":"address"},{"name":"to","type":"address","indexed":true,"internalType":"address"},{"name":"tokenId","type":"uint256","indexed":true,"internalType":"uint256"}],"anonymous":false},{"type":"error","name":"AntPriceMustBeLessThanEggPrice","inputs":[]},{"type":"error","name":"ERC721IncorrectOwner","inputs":[{"name":"sender","type":"address","internalType":"address"},{"name":"tokenId","type":"uint256","internalType":"uint256"},{"name":"owner","type":"address","internalType":"address"}]},{"type":"error","name":"ERC721InsufficientApproval","inputs":[{"name":"operator","type":"address","internalType":"address"},{"name":"tokenId","type":"uint256","internalType":"uint256"}]},{"type":"error","name":"ERC721InvalidApprover","inputs":[{"name":"approver","type":"address","internalType":"address"}]},{"type":"error","name":"ERC721InvalidOperator","inputs":[{"name":"operator","type":"address","internalType":"address"}]},{"type":"error","name":"ERC721InvalidOwner","inputs":[{"name":"owner","type":"address","internalType":"address"}]},{"type":"error","name":"ERC721InvalidReceiver","inputs":[{"name":"receiver","type":"address","internalType":"address"}]},{"type":"error","name":"ERC721InvalidSender","inputs":[{"name":"sender","type":"address","internalType":"address"}]},{"type":"error","name":"ERC721NonexistentToken","inputs":[{"name":"tokenId","type":"uint256","internalType":"uint256"}]},{"type":"error","name":"InsufficientBalance","inputs":[]},{"type":"error","name":"InsufficientFunds","inputs":[{"name":"balance","type":"uint256","internalType":"uint256"},{"name":"paid","type":"uint256","internalType":"uint256"}]},{"type":"error","name":"NoEggs","inputs":[]},{"type":"error","name":"NotAntOwner","inputs":[]},{"type":"error","name":"PreOvipositionPeriod","inputs":[]},{"type":"error","name":"RequestNotFound","inputs":[{"name":"requestId","type":"uint256","internalType":"uint256"}]},{"type":"error","name":"TransferFailed","inputs":[]},{"type":"error","name":"WrongEtherSent","inputs":[]},{"type":"error","name":"ZeroAddress","inputs":[]},{"type":"error","name":"ZeroAmount","inputs":[]}],"bytecode":{"object":"0x610100604052662386f26fc10000600855660e35fa931a00006009556000600a553480156200002d57600080fd5b50604051620033cd380380620033cd83398101604081905262000050916200023c565b8280600084846040518060400160405280600b81526020016a43727970746f20416e747360a81b81525060405180604001604052806004815260200163414e545360e01b8152508160009081620000a891906200033e565b506001620000b782826200033e565b5050506001600160a01b03918216608052811660a0528216620001215760405162461bcd60e51b815260206004820152601860248201527f43616e6e6f7420736574206f776e657220746f207a65726f000000000000000060448201526064015b60405180910390fd5b600680546001600160a01b0319166001600160a01b03848116919091179091558116156200015457620001548162000173565b5050506001600160a01b0393841660c0525090911660e052506200040a565b336001600160a01b03821603620001cd5760405162461bcd60e51b815260206004820152601760248201527f43616e6e6f74207472616e7366657220746f2073656c66000000000000000000604482015260640162000118565b600780546001600160a01b0319166001600160a01b03838116918217909255600654604051919216907fed8889f560326eb138920d842192f0eb3dd22b4f139c87a2c57538e05bae127890600090a350565b80516001600160a01b03811681146200023757600080fd5b919050565b600080600080608085870312156200025357600080fd5b6200025e856200021f565b93506200026e602086016200021f565b92506200027e604086016200021f565b91506200028e606086016200021f565b905092959194509250565b634e487b7160e01b600052604160045260246000fd5b600181811c90821680620002c457607f821691505b602082108103620002e557634e487b7160e01b600052602260045260246000fd5b50919050565b601f8211156200033957600081815260208120601f850160051c81016020861015620003145750805b601f850160051c820191505b81811015620003355782815560010162000320565b5050505b505050565b81516001600160401b038111156200035a576200035a62000299565b62000372816200036b8454620002af565b84620002eb565b602080601f831160018114620003aa5760008415620003915750858301515b600019600386901b1c1916600185901b17855562000335565b600085815260208120601f198616915b82811015620003db57888601518255948401946001909101908401620003ba565b5085821015620003fa5787850151600019600388901b60f8161c191681555b5050505050600190811b01905550565b60805160a05160c05160e051612f516200047c60003960008181610f8001526112b001526000818161059f015281816109c001528181610b2a01528181610cd50152612486015260008181610831015281816112d501528181611d0e0152611e1701526000611ce40152612f516000f3fe6080604052600436106101fe5760003560e01c806361dcb0541161011d57806395d89b41116100b0578063e33f76cf1161007f578063e985e9c511610064578063e985e9c5146105ee578063ef88d7f014610637578063f2fde38b1461065757600080fd5b8063e33f76cf1461058d578063e5f9598c146105c157600080fd5b806395d89b4114610518578063a22cb4651461052d578063b88d4fde1461054d578063c87b56dd1461056d57600080fd5b806379ba5097116100ec57806379ba50971461047457806386f47873146104895780638da5cb5b146104e357806394dc02ea1461050157600080fd5b806361dcb054146103f45780636352211e1461041457806370a082311461043457806373edb1431461045457600080fd5b80632e61a7bf11610195578063514b157011610164578063514b157014610389578063522f68151461039e578063538795d5146103be57806354b7faae146103d457600080fd5b80632e61a7bf1461032c5780633d8712291461034157806342842e0e146103565780634fd535961461037657600080fd5b80631d292ef1116101d15780631d292ef1146102b45780631fe543e3146102d757806323b872dd146102f7578063248452bd1461031757600080fd5b806301ffc9a71461020357806306fdde0314610238578063081812fc1461025a578063095ea7b314610292575b600080fd5b34801561020f57600080fd5b5061022361021e36600461284f565b610677565b60405190151581526020015b60405180910390f35b34801561024457600080fd5b5061024d61075c565b60405161022f91906128da565b34801561026657600080fd5b5061027a6102753660046128ed565b6107ee565b6040516001600160a01b03909116815260200161022f565b34801561029e57600080fd5b506102b26102ad36600461291b565b610817565b005b3480156102c057600080fd5b506102c9600a81565b60405190815260200161022f565b3480156102e357600080fd5b506102b26102f23660046129c5565b610826565b34801561030357600080fd5b506102b2610312366004612a77565b6108c7565b34801561032357600080fd5b506009546102c9565b34801561033857600080fd5b506102c9610984565b34801561034d57600080fd5b50600a546102c9565b34801561036257600080fd5b506102b2610371366004612a77565b610c00565b6102b26103843660046128ed565b610c20565b34801561039557600080fd5b506008546102c9565b3480156103aa57600080fd5b506102b26103b936600461291b565b610d76565b3480156103ca57600080fd5b506102c961025881565b3480156103e057600080fd5b506102b26103ef36600461291b565b610ebf565b34801561040057600080fd5b506102b261040f3660046128ed565b61102b565b34801561042057600080fd5b5061027a61042f3660046128ed565b61114f565b34801561044057600080fd5b506102c961044f366004612ab8565b61115a565b34801561046057600080fd5b506102c961046f3660046128ed565b6111bb565b34801561048057600080fd5b506102b261151f565b34801561049557600080fd5b506104a96104a43660046128ed565b611606565b60408051825181526020808401511515818301529282015180516001600160a01b031692820192909252910151606082015260800161022f565b3480156104ef57600080fd5b506006546001600160a01b031661027a565b34801561050d57600080fd5b506102c96203f48081565b34801561052457600080fd5b5061024d611669565b34801561053957600080fd5b506102b2610548366004612ae3565b611678565b34801561055957600080fd5b506102b2610568366004612b1c565b611683565b34801561057957600080fd5b5061024d6105883660046128ed565b61169a565b34801561059957600080fd5b5061027a7f000000000000000000000000000000000000000000000000000000000000000081565b3480156105cd57600080fd5b506102c96105dc3660046128ed565b6000908152600c602052604090205490565b3480156105fa57600080fd5b50610223610609366004612bfe565b6001600160a01b03918216600090815260056020908152604080832093909416825291909152205460ff1690565b34801561064357600080fd5b506102b2610652366004612c2c565b61170f565b34801561066357600080fd5b506102b2610672366004612ab8565b6117da565b60007fffffffff0000000000000000000000000000000000000000000000000000000082167f80ac58cd00000000000000000000000000000000000000000000000000000000148061070a57507fffffffff0000000000000000000000000000000000000000000000000000000082167f5b5e139f00000000000000000000000000000000000000000000000000000000145b8061075657507f01ffc9a7000000000000000000000000000000000000000000000000000000007fffffffff000000000000000000000000000000000000000000000000000000008316145b92915050565b60606000805461076b90612c4e565b80601f016020809104026020016040519081016040528092919081815260200182805461079790612c4e565b80156107e45780601f106107b9576101008083540402835291602001916107e4565b820191906000526020600020905b8154815290600101906020018083116107c757829003601f168201915b5050505050905090565b60006107f9826117ee565b506000828152600460205260409020546001600160a01b0316610756565b610822828233611840565b5050565b336001600160a01b037f000000000000000000000000000000000000000000000000000000000000000016146108bd576040517f08c379a000000000000000000000000000000000000000000000000000000000815260206004820152601f60248201527f6f6e6c792056524620563220777261707065722063616e2066756c66696c6c0060448201526064015b60405180910390fd5b610822828261184d565b6001600160a01b03821661090a576040517f64a0ae92000000000000000000000000000000000000000000000000000000008152600060048201526024016108b4565b60006109178383336119b0565b9050836001600160a01b0316816001600160a01b03161461097e576040517f64283d7b0000000000000000000000000000000000000000000000000000000081526001600160a01b03808616600483015260248201849052821660448201526064016108b4565b50505050565b6040517f70a082310000000000000000000000000000000000000000000000000000000081523360048201526000906001906001600160a01b037f000000000000000000000000000000000000000000000000000000000000000016906370a0823190602401602060405180830381865afa158015610a07573d6000803e3d6000fd5b505050506040513d601f19601f82011682018060405250810190610a2b9190612c9b565b1015610a63576040517f6c308a2f00000000000000000000000000000000000000000000000000000000815260040160405180910390fd5b600b54600003610a8857600a60008154610a7c90612ce3565b91829055509050610af5565b600b8054610a9890600190612d1b565b81548110610aa857610aa8612d2e565b90600052602060002001549050600b805480610ac657610ac6612d5d565b60019003818190600052602060002001600090559055600a6000815480929190610aef90612ce3565b91905055505b6040517f9dc29fac000000000000000000000000000000000000000000000000000000008152336004820152600160248201527f00000000000000000000000000000000000000000000000000000000000000006001600160a01b031690639dc29fac90604401600060405180830381600087803b158015610b7657600080fd5b505af1158015610b8a573d6000803e3d6000fd5b50505050610b983382611adf565b6000610ba661025842612d8c565b6000838152600c602090815260409182902083905581513381529081018590529081018290529091507f0cbdf51017fa3db672d6f94a941b3b47f2c1c169bf808bac7391b8a9269cffab9060600160405180910390a15090565b610c1b83838360405180602001604052806000815250611683565b505050565b80600003610c5a576040517f1f2a200500000000000000000000000000000000000000000000000000000000815260040160405180910390fd5b3460085482610c699190612d9f565b14610ca0576040517f2f1e736300000000000000000000000000000000000000000000000000000000815260040160405180910390fd5b6040517f40c10f19000000000000000000000000000000000000000000000000000000008152336004820152602481018290527f00000000000000000000000000000000000000000000000000000000000000006001600160a01b0316906340c10f1990604401600060405180830381600087803b158015610d2157600080fd5b505af1158015610d35573d6000803e3d6000fd5b505060408051338152602081018590527fecedcda9002dd5028204a70dddaa2155459b6dff3c3e20543450a189e736dc49935001905060405180910390a150565b610d7e611b76565b6001600160a01b038216610dbe576040517fd92e233d00000000000000000000000000000000000000000000000000000000815260040160405180910390fd5b80600003610df8576040517f1f2a200500000000000000000000000000000000000000000000000000000000815260040160405180910390fd5b80471015610e32576040517ff4d678b800000000000000000000000000000000000000000000000000000000815260040160405180910390fd5b6000826001600160a01b03168260405160006040518083038185875af1925050503d8060008114610e7f576040519150601f19603f3d011682016040523d82523d6000602084013e610e84565b606091505b5050905080610c1b576040517f90b8ec1800000000000000000000000000000000000000000000000000000000815260040160405180910390fd5b610ec7611b76565b6001600160a01b038216610f07576040517fd92e233d00000000000000000000000000000000000000000000000000000000815260040160405180910390fd5b80600003610f41576040517f1f2a200500000000000000000000000000000000000000000000000000000000815260040160405180910390fd5b6040517fa9059cbb0000000000000000000000000000000000000000000000000000000081526001600160a01b038381166004830152602482018390527f0000000000000000000000000000000000000000000000000000000000000000919082169063a9059cbb906044016020604051808303816000875af1158015610fcc573d6000803e3d6000fd5b505050506040513d601f19601f82011682018060405250810190610ff09190612db6565b1515600003610c1b576040517f90b8ec1800000000000000000000000000000000000000000000000000000000815260040160405180910390fd5b6000818152600260205260409020546001600160a01b0316331461107b576040517f16bea89400000000000000000000000000000000000000000000000000000000815260040160405180910390fd5b61108481611bec565b600954604051600090339083908381818185875af1925050503d80600081146110c9576040519150601f19603f3d011682016040523d82523d6000602084013e6110ce565b606091505b5050905080611109576040517f90b8ec1800000000000000000000000000000000000000000000000000000000815260040160405180910390fd5b60408051338152602081018590529081018390527f3369562294f6e2ef65ca6e38e7a7c581bd2dfb228a017e746217c6880cbeab009060600160405180910390a1505050565b6000610756826117ee565b60006001600160a01b03821661119f576040517f89c62b64000000000000000000000000000000000000000000000000000000008152600060048201526024016108b4565b506001600160a01b031660009081526003602052604090205490565b6000818152600260205260408120546001600160a01b0316331461120b576040517f16bea89400000000000000000000000000000000000000000000000000000000815260040160405180910390fd5b6000828152600c602052604090205442811115611254576040517f53ea709100000000000000000000000000000000000000000000000000000000815260040160405180910390fd5b6112616203f48082612d8c565b4211156112765761127183611c4c565b611519565b61127f83611c4c565b6040517f4306d354000000000000000000000000000000000000000000000000000000008152620493e060048201527f0000000000000000000000000000000000000000000000000000000000000000906000907f00000000000000000000000000000000000000000000000000000000000000006001600160a01b031690634306d35490602401602060405180830381865afa158015611324573d6000803e3d6000fd5b505050506040513d601f19601f820116820180604052508101906113489190612c9b565b6040517f70a082310000000000000000000000000000000000000000000000000000000081523060048201529091506000906001600160a01b038416906370a0823190602401602060405180830381865afa1580156113ab573d6000803e3d6000fd5b505050506040513d601f19601f820116820180604052508101906113cf9190612c9b565b905081811015611415576040517f03eb8b5400000000000000000000000000000000000000000000000000000000815260048101829052602481018390526044016108b4565b611425620493e060036002611ca5565b6040805160608101825284815260006020808301828152845180860186523381528083018d9052848601908152868452600d83529285902093518455516001840180547fffffffffffffffffffffffffffffffffffffffffffffffffffffffffffffff0016911515919091179055905180516002840180547fffffffffffffffffffffffff0000000000000000000000000000000000000000166001600160a01b0390921691909117905581015160039092019190915581518381529081018590529196507f03bdba022a54045a6998cc489ac4b9dc1de59e776f960b46f69f44fe7676927d910160405180910390a15050505b50919050565b6007546001600160a01b03163314611593576040517f08c379a000000000000000000000000000000000000000000000000000000000815260206004820152601660248201527f4d7573742062652070726f706f736564206f776e65720000000000000000000060448201526064016108b4565b600680547fffffffffffffffffffffffff0000000000000000000000000000000000000000808216339081179093556007805490911690556040516001600160a01b03909116919082907f8be0079c531659141344cd1fd0a4f28419497f9722a3daafe3b4186f6b6457e090600090a350565b61160e6127db565b506000908152600d6020908152604091829020825160608101845281548152600182015460ff161515818401528351808501855260028301546001600160a01b03168152600390920154928201929092529181019190915290565b60606001805461076b90612c4e565b610822338383611e9f565b61168e8484846108c7565b61097e84848484611f75565b60606116a5826117ee565b5060006116bd60408051602081019091526000815290565b905060008151116116dd5760405180602001604052806000815250611708565b806116e784612138565b6040516020016116f8929190612dd3565b6040516020818303038152906040525b9392505050565b611717611b76565b811580611722575080155b15611759576040517f1f2a200500000000000000000000000000000000000000000000000000000000815260040160405180910390fd5b818110611792576040517f28cf0d4c00000000000000000000000000000000000000000000000000000000815260040160405180910390fd5b6008829055600981905560408051838152602081018390527f6546f60f34df611fa42503098acc39d5ab88bc73febe64b3cc14e5a92e3a66a791015b60405180910390a15050565b6117e2611b76565b6117eb816121f6565b50565b6000818152600260205260408120546001600160a01b031680610756576040517f7e273289000000000000000000000000000000000000000000000000000000008152600481018490526024016108b4565b610c1b83838360016122d2565b6000828152600d602052604081208054909103611899576040517f4ec726c7000000000000000000000000000000000000000000000000000000008152600481018490526024016108b4565b600181810180547fffffffffffffffffffffffffffffffffffffffffffffffffffffffffffffff0016909117905580546040805185815260208101929092527fbd03fc99dbe54c7b82300ba22cb10a54cde8d793ba3d99933518fe8ad46723e1910160405180910390a16000600a8360008151811061191a5761191a612d2e565b602002602001015161192c9190612e02565b611937906001612d8c565b90506000600a6119478382612d9f565b6119519190612d1b565b6040805180820190915260028501546001600160a01b0316808252600386015460208301819052875193945091926119a89290869086908a90600190811061199b5761199b612d2e565b6020026020010151612428565b505050505050565b6000828152600260205260408120546001600160a01b03908116908316156119dd576119dd81848661258c565b6001600160a01b03811615611a39576119fa6000856000806122d2565b6001600160a01b038116600090815260036020526040902080547fffffffffffffffffffffffffffffffffffffffffffffffffffffffffffffffff0190555b6001600160a01b03851615611a68576001600160a01b0385166000908152600360205260409020805460010190555b60008481526002602052604080822080547fffffffffffffffffffffffff0000000000000000000000000000000000000000166001600160a01b0389811691821790925591518793918516917fddf252ad1be2c89b69c2b068fc378daa952ba7f163c4a11628f55a4df523b3ef91a4949350505050565b6001600160a01b038216611b22576040517f64a0ae92000000000000000000000000000000000000000000000000000000008152600060048201526024016108b4565b6000611b30838360006119b0565b90506001600160a01b03811615610c1b576040517f73c6ac6e000000000000000000000000000000000000000000000000000000008152600060048201526024016108b4565b6006546001600160a01b03163314611bea576040517f08c379a000000000000000000000000000000000000000000000000000000000815260206004820152601660248201527f4f6e6c792063616c6c61626c65206279206f776e65720000000000000000000060448201526064016108b4565b565b611bf581612622565b600a8054906000611c0583612e3d565b90915550506000818152600c60205260408120819055600b805460018101825591527f0175b7a638427703f0dbe7bb9bbf987a2551717b34e79f33b5b1008d1fa01db90155565b6000611c5a61025842612d8c565b6000838152600c602090815260409182902083905581518581529081018390529192507f47fe2b07cdc878aa5c25511db2d5ce596c91cc281fee8c41a0800e7a70a8e1ad91016117ce565b6040517f4306d35400000000000000000000000000000000000000000000000000000000815263ffffffff841660048201526000906001600160a01b037f0000000000000000000000000000000000000000000000000000000000000000811691634000aea0917f00000000000000000000000000000000000000000000000000000000000000009190821690634306d35490602401602060405180830381865afa158015611d58573d6000803e3d6000fd5b505050506040513d601f19601f82011682018060405250810190611d7c9190612c9b565b6040805163ffffffff808b16602083015261ffff8a169282019290925290871660608201526080016040516020818303038152906040526040518463ffffffff1660e01b8152600401611dd193929190612e72565b6020604051808303816000875af1158015611df0573d6000803e3d6000fd5b505050506040513d601f19601f82011682018060405250810190611e149190612db6565b507f00000000000000000000000000000000000000000000000000000000000000006001600160a01b031663fc2a88c36040518163ffffffff1660e01b8152600401602060405180830381865afa158015611e73573d6000803e3d6000fd5b505050506040513d601f19601f82011682018060405250810190611e979190612c9b565b949350505050565b6001600160a01b038216611eea576040517f5b08ba180000000000000000000000000000000000000000000000000000000081526001600160a01b03831660048201526024016108b4565b6001600160a01b0383811660008181526005602090815260408083209487168084529482529182902080547fffffffffffffffffffffffffffffffffffffffffffffffffffffffffffffff001686151590811790915591519182527f17307eab39ab6107e8899845ad3d59bd9653f200f220920489ca2b5937696c31910160405180910390a3505050565b6001600160a01b0383163b1561097e576040517f150b7a020000000000000000000000000000000000000000000000000000000081526001600160a01b0384169063150b7a0290611fd0903390889087908790600401612ea3565b6020604051808303816000875af1925050508015612029575060408051601f3d9081017fffffffffffffffffffffffffffffffffffffffffffffffffffffffffffffffe016820190925261202691810190612edf565b60015b6120ab573d808015612057576040519150601f19603f3d011682016040523d82523d6000602084013e61205c565b606091505b5080516000036120a3576040517f64a0ae920000000000000000000000000000000000000000000000000000000081526001600160a01b03851660048201526024016108b4565b805181602001fd5b7fffffffff0000000000000000000000000000000000000000000000000000000081167f150b7a020000000000000000000000000000000000000000000000000000000014612131576040517f64a0ae920000000000000000000000000000000000000000000000000000000081526001600160a01b03851660048201526024016108b4565b5050505050565b6060600061214583612676565b600101905060008167ffffffffffffffff81111561216557612165612947565b6040519080825280601f01601f19166020018201604052801561218f576020820181803683370190505b5090508181016020015b7fffffffffffffffffffffffffffffffffffffffffffffffffffffffffffffffff017f3031323334353637383961626364656600000000000000000000000000000000600a86061a8153600a850494508461219957509392505050565b336001600160a01b03821603612268576040517f08c379a000000000000000000000000000000000000000000000000000000000815260206004820152601760248201527f43616e6e6f74207472616e7366657220746f2073656c6600000000000000000060448201526064016108b4565b600780547fffffffffffffffffffffffff0000000000000000000000000000000000000000166001600160a01b03838116918217909255600654604051919216907fed8889f560326eb138920d842192f0eb3dd22b4f139c87a2c57538e05bae127890600090a350565b80806122e657506001600160a01b03821615155b156123e05760006122f6846117ee565b90506001600160a01b038316158015906123225750826001600160a01b0316816001600160a01b031614155b801561235457506001600160a01b0380821660009081526005602090815260408083209387168352929052205460ff16155b15612396576040517fa9fbf51f0000000000000000000000000000000000000000000000000000000081526001600160a01b03841660048201526024016108b4565b81156123de5783856001600160a01b0316826001600160a01b03167f8c5be1e5ebec7d5bd14f71427d1e84f3dd0314c0f7b2291e5b200ac8c7c3b92560405160405180910390a45b505b5050600090815260046020526040902080547fffffffffffffffffffffffff0000000000000000000000000000000000000000166001600160a01b0392909216919091179055565b60008080612437606485612e02565b905060005b868160ff161015612528576040517f40c10f190000000000000000000000000000000000000000000000000000000081526001600160a01b038a81166004830152600160248301527f000000000000000000000000000000000000000000000000000000000000000016906340c10f1990604401600060405180830381600087803b1580156124ca57600080fd5b505af11580156124de573d6000803e3d6000fd5b5050505083806124ed90612ce3565b945050858211612509576001925061250488611bec565b612528565b8161251381612e3d565b9250508061252081612efc565b91505061243c565b50604080516001600160a01b038a168152602081018990529081018790526060810184905282151560808201527f351843ffd250084c50a4c6bd8a2bb10d719c7b74c7064a7a7a21f83c5d6343e49060a00160405180910390a15050505050505050565b612597838383612758565b610c1b576001600160a01b0383166125de576040517f7e273289000000000000000000000000000000000000000000000000000000008152600481018290526024016108b4565b6040517f177e802f0000000000000000000000000000000000000000000000000000000081526001600160a01b0383166004820152602481018290526044016108b4565b600061263160008360006119b0565b90506001600160a01b038116610822576040517f7e273289000000000000000000000000000000000000000000000000000000008152600481018390526024016108b4565b6000807a184f03e93ff9f4daa797ed6e38ed64bf6a1f01000000000000000083106126bf577a184f03e93ff9f4daa797ed6e38ed64bf6a1f010000000000000000830492506040015b6d04ee2d6d415b85acef810000000083106126eb576d04ee2d6d415b85acef8100000000830492506020015b662386f26fc10000831061270957662386f26fc10000830492506010015b6305f5e1008310612721576305f5e100830492506008015b612710831061273557612710830492506004015b60648310612747576064830492506002015b600a83106107565760010192915050565b60006001600160a01b03831615801590611e975750826001600160a01b0316846001600160a01b031614806127b257506001600160a01b0380851660009081526005602090815260408083209387168352929052205460ff165b80611e975750506000908152600460205260409020546001600160a01b03908116911614919050565b60405180606001604052806000815260200160001515815260200161281c604051806040016040528060006001600160a01b03168152602001600081525090565b905290565b7fffffffff00000000000000000000000000000000000000000000000000000000811681146117eb57600080fd5b60006020828403121561286157600080fd5b813561170881612821565b60005b8381101561288757818101518382015260200161286f565b50506000910152565b600081518084526128a881602086016020860161286c565b601f017fffffffffffffffffffffffffffffffffffffffffffffffffffffffffffffffe0169290920160200192915050565b6020815260006117086020830184612890565b6000602082840312156128ff57600080fd5b5035919050565b6001600160a01b03811681146117eb57600080fd5b6000806040838503121561292e57600080fd5b823561293981612906565b946020939093013593505050565b7f4e487b7100000000000000000000000000000000000000000000000000000000600052604160045260246000fd5b604051601f82017fffffffffffffffffffffffffffffffffffffffffffffffffffffffffffffffe016810167ffffffffffffffff811182821017156129bd576129bd612947565b604052919050565b600080604083850312156129d857600080fd5b8235915060208084013567ffffffffffffffff808211156129f857600080fd5b818601915086601f830112612a0c57600080fd5b813581811115612a1e57612a1e612947565b8060051b9150612a2f848301612976565b8181529183018401918481019089841115612a4957600080fd5b938501935b83851015612a6757843582529385019390850190612a4e565b8096505050505050509250929050565b600080600060608486031215612a8c57600080fd5b8335612a9781612906565b92506020840135612aa781612906565b929592945050506040919091013590565b600060208284031215612aca57600080fd5b813561170881612906565b80151581146117eb57600080fd5b60008060408385031215612af657600080fd5b8235612b0181612906565b91506020830135612b1181612ad5565b809150509250929050565b60008060008060808587031215612b3257600080fd5b8435612b3d81612906565b9350602085810135612b4e81612906565b935060408601359250606086013567ffffffffffffffff80821115612b7257600080fd5b818801915088601f830112612b8657600080fd5b813581811115612b9857612b98612947565b612bc8847fffffffffffffffffffffffffffffffffffffffffffffffffffffffffffffffe0601f84011601612976565b91508082528984828501011115612bde57600080fd5b808484018584013760008482840101525080935050505092959194509250565b60008060408385031215612c1157600080fd5b8235612c1c81612906565b91506020830135612b1181612906565b60008060408385031215612c3f57600080fd5b50508035926020909101359150565b600181811c90821680612c6257607f821691505b602082108103611519577f4e487b7100000000000000000000000000000000000000000000000000000000600052602260045260246000fd5b600060208284031215612cad57600080fd5b5051919050565b7f4e487b7100000000000000000000000000000000000000000000000000000000600052601160045260246000fd5b60007fffffffffffffffffffffffffffffffffffffffffffffffffffffffffffffffff8203612d1457612d14612cb4565b5060010190565b8181038181111561075657610756612cb4565b7f4e487b7100000000000000000000000000000000000000000000000000000000600052603260045260246000fd5b7f4e487b7100000000000000000000000000000000000000000000000000000000600052603160045260246000fd5b8082018082111561075657610756612cb4565b808202811582820484141761075657610756612cb4565b600060208284031215612dc857600080fd5b815161170881612ad5565b60008351612de581846020880161286c565b835190830190612df981836020880161286c565b01949350505050565b600082612e38577f4e487b7100000000000000000000000000000000000000000000000000000000600052601260045260246000fd5b500690565b600081612e4c57612e4c612cb4565b507fffffffffffffffffffffffffffffffffffffffffffffffffffffffffffffffff0190565b6001600160a01b0384168152826020820152606060408201526000612e9a6060830184612890565b95945050505050565b60006001600160a01b03808716835280861660208401525083604083015260806060830152612ed56080830184612890565b9695505050505050565b600060208284031215612ef157600080fd5b815161170881612821565b600060ff821660ff8103612f1257612f12612cb4565b6001019291505056fea2646970667358221220417d33b471e81b779fa18082e8326d4954e71d4debfd0d19a0e6c6d0a5ea1fa664736f6c63430008140033","linkReferences":{}},"methodIdentifiers":{"MAX_EGGS_TO_LAY()":"1d292ef1","OVIPOSITION_DURATION()":"94dc02ea","PREOVIPOSITION_PERIOD()":"538795d5","acceptOwnership()":"79ba5097","approve(address,uint256)":"095ea7b3","balanceOf(address)":"70a08231","buyEggs(uint256)":"4fd53596","createAnt()":"2e61a7bf","eggs()":"e33f76cf","getAntPrice()":"248452bd","getAntsCreated()":"3d871229","getApproved(uint256)":"081812fc","getEggPrice()":"514b1570","getOvipositionPeriod(uint256)":"e5f9598c","getOvipositionRequest(uint256)":"86f47873","isApprovedForAll(address,address)":"e985e9c5","name()":"06fdde03","owner()":"8da5cb5b","ownerOf(uint256)":"6352211e","rawFulfillRandomWords(uint256,uint256[])":"1fe543e3","safeTransferFrom(address,address,uint256)":"42842e0e","safeTransferFrom(address,address,uint256,bytes)":"b88d4fde","sellAnt(uint256)":"61dcb054","setApprovalForAll(address,bool)":"a22cb465","startOviposition(uint256)":"73edb143","supportsInterface(bytes4)":"01ffc9a7","symbol()":"95d89b41","tokenURI(uint256)":"c87b56dd","transferFrom(address,address,uint256)":"23b872dd","transferOwnership(address)":"f2fde38b","updatePrices(uint256,uint256)":"ef88d7f0","withdrawEther(address,uint256)":"522f6815","withdrawLink(address,uint256)":"54b7faae"},"id":111}