{"abi":[{"type":"constructor","inputs":[{"name":"_eggs","type":"address","internalType":"address"},{"name":"_governance","type":"address","internalType":"address"}],"stateMutability":"nonpayable"},{"type":"function","name":"OVIPOSITION_DELAY","inputs":[],"outputs":[{"name":"","type":"uint256","internalType":"uint256"}],"stateMutability":"view"},{"type":"function","name":"acceptOwnership","inputs":[],"outputs":[],"stateMutability":"nonpayable"},{"type":"function","name":"approve","inputs":[{"name":"to","type":"address","internalType":"address"},{"name":"tokenId","type":"uint256","internalType":"uint256"}],"outputs":[],"stateMutability":"nonpayable"},{"type":"function","name":"balanceOf","inputs":[{"name":"owner","type":"address","internalType":"address"}],"outputs":[{"name":"","type":"uint256","internalType":"uint256"}],"stateMutability":"view"},{"type":"function","name":"buyEggs","inputs":[{"name":"_amount","type":"uint256","internalType":"uint256"}],"outputs":[],"stateMutability":"payable"},{"type":"function","name":"createAnt","inputs":[],"outputs":[],"stateMutability":"nonpayable"},{"type":"function","name":"eggs","inputs":[],"outputs":[{"name":"","type":"address","internalType":"contract IEgg"}],"stateMutability":"view"},{"type":"function","name":"getAntPrice","inputs":[],"outputs":[{"name":"","type":"uint256","internalType":"uint256"}],"stateMutability":"view"},{"type":"function","name":"getAntsCreated","inputs":[],"outputs":[{"name":"","type":"uint256","internalType":"uint256"}],"stateMutability":"view"},{"type":"function","name":"getApproved","inputs":[{"name":"tokenId","type":"uint256","internalType":"uint256"}],"outputs":[{"name":"","type":"address","internalType":"address"}],"stateMutability":"view"},{"type":"function","name":"getEggPrice","inputs":[],"outputs":[{"name":"","type":"uint256","internalType":"uint256"}],"stateMutability":"view"},{"type":"function","name":"initOviposition","inputs":[{"name":"_antId","type":"uint256","internalType":"uint256"}],"outputs":[{"name":"requestId","type":"uint256","internalType":"uint256"}],"stateMutability":"nonpayable"},{"type":"function","name":"isApprovedForAll","inputs":[{"name":"owner","type":"address","internalType":"address"},{"name":"operator","type":"address","internalType":"address"}],"outputs":[{"name":"","type":"bool","internalType":"bool"}],"stateMutability":"view"},{"type":"function","name":"name","inputs":[],"outputs":[{"name":"","type":"string","internalType":"string"}],"stateMutability":"view"},{"type":"function","name":"owner","inputs":[],"outputs":[{"name":"","type":"address","internalType":"address"}],"stateMutability":"view"},{"type":"function","name":"ownerOf","inputs":[{"name":"tokenId","type":"uint256","internalType":"uint256"}],"outputs":[{"name":"","type":"address","internalType":"address"}],"stateMutability":"view"},{"type":"function","name":"rawFulfillRandomWords","inputs":[{"name":"_requestId","type":"uint256","internalType":"uint256"},{"name":"_randomWords","type":"uint256[]","internalType":"uint256[]"}],"outputs":[],"stateMutability":"nonpayable"},{"type":"function","name":"safeTransferFrom","inputs":[{"name":"from","type":"address","internalType":"address"},{"name":"to","type":"address","internalType":"address"},{"name":"tokenId","type":"uint256","internalType":"uint256"}],"outputs":[],"stateMutability":"nonpayable"},{"type":"function","name":"safeTransferFrom","inputs":[{"name":"from","type":"address","internalType":"address"},{"name":"to","type":"address","internalType":"address"},{"name":"tokenId","type":"uint256","internalType":"uint256"},{"name":"data","type":"bytes","internalType":"bytes"}],"outputs":[],"stateMutability":"nonpayable"},{"type":"function","name":"sellAnt","inputs":[{"name":"_antId","type":"uint256","internalType":"uint256"}],"outputs":[],"stateMutability":"nonpayable"},{"type":"function","name":"setApprovalForAll","inputs":[{"name":"operator","type":"address","internalType":"address"},{"name":"approved","type":"bool","internalType":"bool"}],"outputs":[],"stateMutability":"nonpayable"},{"type":"function","name":"supportsInterface","inputs":[{"name":"interfaceId","type":"bytes4","internalType":"bytes4"}],"outputs":[{"name":"","type":"bool","internalType":"bool"}],"stateMutability":"view"},{"type":"function","name":"symbol","inputs":[],"outputs":[{"name":"","type":"string","internalType":"string"}],"stateMutability":"view"},{"type":"function","name":"tokenURI","inputs":[{"name":"tokenId","type":"uint256","internalType":"uint256"}],"outputs":[{"name":"","type":"string","internalType":"string"}],"stateMutability":"view"},{"type":"function","name":"transferFrom","inputs":[{"name":"from","type":"address","internalType":"address"},{"name":"to","type":"address","internalType":"address"},{"name":"tokenId","type":"uint256","internalType":"uint256"}],"outputs":[],"stateMutability":"nonpayable"},{"type":"function","name":"transferOwnership","inputs":[{"name":"to","type":"address","internalType":"address"}],"outputs":[],"stateMutability":"nonpayable"},{"type":"function","name":"updatePrices","inputs":[{"name":"newEggPrice","type":"uint256","internalType":"uint256"},{"name":"newAntPrice","type":"uint256","internalType":"uint256"}],"outputs":[],"stateMutability":"nonpayable"},{"type":"function","name":"withdrawLink","inputs":[],"outputs":[],"stateMutability":"nonpayable"},{"type":"event","name":"AntCreated","inputs":[{"name":"owner","type":"address","indexed":false,"internalType":"address"},{"name":"antId","type":"uint256","indexed":false,"internalType":"uint256"}],"anonymous":false},{"type":"event","name":"AntCreated","inputs":[],"anonymous":false},{"type":"event","name":"AntSold","inputs":[{"name":"owner","type":"address","indexed":false,"internalType":"address"},{"name":"antId","type":"uint256","indexed":false,"internalType":"uint256"}],"anonymous":false},{"type":"event","name":"AntSold","inputs":[],"anonymous":false},{"type":"event","name":"Approval","inputs":[{"name":"owner","type":"address","indexed":true,"internalType":"address"},{"name":"approved","type":"address","indexed":true,"internalType":"address"},{"name":"tokenId","type":"uint256","indexed":true,"internalType":"uint256"}],"anonymous":false},{"type":"event","name":"ApprovalForAll","inputs":[{"name":"owner","type":"address","indexed":true,"internalType":"address"},{"name":"operator","type":"address","indexed":true,"internalType":"address"},{"name":"approved","type":"bool","indexed":false,"internalType":"bool"}],"anonymous":false},{"type":"event","name":"EggsBought","inputs":[{"name":"owner","type":"address","indexed":false,"internalType":"address"},{"name":"amount","type":"uint256","indexed":false,"internalType":"uint256"}],"anonymous":false},{"type":"event","name":"EggsLayed","inputs":[{"name":"owner","type":"address","indexed":false,"internalType":"address"},{"name":"antId","type":"uint256","indexed":false,"internalType":"uint256"},{"name":"eggsLayed","type":"uint256","indexed":false,"internalType":"uint256"},{"name":"isAntDead","type":"bool","indexed":false,"internalType":"bool"}],"anonymous":false},{"type":"event","name":"OwnershipTransferRequested","inputs":[{"name":"from","type":"address","indexed":true,"internalType":"address"},{"name":"to","type":"address","indexed":true,"internalType":"address"}],"anonymous":false},{"type":"event","name":"OwnershipTransferred","inputs":[{"name":"from","type":"address","indexed":true,"internalType":"address"},{"name":"to","type":"address","indexed":true,"internalType":"address"}],"anonymous":false},{"type":"event","name":"PricesUpdated","inputs":[{"name":"newEggPrice","type":"uint256","indexed":false,"internalType":"uint256"},{"name":"newAntPrice","type":"uint256","indexed":false,"internalType":"uint256"}],"anonymous":false},{"type":"event","name":"Transfer","inputs":[{"name":"from","type":"address","indexed":true,"internalType":"address"},{"name":"to","type":"address","indexed":true,"internalType":"address"},{"name":"tokenId","type":"uint256","indexed":true,"internalType":"uint256"}],"anonymous":false},{"type":"error","name":"AlreadyExists","inputs":[]},{"type":"error","name":"AntPriceMustBeLessThanEggPrice","inputs":[]},{"type":"error","name":"ERC721IncorrectOwner","inputs":[{"name":"sender","type":"address","internalType":"address"},{"name":"tokenId","type":"uint256","internalType":"uint256"},{"name":"owner","type":"address","internalType":"address"}]},{"type":"error","name":"ERC721InsufficientApproval","inputs":[{"name":"operator","type":"address","internalType":"address"},{"name":"tokenId","type":"uint256","internalType":"uint256"}]},{"type":"error","name":"ERC721InvalidApprover","inputs":[{"name":"approver","type":"address","internalType":"address"}]},{"type":"error","name":"ERC721InvalidOperator","inputs":[{"name":"operator","type":"address","internalType":"address"}]},{"type":"error","name":"ERC721InvalidOwner","inputs":[{"name":"owner","type":"address","internalType":"address"}]},{"type":"error","name":"ERC721InvalidReceiver","inputs":[{"name":"receiver","type":"address","internalType":"address"}]},{"type":"error","name":"ERC721InvalidSender","inputs":[{"name":"sender","type":"address","internalType":"address"}]},{"type":"error","name":"ERC721NonexistentToken","inputs":[{"name":"tokenId","type":"uint256","internalType":"uint256"}]},{"type":"error","name":"NoEggs","inputs":[]},{"type":"error","name":"NoZeroAddress","inputs":[]},{"type":"error","name":"NotAntOwner","inputs":[]},{"type":"error","name":"PreOvipositionPeriod","inputs":[]},{"type":"error","name":"RequestNotFound","inputs":[]},{"type":"error","name":"TransferFailed","inputs":[]},{"type":"error","name":"WrongEtherSent","inputs":[]},{"type":"error","name":"ZeroAmount","inputs":[]}],"bytecode":{"object":"0x60e0604052662386f26fc10000600855660e35fa931a00006009556000600a553480156200002c57600080fd5b5060405162002d3338038062002d338339810160408190526200004f916200025a565b8080600073779877a7b0d9e8603169ddbd7836e478b462478973ab18414cd93297b0d12ac29e63ca20f515b3db466040518060400160405280600b81526020016a43727970746f20416e747360a81b81525060405180604001604052806004815260200163414e545360e01b8152508160009081620000cf919062000337565b506001620000de828262000337565b5050506001600160a01b03918216608052811660a0528216620001485760405162461bcd60e51b815260206004820152601860248201527f43616e6e6f7420736574206f776e657220746f207a65726f000000000000000060448201526064015b60405180910390fd5b600680546001600160a01b0319166001600160a01b03848116919091179091558116156200017b576200017b8162000191565b505050506001600160a01b031660c05262000403565b336001600160a01b03821603620001eb5760405162461bcd60e51b815260206004820152601760248201527f43616e6e6f74207472616e7366657220746f2073656c6600000000000000000060448201526064016200013f565b600780546001600160a01b0319166001600160a01b03838116918217909255600654604051919216907fed8889f560326eb138920d842192f0eb3dd22b4f139c87a2c57538e05bae127890600090a350565b80516001600160a01b03811681146200025557600080fd5b919050565b600080604083850312156200026e57600080fd5b62000279836200023d565b915062000289602084016200023d565b90509250929050565b634e487b7160e01b600052604160045260246000fd5b600181811c90821680620002bd57607f821691505b602082108103620002de57634e487b7160e01b600052602260045260246000fd5b50919050565b601f8211156200033257600081815260208120601f850160051c810160208610156200030d5750805b601f850160051c820191505b818110156200032e5782815560010162000319565b5050505b505050565b81516001600160401b0381111562000353576200035362000292565b6200036b81620003648454620002a8565b84620002e4565b602080601f831160018114620003a357600084156200038a5750858301515b600019600386901b1c1916600185901b1785556200032e565b600085815260208120601f198616915b82811015620003d457888601518255948401946001909101908401620003b3565b5085821015620003f35787850151600019600388901b60f8161c191681555b5050505050600190811b01905550565b60805160a05160c0516128d66200045d600039600081816104a40152818161088d01528181610a1a01528181610bb90152611eee01526000818161070901528181611aec0152611bf501526000611ac201526128d66000f3fe6080604052600436106101b75760003560e01c80636352211e116100ec578063b88d4fde1161008a578063e33f76cf11610064578063e33f76cf14610492578063e985e9c5146104c6578063ef88d7f01461050f578063f2fde38b1461052f57600080fd5b8063b88d4fde14610432578063c87b56dd14610452578063d72df5d51461047257600080fd5b80638da5cb5b116100c65780638da5cb5b146103ca5780638dc654a2146103e857806395d89b41146103fd578063a22cb4651461041257600080fd5b80636352211e1461037557806370a082311461039557806379ba5097146103b557600080fd5b80632d577eef1161015957806342842e0e1161013357806342842e0e1461030d5780634fd535961461032d578063514b15701461034057806361dcb0541461035557600080fd5b80632d577eef146102cc5780632e61a7bf146102e35780633d871229146102f857600080fd5b8063095ea7b311610195578063095ea7b31461024b5780631fe543e31461026d57806323b872dd1461028d578063248452bd146102ad57600080fd5b806301ffc9a7146101bc57806306fdde03146101f1578063081812fc14610213575b600080fd5b3480156101c857600080fd5b506101dc6101d7366004612225565b61054f565b60405190151581526020015b60405180910390f35b3480156101fd57600080fd5b50610206610634565b6040516101e891906122b0565b34801561021f57600080fd5b5061023361022e3660046122c3565b6106c6565b6040516001600160a01b0390911681526020016101e8565b34801561025757600080fd5b5061026b6102663660046122f8565b6106ef565b005b34801561027957600080fd5b5061026b6102883660046123a0565b6106fe565b34801561029957600080fd5b5061026b6102a8366004612452565b61079f565b3480156102b957600080fd5b506009545b6040519081526020016101e8565b3480156102d857600080fd5b506102be6203f48081565b3480156102ef57600080fd5b5061026b61085c565b34801561030457600080fd5b50600a546102be565b34801561031957600080fd5b5061026b610328366004612452565b610ae4565b61026b61033b3660046122c3565b610b04565b34801561034c57600080fd5b506008546102be565b34801561036157600080fd5b5061026b6103703660046122c3565b610c54565b34801561038157600080fd5b506102336103903660046122c3565b610dc4565b3480156103a157600080fd5b506102be6103b036600461248e565b610dcf565b3480156103c157600080fd5b5061026b610e30565b3480156103d657600080fd5b506006546001600160a01b0316610233565b3480156103f457600080fd5b5061026b610f17565b34801561040957600080fd5b5061020661107c565b34801561041e57600080fd5b5061026b61042d3660046124b7565b61108b565b34801561043e57600080fd5b5061026b61044d3660046124ee565b611096565b34801561045e57600080fd5b5061020661046d3660046122c3565b6110ad565b34801561047e57600080fd5b506102be61048d3660046122c3565b611122565b34801561049e57600080fd5b506102337f000000000000000000000000000000000000000000000000000000000000000081565b3480156104d257600080fd5b506101dc6104e13660046125cc565b6001600160a01b03918216600090815260056020908152604080832093909416825291909152205460ff1690565b34801561051b57600080fd5b5061026b61052a3660046125ff565b611265565b34801561053b57600080fd5b5061026b61054a36600461248e565b611328565b60007fffffffff0000000000000000000000000000000000000000000000000000000082167f80ac58cd0000000000000000000000000000000000000000000000000000000014806105e257507fffffffff0000000000000000000000000000000000000000000000000000000082167f5b5e139f00000000000000000000000000000000000000000000000000000000145b8061062e57507f01ffc9a7000000000000000000000000000000000000000000000000000000007fffffffff000000000000000000000000000000000000000000000000000000008316145b92915050565b60606000805461064390612621565b80601f016020809104026020016040519081016040528092919081815260200182805461066f90612621565b80156106bc5780601f10610691576101008083540402835291602001916106bc565b820191906000526020600020905b81548152906001019060200180831161069f57829003601f168201915b5050505050905090565b60006106d182611339565b506000828152600460205260409020546001600160a01b031661062e565b6106fa82823361138b565b5050565b336001600160a01b037f00000000000000000000000000000000000000000000000000000000000000001614610795576040517f08c379a000000000000000000000000000000000000000000000000000000000815260206004820152601f60248201527f6f6e6c792056524620563220777261707065722063616e2066756c66696c6c0060448201526064015b60405180910390fd5b6106fa8282611398565b6001600160a01b0382166107e2576040517f64a0ae920000000000000000000000000000000000000000000000000000000081526000600482015260240161078c565b60006107ef83833361149c565b9050836001600160a01b0316816001600160a01b031614610856576040517f64283d7b0000000000000000000000000000000000000000000000000000000081526001600160a01b038086166004830152602482018490528216604482015260640161078c565b50505050565b6040517f70a082310000000000000000000000000000000000000000000000000000000081523360048201526001907f00000000000000000000000000000000000000000000000000000000000000006001600160a01b0316906370a0823190602401602060405180830381865afa1580156108dc573d6000803e3d6000fd5b505050506040513d601f19601f82011682018060405250810190610900919061266e565b1015610938576040517f6c308a2f00000000000000000000000000000000000000000000000000000000815260040160405180910390fd5b600b54600090810361095f57600a60008154610953906126b6565b91829055509050610996565b600b600081548110610973576109736126ee565b6000918252602082200154600a80549193509091610990836126b6565b91905055505b6000818152600260205260409020546001600160a01b0316156109e5576040517f23369fa600000000000000000000000000000000000000000000000000000000815260040160405180910390fd5b6040517f9dc29fac000000000000000000000000000000000000000000000000000000008152336004820152600160248201527f00000000000000000000000000000000000000000000000000000000000000006001600160a01b031690639dc29fac90604401600060405180830381600087803b158015610a6657600080fd5b505af1158015610a7a573d6000803e3d6000fd5b50505050610a8833826115cb565b610a944261025861271d565b6000828152600c60209081526040918290209290925580513381529182018390527fb1cbc86b8a6c13dcf7e6ddddcd361135b8af8664acc668744eeb932a9beb4f2691015b60405180910390a150565b610aff83838360405180602001604052806000815250611096565b505050565b80600003610b3e576040517f1f2a200500000000000000000000000000000000000000000000000000000000815260040160405180910390fd5b3460085482610b4d9190612730565b14610b84576040517f2f1e736300000000000000000000000000000000000000000000000000000000815260040160405180910390fd5b6040517f40c10f19000000000000000000000000000000000000000000000000000000008152336004820152602481018290527f00000000000000000000000000000000000000000000000000000000000000006001600160a01b0316906340c10f1990604401600060405180830381600087803b158015610c0557600080fd5b505af1158015610c19573d6000803e3d6000fd5b505060408051338152602081018590527fecedcda9002dd5028204a70dddaa2155459b6dff3c3e20543450a189e736dc499350019050610ad9565b6000818152600260205260409020546001600160a01b03163314610ca4576040517f16bea89400000000000000000000000000000000000000000000000000000000815260040160405180910390fd5b610cad81611662565b600a8054906000610cbd83612747565b90915550506000818152600c6020526040808220829055600b80546001810182559083527f0175b7a638427703f0dbe7bb9bbf987a2551717b34e79f33b5b1008d1fa01db90183905560095490513391908381818185875af1925050503d8060008114610d46576040519150601f19603f3d011682016040523d82523d6000602084013e610d4b565b606091505b5050905080610d86576040517f90b8ec1800000000000000000000000000000000000000000000000000000000815260040160405180910390fd5b60408051338152602081018490527fe67bffe95663d01ae462a2e747de3f59667442026226e1ff426a25bfe4b81fb391015b60405180910390a15050565b600061062e82611339565b60006001600160a01b038216610e14576040517f89c62b640000000000000000000000000000000000000000000000000000000081526000600482015260240161078c565b506001600160a01b031660009081526003602052604090205490565b6007546001600160a01b03163314610ea4576040517f08c379a000000000000000000000000000000000000000000000000000000000815260206004820152601660248201527f4d7573742062652070726f706f736564206f776e657200000000000000000000604482015260640161078c565b600680547fffffffffffffffffffffffff0000000000000000000000000000000000000000808216339081179093556007805490911690556040516001600160a01b03909116919082907f8be0079c531659141344cd1fd0a4f28419497f9722a3daafe3b4186f6b6457e090600090a350565b610f1f6116b6565b6040517f70a0823100000000000000000000000000000000000000000000000000000000815230600482015273779877a7b0d9e8603169ddbd7836e478b462478990819063a9059cbb90339083906370a0823190602401602060405180830381865afa158015610f93573d6000803e3d6000fd5b505050506040513d601f19601f82011682018060405250810190610fb7919061266e565b6040517fffffffff0000000000000000000000000000000000000000000000000000000060e085901b1681526001600160a01b03909216600483015260248201526044016020604051808303816000875af115801561101a573d6000803e3d6000fd5b505050506040513d601f19601f8201168201806040525081019061103e919061277c565b1515600003611079576040517f90b8ec1800000000000000000000000000000000000000000000000000000000815260040160405180910390fd5b50565b60606001805461064390612621565b6106fa33838361172c565b6110a184848461079f565b61085684848484611802565b60606110b882611339565b5060006110d060408051602081019091526000815290565b905060008151116110f0576040518060200160405280600081525061111b565b806110fa846119c5565b60405160200161110b929190612799565b6040516020818303038152906040525b9392505050565b6000818152600260205260408120546001600160a01b03163314611172576040517f16bea89400000000000000000000000000000000000000000000000000000000815260040160405180910390fd5b6000828152600c6020526040902054428111156111bb576040517f53ea709100000000000000000000000000000000000000000000000000000000815260040160405180910390fd5b6111c86203f4808261271d565b4211156111ef576111db4261025861271d565b6000848152600c602052604090205561125f565b6111ff620186a060036002611a83565b60408051808201825233815260208082018781526000858152600d909252929020905181547fffffffffffffffffffffffff0000000000000000000000000000000000000000166001600160a01b03909116178155905160019091015591505b50919050565b61126d6116b6565b811580611278575080155b156112af576040517f1f2a200500000000000000000000000000000000000000000000000000000000815260040160405180910390fd5b8181106112e8576040517f28cf0d4c00000000000000000000000000000000000000000000000000000000815260040160405180910390fd5b6008829055600981905560408051838152602081018390527f6546f60f34df611fa42503098acc39d5ab88bc73febe64b3cc14e5a92e3a66a79101610db8565b6113306116b6565b61107981611c7d565b6000818152600260205260408120546001600160a01b03168061062e576040517f7e2732890000000000000000000000000000000000000000000000000000000081526004810184905260240161078c565b610aff8383836001611d59565b6000828152600d6020908152604091829020825180840190935280546001600160a01b031680845260019091015491830191909152611403576040517f4b13b31e00000000000000000000000000000000000000000000000000000000815260040160405180910390fd5b6000600a8360008151811061141a5761141a6126ee565b602002602001015161142c91906127c8565b61143790600161271d565b90506000600a6114478382612730565b6114519190612803565b905060008160648660018151811061146b5761146b6126ee565b602002602001015161147d91906127c8565b109050611494846000015185602001518584611eaf565b505050505050565b6000828152600260205260408120546001600160a01b03908116908316156114c9576114c9818486611ffc565b6001600160a01b03811615611525576114e6600085600080611d59565b6001600160a01b038116600090815260036020526040902080547fffffffffffffffffffffffffffffffffffffffffffffffffffffffffffffffff0190555b6001600160a01b03851615611554576001600160a01b0385166000908152600360205260409020805460010190555b60008481526002602052604080822080547fffffffffffffffffffffffff0000000000000000000000000000000000000000166001600160a01b0389811691821790925591518793918516917fddf252ad1be2c89b69c2b068fc378daa952ba7f163c4a11628f55a4df523b3ef91a4949350505050565b6001600160a01b03821661160e576040517f64a0ae920000000000000000000000000000000000000000000000000000000081526000600482015260240161078c565b600061161c8383600061149c565b90506001600160a01b03811615610aff576040517f73c6ac6e0000000000000000000000000000000000000000000000000000000081526000600482015260240161078c565b6000611671600083600061149c565b90506001600160a01b0381166106fa576040517f7e2732890000000000000000000000000000000000000000000000000000000081526004810183905260240161078c565b6006546001600160a01b0316331461172a576040517f08c379a000000000000000000000000000000000000000000000000000000000815260206004820152601660248201527f4f6e6c792063616c6c61626c65206279206f776e657200000000000000000000604482015260640161078c565b565b6001600160a01b038216611777576040517f5b08ba180000000000000000000000000000000000000000000000000000000081526001600160a01b038316600482015260240161078c565b6001600160a01b0383811660008181526005602090815260408083209487168084529482529182902080547fffffffffffffffffffffffffffffffffffffffffffffffffffffffffffffff001686151590811790915591519182527f17307eab39ab6107e8899845ad3d59bd9653f200f220920489ca2b5937696c31910160405180910390a3505050565b6001600160a01b0383163b15610856576040517f150b7a020000000000000000000000000000000000000000000000000000000081526001600160a01b0384169063150b7a029061185d903390889087908790600401612816565b6020604051808303816000875af19250505080156118b6575060408051601f3d9081017fffffffffffffffffffffffffffffffffffffffffffffffffffffffffffffffe01682019092526118b391810190612852565b60015b611938573d8080156118e4576040519150601f19603f3d011682016040523d82523d6000602084013e6118e9565b606091505b508051600003611930576040517f64a0ae920000000000000000000000000000000000000000000000000000000081526001600160a01b038516600482015260240161078c565b805181602001fd5b7fffffffff0000000000000000000000000000000000000000000000000000000081167f150b7a0200000000000000000000000000000000000000000000000000000000146119be576040517f64a0ae920000000000000000000000000000000000000000000000000000000081526001600160a01b038516600482015260240161078c565b5050505050565b606060006119d283612092565b600101905060008167ffffffffffffffff8111156119f2576119f2612322565b6040519080825280601f01601f191660200182016040528015611a1c576020820181803683370190505b5090508181016020015b7fffffffffffffffffffffffffffffffffffffffffffffffffffffffffffffffff017f3031323334353637383961626364656600000000000000000000000000000000600a86061a8153600a8504945084611a2657509392505050565b6040517f4306d35400000000000000000000000000000000000000000000000000000000815263ffffffff841660048201526000906001600160a01b037f0000000000000000000000000000000000000000000000000000000000000000811691634000aea0917f00000000000000000000000000000000000000000000000000000000000000009190821690634306d35490602401602060405180830381865afa158015611b36573d6000803e3d6000fd5b505050506040513d601f19601f82011682018060405250810190611b5a919061266e565b6040805163ffffffff808b16602083015261ffff8a169282019290925290871660608201526080016040516020818303038152906040526040518463ffffffff1660e01b8152600401611baf9392919061286f565b6020604051808303816000875af1158015611bce573d6000803e3d6000fd5b505050506040513d601f19601f82011682018060405250810190611bf2919061277c565b507f00000000000000000000000000000000000000000000000000000000000000006001600160a01b031663fc2a88c36040518163ffffffff1660e01b8152600401602060405180830381865afa158015611c51573d6000803e3d6000fd5b505050506040513d601f19601f82011682018060405250810190611c75919061266e565b949350505050565b336001600160a01b03821603611cef576040517f08c379a000000000000000000000000000000000000000000000000000000000815260206004820152601760248201527f43616e6e6f74207472616e7366657220746f2073656c66000000000000000000604482015260640161078c565b600780547fffffffffffffffffffffffff0000000000000000000000000000000000000000166001600160a01b03838116918217909255600654604051919216907fed8889f560326eb138920d842192f0eb3dd22b4f139c87a2c57538e05bae127890600090a350565b8080611d6d57506001600160a01b03821615155b15611e67576000611d7d84611339565b90506001600160a01b03831615801590611da95750826001600160a01b0316816001600160a01b031614155b8015611ddb57506001600160a01b0380821660009081526005602090815260408083209387168352929052205460ff16155b15611e1d576040517fa9fbf51f0000000000000000000000000000000000000000000000000000000081526001600160a01b038416600482015260240161078c565b8115611e655783856001600160a01b0316826001600160a01b03167f8c5be1e5ebec7d5bd14f71427d1e84f3dd0314c0f7b2291e5b200ac8c7c3b92560405160405180910390a45b505b5050600090815260046020526040902080547fffffffffffffffffffffffff0000000000000000000000000000000000000000166001600160a01b0392909216919091179055565b6040517f40c10f190000000000000000000000000000000000000000000000000000000081526001600160a01b038581166004830152602482018490527f000000000000000000000000000000000000000000000000000000000000000016906340c10f1990604401600060405180830381600087803b158015611f3257600080fd5b505af1158015611f46573d6000803e3d6000fd5b505050508015611fa457611f5983611662565b600a8054906000611f6983612747565b9091555050600b80546001810182556000919091527f0175b7a638427703f0dbe7bb9bbf987a2551717b34e79f33b5b1008d1fa01db9018390555b604080516001600160a01b03861681526020810185905290810183905281151560608201527faed94627f5668328a9dd00e7c8f89594a2bb1cb2e799b4bb0e35a96daf16f03f9060800160405180910390a150505050565b612007838383612174565b610aff576001600160a01b03831661204e576040517f7e2732890000000000000000000000000000000000000000000000000000000081526004810182905260240161078c565b6040517f177e802f0000000000000000000000000000000000000000000000000000000081526001600160a01b03831660048201526024810182905260440161078c565b6000807a184f03e93ff9f4daa797ed6e38ed64bf6a1f01000000000000000083106120db577a184f03e93ff9f4daa797ed6e38ed64bf6a1f010000000000000000830492506040015b6d04ee2d6d415b85acef81000000008310612107576d04ee2d6d415b85acef8100000000830492506020015b662386f26fc10000831061212557662386f26fc10000830492506010015b6305f5e100831061213d576305f5e100830492506008015b612710831061215157612710830492506004015b60648310612163576064830492506002015b600a831061062e5760010192915050565b60006001600160a01b03831615801590611c755750826001600160a01b0316846001600160a01b031614806121ce57506001600160a01b0380851660009081526005602090815260408083209387168352929052205460ff165b80611c755750506000908152600460205260409020546001600160a01b03908116911614919050565b7fffffffff000000000000000000000000000000000000000000000000000000008116811461107957600080fd5b60006020828403121561223757600080fd5b813561111b816121f7565b60005b8381101561225d578181015183820152602001612245565b50506000910152565b6000815180845261227e816020860160208601612242565b601f017fffffffffffffffffffffffffffffffffffffffffffffffffffffffffffffffe0169290920160200192915050565b60208152600061111b6020830184612266565b6000602082840312156122d557600080fd5b5035919050565b80356001600160a01b03811681146122f357600080fd5b919050565b6000806040838503121561230b57600080fd5b612314836122dc565b946020939093013593505050565b7f4e487b7100000000000000000000000000000000000000000000000000000000600052604160045260246000fd5b604051601f82017fffffffffffffffffffffffffffffffffffffffffffffffffffffffffffffffe016810167ffffffffffffffff8111828210171561239857612398612322565b604052919050565b600080604083850312156123b357600080fd5b8235915060208084013567ffffffffffffffff808211156123d357600080fd5b818601915086601f8301126123e757600080fd5b8135818111156123f9576123f9612322565b8060051b915061240a848301612351565b818152918301840191848101908984111561242457600080fd5b938501935b8385101561244257843582529385019390850190612429565b8096505050505050509250929050565b60008060006060848603121561246757600080fd5b612470846122dc565b925061247e602085016122dc565b9150604084013590509250925092565b6000602082840312156124a057600080fd5b61111b826122dc565b801515811461107957600080fd5b600080604083850312156124ca57600080fd5b6124d3836122dc565b915060208301356124e3816124a9565b809150509250929050565b6000806000806080858703121561250457600080fd5b61250d856122dc565b9350602061251c8187016122dc565b935060408601359250606086013567ffffffffffffffff8082111561254057600080fd5b818801915088601f83011261255457600080fd5b81358181111561256657612566612322565b612596847fffffffffffffffffffffffffffffffffffffffffffffffffffffffffffffffe0601f84011601612351565b915080825289848285010111156125ac57600080fd5b808484018584013760008482840101525080935050505092959194509250565b600080604083850312156125df57600080fd5b6125e8836122dc565b91506125f6602084016122dc565b90509250929050565b6000806040838503121561261257600080fd5b50508035926020909101359150565b600181811c9082168061263557607f821691505b60208210810361125f577f4e487b7100000000000000000000000000000000000000000000000000000000600052602260045260246000fd5b60006020828403121561268057600080fd5b5051919050565b7f4e487b7100000000000000000000000000000000000000000000000000000000600052601160045260246000fd5b60007fffffffffffffffffffffffffffffffffffffffffffffffffffffffffffffffff82036126e7576126e7612687565b5060010190565b7f4e487b7100000000000000000000000000000000000000000000000000000000600052603260045260246000fd5b8082018082111561062e5761062e612687565b808202811582820484141761062e5761062e612687565b60008161275657612756612687565b507fffffffffffffffffffffffffffffffffffffffffffffffffffffffffffffffff0190565b60006020828403121561278e57600080fd5b815161111b816124a9565b600083516127ab818460208801612242565b8351908301906127bf818360208801612242565b01949350505050565b6000826127fe577f4e487b7100000000000000000000000000000000000000000000000000000000600052601260045260246000fd5b500690565b8181038181111561062e5761062e612687565b60006001600160a01b038087168352808616602084015250836040830152608060608301526128486080830184612266565b9695505050505050565b60006020828403121561286457600080fd5b815161111b816121f7565b6001600160a01b03841681528260208201526060604082015260006128976060830184612266565b9594505050505056fea264697066735822122009d5d3f1097b4b5a3b0bb2da3ee72e940bc1d0da6d4185169bc5378c33206c4c64736f6c63430008140033","linkReferences":{}},"methodIdentifiers":{"OVIPOSITION_DELAY()":"2d577eef","acceptOwnership()":"79ba5097","approve(address,uint256)":"095ea7b3","balanceOf(address)":"70a08231","buyEggs(uint256)":"4fd53596","createAnt()":"2e61a7bf","eggs()":"e33f76cf","getAntPrice()":"248452bd","getAntsCreated()":"3d871229","getApproved(uint256)":"081812fc","getEggPrice()":"514b1570","initOviposition(uint256)":"d72df5d5","isApprovedForAll(address,address)":"e985e9c5","name()":"06fdde03","owner()":"8da5cb5b","ownerOf(uint256)":"6352211e","rawFulfillRandomWords(uint256,uint256[])":"1fe543e3","safeTransferFrom(address,address,uint256)":"42842e0e","safeTransferFrom(address,address,uint256,bytes)":"b88d4fde","sellAnt(uint256)":"61dcb054","setApprovalForAll(address,bool)":"a22cb465","supportsInterface(bytes4)":"01ffc9a7","symbol()":"95d89b41","tokenURI(uint256)":"c87b56dd","transferFrom(address,address,uint256)":"23b872dd","transferOwnership(address)":"f2fde38b","updatePrices(uint256,uint256)":"ef88d7f0","withdrawLink()":"8dc654a2"},"id":78}