{"abi":[{"type":"constructor","inputs":[{"name":"_eggs","type":"address","internalType":"address"},{"name":"_governance","type":"address","internalType":"address"},{"name":"_linkAddress","type":"address","internalType":"address"},{"name":"_wrapperAddress","type":"address","internalType":"address"}],"stateMutability":"nonpayable"},{"type":"function","name":"MAX_EGGS_FERTILIZED","inputs":[],"outputs":[{"name":"","type":"uint256","internalType":"uint256"}],"stateMutability":"view"},{"type":"function","name":"OVIPOSITION_DEADLINE","inputs":[],"outputs":[{"name":"","type":"uint256","internalType":"uint256"}],"stateMutability":"view"},{"type":"function","name":"PREOVIPOSITION_PERIOD","inputs":[],"outputs":[{"name":"","type":"uint256","internalType":"uint256"}],"stateMutability":"view"},{"type":"function","name":"acceptOwnership","inputs":[],"outputs":[],"stateMutability":"nonpayable"},{"type":"function","name":"approve","inputs":[{"name":"to","type":"address","internalType":"address"},{"name":"tokenId","type":"uint256","internalType":"uint256"}],"outputs":[],"stateMutability":"nonpayable"},{"type":"function","name":"balanceOf","inputs":[{"name":"owner","type":"address","internalType":"address"}],"outputs":[{"name":"","type":"uint256","internalType":"uint256"}],"stateMutability":"view"},{"type":"function","name":"buyEggs","inputs":[{"name":"_amount","type":"uint256","internalType":"uint256"}],"outputs":[],"stateMutability":"payable"},{"type":"function","name":"createAnt","inputs":[],"outputs":[{"name":"_antId","type":"uint256","internalType":"uint256"}],"stateMutability":"nonpayable"},{"type":"function","name":"getAntPrice","inputs":[],"outputs":[{"name":"","type":"uint256","internalType":"uint256"}],"stateMutability":"view"},{"type":"function","name":"getAntsCreated","inputs":[],"outputs":[{"name":"","type":"uint256","internalType":"uint256"}],"stateMutability":"view"},{"type":"function","name":"getApproved","inputs":[{"name":"tokenId","type":"uint256","internalType":"uint256"}],"outputs":[{"name":"","type":"address","internalType":"address"}],"stateMutability":"view"},{"type":"function","name":"getEggPrice","inputs":[],"outputs":[{"name":"","type":"uint256","internalType":"uint256"}],"stateMutability":"view"},{"type":"function","name":"getOvipositionPeriod","inputs":[{"name":"_antId","type":"uint256","internalType":"uint256"}],"outputs":[{"name":"ovipositionPeriod","type":"uint256","internalType":"uint256"}],"stateMutability":"view"},{"type":"function","name":"getOvipositionRequest","inputs":[{"name":"_requestId","type":"uint256","internalType":"uint256"}],"outputs":[{"name":"","type":"tuple","internalType":"struct ICryptoAnts.OvipositionRequest","components":[{"name":"paid","type":"uint256","internalType":"uint256"},{"name":"fulfilled","type":"bool","internalType":"bool"},{"name":"ant","type":"tuple","internalType":"struct ICryptoAnts.Ant","components":[{"name":"owner","type":"address","internalType":"address"},{"name":"id","type":"uint256","internalType":"uint256"}]}]}],"stateMutability":"view"},{"type":"function","name":"isApprovedForAll","inputs":[{"name":"owner","type":"address","internalType":"address"},{"name":"operator","type":"address","internalType":"address"}],"outputs":[{"name":"","type":"bool","internalType":"bool"}],"stateMutability":"view"},{"type":"function","name":"name","inputs":[],"outputs":[{"name":"","type":"string","internalType":"string"}],"stateMutability":"view"},{"type":"function","name":"owner","inputs":[],"outputs":[{"name":"","type":"address","internalType":"address"}],"stateMutability":"view"},{"type":"function","name":"ownerOf","inputs":[{"name":"tokenId","type":"uint256","internalType":"uint256"}],"outputs":[{"name":"","type":"address","internalType":"address"}],"stateMutability":"view"},{"type":"function","name":"rawFulfillRandomWords","inputs":[{"name":"_requestId","type":"uint256","internalType":"uint256"},{"name":"_randomWords","type":"uint256[]","internalType":"uint256[]"}],"outputs":[],"stateMutability":"nonpayable"},{"type":"function","name":"safeTransferFrom","inputs":[{"name":"from","type":"address","internalType":"address"},{"name":"to","type":"address","internalType":"address"},{"name":"tokenId","type":"uint256","internalType":"uint256"}],"outputs":[],"stateMutability":"nonpayable"},{"type":"function","name":"safeTransferFrom","inputs":[{"name":"from","type":"address","internalType":"address"},{"name":"to","type":"address","internalType":"address"},{"name":"tokenId","type":"uint256","internalType":"uint256"},{"name":"data","type":"bytes","internalType":"bytes"}],"outputs":[],"stateMutability":"nonpayable"},{"type":"function","name":"sellAnt","inputs":[{"name":"_antId","type":"uint256","internalType":"uint256"}],"outputs":[],"stateMutability":"nonpayable"},{"type":"function","name":"setApprovalForAll","inputs":[{"name":"operator","type":"address","internalType":"address"},{"name":"approved","type":"bool","internalType":"bool"}],"outputs":[],"stateMutability":"nonpayable"},{"type":"function","name":"startOviposition","inputs":[{"name":"_antId","type":"uint256","internalType":"uint256"}],"outputs":[{"name":"requestId","type":"uint256","internalType":"uint256"}],"stateMutability":"nonpayable"},{"type":"function","name":"supportsInterface","inputs":[{"name":"interfaceId","type":"bytes4","internalType":"bytes4"}],"outputs":[{"name":"","type":"bool","internalType":"bool"}],"stateMutability":"view"},{"type":"function","name":"symbol","inputs":[],"outputs":[{"name":"","type":"string","internalType":"string"}],"stateMutability":"view"},{"type":"function","name":"tokenURI","inputs":[{"name":"tokenId","type":"uint256","internalType":"uint256"}],"outputs":[{"name":"","type":"string","internalType":"string"}],"stateMutability":"view"},{"type":"function","name":"transferFrom","inputs":[{"name":"from","type":"address","internalType":"address"},{"name":"to","type":"address","internalType":"address"},{"name":"tokenId","type":"uint256","internalType":"uint256"}],"outputs":[],"stateMutability":"nonpayable"},{"type":"function","name":"transferOwnership","inputs":[{"name":"to","type":"address","internalType":"address"}],"outputs":[],"stateMutability":"nonpayable"},{"type":"function","name":"updatePrices","inputs":[{"name":"_newEggPrice","type":"uint256","internalType":"uint256"},{"name":"_newAntPrice","type":"uint256","internalType":"uint256"}],"outputs":[],"stateMutability":"nonpayable"},{"type":"function","name":"withdrawEther","inputs":[{"name":"_recipient","type":"address","internalType":"address payable"},{"name":"_amount","type":"uint256","internalType":"uint256"}],"outputs":[],"stateMutability":"nonpayable"},{"type":"function","name":"withdrawLink","inputs":[{"name":"_recipient","type":"address","internalType":"address"},{"name":"_amount","type":"uint256","internalType":"uint256"}],"outputs":[],"stateMutability":"nonpayable"},{"type":"event","name":"AntCreated","inputs":[{"name":"owner","type":"address","indexed":false,"internalType":"address"},{"name":"antId","type":"uint256","indexed":false,"internalType":"uint256"},{"name":"ovipositionPeriod","type":"uint256","indexed":false,"internalType":"uint256"}],"anonymous":false},{"type":"event","name":"AntSold","inputs":[{"name":"owner","type":"address","indexed":false,"internalType":"address"},{"name":"antId","type":"uint256","indexed":false,"internalType":"uint256"},{"name":"price","type":"uint256","indexed":false,"internalType":"uint256"}],"anonymous":false},{"type":"event","name":"Approval","inputs":[{"name":"owner","type":"address","indexed":true,"internalType":"address"},{"name":"approved","type":"address","indexed":true,"internalType":"address"},{"name":"tokenId","type":"uint256","indexed":true,"internalType":"uint256"}],"anonymous":false},{"type":"event","name":"ApprovalForAll","inputs":[{"name":"owner","type":"address","indexed":true,"internalType":"address"},{"name":"operator","type":"address","indexed":true,"internalType":"address"},{"name":"approved","type":"bool","indexed":false,"internalType":"bool"}],"anonymous":false},{"type":"event","name":"EggsBought","inputs":[{"name":"owner","type":"address","indexed":false,"internalType":"address"},{"name":"amount","type":"uint256","indexed":false,"internalType":"uint256"}],"anonymous":false},{"type":"event","name":"EggsLaid","inputs":[{"name":"owner","type":"address","indexed":false,"internalType":"address"},{"name":"antId","type":"uint256","indexed":false,"internalType":"uint256"},{"name":"eggsFertilized","type":"uint256","indexed":false,"internalType":"uint256"},{"name":"eggsLaid","type":"uint256","indexed":false,"internalType":"uint256"},{"name":"isAntDead","type":"bool","indexed":false,"internalType":"bool"}],"anonymous":false},{"type":"event","name":"OvipositionPeriodReset","inputs":[{"name":"antId","type":"uint256","indexed":false,"internalType":"uint256"},{"name":"ovipositionPeriod","type":"uint256","indexed":false,"internalType":"uint256"}],"anonymous":false},{"type":"event","name":"OvipositionRequestFulfilled","inputs":[{"name":"requestId","type":"uint256","indexed":false,"internalType":"uint256"},{"name":"paid","type":"uint256","indexed":false,"internalType":"uint256"}],"anonymous":false},{"type":"event","name":"OvipositionRequested","inputs":[{"name":"requestId","type":"uint256","indexed":false,"internalType":"uint256"},{"name":"paid","type":"uint256","indexed":false,"internalType":"uint256"}],"anonymous":false},{"type":"event","name":"OwnershipTransferRequested","inputs":[{"name":"from","type":"address","indexed":true,"internalType":"address"},{"name":"to","type":"address","indexed":true,"internalType":"address"}],"anonymous":false},{"type":"event","name":"OwnershipTransferred","inputs":[{"name":"from","type":"address","indexed":true,"internalType":"address"},{"name":"to","type":"address","indexed":true,"internalType":"address"}],"anonymous":false},{"type":"event","name":"PricesUpdated","inputs":[{"name":"newEggPrice","type":"uint256","indexed":false,"internalType":"uint256"},{"name":"newAntPrice","type":"uint256","indexed":false,"internalType":"uint256"}],"anonymous":false},{"type":"event","name":"Transfer","inputs":[{"name":"from","type":"address","indexed":true,"internalType":"address"},{"name":"to","type":"address","indexed":true,"internalType":"address"},{"name":"tokenId","type":"uint256","indexed":true,"internalType":"uint256"}],"anonymous":false},{"type":"error","name":"AlreadyExists","inputs":[]},{"type":"error","name":"AntPriceMustBeLessThanEggPrice","inputs":[]},{"type":"error","name":"ERC721IncorrectOwner","inputs":[{"name":"sender","type":"address","internalType":"address"},{"name":"tokenId","type":"uint256","internalType":"uint256"},{"name":"owner","type":"address","internalType":"address"}]},{"type":"error","name":"ERC721InsufficientApproval","inputs":[{"name":"operator","type":"address","internalType":"address"},{"name":"tokenId","type":"uint256","internalType":"uint256"}]},{"type":"error","name":"ERC721InvalidApprover","inputs":[{"name":"approver","type":"address","internalType":"address"}]},{"type":"error","name":"ERC721InvalidOperator","inputs":[{"name":"operator","type":"address","internalType":"address"}]},{"type":"error","name":"ERC721InvalidOwner","inputs":[{"name":"owner","type":"address","internalType":"address"}]},{"type":"error","name":"ERC721InvalidReceiver","inputs":[{"name":"receiver","type":"address","internalType":"address"}]},{"type":"error","name":"ERC721InvalidSender","inputs":[{"name":"sender","type":"address","internalType":"address"}]},{"type":"error","name":"ERC721NonexistentToken","inputs":[{"name":"tokenId","type":"uint256","internalType":"uint256"}]},{"type":"error","name":"InsufficientETH","inputs":[]},{"type":"error","name":"InsufficientLINKTokens","inputs":[{"name":"balance","type":"uint256","internalType":"uint256"},{"name":"paid","type":"uint256","internalType":"uint256"}]},{"type":"error","name":"NoEggs","inputs":[]},{"type":"error","name":"NotAntOwner","inputs":[]},{"type":"error","name":"PreOvipositionPeriod","inputs":[]},{"type":"error","name":"RequestNotFound","inputs":[{"name":"requestId","type":"uint256","internalType":"uint256"}]},{"type":"error","name":"TransferFailed","inputs":[]},{"type":"error","name":"WrongEtherSent","inputs":[]},{"type":"error","name":"ZeroAddress","inputs":[]},{"type":"error","name":"ZeroAmount","inputs":[]}],"bytecode":{"object":"0x610100604052662386f26fc10000600855660e35fa931a00006009553480156200002857600080fd5b50604051620033ad380380620033ad8339810160408190526200004b9162000237565b8280600084846040518060400160405280600b81526020016a43727970746f20416e747360a81b81525060405180604001604052806004815260200163414e545360e01b8152508160009081620000a3919062000339565b506001620000b2828262000339565b5050506001600160a01b03918216608052811660a05282166200011c5760405162461bcd60e51b815260206004820152601860248201527f43616e6e6f7420736574206f776e657220746f207a65726f000000000000000060448201526064015b60405180910390fd5b600680546001600160a01b0319166001600160a01b03848116919091179091558116156200014f576200014f816200016e565b5050506001600160a01b0393841660c0525090911660e0525062000405565b336001600160a01b03821603620001c85760405162461bcd60e51b815260206004820152601760248201527f43616e6e6f74207472616e7366657220746f2073656c66000000000000000000604482015260640162000113565b600780546001600160a01b0319166001600160a01b03838116918217909255600654604051919216907fed8889f560326eb138920d842192f0eb3dd22b4f139c87a2c57538e05bae127890600090a350565b80516001600160a01b03811681146200023257600080fd5b919050565b600080600080608085870312156200024e57600080fd5b62000259856200021a565b935062000269602086016200021a565b925062000279604086016200021a565b915062000289606086016200021a565b905092959194509250565b634e487b7160e01b600052604160045260246000fd5b600181811c90821680620002bf57607f821691505b602082108103620002e057634e487b7160e01b600052602260045260246000fd5b50919050565b601f8211156200033457600081815260208120601f850160051c810160208610156200030f5750805b601f850160051c820191505b8181101562000330578281556001016200031b565b5050505b505050565b81516001600160401b0381111562000355576200035562000294565b6200036d81620003668454620002aa565b84620002e6565b602080601f831160018114620003a557600084156200038c5750858301515b600019600386901b1c1916600185901b17855562000330565b600085815260208120601f198616915b82811015620003d657888601518255948401946001909101908401620003b5565b5085821015620003f55787850151600019600388901b60f8161c191681555b5050505050600190811b01905550565b60805160a05160c05160e051612f3d6200047060003960008181610f2d015261130501526000818161096d01528181610ad701528181610c8201526124680152600081816107de0152818161125601528181611cee0152611df701526000611cc40152612f3d6000f3fe6080604052600436106101e35760003560e01c806361dcb05411610102578063a22cb46511610095578063e5f9598c11610064578063e5f9598c1461056e578063e985e9c51461059b578063ef88d7f0146105e4578063f2fde38b1461060457600080fd5b8063a22cb465146104f7578063b0797c5514610517578063b88d4fde1461052e578063c87b56dd1461054e57600080fd5b806379ba5097116100d157806379ba50971461045557806386f478731461046a5780638da5cb5b146104c457806395d89b41146104e257600080fd5b806361dcb054146103d55780636352211e146103f557806370a082311461041557806373edb1431461043557600080fd5b80633c6ab61d1161017a578063514b157011610149578063514b15701461036a578063522f68151461037f578063538795d51461039f57806354b7faae146103b557600080fd5b80633c6ab61d1461030d5780633d8712291461032257806342842e0e146103375780634fd535961461035757600080fd5b80631fe543e3116101b65780631fe543e31461029957806323b872dd146102b9578063248452bd146102d95780632e61a7bf146102f857600080fd5b806301ffc9a7146101e857806306fdde031461021d578063081812fc1461023f578063095ea7b314610277575b600080fd5b3480156101f457600080fd5b5061020861020336600461283b565b610624565b60405190151581526020015b60405180910390f35b34801561022957600080fd5b50610232610709565b60405161021491906128c6565b34801561024b57600080fd5b5061025f61025a3660046128d9565b61079b565b6040516001600160a01b039091168152602001610214565b34801561028357600080fd5b50610297610292366004612907565b6107c4565b005b3480156102a557600080fd5b506102976102b43660046129b1565b6107d3565b3480156102c557600080fd5b506102976102d4366004612a63565b610874565b3480156102e557600080fd5b506009545b604051908152602001610214565b34801561030457600080fd5b506102ea610931565b34801561031957600080fd5b506102ea600a81565b34801561032e57600080fd5b50600a546102ea565b34801561034357600080fd5b50610297610352366004612a63565b610bad565b6102976103653660046128d9565b610bcd565b34801561037657600080fd5b506008546102ea565b34801561038b57600080fd5b5061029761039a366004612907565b610d23565b3480156103ab57600080fd5b506102ea61025881565b3480156103c157600080fd5b506102976103d0366004612907565b610e6c565b3480156103e157600080fd5b506102976103f03660046128d9565b610fd0565b34801561040157600080fd5b5061025f6104103660046128d9565b6110f4565b34801561042157600080fd5b506102ea610430366004612aa4565b6110ff565b34801561044157600080fd5b506102ea6104503660046128d9565b611160565b34801561046157600080fd5b506102976114bf565b34801561047657600080fd5b5061048a6104853660046128d9565b6115a6565b60408051825181526020808401511515818301529282015180516001600160a01b0316928201929092529101516060820152608001610214565b3480156104d057600080fd5b506006546001600160a01b031661025f565b3480156104ee57600080fd5b50610232611609565b34801561050357600080fd5b50610297610512366004612acf565b611618565b34801561052357600080fd5b506102ea6203f48081565b34801561053a57600080fd5b50610297610549366004612b08565b611623565b34801561055a57600080fd5b506102326105693660046128d9565b61163a565b34801561057a57600080fd5b506102ea6105893660046128d9565b6000908152600c602052604090205490565b3480156105a757600080fd5b506102086105b6366004612bea565b6001600160a01b03918216600090815260056020908152604080832093909416825291909152205460ff1690565b3480156105f057600080fd5b506102976105ff366004612c18565b6116af565b34801561061057600080fd5b5061029761061f366004612aa4565b61177a565b60007fffffffff0000000000000000000000000000000000000000000000000000000082167f80ac58cd0000000000000000000000000000000000000000000000000000000014806106b757507fffffffff0000000000000000000000000000000000000000000000000000000082167f5b5e139f00000000000000000000000000000000000000000000000000000000145b8061070357507f01ffc9a7000000000000000000000000000000000000000000000000000000007fffffffff000000000000000000000000000000000000000000000000000000008316145b92915050565b60606000805461071890612c3a565b80601f016020809104026020016040519081016040528092919081815260200182805461074490612c3a565b80156107915780601f1061076657610100808354040283529160200191610791565b820191906000526020600020905b81548152906001019060200180831161077457829003601f168201915b5050505050905090565b60006107a68261178e565b506000828152600460205260409020546001600160a01b0316610703565b6107cf8282336117e0565b5050565b336001600160a01b037f0000000000000000000000000000000000000000000000000000000000000000161461086a576040517f08c379a000000000000000000000000000000000000000000000000000000000815260206004820152601f60248201527f6f6e6c792056524620563220777261707065722063616e2066756c66696c6c0060448201526064015b60405180910390fd5b6107cf82826117ed565b6001600160a01b0382166108b7576040517f64a0ae9200000000000000000000000000000000000000000000000000000000815260006004820152602401610861565b60006108c4838333611990565b9050836001600160a01b0316816001600160a01b03161461092b576040517f64283d7b0000000000000000000000000000000000000000000000000000000081526001600160a01b0380861660048301526024820184905282166044820152606401610861565b50505050565b6040517f70a082310000000000000000000000000000000000000000000000000000000081523360048201526000906001906001600160a01b037f000000000000000000000000000000000000000000000000000000000000000016906370a0823190602401602060405180830381865afa1580156109b4573d6000803e3d6000fd5b505050506040513d601f19601f820116820180604052508101906109d89190612c87565b1015610a10576040517f6c308a2f00000000000000000000000000000000000000000000000000000000815260040160405180910390fd5b600b54600003610a3557600a60008154610a2990612ccf565b91829055509050610aa2565b600b8054610a4590600190612d07565b81548110610a5557610a55612d1a565b90600052602060002001549050600b805480610a7357610a73612d49565b60019003818190600052602060002001600090559055600a6000815480929190610a9c90612ccf565b91905055505b6040517f9dc29fac000000000000000000000000000000000000000000000000000000008152336004820152600160248201527f00000000000000000000000000000000000000000000000000000000000000006001600160a01b031690639dc29fac90604401600060405180830381600087803b158015610b2357600080fd5b505af1158015610b37573d6000803e3d6000fd5b50505050610b453382611abf565b6000610b5361025842612d78565b6000838152600c602090815260409182902083905581513381529081018590529081018290529091507f0cbdf51017fa3db672d6f94a941b3b47f2c1c169bf808bac7391b8a9269cffab9060600160405180910390a15090565b610bc883838360405180602001604052806000815250611623565b505050565b80600003610c07576040517f1f2a200500000000000000000000000000000000000000000000000000000000815260040160405180910390fd5b3460085482610c169190612d8b565b14610c4d576040517f2f1e736300000000000000000000000000000000000000000000000000000000815260040160405180910390fd5b6040517f40c10f19000000000000000000000000000000000000000000000000000000008152336004820152602481018290527f00000000000000000000000000000000000000000000000000000000000000006001600160a01b0316906340c10f1990604401600060405180830381600087803b158015610cce57600080fd5b505af1158015610ce2573d6000803e3d6000fd5b505060408051338152602081018590527fecedcda9002dd5028204a70dddaa2155459b6dff3c3e20543450a189e736dc49935001905060405180910390a150565b610d2b611b56565b6001600160a01b038216610d6b576040517fd92e233d00000000000000000000000000000000000000000000000000000000815260040160405180910390fd5b80600003610da5576040517f1f2a200500000000000000000000000000000000000000000000000000000000815260040160405180910390fd5b80471015610ddf576040517f6a12f10400000000000000000000000000000000000000000000000000000000815260040160405180910390fd5b6000826001600160a01b03168260405160006040518083038185875af1925050503d8060008114610e2c576040519150601f19603f3d011682016040523d82523d6000602084013e610e31565b606091505b5050905080610bc8576040517f90b8ec1800000000000000000000000000000000000000000000000000000000815260040160405180910390fd5b610e74611b56565b6001600160a01b038216610eb4576040517fd92e233d00000000000000000000000000000000000000000000000000000000815260040160405180910390fd5b80600003610eee576040517f1f2a200500000000000000000000000000000000000000000000000000000000815260040160405180910390fd5b6040517fa9059cbb0000000000000000000000000000000000000000000000000000000081526001600160a01b038381166004830152602482018390527f0000000000000000000000000000000000000000000000000000000000000000169063a9059cbb906044016020604051808303816000875af1158015610f76573d6000803e3d6000fd5b505050506040513d601f19601f82011682018060405250810190610f9a9190612da2565b6107cf576040517f90b8ec1800000000000000000000000000000000000000000000000000000000815260040160405180910390fd5b6000818152600260205260409020546001600160a01b03163314611020576040517f16bea89400000000000000000000000000000000000000000000000000000000815260040160405180910390fd5b61102981611bcc565b600954604051600090339083908381818185875af1925050503d806000811461106e576040519150601f19603f3d011682016040523d82523d6000602084013e611073565b606091505b50509050806110ae576040517f90b8ec1800000000000000000000000000000000000000000000000000000000815260040160405180910390fd5b60408051338152602081018590529081018390527f3369562294f6e2ef65ca6e38e7a7c581bd2dfb228a017e746217c6880cbeab009060600160405180910390a1505050565b60006107038261178e565b60006001600160a01b038216611144576040517f89c62b6400000000000000000000000000000000000000000000000000000000815260006004820152602401610861565b506001600160a01b031660009081526003602052604090205490565b6000818152600260205260408120546001600160a01b031633146111b0576040517f16bea89400000000000000000000000000000000000000000000000000000000815260040160405180910390fd5b6000828152600c6020526040902054428111156111f9576040517f53ea709100000000000000000000000000000000000000000000000000000000815260040160405180910390fd5b61120283611c2c565b80421015801561121d575061121a6203f48082612d78565b42105b156114b9576040517f4306d354000000000000000000000000000000000000000000000000000000008152620493e060048201526000907f00000000000000000000000000000000000000000000000000000000000000006001600160a01b031690634306d35490602401602060405180830381865afa1580156112a5573d6000803e3d6000fd5b505050506040513d601f19601f820116820180604052508101906112c99190612c87565b6040517f70a082310000000000000000000000000000000000000000000000000000000081523060048201529091506000906001600160a01b037f000000000000000000000000000000000000000000000000000000000000000016906370a0823190602401602060405180830381865afa15801561134c573d6000803e3d6000fd5b505050506040513d601f19601f820116820180604052508101906113709190612c87565b9050818110156113b6576040517f1876a02e0000000000000000000000000000000000000000000000000000000081526004810182905260248101839052604401610861565b6113c6620493e060036002611c85565b6040805160608101825284815260006020808301828152845180860186523381528083018c9052848601908152868452600d83529285902093518455516001840180547fffffffffffffffffffffffffffffffffffffffffffffffffffffffffffffff0016911515919091179055905180516002840180547fffffffffffffffffffffffff0000000000000000000000000000000000000000166001600160a01b0390921691909117905581015160039092019190915581518381529081018590529195507f03bdba022a54045a6998cc489ac4b9dc1de59e776f960b46f69f44fe7676927d910160405180910390a150505b50919050565b6007546001600160a01b03163314611533576040517f08c379a000000000000000000000000000000000000000000000000000000000815260206004820152601660248201527f4d7573742062652070726f706f736564206f776e6572000000000000000000006044820152606401610861565b600680547fffffffffffffffffffffffff0000000000000000000000000000000000000000808216339081179093556007805490911690556040516001600160a01b03909116919082907f8be0079c531659141344cd1fd0a4f28419497f9722a3daafe3b4186f6b6457e090600090a350565b6115ae6127c7565b506000908152600d6020908152604091829020825160608101845281548152600182015460ff161515818401528351808501855260028301546001600160a01b03168152600390920154928201929092529181019190915290565b60606001805461071890612c3a565b6107cf338383611e7f565b61162e848484610874565b61092b84848484611f55565b60606116458261178e565b50600061165d60408051602081019091526000815290565b9050600081511161167d57604051806020016040528060008152506116a8565b8061168784612118565b604051602001611698929190612dbf565b6040516020818303038152906040525b9392505050565b6116b7611b56565b8115806116c2575080155b156116f9576040517f1f2a200500000000000000000000000000000000000000000000000000000000815260040160405180910390fd5b818110611732576040517f28cf0d4c00000000000000000000000000000000000000000000000000000000815260040160405180910390fd5b6008829055600981905560408051838152602081018390527f6546f60f34df611fa42503098acc39d5ab88bc73febe64b3cc14e5a92e3a66a791015b60405180910390a15050565b611782611b56565b61178b816121d6565b50565b6000818152600260205260408120546001600160a01b031680610703576040517f7e27328900000000000000000000000000000000000000000000000000000000815260048101849052602401610861565b610bc883838360016122b2565b6000828152600d60209081526040808320815180830183526002808301546001600160a01b0390811680845260038501548488018190528852919095529290942054909392161461186a576040517f16bea89400000000000000000000000000000000000000000000000000000000815260040160405180910390fd5b81546000036118a8576040517f4ec726c700000000000000000000000000000000000000000000000000000000815260048101859052602401610861565b600182810180547fffffffffffffffffffffffffffffffffffffffffffffffffffffffffffffff0016909117905581546040805186815260208101929092527fbd03fc99dbe54c7b82300ba22cb10a54cde8d793ba3d99933518fe8ad46723e1910160405180910390a16000600a8460008151811061192957611929612d1a565b602002602001015161193b9190612dee565b611946906001612d78565b90506000600a6119568382612d8b565b6119609190612d07565b90506119888383838860018151811061197b5761197b612d1a565b6020026020010151612408565b505050505050565b6000828152600260205260408120546001600160a01b03908116908316156119bd576119bd818486612578565b6001600160a01b03811615611a19576119da6000856000806122b2565b6001600160a01b038116600090815260036020526040902080547fffffffffffffffffffffffffffffffffffffffffffffffffffffffffffffffff0190555b6001600160a01b03851615611a48576001600160a01b0385166000908152600360205260409020805460010190555b60008481526002602052604080822080547fffffffffffffffffffffffff0000000000000000000000000000000000000000166001600160a01b0389811691821790925591518793918516917fddf252ad1be2c89b69c2b068fc378daa952ba7f163c4a11628f55a4df523b3ef91a4949350505050565b6001600160a01b038216611b02576040517f64a0ae9200000000000000000000000000000000000000000000000000000000815260006004820152602401610861565b6000611b1083836000611990565b90506001600160a01b03811615610bc8576040517f73c6ac6e00000000000000000000000000000000000000000000000000000000815260006004820152602401610861565b6006546001600160a01b03163314611bca576040517f08c379a000000000000000000000000000000000000000000000000000000000815260206004820152601660248201527f4f6e6c792063616c6c61626c65206279206f776e6572000000000000000000006044820152606401610861565b565b611bd58161260e565b600a8054906000611be583612e29565b90915550506000818152600c60205260408120819055600b805460018101825591527f0175b7a638427703f0dbe7bb9bbf987a2551717b34e79f33b5b1008d1fa01db90155565b6000611c3a61025842612d78565b6000838152600c602090815260409182902083905581518581529081018390529192507f47fe2b07cdc878aa5c25511db2d5ce596c91cc281fee8c41a0800e7a70a8e1ad910161176e565b6040517f4306d35400000000000000000000000000000000000000000000000000000000815263ffffffff841660048201526000906001600160a01b037f0000000000000000000000000000000000000000000000000000000000000000811691634000aea0917f00000000000000000000000000000000000000000000000000000000000000009190821690634306d35490602401602060405180830381865afa158015611d38573d6000803e3d6000fd5b505050506040513d601f19601f82011682018060405250810190611d5c9190612c87565b6040805163ffffffff808b16602083015261ffff8a169282019290925290871660608201526080016040516020818303038152906040526040518463ffffffff1660e01b8152600401611db193929190612e5e565b6020604051808303816000875af1158015611dd0573d6000803e3d6000fd5b505050506040513d601f19601f82011682018060405250810190611df49190612da2565b507f00000000000000000000000000000000000000000000000000000000000000006001600160a01b031663fc2a88c36040518163ffffffff1660e01b8152600401602060405180830381865afa158015611e53573d6000803e3d6000fd5b505050506040513d601f19601f82011682018060405250810190611e779190612c87565b949350505050565b6001600160a01b038216611eca576040517f5b08ba180000000000000000000000000000000000000000000000000000000081526001600160a01b0383166004820152602401610861565b6001600160a01b0383811660008181526005602090815260408083209487168084529482529182902080547fffffffffffffffffffffffffffffffffffffffffffffffffffffffffffffff001686151590811790915591519182527f17307eab39ab6107e8899845ad3d59bd9653f200f220920489ca2b5937696c31910160405180910390a3505050565b6001600160a01b0383163b1561092b576040517f150b7a020000000000000000000000000000000000000000000000000000000081526001600160a01b0384169063150b7a0290611fb0903390889087908790600401612e8f565b6020604051808303816000875af1925050508015612009575060408051601f3d9081017fffffffffffffffffffffffffffffffffffffffffffffffffffffffffffffffe016820190925261200691810190612ecb565b60015b61208b573d808015612037576040519150601f19603f3d011682016040523d82523d6000602084013e61203c565b606091505b508051600003612083576040517f64a0ae920000000000000000000000000000000000000000000000000000000081526001600160a01b0385166004820152602401610861565b805181602001fd5b7fffffffff0000000000000000000000000000000000000000000000000000000081167f150b7a020000000000000000000000000000000000000000000000000000000014612111576040517f64a0ae920000000000000000000000000000000000000000000000000000000081526001600160a01b0385166004820152602401610861565b5050505050565b6060600061212583612662565b600101905060008167ffffffffffffffff81111561214557612145612933565b6040519080825280601f01601f19166020018201604052801561216f576020820181803683370190505b5090508181016020015b7fffffffffffffffffffffffffffffffffffffffffffffffffffffffffffffffff017f3031323334353637383961626364656600000000000000000000000000000000600a86061a8153600a850494508461217957509392505050565b336001600160a01b03821603612248576040517f08c379a000000000000000000000000000000000000000000000000000000000815260206004820152601760248201527f43616e6e6f74207472616e7366657220746f2073656c660000000000000000006044820152606401610861565b600780547fffffffffffffffffffffffff0000000000000000000000000000000000000000166001600160a01b03838116918217909255600654604051919216907fed8889f560326eb138920d842192f0eb3dd22b4f139c87a2c57538e05bae127890600090a350565b80806122c657506001600160a01b03821615155b156123c05760006122d68461178e565b90506001600160a01b038316158015906123025750826001600160a01b0316816001600160a01b031614155b801561233457506001600160a01b0380821660009081526005602090815260408083209387168352929052205460ff16155b15612376576040517fa9fbf51f0000000000000000000000000000000000000000000000000000000081526001600160a01b0384166004820152602401610861565b81156123be5783856001600160a01b0316826001600160a01b03167f8c5be1e5ebec7d5bd14f71427d1e84f3dd0314c0f7b2291e5b200ac8c7c3b92560405160405180910390a45b505b5050600090815260046020526040902080547fffffffffffffffffffffffff0000000000000000000000000000000000000000166001600160a01b0392909216919091179055565b60008080612417606485612dee565b905060005b868160ff1610156125105787516040517f40c10f190000000000000000000000000000000000000000000000000000000081526001600160a01b039182166004820152600160248201527f0000000000000000000000000000000000000000000000000000000000000000909116906340c10f1990604401600060405180830381600087803b1580156124ae57600080fd5b505af11580156124c2573d6000803e3d6000fd5b5050505083806124d190612ccf565b9450508582116124f157600192506124ec8860200151611bcc565b612510565b816124fb81612e29565b9250508061250881612ee8565b91505061241c565b508651602080890151604080516001600160a01b0390941684529183015281018790526060810184905282151560808201527f351843ffd250084c50a4c6bd8a2bb10d719c7b74c7064a7a7a21f83c5d6343e49060a00160405180910390a150505050505050565b612583838383612744565b610bc8576001600160a01b0383166125ca576040517f7e27328900000000000000000000000000000000000000000000000000000000815260048101829052602401610861565b6040517f177e802f0000000000000000000000000000000000000000000000000000000081526001600160a01b038316600482015260248101829052604401610861565b600061261d6000836000611990565b90506001600160a01b0381166107cf576040517f7e27328900000000000000000000000000000000000000000000000000000000815260048101839052602401610861565b6000807a184f03e93ff9f4daa797ed6e38ed64bf6a1f01000000000000000083106126ab577a184f03e93ff9f4daa797ed6e38ed64bf6a1f010000000000000000830492506040015b6d04ee2d6d415b85acef810000000083106126d7576d04ee2d6d415b85acef8100000000830492506020015b662386f26fc1000083106126f557662386f26fc10000830492506010015b6305f5e100831061270d576305f5e100830492506008015b612710831061272157612710830492506004015b60648310612733576064830492506002015b600a83106107035760010192915050565b60006001600160a01b03831615801590611e775750826001600160a01b0316846001600160a01b0316148061279e57506001600160a01b0380851660009081526005602090815260408083209387168352929052205460ff165b80611e775750506000908152600460205260409020546001600160a01b03908116911614919050565b604051806060016040528060008152602001600015158152602001612808604051806040016040528060006001600160a01b03168152602001600081525090565b905290565b7fffffffff000000000000000000000000000000000000000000000000000000008116811461178b57600080fd5b60006020828403121561284d57600080fd5b81356116a88161280d565b60005b8381101561287357818101518382015260200161285b565b50506000910152565b60008151808452612894816020860160208601612858565b601f017fffffffffffffffffffffffffffffffffffffffffffffffffffffffffffffffe0169290920160200192915050565b6020815260006116a8602083018461287c565b6000602082840312156128eb57600080fd5b5035919050565b6001600160a01b038116811461178b57600080fd5b6000806040838503121561291a57600080fd5b8235612925816128f2565b946020939093013593505050565b7f4e487b7100000000000000000000000000000000000000000000000000000000600052604160045260246000fd5b604051601f82017fffffffffffffffffffffffffffffffffffffffffffffffffffffffffffffffe016810167ffffffffffffffff811182821017156129a9576129a9612933565b604052919050565b600080604083850312156129c457600080fd5b8235915060208084013567ffffffffffffffff808211156129e457600080fd5b818601915086601f8301126129f857600080fd5b813581811115612a0a57612a0a612933565b8060051b9150612a1b848301612962565b8181529183018401918481019089841115612a3557600080fd5b938501935b83851015612a5357843582529385019390850190612a3a565b8096505050505050509250929050565b600080600060608486031215612a7857600080fd5b8335612a83816128f2565b92506020840135612a93816128f2565b929592945050506040919091013590565b600060208284031215612ab657600080fd5b81356116a8816128f2565b801515811461178b57600080fd5b60008060408385031215612ae257600080fd5b8235612aed816128f2565b91506020830135612afd81612ac1565b809150509250929050565b60008060008060808587031215612b1e57600080fd5b8435612b29816128f2565b9350602085810135612b3a816128f2565b935060408601359250606086013567ffffffffffffffff80821115612b5e57600080fd5b818801915088601f830112612b7257600080fd5b813581811115612b8457612b84612933565b612bb4847fffffffffffffffffffffffffffffffffffffffffffffffffffffffffffffffe0601f84011601612962565b91508082528984828501011115612bca57600080fd5b808484018584013760008482840101525080935050505092959194509250565b60008060408385031215612bfd57600080fd5b8235612c08816128f2565b91506020830135612afd816128f2565b60008060408385031215612c2b57600080fd5b50508035926020909101359150565b600181811c90821680612c4e57607f821691505b6020821081036114b9577f4e487b7100000000000000000000000000000000000000000000000000000000600052602260045260246000fd5b600060208284031215612c9957600080fd5b5051919050565b7f4e487b7100000000000000000000000000000000000000000000000000000000600052601160045260246000fd5b60007fffffffffffffffffffffffffffffffffffffffffffffffffffffffffffffffff8203612d0057612d00612ca0565b5060010190565b8181038181111561070357610703612ca0565b7f4e487b7100000000000000000000000000000000000000000000000000000000600052603260045260246000fd5b7f4e487b7100000000000000000000000000000000000000000000000000000000600052603160045260246000fd5b8082018082111561070357610703612ca0565b808202811582820484141761070357610703612ca0565b600060208284031215612db457600080fd5b81516116a881612ac1565b60008351612dd1818460208801612858565b835190830190612de5818360208801612858565b01949350505050565b600082612e24577f4e487b7100000000000000000000000000000000000000000000000000000000600052601260045260246000fd5b500690565b600081612e3857612e38612ca0565b507fffffffffffffffffffffffffffffffffffffffffffffffffffffffffffffffff0190565b6001600160a01b0384168152826020820152606060408201526000612e86606083018461287c565b95945050505050565b60006001600160a01b03808716835280861660208401525083604083015260806060830152612ec1608083018461287c565b9695505050505050565b600060208284031215612edd57600080fd5b81516116a88161280d565b600060ff821660ff8103612efe57612efe612ca0565b6001019291505056fea264697066735822122022bfee086bdd90a4352a893a29272dd80b64a30d2d18e5f94f719c3d1a03142664736f6c63430008140033","linkReferences":{}},"methodIdentifiers":{"MAX_EGGS_FERTILIZED()":"3c6ab61d","OVIPOSITION_DEADLINE()":"b0797c55","PREOVIPOSITION_PERIOD()":"538795d5","acceptOwnership()":"79ba5097","approve(address,uint256)":"095ea7b3","balanceOf(address)":"70a08231","buyEggs(uint256)":"4fd53596","createAnt()":"2e61a7bf","getAntPrice()":"248452bd","getAntsCreated()":"3d871229","getApproved(uint256)":"081812fc","getEggPrice()":"514b1570","getOvipositionPeriod(uint256)":"e5f9598c","getOvipositionRequest(uint256)":"86f47873","isApprovedForAll(address,address)":"e985e9c5","name()":"06fdde03","owner()":"8da5cb5b","ownerOf(uint256)":"6352211e","rawFulfillRandomWords(uint256,uint256[])":"1fe543e3","safeTransferFrom(address,address,uint256)":"42842e0e","safeTransferFrom(address,address,uint256,bytes)":"b88d4fde","sellAnt(uint256)":"61dcb054","setApprovalForAll(address,bool)":"a22cb465","startOviposition(uint256)":"73edb143","supportsInterface(bytes4)":"01ffc9a7","symbol()":"95d89b41","tokenURI(uint256)":"c87b56dd","transferFrom(address,address,uint256)":"23b872dd","transferOwnership(address)":"f2fde38b","updatePrices(uint256,uint256)":"ef88d7f0","withdrawEther(address,uint256)":"522f6815","withdrawLink(address,uint256)":"54b7faae"},"id":109}