{"abi":[{"type":"constructor","inputs":[{"name":"_eggs","type":"address","internalType":"address"},{"name":"_governance","type":"address","internalType":"address"},{"name":"_linkAddress","type":"address","internalType":"address"},{"name":"_wrapperAddress","type":"address","internalType":"address"}],"stateMutability":"nonpayable"},{"type":"function","name":"MAX_EGGS_TO_LAY","inputs":[],"outputs":[{"name":"","type":"uint256","internalType":"uint256"}],"stateMutability":"view"},{"type":"function","name":"OVIPOSITION_DELAY","inputs":[],"outputs":[{"name":"","type":"uint256","internalType":"uint256"}],"stateMutability":"view"},{"type":"function","name":"PREOVIPOSITION_PERIOD","inputs":[],"outputs":[{"name":"","type":"uint256","internalType":"uint256"}],"stateMutability":"view"},{"type":"function","name":"acceptOwnership","inputs":[],"outputs":[],"stateMutability":"nonpayable"},{"type":"function","name":"approve","inputs":[{"name":"to","type":"address","internalType":"address"},{"name":"tokenId","type":"uint256","internalType":"uint256"}],"outputs":[],"stateMutability":"nonpayable"},{"type":"function","name":"balanceOf","inputs":[{"name":"owner","type":"address","internalType":"address"}],"outputs":[{"name":"","type":"uint256","internalType":"uint256"}],"stateMutability":"view"},{"type":"function","name":"buyEggs","inputs":[{"name":"_amount","type":"uint256","internalType":"uint256"}],"outputs":[],"stateMutability":"payable"},{"type":"function","name":"createAnt","inputs":[],"outputs":[],"stateMutability":"nonpayable"},{"type":"function","name":"eggs","inputs":[],"outputs":[{"name":"","type":"address","internalType":"contract IEgg"}],"stateMutability":"view"},{"type":"function","name":"getAntPrice","inputs":[],"outputs":[{"name":"","type":"uint256","internalType":"uint256"}],"stateMutability":"view"},{"type":"function","name":"getAntsCreated","inputs":[],"outputs":[{"name":"","type":"uint256","internalType":"uint256"}],"stateMutability":"view"},{"type":"function","name":"getApproved","inputs":[{"name":"tokenId","type":"uint256","internalType":"uint256"}],"outputs":[{"name":"","type":"address","internalType":"address"}],"stateMutability":"view"},{"type":"function","name":"getEggPrice","inputs":[],"outputs":[{"name":"","type":"uint256","internalType":"uint256"}],"stateMutability":"view"},{"type":"function","name":"getOvipositionPeriod","inputs":[{"name":"_antId","type":"uint256","internalType":"uint256"}],"outputs":[{"name":"ovipositionPeriod","type":"uint256","internalType":"uint256"}],"stateMutability":"view"},{"type":"function","name":"getOvipositionRequest","inputs":[{"name":"_requestId","type":"uint256","internalType":"uint256"}],"outputs":[{"name":"","type":"tuple","internalType":"struct ICryptoAnts.OvipositionRequest","components":[{"name":"paid","type":"uint256","internalType":"uint256"},{"name":"fulfilled","type":"bool","internalType":"bool"},{"name":"ant","type":"tuple","internalType":"struct ICryptoAnts.Ant","components":[{"name":"owner","type":"address","internalType":"address"},{"name":"id","type":"uint256","internalType":"uint256"}]}]}],"stateMutability":"view"},{"type":"function","name":"isApprovedForAll","inputs":[{"name":"owner","type":"address","internalType":"address"},{"name":"operator","type":"address","internalType":"address"}],"outputs":[{"name":"","type":"bool","internalType":"bool"}],"stateMutability":"view"},{"type":"function","name":"name","inputs":[],"outputs":[{"name":"","type":"string","internalType":"string"}],"stateMutability":"view"},{"type":"function","name":"owner","inputs":[],"outputs":[{"name":"","type":"address","internalType":"address"}],"stateMutability":"view"},{"type":"function","name":"ownerOf","inputs":[{"name":"tokenId","type":"uint256","internalType":"uint256"}],"outputs":[{"name":"","type":"address","internalType":"address"}],"stateMutability":"view"},{"type":"function","name":"rawFulfillRandomWords","inputs":[{"name":"_requestId","type":"uint256","internalType":"uint256"},{"name":"_randomWords","type":"uint256[]","internalType":"uint256[]"}],"outputs":[],"stateMutability":"nonpayable"},{"type":"function","name":"safeTransferFrom","inputs":[{"name":"from","type":"address","internalType":"address"},{"name":"to","type":"address","internalType":"address"},{"name":"tokenId","type":"uint256","internalType":"uint256"}],"outputs":[],"stateMutability":"nonpayable"},{"type":"function","name":"safeTransferFrom","inputs":[{"name":"from","type":"address","internalType":"address"},{"name":"to","type":"address","internalType":"address"},{"name":"tokenId","type":"uint256","internalType":"uint256"},{"name":"data","type":"bytes","internalType":"bytes"}],"outputs":[],"stateMutability":"nonpayable"},{"type":"function","name":"sellAnt","inputs":[{"name":"_antId","type":"uint256","internalType":"uint256"}],"outputs":[],"stateMutability":"nonpayable"},{"type":"function","name":"setApprovalForAll","inputs":[{"name":"operator","type":"address","internalType":"address"},{"name":"approved","type":"bool","internalType":"bool"}],"outputs":[],"stateMutability":"nonpayable"},{"type":"function","name":"startOviposition","inputs":[{"name":"_antId","type":"uint256","internalType":"uint256"}],"outputs":[{"name":"requestId","type":"uint256","internalType":"uint256"}],"stateMutability":"nonpayable"},{"type":"function","name":"supportsInterface","inputs":[{"name":"interfaceId","type":"bytes4","internalType":"bytes4"}],"outputs":[{"name":"","type":"bool","internalType":"bool"}],"stateMutability":"view"},{"type":"function","name":"symbol","inputs":[],"outputs":[{"name":"","type":"string","internalType":"string"}],"stateMutability":"view"},{"type":"function","name":"tokenURI","inputs":[{"name":"tokenId","type":"uint256","internalType":"uint256"}],"outputs":[{"name":"","type":"string","internalType":"string"}],"stateMutability":"view"},{"type":"function","name":"transferFrom","inputs":[{"name":"from","type":"address","internalType":"address"},{"name":"to","type":"address","internalType":"address"},{"name":"tokenId","type":"uint256","internalType":"uint256"}],"outputs":[],"stateMutability":"nonpayable"},{"type":"function","name":"transferOwnership","inputs":[{"name":"to","type":"address","internalType":"address"}],"outputs":[],"stateMutability":"nonpayable"},{"type":"function","name":"updatePrices","inputs":[{"name":"_newEggPrice","type":"uint256","internalType":"uint256"},{"name":"_newAntPrice","type":"uint256","internalType":"uint256"}],"outputs":[],"stateMutability":"nonpayable"},{"type":"function","name":"withdrawLink","inputs":[{"name":"_receiver","type":"address","internalType":"address"},{"name":"_amount","type":"uint256","internalType":"uint256"}],"outputs":[],"stateMutability":"nonpayable"},{"type":"event","name":"AntCreated","inputs":[{"name":"owner","type":"address","indexed":false,"internalType":"address"},{"name":"antId","type":"uint256","indexed":false,"internalType":"uint256"}],"anonymous":false},{"type":"event","name":"AntSold","inputs":[{"name":"owner","type":"address","indexed":false,"internalType":"address"},{"name":"antId","type":"uint256","indexed":false,"internalType":"uint256"}],"anonymous":false},{"type":"event","name":"Approval","inputs":[{"name":"owner","type":"address","indexed":true,"internalType":"address"},{"name":"approved","type":"address","indexed":true,"internalType":"address"},{"name":"tokenId","type":"uint256","indexed":true,"internalType":"uint256"}],"anonymous":false},{"type":"event","name":"ApprovalForAll","inputs":[{"name":"owner","type":"address","indexed":true,"internalType":"address"},{"name":"operator","type":"address","indexed":true,"internalType":"address"},{"name":"approved","type":"bool","indexed":false,"internalType":"bool"}],"anonymous":false},{"type":"event","name":"EggsBought","inputs":[{"name":"owner","type":"address","indexed":false,"internalType":"address"},{"name":"amount","type":"uint256","indexed":false,"internalType":"uint256"}],"anonymous":false},{"type":"event","name":"EggsLayed","inputs":[{"name":"owner","type":"address","indexed":false,"internalType":"address"},{"name":"antId","type":"uint256","indexed":false,"internalType":"uint256"},{"name":"eggsLayed","type":"uint256","indexed":false,"internalType":"uint256"},{"name":"isAntDead","type":"bool","indexed":false,"internalType":"bool"}],"anonymous":false},{"type":"event","name":"OvipositionRequestFulfilled","inputs":[{"name":"requestId","type":"uint256","indexed":false,"internalType":"uint256"},{"name":"paid","type":"uint256","indexed":false,"internalType":"uint256"}],"anonymous":false},{"type":"event","name":"OvipositionRequested","inputs":[{"name":"requestId","type":"uint256","indexed":false,"internalType":"uint256"},{"name":"paid","type":"uint256","indexed":false,"internalType":"uint256"}],"anonymous":false},{"type":"event","name":"OwnershipTransferRequested","inputs":[{"name":"from","type":"address","indexed":true,"internalType":"address"},{"name":"to","type":"address","indexed":true,"internalType":"address"}],"anonymous":false},{"type":"event","name":"OwnershipTransferred","inputs":[{"name":"from","type":"address","indexed":true,"internalType":"address"},{"name":"to","type":"address","indexed":true,"internalType":"address"}],"anonymous":false},{"type":"event","name":"PricesUpdated","inputs":[{"name":"newEggPrice","type":"uint256","indexed":false,"internalType":"uint256"},{"name":"newAntPrice","type":"uint256","indexed":false,"internalType":"uint256"}],"anonymous":false},{"type":"event","name":"Transfer","inputs":[{"name":"from","type":"address","indexed":true,"internalType":"address"},{"name":"to","type":"address","indexed":true,"internalType":"address"},{"name":"tokenId","type":"uint256","indexed":true,"internalType":"uint256"}],"anonymous":false},{"type":"error","name":"AlreadyExists","inputs":[]},{"type":"error","name":"AntPriceMustBeLessThanEggPrice","inputs":[]},{"type":"error","name":"ERC721IncorrectOwner","inputs":[{"name":"sender","type":"address","internalType":"address"},{"name":"tokenId","type":"uint256","internalType":"uint256"},{"name":"owner","type":"address","internalType":"address"}]},{"type":"error","name":"ERC721InsufficientApproval","inputs":[{"name":"operator","type":"address","internalType":"address"},{"name":"tokenId","type":"uint256","internalType":"uint256"}]},{"type":"error","name":"ERC721InvalidApprover","inputs":[{"name":"approver","type":"address","internalType":"address"}]},{"type":"error","name":"ERC721InvalidOperator","inputs":[{"name":"operator","type":"address","internalType":"address"}]},{"type":"error","name":"ERC721InvalidOwner","inputs":[{"name":"owner","type":"address","internalType":"address"}]},{"type":"error","name":"ERC721InvalidReceiver","inputs":[{"name":"receiver","type":"address","internalType":"address"}]},{"type":"error","name":"ERC721InvalidSender","inputs":[{"name":"sender","type":"address","internalType":"address"}]},{"type":"error","name":"ERC721NonexistentToken","inputs":[{"name":"tokenId","type":"uint256","internalType":"uint256"}]},{"type":"error","name":"InsufficientFunds","inputs":[{"name":"balance","type":"uint256","internalType":"uint256"},{"name":"paid","type":"uint256","internalType":"uint256"}]},{"type":"error","name":"NoEggs","inputs":[]},{"type":"error","name":"NotAntOwner","inputs":[]},{"type":"error","name":"PreOvipositionPeriod","inputs":[]},{"type":"error","name":"RequestNotFound","inputs":[{"name":"requestId","type":"uint256","internalType":"uint256"}]},{"type":"error","name":"TransferFailed","inputs":[]},{"type":"error","name":"WrongEtherSent","inputs":[]},{"type":"error","name":"ZeroAddress","inputs":[]},{"type":"error","name":"ZeroAmount","inputs":[]}],"bytecode":{"object":"0x610100604052662386f26fc10000600855660e35fa931a00006009556000600a553480156200002d57600080fd5b506040516200317a3803806200317a83398101604081905262000050916200023c565b8280600084846040518060400160405280600b81526020016a43727970746f20416e747360a81b81525060405180604001604052806004815260200163414e545360e01b8152508160009081620000a891906200033e565b506001620000b782826200033e565b5050506001600160a01b03918216608052811660a0528216620001215760405162461bcd60e51b815260206004820152601860248201527f43616e6e6f7420736574206f776e657220746f207a65726f000000000000000060448201526064015b60405180910390fd5b600680546001600160a01b0319166001600160a01b03848116919091179091558116156200015457620001548162000173565b5050506001600160a01b0393841660c0525090911660e052506200040a565b336001600160a01b03821603620001cd5760405162461bcd60e51b815260206004820152601760248201527f43616e6e6f74207472616e7366657220746f2073656c66000000000000000000604482015260640162000118565b600780546001600160a01b0319166001600160a01b03838116918217909255600654604051919216907fed8889f560326eb138920d842192f0eb3dd22b4f139c87a2c57538e05bae127890600090a350565b80516001600160a01b03811681146200023757600080fd5b919050565b600080600080608085870312156200025357600080fd5b6200025e856200021f565b93506200026e602086016200021f565b92506200027e604086016200021f565b91506200028e606086016200021f565b905092959194509250565b634e487b7160e01b600052604160045260246000fd5b600181811c90821680620002c457607f821691505b602082108103620002e557634e487b7160e01b600052602260045260246000fd5b50919050565b601f8211156200033957600081815260208120601f850160051c81016020861015620003145750805b601f850160051c820191505b81811015620003355782815560010162000320565b5050505b505050565b81516001600160401b038111156200035a576200035a62000299565b62000372816200036b8454620002af565b84620002eb565b602080601f831160018114620003aa5760008415620003915750858301515b600019600386901b1c1916600185901b17855562000335565b600085815260208120601f198616915b82811015620003db57888601518255948401946001909101908401620003ba565b5085821015620003fa5787850151600019600388901b60f8161c191681555b5050505050600190811b01905550565b60805160a05160c05160e051612cfe6200047c60003960008181610dc8015261110a0152600081816105640152818161097a01528181610b0701528181610ca6015261226c0152600081816107f60152818161112f01528181611af40152611bfd01526000611aca0152612cfe6000f3fe6080604052600436106101e35760003560e01c806361dcb05411610102578063a22cb46511610095578063e5f9598c11610064578063e5f9598c14610586578063e985e9c5146105b3578063ef88d7f0146105fc578063f2fde38b1461061c57600080fd5b8063a22cb465146104f2578063b88d4fde14610512578063c87b56dd14610532578063e33f76cf1461055257600080fd5b806379ba5097116100d157806379ba50971461045057806386f47873146104655780638da5cb5b146104bf57806395d89b41146104dd57600080fd5b806361dcb054146103d05780636352211e146103f057806370a082311461041057806373edb1431461043057600080fd5b80632d577eef1161017a5780634fd53596116101495780634fd5359614610372578063514b157014610385578063538795d51461039a57806354b7faae146103b057600080fd5b80632d577eef146103115780632e61a7bf146103285780633d8712291461033d57806342842e0e1461035257600080fd5b80631d292ef1116101b65780631d292ef1146102995780631fe543e3146102bc57806323b872dd146102dc578063248452bd146102fc57600080fd5b806301ffc9a7146101e857806306fdde031461021d578063081812fc1461023f578063095ea7b314610277575b600080fd5b3480156101f457600080fd5b5061020861020336600461262e565b61063c565b60405190151581526020015b60405180910390f35b34801561022957600080fd5b50610232610721565b60405161021491906126b9565b34801561024b57600080fd5b5061025f61025a3660046126cc565b6107b3565b6040516001600160a01b039091168152602001610214565b34801561028357600080fd5b50610297610292366004612701565b6107dc565b005b3480156102a557600080fd5b506102ae600a81565b604051908152602001610214565b3480156102c857600080fd5b506102976102d73660046127a9565b6107eb565b3480156102e857600080fd5b506102976102f736600461285b565b61088c565b34801561030857600080fd5b506009546102ae565b34801561031d57600080fd5b506102ae6203f48081565b34801561033457600080fd5b50610297610949565b34801561034957600080fd5b50600a546102ae565b34801561035e57600080fd5b5061029761036d36600461285b565b610bd1565b6102976103803660046126cc565b610bf1565b34801561039157600080fd5b506008546102ae565b3480156103a657600080fd5b506102ae61025881565b3480156103bc57600080fd5b506102976103cb366004612701565b610d41565b3480156103dc57600080fd5b506102976103eb3660046126cc565b610e73565b3480156103fc57600080fd5b5061025f61040b3660046126cc565b610f8d565b34801561041c57600080fd5b506102ae61042b366004612897565b610f98565b34801561043c57600080fd5b506102ae61044b3660046126cc565b610ff9565b34801561045c57600080fd5b50610297611366565b34801561047157600080fd5b506104856104803660046126cc565b61144d565b60408051825181526020808401511515818301529282015180516001600160a01b0316928201929092529101516060820152608001610214565b3480156104cb57600080fd5b506006546001600160a01b031661025f565b3480156104e957600080fd5b506102326114b0565b3480156104fe57600080fd5b5061029761050d3660046128c0565b6114bf565b34801561051e57600080fd5b5061029761052d3660046128f7565b6114ca565b34801561053e57600080fd5b5061023261054d3660046126cc565b6114e1565b34801561055e57600080fd5b5061025f7f000000000000000000000000000000000000000000000000000000000000000081565b34801561059257600080fd5b506102ae6105a13660046126cc565b6000908152600c602052604090205490565b3480156105bf57600080fd5b506102086105ce3660046129d5565b6001600160a01b03918216600090815260056020908152604080832093909416825291909152205460ff1690565b34801561060857600080fd5b50610297610617366004612a08565b611556565b34801561062857600080fd5b50610297610637366004612897565b611619565b60007fffffffff0000000000000000000000000000000000000000000000000000000082167f80ac58cd0000000000000000000000000000000000000000000000000000000014806106cf57507fffffffff0000000000000000000000000000000000000000000000000000000082167f5b5e139f00000000000000000000000000000000000000000000000000000000145b8061071b57507f01ffc9a7000000000000000000000000000000000000000000000000000000007fffffffff000000000000000000000000000000000000000000000000000000008316145b92915050565b60606000805461073090612a2a565b80601f016020809104026020016040519081016040528092919081815260200182805461075c90612a2a565b80156107a95780601f1061077e576101008083540402835291602001916107a9565b820191906000526020600020905b81548152906001019060200180831161078c57829003601f168201915b5050505050905090565b60006107be8261162d565b506000828152600460205260409020546001600160a01b031661071b565b6107e782823361167f565b5050565b336001600160a01b037f00000000000000000000000000000000000000000000000000000000000000001614610882576040517f08c379a000000000000000000000000000000000000000000000000000000000815260206004820152601f60248201527f6f6e6c792056524620563220777261707065722063616e2066756c66696c6c0060448201526064015b60405180910390fd5b6107e7828261168c565b6001600160a01b0382166108cf576040517f64a0ae9200000000000000000000000000000000000000000000000000000000815260006004820152602401610879565b60006108dc8383336117ef565b9050836001600160a01b0316816001600160a01b031614610943576040517f64283d7b0000000000000000000000000000000000000000000000000000000081526001600160a01b0380861660048301526024820184905282166044820152606401610879565b50505050565b6040517f70a082310000000000000000000000000000000000000000000000000000000081523360048201526001907f00000000000000000000000000000000000000000000000000000000000000006001600160a01b0316906370a0823190602401602060405180830381865afa1580156109c9573d6000803e3d6000fd5b505050506040513d601f19601f820116820180604052508101906109ed9190612a77565b1015610a25576040517f6c308a2f00000000000000000000000000000000000000000000000000000000815260040160405180910390fd5b600b546000908103610a4c57600a60008154610a4090612abf565b91829055509050610a83565b600b600081548110610a6057610a60612af7565b6000918252602082200154600a80549193509091610a7d83612abf565b91905055505b6000818152600260205260409020546001600160a01b031615610ad2576040517f23369fa600000000000000000000000000000000000000000000000000000000815260040160405180910390fd5b6040517f9dc29fac000000000000000000000000000000000000000000000000000000008152336004820152600160248201527f00000000000000000000000000000000000000000000000000000000000000006001600160a01b031690639dc29fac90604401600060405180830381600087803b158015610b5357600080fd5b505af1158015610b67573d6000803e3d6000fd5b50505050610b75338261191e565b610b8161025842612b26565b6000828152600c60209081526040918290209290925580513381529182018390527fb1cbc86b8a6c13dcf7e6ddddcd361135b8af8664acc668744eeb932a9beb4f2691015b60405180910390a150565b610bec838383604051806020016040528060008152506114ca565b505050565b80600003610c2b576040517f1f2a200500000000000000000000000000000000000000000000000000000000815260040160405180910390fd5b3460085482610c3a9190612b39565b14610c71576040517f2f1e736300000000000000000000000000000000000000000000000000000000815260040160405180910390fd5b6040517f40c10f19000000000000000000000000000000000000000000000000000000008152336004820152602481018290527f00000000000000000000000000000000000000000000000000000000000000006001600160a01b0316906340c10f1990604401600060405180830381600087803b158015610cf257600080fd5b505af1158015610d06573d6000803e3d6000fd5b505060408051338152602081018590527fecedcda9002dd5028204a70dddaa2155459b6dff3c3e20543450a189e736dc499350019050610bc6565b610d496119b5565b6001600160a01b038216610d89576040517fd92e233d00000000000000000000000000000000000000000000000000000000815260040160405180910390fd5b6040517fa9059cbb0000000000000000000000000000000000000000000000000000000081526001600160a01b038381166004830152602482018390527f0000000000000000000000000000000000000000000000000000000000000000919082169063a9059cbb906044016020604051808303816000875af1158015610e14573d6000803e3d6000fd5b505050506040513d601f19601f82011682018060405250810190610e389190612b50565b1515600003610bec576040517f90b8ec1800000000000000000000000000000000000000000000000000000000815260040160405180910390fd5b6000818152600260205260409020546001600160a01b03163314610ec3576040517f16bea89400000000000000000000000000000000000000000000000000000000815260040160405180910390fd5b610ecc81611a2b565b60095460405160009133918381818185875af1925050503d8060008114610f0f576040519150601f19603f3d011682016040523d82523d6000602084013e610f14565b606091505b5050905080610f4f576040517f90b8ec1800000000000000000000000000000000000000000000000000000000815260040160405180910390fd5b60408051338152602081018490527fe67bffe95663d01ae462a2e747de3f59667442026226e1ff426a25bfe4b81fb391015b60405180910390a15050565b600061071b8261162d565b60006001600160a01b038216610fdd576040517f89c62b6400000000000000000000000000000000000000000000000000000000815260006004820152602401610879565b506001600160a01b031660009081526003602052604090205490565b6000818152600260205260408120546001600160a01b03163314611049576040517f16bea89400000000000000000000000000000000000000000000000000000000815260040160405180910390fd5b6000828152600c602052604090205442811115611092576040517f53ea709100000000000000000000000000000000000000000000000000000000815260040160405180910390fd5b61109f6203f48082612b26565b4211156110c6576110b261025842612b26565b6000848152600c6020526040902055611360565b6110d6620493e060036002611a8b565b6040517f4306d354000000000000000000000000000000000000000000000000000000008152620493e060048201529092507f0000000000000000000000000000000000000000000000000000000000000000906000907f00000000000000000000000000000000000000000000000000000000000000006001600160a01b031690634306d35490602401602060405180830381865afa15801561117e573d6000803e3d6000fd5b505050506040513d601f19601f820116820180604052508101906111a29190612a77565b6040517f70a082310000000000000000000000000000000000000000000000000000000081523060048201529091506000906001600160a01b038416906370a0823190602401602060405180830381865afa158015611205573d6000803e3d6000fd5b505050506040513d601f19601f820116820180604052508101906112299190612a77565b90508181101561126f576040517f03eb8b540000000000000000000000000000000000000000000000000000000081526004810182905260248101839052604401610879565b6040805160608101825283815260006020808301828152845180860186523381528083018c90528486019081528a8452600d83529285902093518455516001840180547fffffffffffffffffffffffffffffffffffffffffffffffffffffffffffffff0016911515919091179055905180516002840180547fffffffffffffffffffffffff0000000000000000000000000000000000000000166001600160a01b0390921691909117905581015160039092019190915581518781529081018490527f03bdba022a54045a6998cc489ac4b9dc1de59e776f960b46f69f44fe7676927d910160405180910390a15050505b50919050565b6007546001600160a01b031633146113da576040517f08c379a000000000000000000000000000000000000000000000000000000000815260206004820152601660248201527f4d7573742062652070726f706f736564206f776e6572000000000000000000006044820152606401610879565b600680547fffffffffffffffffffffffff0000000000000000000000000000000000000000808216339081179093556007805490911690556040516001600160a01b03909116919082907f8be0079c531659141344cd1fd0a4f28419497f9722a3daafe3b4186f6b6457e090600090a350565b6114556125ba565b506000908152600d6020908152604091829020825160608101845281548152600182015460ff161515818401528351808501855260028301546001600160a01b03168152600390920154928201929092529181019190915290565b60606001805461073090612a2a565b6107e7338383611c85565b6114d584848461088c565b61094384848484611d5b565b60606114ec8261162d565b50600061150460408051602081019091526000815290565b90506000815111611524576040518060200160405280600081525061154f565b8061152e84611f1e565b60405160200161153f929190612b6d565b6040516020818303038152906040525b9392505050565b61155e6119b5565b811580611569575080155b156115a0576040517f1f2a200500000000000000000000000000000000000000000000000000000000815260040160405180910390fd5b8181106115d9576040517f28cf0d4c00000000000000000000000000000000000000000000000000000000815260040160405180910390fd5b6008829055600981905560408051838152602081018390527f6546f60f34df611fa42503098acc39d5ab88bc73febe64b3cc14e5a92e3a66a79101610f81565b6116216119b5565b61162a81611fdc565b50565b6000818152600260205260408120546001600160a01b03168061071b576040517f7e27328900000000000000000000000000000000000000000000000000000000815260048101849052602401610879565b610bec83838360016120b8565b6000828152600d6020526040812080549091036116d8576040517f4ec726c700000000000000000000000000000000000000000000000000000000815260048101849052602401610879565b600181810180547fffffffffffffffffffffffffffffffffffffffffffffffffffffffffffffff0016909117905580546040805185815260208101929092527fbd03fc99dbe54c7b82300ba22cb10a54cde8d793ba3d99933518fe8ad46723e1910160405180910390a16000600a8360008151811061175957611759612af7565b602002602001015161176b9190612b9c565b611776906001612b26565b90506000600a6117868382612b39565b6117909190612bd7565b6040805180820190915260028501546001600160a01b0316808252600386015460208301819052875193945091926117e79290869086908a9060019081106117da576117da612af7565b602002602001015161220e565b505050505050565b6000828152600260205260408120546001600160a01b039081169083161561181c5761181c81848661236b565b6001600160a01b03811615611878576118396000856000806120b8565b6001600160a01b038116600090815260036020526040902080547fffffffffffffffffffffffffffffffffffffffffffffffffffffffffffffffff0190555b6001600160a01b038516156118a7576001600160a01b0385166000908152600360205260409020805460010190555b60008481526002602052604080822080547fffffffffffffffffffffffff0000000000000000000000000000000000000000166001600160a01b0389811691821790925591518793918516917fddf252ad1be2c89b69c2b068fc378daa952ba7f163c4a11628f55a4df523b3ef91a4949350505050565b6001600160a01b038216611961576040517f64a0ae9200000000000000000000000000000000000000000000000000000000815260006004820152602401610879565b600061196f838360006117ef565b90506001600160a01b03811615610bec576040517f73c6ac6e00000000000000000000000000000000000000000000000000000000815260006004820152602401610879565b6006546001600160a01b03163314611a29576040517f08c379a000000000000000000000000000000000000000000000000000000000815260206004820152601660248201527f4f6e6c792063616c6c61626c65206279206f776e6572000000000000000000006044820152606401610879565b565b611a3481612401565b600a8054906000611a4483612bea565b90915550506000818152600c60205260408120819055600b805460018101825591527f0175b7a638427703f0dbe7bb9bbf987a2551717b34e79f33b5b1008d1fa01db90155565b6040517f4306d35400000000000000000000000000000000000000000000000000000000815263ffffffff841660048201526000906001600160a01b037f0000000000000000000000000000000000000000000000000000000000000000811691634000aea0917f00000000000000000000000000000000000000000000000000000000000000009190821690634306d35490602401602060405180830381865afa158015611b3e573d6000803e3d6000fd5b505050506040513d601f19601f82011682018060405250810190611b629190612a77565b6040805163ffffffff808b16602083015261ffff8a169282019290925290871660608201526080016040516020818303038152906040526040518463ffffffff1660e01b8152600401611bb793929190612c1f565b6020604051808303816000875af1158015611bd6573d6000803e3d6000fd5b505050506040513d601f19601f82011682018060405250810190611bfa9190612b50565b507f00000000000000000000000000000000000000000000000000000000000000006001600160a01b031663fc2a88c36040518163ffffffff1660e01b8152600401602060405180830381865afa158015611c59573d6000803e3d6000fd5b505050506040513d601f19601f82011682018060405250810190611c7d9190612a77565b949350505050565b6001600160a01b038216611cd0576040517f5b08ba180000000000000000000000000000000000000000000000000000000081526001600160a01b0383166004820152602401610879565b6001600160a01b0383811660008181526005602090815260408083209487168084529482529182902080547fffffffffffffffffffffffffffffffffffffffffffffffffffffffffffffff001686151590811790915591519182527f17307eab39ab6107e8899845ad3d59bd9653f200f220920489ca2b5937696c31910160405180910390a3505050565b6001600160a01b0383163b15610943576040517f150b7a020000000000000000000000000000000000000000000000000000000081526001600160a01b0384169063150b7a0290611db6903390889087908790600401612c50565b6020604051808303816000875af1925050508015611e0f575060408051601f3d9081017fffffffffffffffffffffffffffffffffffffffffffffffffffffffffffffffe0168201909252611e0c91810190612c8c565b60015b611e91573d808015611e3d576040519150601f19603f3d011682016040523d82523d6000602084013e611e42565b606091505b508051600003611e89576040517f64a0ae920000000000000000000000000000000000000000000000000000000081526001600160a01b0385166004820152602401610879565b805181602001fd5b7fffffffff0000000000000000000000000000000000000000000000000000000081167f150b7a020000000000000000000000000000000000000000000000000000000014611f17576040517f64a0ae920000000000000000000000000000000000000000000000000000000081526001600160a01b0385166004820152602401610879565b5050505050565b60606000611f2b83612455565b600101905060008167ffffffffffffffff811115611f4b57611f4b61272b565b6040519080825280601f01601f191660200182016040528015611f75576020820181803683370190505b5090508181016020015b7fffffffffffffffffffffffffffffffffffffffffffffffffffffffffffffffff017f3031323334353637383961626364656600000000000000000000000000000000600a86061a8153600a8504945084611f7f57509392505050565b336001600160a01b0382160361204e576040517f08c379a000000000000000000000000000000000000000000000000000000000815260206004820152601760248201527f43616e6e6f74207472616e7366657220746f2073656c660000000000000000006044820152606401610879565b600780547fffffffffffffffffffffffff0000000000000000000000000000000000000000166001600160a01b03838116918217909255600654604051919216907fed8889f560326eb138920d842192f0eb3dd22b4f139c87a2c57538e05bae127890600090a350565b80806120cc57506001600160a01b03821615155b156121c65760006120dc8461162d565b90506001600160a01b038316158015906121085750826001600160a01b0316816001600160a01b031614155b801561213a57506001600160a01b0380821660009081526005602090815260408083209387168352929052205460ff16155b1561217c576040517fa9fbf51f0000000000000000000000000000000000000000000000000000000081526001600160a01b0384166004820152602401610879565b81156121c45783856001600160a01b0316826001600160a01b03167f8c5be1e5ebec7d5bd14f71427d1e84f3dd0314c0f7b2291e5b200ac8c7c3b92560405160405180910390a45b505b5050600090815260046020526040902080547fffffffffffffffffffffffff0000000000000000000000000000000000000000166001600160a01b0392909216919091179055565b6000808061221d606485612b9c565b905060005b868160ff16101561230e576040517f40c10f190000000000000000000000000000000000000000000000000000000081526001600160a01b038a81166004830152600160248301527f000000000000000000000000000000000000000000000000000000000000000016906340c10f1990604401600060405180830381600087803b1580156122b057600080fd5b505af11580156122c4573d6000803e3d6000fd5b5050505083806122d390612abf565b9450508582116122ef57600192506122ea88611a2b565b61230e565b816122f981612bea565b9250508061230681612ca9565b915050612222565b50604080516001600160a01b038a1681526020810189905290810184905282151560608201527faed94627f5668328a9dd00e7c8f89594a2bb1cb2e799b4bb0e35a96daf16f03f9060800160405180910390a15050505050505050565b612376838383612537565b610bec576001600160a01b0383166123bd576040517f7e27328900000000000000000000000000000000000000000000000000000000815260048101829052602401610879565b6040517f177e802f0000000000000000000000000000000000000000000000000000000081526001600160a01b038316600482015260248101829052604401610879565b600061241060008360006117ef565b90506001600160a01b0381166107e7576040517f7e27328900000000000000000000000000000000000000000000000000000000815260048101839052602401610879565b6000807a184f03e93ff9f4daa797ed6e38ed64bf6a1f010000000000000000831061249e577a184f03e93ff9f4daa797ed6e38ed64bf6a1f010000000000000000830492506040015b6d04ee2d6d415b85acef810000000083106124ca576d04ee2d6d415b85acef8100000000830492506020015b662386f26fc1000083106124e857662386f26fc10000830492506010015b6305f5e1008310612500576305f5e100830492506008015b612710831061251457612710830492506004015b60648310612526576064830492506002015b600a831061071b5760010192915050565b60006001600160a01b03831615801590611c7d5750826001600160a01b0316846001600160a01b0316148061259157506001600160a01b0380851660009081526005602090815260408083209387168352929052205460ff165b80611c7d5750506000908152600460205260409020546001600160a01b03908116911614919050565b6040518060600160405280600081526020016000151581526020016125fb604051806040016040528060006001600160a01b03168152602001600081525090565b905290565b7fffffffff000000000000000000000000000000000000000000000000000000008116811461162a57600080fd5b60006020828403121561264057600080fd5b813561154f81612600565b60005b8381101561266657818101518382015260200161264e565b50506000910152565b6000815180845261268781602086016020860161264b565b601f017fffffffffffffffffffffffffffffffffffffffffffffffffffffffffffffffe0169290920160200192915050565b60208152600061154f602083018461266f565b6000602082840312156126de57600080fd5b5035919050565b80356001600160a01b03811681146126fc57600080fd5b919050565b6000806040838503121561271457600080fd5b61271d836126e5565b946020939093013593505050565b7f4e487b7100000000000000000000000000000000000000000000000000000000600052604160045260246000fd5b604051601f82017fffffffffffffffffffffffffffffffffffffffffffffffffffffffffffffffe016810167ffffffffffffffff811182821017156127a1576127a161272b565b604052919050565b600080604083850312156127bc57600080fd5b8235915060208084013567ffffffffffffffff808211156127dc57600080fd5b818601915086601f8301126127f057600080fd5b8135818111156128025761280261272b565b8060051b915061281384830161275a565b818152918301840191848101908984111561282d57600080fd5b938501935b8385101561284b57843582529385019390850190612832565b8096505050505050509250929050565b60008060006060848603121561287057600080fd5b612879846126e5565b9250612887602085016126e5565b9150604084013590509250925092565b6000602082840312156128a957600080fd5b61154f826126e5565b801515811461162a57600080fd5b600080604083850312156128d357600080fd5b6128dc836126e5565b915060208301356128ec816128b2565b809150509250929050565b6000806000806080858703121561290d57600080fd5b612916856126e5565b935060206129258187016126e5565b935060408601359250606086013567ffffffffffffffff8082111561294957600080fd5b818801915088601f83011261295d57600080fd5b81358181111561296f5761296f61272b565b61299f847fffffffffffffffffffffffffffffffffffffffffffffffffffffffffffffffe0601f8401160161275a565b915080825289848285010111156129b557600080fd5b808484018584013760008482840101525080935050505092959194509250565b600080604083850312156129e857600080fd5b6129f1836126e5565b91506129ff602084016126e5565b90509250929050565b60008060408385031215612a1b57600080fd5b50508035926020909101359150565b600181811c90821680612a3e57607f821691505b602082108103611360577f4e487b7100000000000000000000000000000000000000000000000000000000600052602260045260246000fd5b600060208284031215612a8957600080fd5b5051919050565b7f4e487b7100000000000000000000000000000000000000000000000000000000600052601160045260246000fd5b60007fffffffffffffffffffffffffffffffffffffffffffffffffffffffffffffffff8203612af057612af0612a90565b5060010190565b7f4e487b7100000000000000000000000000000000000000000000000000000000600052603260045260246000fd5b8082018082111561071b5761071b612a90565b808202811582820484141761071b5761071b612a90565b600060208284031215612b6257600080fd5b815161154f816128b2565b60008351612b7f81846020880161264b565b835190830190612b9381836020880161264b565b01949350505050565b600082612bd2577f4e487b7100000000000000000000000000000000000000000000000000000000600052601260045260246000fd5b500690565b8181038181111561071b5761071b612a90565b600081612bf957612bf9612a90565b507fffffffffffffffffffffffffffffffffffffffffffffffffffffffffffffffff0190565b6001600160a01b0384168152826020820152606060408201526000612c47606083018461266f565b95945050505050565b60006001600160a01b03808716835280861660208401525083604083015260806060830152612c82608083018461266f565b9695505050505050565b600060208284031215612c9e57600080fd5b815161154f81612600565b600060ff821660ff8103612cbf57612cbf612a90565b6001019291505056fea2646970667358221220c085d25198bb3c0882750e8a18853204b5c31d4eda630cf9e06198867c81452264736f6c63430008140033","linkReferences":{}},"methodIdentifiers":{"MAX_EGGS_TO_LAY()":"1d292ef1","OVIPOSITION_DELAY()":"2d577eef","PREOVIPOSITION_PERIOD()":"538795d5","acceptOwnership()":"79ba5097","approve(address,uint256)":"095ea7b3","balanceOf(address)":"70a08231","buyEggs(uint256)":"4fd53596","createAnt()":"2e61a7bf","eggs()":"e33f76cf","getAntPrice()":"248452bd","getAntsCreated()":"3d871229","getApproved(uint256)":"081812fc","getEggPrice()":"514b1570","getOvipositionPeriod(uint256)":"e5f9598c","getOvipositionRequest(uint256)":"86f47873","isApprovedForAll(address,address)":"e985e9c5","name()":"06fdde03","owner()":"8da5cb5b","ownerOf(uint256)":"6352211e","rawFulfillRandomWords(uint256,uint256[])":"1fe543e3","safeTransferFrom(address,address,uint256)":"42842e0e","safeTransferFrom(address,address,uint256,bytes)":"b88d4fde","sellAnt(uint256)":"61dcb054","setApprovalForAll(address,bool)":"a22cb465","startOviposition(uint256)":"73edb143","supportsInterface(bytes4)":"01ffc9a7","symbol()":"95d89b41","tokenURI(uint256)":"c87b56dd","transferFrom(address,address,uint256)":"23b872dd","transferOwnership(address)":"f2fde38b","updatePrices(uint256,uint256)":"ef88d7f0","withdrawLink(address,uint256)":"54b7faae"},"id":111}