{"abi":[{"type":"constructor","inputs":[{"name":"_eggs","type":"address","internalType":"address"},{"name":"_governance","type":"address","internalType":"address"}],"stateMutability":"nonpayable"},{"type":"function","name":"OVIPOSITION_DELAY","inputs":[],"outputs":[{"name":"","type":"uint256","internalType":"uint256"}],"stateMutability":"view"},{"type":"function","name":"acceptOwnership","inputs":[],"outputs":[],"stateMutability":"nonpayable"},{"type":"function","name":"approve","inputs":[{"name":"to","type":"address","internalType":"address"},{"name":"tokenId","type":"uint256","internalType":"uint256"}],"outputs":[],"stateMutability":"nonpayable"},{"type":"function","name":"balanceOf","inputs":[{"name":"owner","type":"address","internalType":"address"}],"outputs":[{"name":"","type":"uint256","internalType":"uint256"}],"stateMutability":"view"},{"type":"function","name":"buyEggs","inputs":[{"name":"_amount","type":"uint256","internalType":"uint256"}],"outputs":[],"stateMutability":"payable"},{"type":"function","name":"createAnt","inputs":[],"outputs":[],"stateMutability":"nonpayable"},{"type":"function","name":"eggs","inputs":[],"outputs":[{"name":"","type":"address","internalType":"contract IEgg"}],"stateMutability":"view"},{"type":"function","name":"getAntPrice","inputs":[],"outputs":[{"name":"","type":"uint256","internalType":"uint256"}],"stateMutability":"view"},{"type":"function","name":"getAntsCreated","inputs":[],"outputs":[{"name":"","type":"uint256","internalType":"uint256"}],"stateMutability":"view"},{"type":"function","name":"getApproved","inputs":[{"name":"tokenId","type":"uint256","internalType":"uint256"}],"outputs":[{"name":"","type":"address","internalType":"address"}],"stateMutability":"view"},{"type":"function","name":"getEggPrice","inputs":[],"outputs":[{"name":"","type":"uint256","internalType":"uint256"}],"stateMutability":"view"},{"type":"function","name":"initOviposition","inputs":[{"name":"_antId","type":"uint256","internalType":"uint256"}],"outputs":[{"name":"requestId","type":"uint256","internalType":"uint256"}],"stateMutability":"nonpayable"},{"type":"function","name":"isApprovedForAll","inputs":[{"name":"owner","type":"address","internalType":"address"},{"name":"operator","type":"address","internalType":"address"}],"outputs":[{"name":"","type":"bool","internalType":"bool"}],"stateMutability":"view"},{"type":"function","name":"name","inputs":[],"outputs":[{"name":"","type":"string","internalType":"string"}],"stateMutability":"view"},{"type":"function","name":"owner","inputs":[],"outputs":[{"name":"","type":"address","internalType":"address"}],"stateMutability":"view"},{"type":"function","name":"ownerOf","inputs":[{"name":"tokenId","type":"uint256","internalType":"uint256"}],"outputs":[{"name":"","type":"address","internalType":"address"}],"stateMutability":"view"},{"type":"function","name":"rawFulfillRandomWords","inputs":[{"name":"_requestId","type":"uint256","internalType":"uint256"},{"name":"_randomWords","type":"uint256[]","internalType":"uint256[]"}],"outputs":[],"stateMutability":"nonpayable"},{"type":"function","name":"safeTransferFrom","inputs":[{"name":"from","type":"address","internalType":"address"},{"name":"to","type":"address","internalType":"address"},{"name":"tokenId","type":"uint256","internalType":"uint256"}],"outputs":[],"stateMutability":"nonpayable"},{"type":"function","name":"safeTransferFrom","inputs":[{"name":"from","type":"address","internalType":"address"},{"name":"to","type":"address","internalType":"address"},{"name":"tokenId","type":"uint256","internalType":"uint256"},{"name":"data","type":"bytes","internalType":"bytes"}],"outputs":[],"stateMutability":"nonpayable"},{"type":"function","name":"sellAnt","inputs":[{"name":"_antId","type":"uint256","internalType":"uint256"}],"outputs":[],"stateMutability":"nonpayable"},{"type":"function","name":"setApprovalForAll","inputs":[{"name":"operator","type":"address","internalType":"address"},{"name":"approved","type":"bool","internalType":"bool"}],"outputs":[],"stateMutability":"nonpayable"},{"type":"function","name":"supportsInterface","inputs":[{"name":"interfaceId","type":"bytes4","internalType":"bytes4"}],"outputs":[{"name":"","type":"bool","internalType":"bool"}],"stateMutability":"view"},{"type":"function","name":"symbol","inputs":[],"outputs":[{"name":"","type":"string","internalType":"string"}],"stateMutability":"view"},{"type":"function","name":"tokenURI","inputs":[{"name":"tokenId","type":"uint256","internalType":"uint256"}],"outputs":[{"name":"","type":"string","internalType":"string"}],"stateMutability":"view"},{"type":"function","name":"transferFrom","inputs":[{"name":"from","type":"address","internalType":"address"},{"name":"to","type":"address","internalType":"address"},{"name":"tokenId","type":"uint256","internalType":"uint256"}],"outputs":[],"stateMutability":"nonpayable"},{"type":"function","name":"transferOwnership","inputs":[{"name":"to","type":"address","internalType":"address"}],"outputs":[],"stateMutability":"nonpayable"},{"type":"function","name":"updatePrices","inputs":[{"name":"newEggPrice","type":"uint256","internalType":"uint256"},{"name":"newAntPrice","type":"uint256","internalType":"uint256"}],"outputs":[],"stateMutability":"nonpayable"},{"type":"function","name":"withdrawLink","inputs":[{"name":"_receiver","type":"address","internalType":"address"}],"outputs":[],"stateMutability":"nonpayable"},{"type":"event","name":"AntCreated","inputs":[{"name":"owner","type":"address","indexed":false,"internalType":"address"},{"name":"antId","type":"uint256","indexed":false,"internalType":"uint256"}],"anonymous":false},{"type":"event","name":"AntCreated","inputs":[],"anonymous":false},{"type":"event","name":"AntSold","inputs":[{"name":"owner","type":"address","indexed":false,"internalType":"address"},{"name":"antId","type":"uint256","indexed":false,"internalType":"uint256"}],"anonymous":false},{"type":"event","name":"AntSold","inputs":[],"anonymous":false},{"type":"event","name":"Approval","inputs":[{"name":"owner","type":"address","indexed":true,"internalType":"address"},{"name":"approved","type":"address","indexed":true,"internalType":"address"},{"name":"tokenId","type":"uint256","indexed":true,"internalType":"uint256"}],"anonymous":false},{"type":"event","name":"ApprovalForAll","inputs":[{"name":"owner","type":"address","indexed":true,"internalType":"address"},{"name":"operator","type":"address","indexed":true,"internalType":"address"},{"name":"approved","type":"bool","indexed":false,"internalType":"bool"}],"anonymous":false},{"type":"event","name":"EggsBought","inputs":[{"name":"owner","type":"address","indexed":false,"internalType":"address"},{"name":"amount","type":"uint256","indexed":false,"internalType":"uint256"}],"anonymous":false},{"type":"event","name":"EggsLayed","inputs":[{"name":"owner","type":"address","indexed":false,"internalType":"address"},{"name":"antId","type":"uint256","indexed":false,"internalType":"uint256"},{"name":"eggsLayed","type":"uint256","indexed":false,"internalType":"uint256"},{"name":"isAntDead","type":"bool","indexed":false,"internalType":"bool"}],"anonymous":false},{"type":"event","name":"OwnershipTransferRequested","inputs":[{"name":"from","type":"address","indexed":true,"internalType":"address"},{"name":"to","type":"address","indexed":true,"internalType":"address"}],"anonymous":false},{"type":"event","name":"OwnershipTransferred","inputs":[{"name":"from","type":"address","indexed":true,"internalType":"address"},{"name":"to","type":"address","indexed":true,"internalType":"address"}],"anonymous":false},{"type":"event","name":"PricesUpdated","inputs":[{"name":"newEggPrice","type":"uint256","indexed":false,"internalType":"uint256"},{"name":"newAntPrice","type":"uint256","indexed":false,"internalType":"uint256"}],"anonymous":false},{"type":"event","name":"Transfer","inputs":[{"name":"from","type":"address","indexed":true,"internalType":"address"},{"name":"to","type":"address","indexed":true,"internalType":"address"},{"name":"tokenId","type":"uint256","indexed":true,"internalType":"uint256"}],"anonymous":false},{"type":"error","name":"AlreadyExists","inputs":[]},{"type":"error","name":"AntPriceMustBeLessThanEggPrice","inputs":[]},{"type":"error","name":"ERC721IncorrectOwner","inputs":[{"name":"sender","type":"address","internalType":"address"},{"name":"tokenId","type":"uint256","internalType":"uint256"},{"name":"owner","type":"address","internalType":"address"}]},{"type":"error","name":"ERC721InsufficientApproval","inputs":[{"name":"operator","type":"address","internalType":"address"},{"name":"tokenId","type":"uint256","internalType":"uint256"}]},{"type":"error","name":"ERC721InvalidApprover","inputs":[{"name":"approver","type":"address","internalType":"address"}]},{"type":"error","name":"ERC721InvalidOperator","inputs":[{"name":"operator","type":"address","internalType":"address"}]},{"type":"error","name":"ERC721InvalidOwner","inputs":[{"name":"owner","type":"address","internalType":"address"}]},{"type":"error","name":"ERC721InvalidReceiver","inputs":[{"name":"receiver","type":"address","internalType":"address"}]},{"type":"error","name":"ERC721InvalidSender","inputs":[{"name":"sender","type":"address","internalType":"address"}]},{"type":"error","name":"ERC721NonexistentToken","inputs":[{"name":"tokenId","type":"uint256","internalType":"uint256"}]},{"type":"error","name":"NoEggs","inputs":[]},{"type":"error","name":"NotAntOwner","inputs":[]},{"type":"error","name":"PreOvipositionPeriod","inputs":[]},{"type":"error","name":"RequestNotFound","inputs":[]},{"type":"error","name":"TransferFailed","inputs":[]},{"type":"error","name":"WrongEtherSent","inputs":[]},{"type":"error","name":"ZeroAddress","inputs":[]},{"type":"error","name":"ZeroAmount","inputs":[]}],"bytecode":{"object":"0x60e0604052662386f26fc10000600855660e35fa931a00006009556000600a553480156200002c57600080fd5b5060405162002d7e38038062002d7e8339810160408190526200004f916200025a565b8080600073779877a7b0d9e8603169ddbd7836e478b462478973ab18414cd93297b0d12ac29e63ca20f515b3db466040518060400160405280600b81526020016a43727970746f20416e747360a81b81525060405180604001604052806004815260200163414e545360e01b8152508160009081620000cf919062000337565b506001620000de828262000337565b5050506001600160a01b03918216608052811660a0528216620001485760405162461bcd60e51b815260206004820152601860248201527f43616e6e6f7420736574206f776e657220746f207a65726f000000000000000060448201526064015b60405180910390fd5b600680546001600160a01b0319166001600160a01b03848116919091179091558116156200017b576200017b8162000191565b505050506001600160a01b031660c05262000403565b336001600160a01b03821603620001eb5760405162461bcd60e51b815260206004820152601760248201527f43616e6e6f74207472616e7366657220746f2073656c6600000000000000000060448201526064016200013f565b600780546001600160a01b0319166001600160a01b03838116918217909255600654604051919216907fed8889f560326eb138920d842192f0eb3dd22b4f139c87a2c57538e05bae127890600090a350565b80516001600160a01b03811681146200025557600080fd5b919050565b600080604083850312156200026e57600080fd5b62000279836200023d565b915062000289602084016200023d565b90509250929050565b634e487b7160e01b600052604160045260246000fd5b600181811c90821680620002bd57607f821691505b602082108103620002de57634e487b7160e01b600052602260045260246000fd5b50919050565b601f8211156200033257600081815260208120601f850160051c810160208610156200030d5750805b601f850160051c820191505b818110156200032e5782815560010162000319565b5050505b505050565b81516001600160401b0381111562000353576200035362000292565b6200036b81620003648454620002a8565b84620002e4565b602080601f831160018114620003a357600084156200038a5750858301515b600019600386901b1c1916600185901b1785556200032e565b600085815260208120601f198616915b82811015620003d457888601518255948401946001909101908401620003b3565b5085821015620003f35787850151600019600388901b60f8161c191681555b5050505050600190811b01905550565b60805160a05160c0516129216200045d600039600081816104af0152818161089801528181610a2501528181610bc40152611f3901526000818161071401528181611b370152611c4001526000611b0d01526129216000f3fe6080604052600436106101b75760003560e01c80636352211e116100ec578063b88d4fde1161008a578063e33f76cf11610064578063e33f76cf1461049d578063e985e9c5146104d1578063ef88d7f01461051a578063f2fde38b1461053a57600080fd5b8063b88d4fde1461043d578063c87b56dd1461045d578063d72df5d51461047d57600080fd5b80638da5cb5b116100c65780638da5cb5b146103ca57806390e9ca7f146103e857806395d89b4114610408578063a22cb4651461041d57600080fd5b80636352211e1461037557806370a082311461039557806379ba5097146103b557600080fd5b80632d577eef1161015957806342842e0e1161013357806342842e0e1461030d5780634fd535961461032d578063514b15701461034057806361dcb0541461035557600080fd5b80632d577eef146102cc5780632e61a7bf146102e35780633d871229146102f857600080fd5b8063095ea7b311610195578063095ea7b31461024b5780631fe543e31461026d57806323b872dd1461028d578063248452bd146102ad57600080fd5b806301ffc9a7146101bc57806306fdde03146101f1578063081812fc14610213575b600080fd5b3480156101c857600080fd5b506101dc6101d7366004612270565b61055a565b60405190151581526020015b60405180910390f35b3480156101fd57600080fd5b5061020661063f565b6040516101e891906122fb565b34801561021f57600080fd5b5061023361022e36600461230e565b6106d1565b6040516001600160a01b0390911681526020016101e8565b34801561025757600080fd5b5061026b610266366004612343565b6106fa565b005b34801561027957600080fd5b5061026b6102883660046123eb565b610709565b34801561029957600080fd5b5061026b6102a836600461249d565b6107aa565b3480156102b957600080fd5b506009545b6040519081526020016101e8565b3480156102d857600080fd5b506102be6203f48081565b3480156102ef57600080fd5b5061026b610867565b34801561030457600080fd5b50600a546102be565b34801561031957600080fd5b5061026b61032836600461249d565b610aef565b61026b61033b36600461230e565b610b0f565b34801561034c57600080fd5b506008546102be565b34801561036157600080fd5b5061026b61037036600461230e565b610c5f565b34801561038157600080fd5b5061023361039036600461230e565b610dcf565b3480156103a157600080fd5b506102be6103b03660046124d9565b610dda565b3480156103c157600080fd5b5061026b610e3b565b3480156103d657600080fd5b506006546001600160a01b0316610233565b3480156103f457600080fd5b5061026b6104033660046124d9565b610f22565b34801561041457600080fd5b506102066110c4565b34801561042957600080fd5b5061026b610438366004612502565b6110d3565b34801561044957600080fd5b5061026b610458366004612539565b6110de565b34801561046957600080fd5b5061020661047836600461230e565b6110f5565b34801561048957600080fd5b506102be61049836600461230e565b61116a565b3480156104a957600080fd5b506102337f000000000000000000000000000000000000000000000000000000000000000081565b3480156104dd57600080fd5b506101dc6104ec366004612617565b6001600160a01b03918216600090815260056020908152604080832093909416825291909152205460ff1690565b34801561052657600080fd5b5061026b61053536600461264a565b6112ad565b34801561054657600080fd5b5061026b6105553660046124d9565b611370565b60007fffffffff0000000000000000000000000000000000000000000000000000000082167f80ac58cd0000000000000000000000000000000000000000000000000000000014806105ed57507fffffffff0000000000000000000000000000000000000000000000000000000082167f5b5e139f00000000000000000000000000000000000000000000000000000000145b8061063957507f01ffc9a7000000000000000000000000000000000000000000000000000000007fffffffff000000000000000000000000000000000000000000000000000000008316145b92915050565b60606000805461064e9061266c565b80601f016020809104026020016040519081016040528092919081815260200182805461067a9061266c565b80156106c75780601f1061069c576101008083540402835291602001916106c7565b820191906000526020600020905b8154815290600101906020018083116106aa57829003601f168201915b5050505050905090565b60006106dc82611384565b506000828152600460205260409020546001600160a01b0316610639565b6107058282336113d6565b5050565b336001600160a01b037f000000000000000000000000000000000000000000000000000000000000000016146107a0576040517f08c379a000000000000000000000000000000000000000000000000000000000815260206004820152601f60248201527f6f6e6c792056524620563220777261707065722063616e2066756c66696c6c0060448201526064015b60405180910390fd5b61070582826113e3565b6001600160a01b0382166107ed576040517f64a0ae9200000000000000000000000000000000000000000000000000000000815260006004820152602401610797565b60006107fa8383336114e7565b9050836001600160a01b0316816001600160a01b031614610861576040517f64283d7b0000000000000000000000000000000000000000000000000000000081526001600160a01b0380861660048301526024820184905282166044820152606401610797565b50505050565b6040517f70a082310000000000000000000000000000000000000000000000000000000081523360048201526001907f00000000000000000000000000000000000000000000000000000000000000006001600160a01b0316906370a0823190602401602060405180830381865afa1580156108e7573d6000803e3d6000fd5b505050506040513d601f19601f8201168201806040525081019061090b91906126b9565b1015610943576040517f6c308a2f00000000000000000000000000000000000000000000000000000000815260040160405180910390fd5b600b54600090810361096a57600a6000815461095e90612701565b918290555090506109a1565b600b60008154811061097e5761097e612739565b6000918252602082200154600a8054919350909161099b83612701565b91905055505b6000818152600260205260409020546001600160a01b0316156109f0576040517f23369fa600000000000000000000000000000000000000000000000000000000815260040160405180910390fd5b6040517f9dc29fac000000000000000000000000000000000000000000000000000000008152336004820152600160248201527f00000000000000000000000000000000000000000000000000000000000000006001600160a01b031690639dc29fac90604401600060405180830381600087803b158015610a7157600080fd5b505af1158015610a85573d6000803e3d6000fd5b50505050610a933382611616565b610a9f42610258612768565b6000828152600c60209081526040918290209290925580513381529182018390527fb1cbc86b8a6c13dcf7e6ddddcd361135b8af8664acc668744eeb932a9beb4f2691015b60405180910390a150565b610b0a838383604051806020016040528060008152506110de565b505050565b80600003610b49576040517f1f2a200500000000000000000000000000000000000000000000000000000000815260040160405180910390fd5b3460085482610b58919061277b565b14610b8f576040517f2f1e736300000000000000000000000000000000000000000000000000000000815260040160405180910390fd5b6040517f40c10f19000000000000000000000000000000000000000000000000000000008152336004820152602481018290527f00000000000000000000000000000000000000000000000000000000000000006001600160a01b0316906340c10f1990604401600060405180830381600087803b158015610c1057600080fd5b505af1158015610c24573d6000803e3d6000fd5b505060408051338152602081018590527fecedcda9002dd5028204a70dddaa2155459b6dff3c3e20543450a189e736dc499350019050610ae4565b6000818152600260205260409020546001600160a01b03163314610caf576040517f16bea89400000000000000000000000000000000000000000000000000000000815260040160405180910390fd5b610cb8816116ad565b600a8054906000610cc883612792565b90915550506000818152600c6020526040808220829055600b80546001810182559083527f0175b7a638427703f0dbe7bb9bbf987a2551717b34e79f33b5b1008d1fa01db90183905560095490513391908381818185875af1925050503d8060008114610d51576040519150601f19603f3d011682016040523d82523d6000602084013e610d56565b606091505b5050905080610d91576040517f90b8ec1800000000000000000000000000000000000000000000000000000000815260040160405180910390fd5b60408051338152602081018490527fe67bffe95663d01ae462a2e747de3f59667442026226e1ff426a25bfe4b81fb391015b60405180910390a15050565b600061063982611384565b60006001600160a01b038216610e1f576040517f89c62b6400000000000000000000000000000000000000000000000000000000815260006004820152602401610797565b506001600160a01b031660009081526003602052604090205490565b6007546001600160a01b03163314610eaf576040517f08c379a000000000000000000000000000000000000000000000000000000000815260206004820152601660248201527f4d7573742062652070726f706f736564206f776e6572000000000000000000006044820152606401610797565b600680547fffffffffffffffffffffffff0000000000000000000000000000000000000000808216339081179093556007805490911690556040516001600160a01b03909116919082907f8be0079c531659141344cd1fd0a4f28419497f9722a3daafe3b4186f6b6457e090600090a350565b610f2a611701565b6001600160a01b038116610f6a576040517fd92e233d00000000000000000000000000000000000000000000000000000000815260040160405180910390fd5b6040517f70a0823100000000000000000000000000000000000000000000000000000000815230600482015273779877a7b0d9e8603169ddbd7836e478b462478990819063a9059cbb90849083906370a0823190602401602060405180830381865afa158015610fde573d6000803e3d6000fd5b505050506040513d601f19601f8201168201806040525081019061100291906126b9565b6040517fffffffff0000000000000000000000000000000000000000000000000000000060e085901b1681526001600160a01b03909216600483015260248201526044016020604051808303816000875af1158015611065573d6000803e3d6000fd5b505050506040513d601f19601f8201168201806040525081019061108991906127c7565b1515600003610705576040517f90b8ec1800000000000000000000000000000000000000000000000000000000815260040160405180910390fd5b60606001805461064e9061266c565b610705338383611777565b6110e98484846107aa565b6108618484848461184d565b606061110082611384565b50600061111860408051602081019091526000815290565b905060008151116111385760405180602001604052806000815250611163565b8061114284611a10565b6040516020016111539291906127e4565b6040516020818303038152906040525b9392505050565b6000818152600260205260408120546001600160a01b031633146111ba576040517f16bea89400000000000000000000000000000000000000000000000000000000815260040160405180910390fd5b6000828152600c602052604090205442811115611203576040517f53ea709100000000000000000000000000000000000000000000000000000000815260040160405180910390fd5b6112106203f48082612768565b4211156112375761122342610258612768565b6000848152600c60205260409020556112a7565b611247620186a060036002611ace565b60408051808201825233815260208082018781526000858152600d909252929020905181547fffffffffffffffffffffffff0000000000000000000000000000000000000000166001600160a01b03909116178155905160019091015591505b50919050565b6112b5611701565b8115806112c0575080155b156112f7576040517f1f2a200500000000000000000000000000000000000000000000000000000000815260040160405180910390fd5b818110611330576040517f28cf0d4c00000000000000000000000000000000000000000000000000000000815260040160405180910390fd5b6008829055600981905560408051838152602081018390527f6546f60f34df611fa42503098acc39d5ab88bc73febe64b3cc14e5a92e3a66a79101610dc3565b611378611701565b61138181611cc8565b50565b6000818152600260205260408120546001600160a01b031680610639576040517f7e27328900000000000000000000000000000000000000000000000000000000815260048101849052602401610797565b610b0a8383836001611da4565b6000828152600d6020908152604091829020825180840190935280546001600160a01b03168084526001909101549183019190915261144e576040517f4b13b31e00000000000000000000000000000000000000000000000000000000815260040160405180910390fd5b6000600a8360008151811061146557611465612739565b60200260200101516114779190612813565b611482906001612768565b90506000600a611492838261277b565b61149c919061284e565b90506000816064866001815181106114b6576114b6612739565b60200260200101516114c89190612813565b1090506114df846000015185602001518584611efa565b505050505050565b6000828152600260205260408120546001600160a01b039081169083161561151457611514818486612047565b6001600160a01b0381161561157057611531600085600080611da4565b6001600160a01b038116600090815260036020526040902080547fffffffffffffffffffffffffffffffffffffffffffffffffffffffffffffffff0190555b6001600160a01b0385161561159f576001600160a01b0385166000908152600360205260409020805460010190555b60008481526002602052604080822080547fffffffffffffffffffffffff0000000000000000000000000000000000000000166001600160a01b0389811691821790925591518793918516917fddf252ad1be2c89b69c2b068fc378daa952ba7f163c4a11628f55a4df523b3ef91a4949350505050565b6001600160a01b038216611659576040517f64a0ae9200000000000000000000000000000000000000000000000000000000815260006004820152602401610797565b6000611667838360006114e7565b90506001600160a01b03811615610b0a576040517f73c6ac6e00000000000000000000000000000000000000000000000000000000815260006004820152602401610797565b60006116bc60008360006114e7565b90506001600160a01b038116610705576040517f7e27328900000000000000000000000000000000000000000000000000000000815260048101839052602401610797565b6006546001600160a01b03163314611775576040517f08c379a000000000000000000000000000000000000000000000000000000000815260206004820152601660248201527f4f6e6c792063616c6c61626c65206279206f776e6572000000000000000000006044820152606401610797565b565b6001600160a01b0382166117c2576040517f5b08ba180000000000000000000000000000000000000000000000000000000081526001600160a01b0383166004820152602401610797565b6001600160a01b0383811660008181526005602090815260408083209487168084529482529182902080547fffffffffffffffffffffffffffffffffffffffffffffffffffffffffffffff001686151590811790915591519182527f17307eab39ab6107e8899845ad3d59bd9653f200f220920489ca2b5937696c31910160405180910390a3505050565b6001600160a01b0383163b15610861576040517f150b7a020000000000000000000000000000000000000000000000000000000081526001600160a01b0384169063150b7a02906118a8903390889087908790600401612861565b6020604051808303816000875af1925050508015611901575060408051601f3d9081017fffffffffffffffffffffffffffffffffffffffffffffffffffffffffffffffe01682019092526118fe9181019061289d565b60015b611983573d80801561192f576040519150601f19603f3d011682016040523d82523d6000602084013e611934565b606091505b50805160000361197b576040517f64a0ae920000000000000000000000000000000000000000000000000000000081526001600160a01b0385166004820152602401610797565b805181602001fd5b7fffffffff0000000000000000000000000000000000000000000000000000000081167f150b7a020000000000000000000000000000000000000000000000000000000014611a09576040517f64a0ae920000000000000000000000000000000000000000000000000000000081526001600160a01b0385166004820152602401610797565b5050505050565b60606000611a1d836120dd565b600101905060008167ffffffffffffffff811115611a3d57611a3d61236d565b6040519080825280601f01601f191660200182016040528015611a67576020820181803683370190505b5090508181016020015b7fffffffffffffffffffffffffffffffffffffffffffffffffffffffffffffffff017f3031323334353637383961626364656600000000000000000000000000000000600a86061a8153600a8504945084611a7157509392505050565b6040517f4306d35400000000000000000000000000000000000000000000000000000000815263ffffffff841660048201526000906001600160a01b037f0000000000000000000000000000000000000000000000000000000000000000811691634000aea0917f00000000000000000000000000000000000000000000000000000000000000009190821690634306d35490602401602060405180830381865afa158015611b81573d6000803e3d6000fd5b505050506040513d601f19601f82011682018060405250810190611ba591906126b9565b6040805163ffffffff808b16602083015261ffff8a169282019290925290871660608201526080016040516020818303038152906040526040518463ffffffff1660e01b8152600401611bfa939291906128ba565b6020604051808303816000875af1158015611c19573d6000803e3d6000fd5b505050506040513d601f19601f82011682018060405250810190611c3d91906127c7565b507f00000000000000000000000000000000000000000000000000000000000000006001600160a01b031663fc2a88c36040518163ffffffff1660e01b8152600401602060405180830381865afa158015611c9c573d6000803e3d6000fd5b505050506040513d601f19601f82011682018060405250810190611cc091906126b9565b949350505050565b336001600160a01b03821603611d3a576040517f08c379a000000000000000000000000000000000000000000000000000000000815260206004820152601760248201527f43616e6e6f74207472616e7366657220746f2073656c660000000000000000006044820152606401610797565b600780547fffffffffffffffffffffffff0000000000000000000000000000000000000000166001600160a01b03838116918217909255600654604051919216907fed8889f560326eb138920d842192f0eb3dd22b4f139c87a2c57538e05bae127890600090a350565b8080611db857506001600160a01b03821615155b15611eb2576000611dc884611384565b90506001600160a01b03831615801590611df45750826001600160a01b0316816001600160a01b031614155b8015611e2657506001600160a01b0380821660009081526005602090815260408083209387168352929052205460ff16155b15611e68576040517fa9fbf51f0000000000000000000000000000000000000000000000000000000081526001600160a01b0384166004820152602401610797565b8115611eb05783856001600160a01b0316826001600160a01b03167f8c5be1e5ebec7d5bd14f71427d1e84f3dd0314c0f7b2291e5b200ac8c7c3b92560405160405180910390a45b505b5050600090815260046020526040902080547fffffffffffffffffffffffff0000000000000000000000000000000000000000166001600160a01b0392909216919091179055565b6040517f40c10f190000000000000000000000000000000000000000000000000000000081526001600160a01b038581166004830152602482018490527f000000000000000000000000000000000000000000000000000000000000000016906340c10f1990604401600060405180830381600087803b158015611f7d57600080fd5b505af1158015611f91573d6000803e3d6000fd5b505050508015611fef57611fa4836116ad565b600a8054906000611fb483612792565b9091555050600b80546001810182556000919091527f0175b7a638427703f0dbe7bb9bbf987a2551717b34e79f33b5b1008d1fa01db9018390555b604080516001600160a01b03861681526020810185905290810183905281151560608201527faed94627f5668328a9dd00e7c8f89594a2bb1cb2e799b4bb0e35a96daf16f03f9060800160405180910390a150505050565b6120528383836121bf565b610b0a576001600160a01b038316612099576040517f7e27328900000000000000000000000000000000000000000000000000000000815260048101829052602401610797565b6040517f177e802f0000000000000000000000000000000000000000000000000000000081526001600160a01b038316600482015260248101829052604401610797565b6000807a184f03e93ff9f4daa797ed6e38ed64bf6a1f0100000000000000008310612126577a184f03e93ff9f4daa797ed6e38ed64bf6a1f010000000000000000830492506040015b6d04ee2d6d415b85acef81000000008310612152576d04ee2d6d415b85acef8100000000830492506020015b662386f26fc10000831061217057662386f26fc10000830492506010015b6305f5e1008310612188576305f5e100830492506008015b612710831061219c57612710830492506004015b606483106121ae576064830492506002015b600a83106106395760010192915050565b60006001600160a01b03831615801590611cc05750826001600160a01b0316846001600160a01b0316148061221957506001600160a01b0380851660009081526005602090815260408083209387168352929052205460ff165b80611cc05750506000908152600460205260409020546001600160a01b03908116911614919050565b7fffffffff000000000000000000000000000000000000000000000000000000008116811461138157600080fd5b60006020828403121561228257600080fd5b813561116381612242565b60005b838110156122a8578181015183820152602001612290565b50506000910152565b600081518084526122c981602086016020860161228d565b601f017fffffffffffffffffffffffffffffffffffffffffffffffffffffffffffffffe0169290920160200192915050565b60208152600061116360208301846122b1565b60006020828403121561232057600080fd5b5035919050565b80356001600160a01b038116811461233e57600080fd5b919050565b6000806040838503121561235657600080fd5b61235f83612327565b946020939093013593505050565b7f4e487b7100000000000000000000000000000000000000000000000000000000600052604160045260246000fd5b604051601f82017fffffffffffffffffffffffffffffffffffffffffffffffffffffffffffffffe016810167ffffffffffffffff811182821017156123e3576123e361236d565b604052919050565b600080604083850312156123fe57600080fd5b8235915060208084013567ffffffffffffffff8082111561241e57600080fd5b818601915086601f83011261243257600080fd5b8135818111156124445761244461236d565b8060051b915061245584830161239c565b818152918301840191848101908984111561246f57600080fd5b938501935b8385101561248d57843582529385019390850190612474565b8096505050505050509250929050565b6000806000606084860312156124b257600080fd5b6124bb84612327565b92506124c960208501612327565b9150604084013590509250925092565b6000602082840312156124eb57600080fd5b61116382612327565b801515811461138157600080fd5b6000806040838503121561251557600080fd5b61251e83612327565b9150602083013561252e816124f4565b809150509250929050565b6000806000806080858703121561254f57600080fd5b61255885612327565b93506020612567818701612327565b935060408601359250606086013567ffffffffffffffff8082111561258b57600080fd5b818801915088601f83011261259f57600080fd5b8135818111156125b1576125b161236d565b6125e1847fffffffffffffffffffffffffffffffffffffffffffffffffffffffffffffffe0601f8401160161239c565b915080825289848285010111156125f757600080fd5b808484018584013760008482840101525080935050505092959194509250565b6000806040838503121561262a57600080fd5b61263383612327565b915061264160208401612327565b90509250929050565b6000806040838503121561265d57600080fd5b50508035926020909101359150565b600181811c9082168061268057607f821691505b6020821081036112a7577f4e487b7100000000000000000000000000000000000000000000000000000000600052602260045260246000fd5b6000602082840312156126cb57600080fd5b5051919050565b7f4e487b7100000000000000000000000000000000000000000000000000000000600052601160045260246000fd5b60007fffffffffffffffffffffffffffffffffffffffffffffffffffffffffffffffff8203612732576127326126d2565b5060010190565b7f4e487b7100000000000000000000000000000000000000000000000000000000600052603260045260246000fd5b80820180821115610639576106396126d2565b8082028115828204841417610639576106396126d2565b6000816127a1576127a16126d2565b507fffffffffffffffffffffffffffffffffffffffffffffffffffffffffffffffff0190565b6000602082840312156127d957600080fd5b8151611163816124f4565b600083516127f681846020880161228d565b83519083019061280a81836020880161228d565b01949350505050565b600082612849577f4e487b7100000000000000000000000000000000000000000000000000000000600052601260045260246000fd5b500690565b81810381811115610639576106396126d2565b60006001600160a01b0380871683528086166020840152508360408301526080606083015261289360808301846122b1565b9695505050505050565b6000602082840312156128af57600080fd5b815161116381612242565b6001600160a01b03841681528260208201526060604082015260006128e260608301846122b1565b9594505050505056fea2646970667358221220ebaae1e74bbd463ce11ddc9334c7efeb4a9379fba5bd9bf20b3e0d368884c54864736f6c63430008140033","linkReferences":{}},"methodIdentifiers":{"OVIPOSITION_DELAY()":"2d577eef","acceptOwnership()":"79ba5097","approve(address,uint256)":"095ea7b3","balanceOf(address)":"70a08231","buyEggs(uint256)":"4fd53596","createAnt()":"2e61a7bf","eggs()":"e33f76cf","getAntPrice()":"248452bd","getAntsCreated()":"3d871229","getApproved(uint256)":"081812fc","getEggPrice()":"514b1570","initOviposition(uint256)":"d72df5d5","isApprovedForAll(address,address)":"e985e9c5","name()":"06fdde03","owner()":"8da5cb5b","ownerOf(uint256)":"6352211e","rawFulfillRandomWords(uint256,uint256[])":"1fe543e3","safeTransferFrom(address,address,uint256)":"42842e0e","safeTransferFrom(address,address,uint256,bytes)":"b88d4fde","sellAnt(uint256)":"61dcb054","setApprovalForAll(address,bool)":"a22cb465","supportsInterface(bytes4)":"01ffc9a7","symbol()":"95d89b41","tokenURI(uint256)":"c87b56dd","transferFrom(address,address,uint256)":"23b872dd","transferOwnership(address)":"f2fde38b","updatePrices(uint256,uint256)":"ef88d7f0","withdrawLink(address)":"90e9ca7f"},"id":40}