{"abi":[{"type":"constructor","inputs":[{"name":"_eggs","type":"address","internalType":"address"},{"name":"_governance","type":"address","internalType":"address"},{"name":"_linkAddress","type":"address","internalType":"address"},{"name":"_wrapperAddress","type":"address","internalType":"address"}],"stateMutability":"nonpayable"},{"type":"function","name":"OVIPOSITION_DELAY","inputs":[],"outputs":[{"name":"","type":"uint256","internalType":"uint256"}],"stateMutability":"view"},{"type":"function","name":"acceptOwnership","inputs":[],"outputs":[],"stateMutability":"nonpayable"},{"type":"function","name":"approve","inputs":[{"name":"to","type":"address","internalType":"address"},{"name":"tokenId","type":"uint256","internalType":"uint256"}],"outputs":[],"stateMutability":"nonpayable"},{"type":"function","name":"balanceOf","inputs":[{"name":"owner","type":"address","internalType":"address"}],"outputs":[{"name":"","type":"uint256","internalType":"uint256"}],"stateMutability":"view"},{"type":"function","name":"buyEggs","inputs":[{"name":"_amount","type":"uint256","internalType":"uint256"}],"outputs":[],"stateMutability":"payable"},{"type":"function","name":"createAnt","inputs":[],"outputs":[],"stateMutability":"nonpayable"},{"type":"function","name":"eggs","inputs":[],"outputs":[{"name":"","type":"address","internalType":"contract IEgg"}],"stateMutability":"view"},{"type":"function","name":"getAntPrice","inputs":[],"outputs":[{"name":"","type":"uint256","internalType":"uint256"}],"stateMutability":"view"},{"type":"function","name":"getAntsCreated","inputs":[],"outputs":[{"name":"","type":"uint256","internalType":"uint256"}],"stateMutability":"view"},{"type":"function","name":"getApproved","inputs":[{"name":"tokenId","type":"uint256","internalType":"uint256"}],"outputs":[{"name":"","type":"address","internalType":"address"}],"stateMutability":"view"},{"type":"function","name":"getEggPrice","inputs":[],"outputs":[{"name":"","type":"uint256","internalType":"uint256"}],"stateMutability":"view"},{"type":"function","name":"getOvipositionPeriod","inputs":[{"name":"_antId","type":"uint256","internalType":"uint256"}],"outputs":[{"name":"ovipositionPeriod","type":"uint256","internalType":"uint256"}],"stateMutability":"view"},{"type":"function","name":"getOvipositionRequest","inputs":[{"name":"requestId","type":"uint256","internalType":"uint256"}],"outputs":[{"name":"ovipositionRequest","type":"tuple","internalType":"struct CryptoAnts.OvipositionRequest","components":[{"name":"paid","type":"uint256","internalType":"uint256"},{"name":"fulfilled","type":"bool","internalType":"bool"},{"name":"ant","type":"tuple","internalType":"struct CryptoAnts.Ant","components":[{"name":"owner","type":"address","internalType":"address"},{"name":"id","type":"uint256","internalType":"uint256"}]}]}],"stateMutability":"view"},{"type":"function","name":"initOviposition","inputs":[{"name":"_antId","type":"uint256","internalType":"uint256"}],"outputs":[{"name":"requestId","type":"uint256","internalType":"uint256"}],"stateMutability":"nonpayable"},{"type":"function","name":"isApprovedForAll","inputs":[{"name":"owner","type":"address","internalType":"address"},{"name":"operator","type":"address","internalType":"address"}],"outputs":[{"name":"","type":"bool","internalType":"bool"}],"stateMutability":"view"},{"type":"function","name":"name","inputs":[],"outputs":[{"name":"","type":"string","internalType":"string"}],"stateMutability":"view"},{"type":"function","name":"owner","inputs":[],"outputs":[{"name":"","type":"address","internalType":"address"}],"stateMutability":"view"},{"type":"function","name":"ownerOf","inputs":[{"name":"tokenId","type":"uint256","internalType":"uint256"}],"outputs":[{"name":"","type":"address","internalType":"address"}],"stateMutability":"view"},{"type":"function","name":"rawFulfillRandomWords","inputs":[{"name":"_requestId","type":"uint256","internalType":"uint256"},{"name":"_randomWords","type":"uint256[]","internalType":"uint256[]"}],"outputs":[],"stateMutability":"nonpayable"},{"type":"function","name":"safeTransferFrom","inputs":[{"name":"from","type":"address","internalType":"address"},{"name":"to","type":"address","internalType":"address"},{"name":"tokenId","type":"uint256","internalType":"uint256"}],"outputs":[],"stateMutability":"nonpayable"},{"type":"function","name":"safeTransferFrom","inputs":[{"name":"from","type":"address","internalType":"address"},{"name":"to","type":"address","internalType":"address"},{"name":"tokenId","type":"uint256","internalType":"uint256"},{"name":"data","type":"bytes","internalType":"bytes"}],"outputs":[],"stateMutability":"nonpayable"},{"type":"function","name":"sellAnt","inputs":[{"name":"_antId","type":"uint256","internalType":"uint256"}],"outputs":[],"stateMutability":"nonpayable"},{"type":"function","name":"setApprovalForAll","inputs":[{"name":"operator","type":"address","internalType":"address"},{"name":"approved","type":"bool","internalType":"bool"}],"outputs":[],"stateMutability":"nonpayable"},{"type":"function","name":"supportsInterface","inputs":[{"name":"interfaceId","type":"bytes4","internalType":"bytes4"}],"outputs":[{"name":"","type":"bool","internalType":"bool"}],"stateMutability":"view"},{"type":"function","name":"symbol","inputs":[],"outputs":[{"name":"","type":"string","internalType":"string"}],"stateMutability":"view"},{"type":"function","name":"tokenURI","inputs":[{"name":"tokenId","type":"uint256","internalType":"uint256"}],"outputs":[{"name":"","type":"string","internalType":"string"}],"stateMutability":"view"},{"type":"function","name":"transferFrom","inputs":[{"name":"from","type":"address","internalType":"address"},{"name":"to","type":"address","internalType":"address"},{"name":"tokenId","type":"uint256","internalType":"uint256"}],"outputs":[],"stateMutability":"nonpayable"},{"type":"function","name":"transferOwnership","inputs":[{"name":"to","type":"address","internalType":"address"}],"outputs":[],"stateMutability":"nonpayable"},{"type":"function","name":"updatePrices","inputs":[{"name":"newEggPrice","type":"uint256","internalType":"uint256"},{"name":"newAntPrice","type":"uint256","internalType":"uint256"}],"outputs":[],"stateMutability":"nonpayable"},{"type":"function","name":"withdrawLink","inputs":[{"name":"_receiver","type":"address","internalType":"address"},{"name":"_amount","type":"uint256","internalType":"uint256"}],"outputs":[],"stateMutability":"nonpayable"},{"type":"event","name":"AntCreated","inputs":[{"name":"owner","type":"address","indexed":false,"internalType":"address"},{"name":"antId","type":"uint256","indexed":false,"internalType":"uint256"}],"anonymous":false},{"type":"event","name":"AntCreated","inputs":[],"anonymous":false},{"type":"event","name":"AntSold","inputs":[{"name":"owner","type":"address","indexed":false,"internalType":"address"},{"name":"antId","type":"uint256","indexed":false,"internalType":"uint256"}],"anonymous":false},{"type":"event","name":"AntSold","inputs":[],"anonymous":false},{"type":"event","name":"Approval","inputs":[{"name":"owner","type":"address","indexed":true,"internalType":"address"},{"name":"approved","type":"address","indexed":true,"internalType":"address"},{"name":"tokenId","type":"uint256","indexed":true,"internalType":"uint256"}],"anonymous":false},{"type":"event","name":"ApprovalForAll","inputs":[{"name":"owner","type":"address","indexed":true,"internalType":"address"},{"name":"operator","type":"address","indexed":true,"internalType":"address"},{"name":"approved","type":"bool","indexed":false,"internalType":"bool"}],"anonymous":false},{"type":"event","name":"EggsBought","inputs":[{"name":"owner","type":"address","indexed":false,"internalType":"address"},{"name":"amount","type":"uint256","indexed":false,"internalType":"uint256"}],"anonymous":false},{"type":"event","name":"EggsLayed","inputs":[{"name":"owner","type":"address","indexed":false,"internalType":"address"},{"name":"antId","type":"uint256","indexed":false,"internalType":"uint256"},{"name":"eggsLayed","type":"uint256","indexed":false,"internalType":"uint256"},{"name":"isAntDead","type":"bool","indexed":false,"internalType":"bool"}],"anonymous":false},{"type":"event","name":"OvipositionRequestFulfilled","inputs":[{"name":"requestId","type":"uint256","indexed":false,"internalType":"uint256"},{"name":"paid","type":"uint256","indexed":false,"internalType":"uint256"}],"anonymous":false},{"type":"event","name":"OvipositionRequested","inputs":[{"name":"requestId","type":"uint256","indexed":false,"internalType":"uint256"},{"name":"paid","type":"uint256","indexed":false,"internalType":"uint256"}],"anonymous":false},{"type":"event","name":"OwnershipTransferRequested","inputs":[{"name":"from","type":"address","indexed":true,"internalType":"address"},{"name":"to","type":"address","indexed":true,"internalType":"address"}],"anonymous":false},{"type":"event","name":"OwnershipTransferred","inputs":[{"name":"from","type":"address","indexed":true,"internalType":"address"},{"name":"to","type":"address","indexed":true,"internalType":"address"}],"anonymous":false},{"type":"event","name":"PricesUpdated","inputs":[{"name":"newEggPrice","type":"uint256","indexed":false,"internalType":"uint256"},{"name":"newAntPrice","type":"uint256","indexed":false,"internalType":"uint256"}],"anonymous":false},{"type":"event","name":"Transfer","inputs":[{"name":"from","type":"address","indexed":true,"internalType":"address"},{"name":"to","type":"address","indexed":true,"internalType":"address"},{"name":"tokenId","type":"uint256","indexed":true,"internalType":"uint256"}],"anonymous":false},{"type":"error","name":"AlreadyExists","inputs":[]},{"type":"error","name":"AntPriceMustBeLessThanEggPrice","inputs":[]},{"type":"error","name":"ERC721IncorrectOwner","inputs":[{"name":"sender","type":"address","internalType":"address"},{"name":"tokenId","type":"uint256","internalType":"uint256"},{"name":"owner","type":"address","internalType":"address"}]},{"type":"error","name":"ERC721InsufficientApproval","inputs":[{"name":"operator","type":"address","internalType":"address"},{"name":"tokenId","type":"uint256","internalType":"uint256"}]},{"type":"error","name":"ERC721InvalidApprover","inputs":[{"name":"approver","type":"address","internalType":"address"}]},{"type":"error","name":"ERC721InvalidOperator","inputs":[{"name":"operator","type":"address","internalType":"address"}]},{"type":"error","name":"ERC721InvalidOwner","inputs":[{"name":"owner","type":"address","internalType":"address"}]},{"type":"error","name":"ERC721InvalidReceiver","inputs":[{"name":"receiver","type":"address","internalType":"address"}]},{"type":"error","name":"ERC721InvalidSender","inputs":[{"name":"sender","type":"address","internalType":"address"}]},{"type":"error","name":"ERC721NonexistentToken","inputs":[{"name":"tokenId","type":"uint256","internalType":"uint256"}]},{"type":"error","name":"InsufficientFunds","inputs":[{"name":"balance","type":"uint256","internalType":"uint256"},{"name":"paid","type":"uint256","internalType":"uint256"}]},{"type":"error","name":"NoEggs","inputs":[]},{"type":"error","name":"NotAntOwner","inputs":[]},{"type":"error","name":"PreOvipositionPeriod","inputs":[]},{"type":"error","name":"RequestNotFound","inputs":[{"name":"requestId","type":"uint256","internalType":"uint256"}]},{"type":"error","name":"TransferFailed","inputs":[]},{"type":"error","name":"WrongEtherSent","inputs":[]},{"type":"error","name":"ZeroAddress","inputs":[]},{"type":"error","name":"ZeroAmount","inputs":[]}],"bytecode":{"object":"0x610100604052662386f26fc10000600855660e35fa931a00006009556000600a553480156200002d57600080fd5b50604051620031353803806200313583398101604081905262000050916200023c565b8280600084846040518060400160405280600b81526020016a43727970746f20416e747360a81b81525060405180604001604052806004815260200163414e545360e01b8152508160009081620000a891906200033e565b506001620000b782826200033e565b5050506001600160a01b03918216608052811660a0528216620001215760405162461bcd60e51b815260206004820152601860248201527f43616e6e6f7420736574206f776e657220746f207a65726f000000000000000060448201526064015b60405180910390fd5b600680546001600160a01b0319166001600160a01b03848116919091179091558116156200015457620001548162000173565b5050506001600160a01b0393841660c0525090911660e052506200040a565b336001600160a01b03821603620001cd5760405162461bcd60e51b815260206004820152601760248201527f43616e6e6f74207472616e7366657220746f2073656c66000000000000000000604482015260640162000118565b600780546001600160a01b0319166001600160a01b03838116918217909255600654604051919216907fed8889f560326eb138920d842192f0eb3dd22b4f139c87a2c57538e05bae127890600090a350565b80516001600160a01b03811681146200023757600080fd5b919050565b600080600080608085870312156200025357600080fd5b6200025e856200021f565b93506200026e602086016200021f565b92506200027e604086016200021f565b91506200028e606086016200021f565b905092959194509250565b634e487b7160e01b600052604160045260246000fd5b600181811c90821680620002c457607f821691505b602082108103620002e557634e487b7160e01b600052602260045260246000fd5b50919050565b601f8211156200033957600081815260208120601f850160051c81016020861015620003145750805b601f850160051c820191505b81811015620003355782815560010162000320565b5050505b505050565b81516001600160401b038111156200035a576200035a62000299565b62000372816200036b8454620002af565b84620002eb565b602080601f831160018114620003aa5760008415620003915750858301515b600019600386901b1c1916600185901b17855562000335565b600085815260208120601f198616915b82811015620003db57888601518255948401946001909101908401620003ba565b5085821015620003fa5787850151600019600388901b60f8161c191681555b5050505050600190811b01905550565b60805160a05160c05160e051612cb96200047c60003960008181610d8301526112b501526000818161051f0152818161093501528181610ac201528181610c6101526122270152600081816107b1015281816112da01528181611e060152611f0f01526000611ddc0152612cb96000f3fe6080604052600436106101cd5760003560e01c80636352211e116100f7578063b88d4fde11610095578063e5f9598c11610064578063e5f9598c14610541578063e985e9c51461056e578063ef88d7f0146105b7578063f2fde38b146105d757600080fd5b8063b88d4fde146104ad578063c87b56dd146104cd578063d72df5d5146104ed578063e33f76cf1461050d57600080fd5b806386f47873116100d157806386f47873146104005780638da5cb5b1461045a57806395d89b4114610478578063a22cb4651461048d57600080fd5b80636352211e146103ab57806370a08231146103cb57806379ba5097146103eb57600080fd5b80632d577eef1161016f5780634fd535961161013e5780634fd5359614610343578063514b15701461035657806354b7faae1461036b57806361dcb0541461038b57600080fd5b80632d577eef146102e25780632e61a7bf146102f95780633d8712291461030e57806342842e0e1461032357600080fd5b8063095ea7b3116101ab578063095ea7b3146102615780631fe543e31461028357806323b872dd146102a3578063248452bd146102c357600080fd5b806301ffc9a7146101d257806306fdde0314610207578063081812fc14610229575b600080fd5b3480156101de57600080fd5b506101f26101ed3660046125e9565b6105f7565b60405190151581526020015b60405180910390f35b34801561021357600080fd5b5061021c6106dc565b6040516101fe9190612674565b34801561023557600080fd5b50610249610244366004612687565b61076e565b6040516001600160a01b0390911681526020016101fe565b34801561026d57600080fd5b5061028161027c3660046126bc565b610797565b005b34801561028f57600080fd5b5061028161029e366004612764565b6107a6565b3480156102af57600080fd5b506102816102be366004612816565b610847565b3480156102cf57600080fd5b506009545b6040519081526020016101fe565b3480156102ee57600080fd5b506102d46203f48081565b34801561030557600080fd5b50610281610904565b34801561031a57600080fd5b50600a546102d4565b34801561032f57600080fd5b5061028161033e366004612816565b610b8c565b610281610351366004612687565b610bac565b34801561036257600080fd5b506008546102d4565b34801561037757600080fd5b506102816103863660046126bc565b610cfc565b34801561039757600080fd5b506102816103a6366004612687565b610e2e565b3480156103b757600080fd5b506102496103c6366004612687565b610f48565b3480156103d757600080fd5b506102d46103e6366004612852565b610f53565b3480156103f757600080fd5b50610281610fb4565b34801561040c57600080fd5b5061042061041b366004612687565b61109b565b60408051825181526020808401511515818301529282015180516001600160a01b03169282019290925291015160608201526080016101fe565b34801561046657600080fd5b506006546001600160a01b0316610249565b34801561048457600080fd5b5061021c6110fe565b34801561049957600080fd5b506102816104a836600461287b565b61110d565b3480156104b957600080fd5b506102816104c83660046128b2565b611118565b3480156104d957600080fd5b5061021c6104e8366004612687565b61112f565b3480156104f957600080fd5b506102d4610508366004612687565b6111a4565b34801561051957600080fd5b506102497f000000000000000000000000000000000000000000000000000000000000000081565b34801561054d57600080fd5b506102d461055c366004612687565b6000908152600c602052604090205490565b34801561057a57600080fd5b506101f2610589366004612990565b6001600160a01b03918216600090815260056020908152604080832093909416825291909152205460ff1690565b3480156105c357600080fd5b506102816105d23660046129c3565b611511565b3480156105e357600080fd5b506102816105f2366004612852565b6115d4565b60007fffffffff0000000000000000000000000000000000000000000000000000000082167f80ac58cd00000000000000000000000000000000000000000000000000000000148061068a57507fffffffff0000000000000000000000000000000000000000000000000000000082167f5b5e139f00000000000000000000000000000000000000000000000000000000145b806106d657507f01ffc9a7000000000000000000000000000000000000000000000000000000007fffffffff000000000000000000000000000000000000000000000000000000008316145b92915050565b6060600080546106eb906129e5565b80601f0160208091040260200160405190810160405280929190818152602001828054610717906129e5565b80156107645780601f1061073957610100808354040283529160200191610764565b820191906000526020600020905b81548152906001019060200180831161074757829003601f168201915b5050505050905090565b6000610779826115e8565b506000828152600460205260409020546001600160a01b03166106d6565b6107a282823361163a565b5050565b336001600160a01b037f0000000000000000000000000000000000000000000000000000000000000000161461083d576040517f08c379a000000000000000000000000000000000000000000000000000000000815260206004820152601f60248201527f6f6e6c792056524620563220777261707065722063616e2066756c66696c6c0060448201526064015b60405180910390fd5b6107a28282611647565b6001600160a01b03821661088a576040517f64a0ae9200000000000000000000000000000000000000000000000000000000815260006004820152602401610834565b60006108978383336117aa565b9050836001600160a01b0316816001600160a01b0316146108fe576040517f64283d7b0000000000000000000000000000000000000000000000000000000081526001600160a01b0380861660048301526024820184905282166044820152606401610834565b50505050565b6040517f70a082310000000000000000000000000000000000000000000000000000000081523360048201526001907f00000000000000000000000000000000000000000000000000000000000000006001600160a01b0316906370a0823190602401602060405180830381865afa158015610984573d6000803e3d6000fd5b505050506040513d601f19601f820116820180604052508101906109a89190612a32565b10156109e0576040517f6c308a2f00000000000000000000000000000000000000000000000000000000815260040160405180910390fd5b600b546000908103610a0757600a600081546109fb90612a7a565b91829055509050610a3e565b600b600081548110610a1b57610a1b612ab2565b6000918252602082200154600a80549193509091610a3883612a7a565b91905055505b6000818152600260205260409020546001600160a01b031615610a8d576040517f23369fa600000000000000000000000000000000000000000000000000000000815260040160405180910390fd5b6040517f9dc29fac000000000000000000000000000000000000000000000000000000008152336004820152600160248201527f00000000000000000000000000000000000000000000000000000000000000006001600160a01b031690639dc29fac90604401600060405180830381600087803b158015610b0e57600080fd5b505af1158015610b22573d6000803e3d6000fd5b50505050610b3033826118d9565b610b3c42610258612ae1565b6000828152600c60209081526040918290209290925580513381529182018390527fb1cbc86b8a6c13dcf7e6ddddcd361135b8af8664acc668744eeb932a9beb4f2691015b60405180910390a150565b610ba783838360405180602001604052806000815250611118565b505050565b80600003610be6576040517f1f2a200500000000000000000000000000000000000000000000000000000000815260040160405180910390fd5b3460085482610bf59190612af4565b14610c2c576040517f2f1e736300000000000000000000000000000000000000000000000000000000815260040160405180910390fd5b6040517f40c10f19000000000000000000000000000000000000000000000000000000008152336004820152602481018290527f00000000000000000000000000000000000000000000000000000000000000006001600160a01b0316906340c10f1990604401600060405180830381600087803b158015610cad57600080fd5b505af1158015610cc1573d6000803e3d6000fd5b505060408051338152602081018590527fecedcda9002dd5028204a70dddaa2155459b6dff3c3e20543450a189e736dc499350019050610b81565b610d04611970565b6001600160a01b038216610d44576040517fd92e233d00000000000000000000000000000000000000000000000000000000815260040160405180910390fd5b6040517fa9059cbb0000000000000000000000000000000000000000000000000000000081526001600160a01b038381166004830152602482018390527f0000000000000000000000000000000000000000000000000000000000000000919082169063a9059cbb906044016020604051808303816000875af1158015610dcf573d6000803e3d6000fd5b505050506040513d601f19601f82011682018060405250810190610df39190612b0b565b1515600003610ba7576040517f90b8ec1800000000000000000000000000000000000000000000000000000000815260040160405180910390fd5b6000818152600260205260409020546001600160a01b03163314610e7e576040517f16bea89400000000000000000000000000000000000000000000000000000000815260040160405180910390fd5b610e87816119e6565b60095460405160009133918381818185875af1925050503d8060008114610eca576040519150601f19603f3d011682016040523d82523d6000602084013e610ecf565b606091505b5050905080610f0a576040517f90b8ec1800000000000000000000000000000000000000000000000000000000815260040160405180910390fd5b60408051338152602081018490527fe67bffe95663d01ae462a2e747de3f59667442026226e1ff426a25bfe4b81fb391015b60405180910390a15050565b60006106d6826115e8565b60006001600160a01b038216610f98576040517f89c62b6400000000000000000000000000000000000000000000000000000000815260006004820152602401610834565b506001600160a01b031660009081526003602052604090205490565b6007546001600160a01b03163314611028576040517f08c379a000000000000000000000000000000000000000000000000000000000815260206004820152601660248201527f4d7573742062652070726f706f736564206f776e6572000000000000000000006044820152606401610834565b600680547fffffffffffffffffffffffff0000000000000000000000000000000000000000808216339081179093556007805490911690556040516001600160a01b03909116919082907f8be0079c531659141344cd1fd0a4f28419497f9722a3daafe3b4186f6b6457e090600090a350565b6110a3612575565b506000908152600d6020908152604091829020825160608101845281548152600182015460ff161515818401528351808501855260028301546001600160a01b03168152600390920154928201929092529181019190915290565b6060600180546106eb906129e5565b6107a2338383611a46565b611123848484610847565b6108fe84848484611b1c565b606061113a826115e8565b50600061115260408051602081019091526000815290565b90506000815111611172576040518060200160405280600081525061119d565b8061117c84611cdf565b60405160200161118d929190612b28565b6040516020818303038152906040525b9392505050565b6000818152600260205260408120546001600160a01b031633146111f4576040517f16bea89400000000000000000000000000000000000000000000000000000000815260040160405180910390fd5b6000828152600c60205260409020544281111561123d576040517f53ea709100000000000000000000000000000000000000000000000000000000815260040160405180910390fd5b61124a6203f48082612ae1565b4211156112715761125d42610258612ae1565b6000848152600c602052604090205561150b565b611281620493e060036002611d9d565b6040517f4306d354000000000000000000000000000000000000000000000000000000008152620493e060048201529092507f0000000000000000000000000000000000000000000000000000000000000000906000907f00000000000000000000000000000000000000000000000000000000000000006001600160a01b031690634306d35490602401602060405180830381865afa158015611329573d6000803e3d6000fd5b505050506040513d601f19601f8201168201806040525081019061134d9190612a32565b6040517f70a082310000000000000000000000000000000000000000000000000000000081523060048201529091506000906001600160a01b038416906370a0823190602401602060405180830381865afa1580156113b0573d6000803e3d6000fd5b505050506040513d601f19601f820116820180604052508101906113d49190612a32565b90508181101561141a576040517f03eb8b540000000000000000000000000000000000000000000000000000000081526004810182905260248101839052604401610834565b6040805160608101825283815260006020808301828152845180860186523381528083018c90528486019081528a8452600d83529285902093518455516001840180547fffffffffffffffffffffffffffffffffffffffffffffffffffffffffffffff0016911515919091179055905180516002840180547fffffffffffffffffffffffff0000000000000000000000000000000000000000166001600160a01b0390921691909117905581015160039092019190915581518781529081018490527f03bdba022a54045a6998cc489ac4b9dc1de59e776f960b46f69f44fe7676927d910160405180910390a15050505b50919050565b611519611970565b811580611524575080155b1561155b576040517f1f2a200500000000000000000000000000000000000000000000000000000000815260040160405180910390fd5b818110611594576040517f28cf0d4c00000000000000000000000000000000000000000000000000000000815260040160405180910390fd5b6008829055600981905560408051838152602081018390527f6546f60f34df611fa42503098acc39d5ab88bc73febe64b3cc14e5a92e3a66a79101610f3c565b6115dc611970565b6115e581611f97565b50565b6000818152600260205260408120546001600160a01b0316806106d6576040517f7e27328900000000000000000000000000000000000000000000000000000000815260048101849052602401610834565b610ba78383836001612073565b6000828152600d602052604081208054909103611693576040517f4ec726c700000000000000000000000000000000000000000000000000000000815260048101849052602401610834565b600181810180547fffffffffffffffffffffffffffffffffffffffffffffffffffffffffffffff0016909117905580546040805185815260208101929092527fbd03fc99dbe54c7b82300ba22cb10a54cde8d793ba3d99933518fe8ad46723e1910160405180910390a16000600a8360008151811061171457611714612ab2565b60200260200101516117269190612b57565b611731906001612ae1565b90506000600a6117418382612af4565b61174b9190612b92565b6040805180820190915260028501546001600160a01b0316808252600386015460208301819052875193945091926117a29290869086908a90600190811061179557611795612ab2565b60200260200101516121c9565b505050505050565b6000828152600260205260408120546001600160a01b03908116908316156117d7576117d7818486612326565b6001600160a01b03811615611833576117f4600085600080612073565b6001600160a01b038116600090815260036020526040902080547fffffffffffffffffffffffffffffffffffffffffffffffffffffffffffffffff0190555b6001600160a01b03851615611862576001600160a01b0385166000908152600360205260409020805460010190555b60008481526002602052604080822080547fffffffffffffffffffffffff0000000000000000000000000000000000000000166001600160a01b0389811691821790925591518793918516917fddf252ad1be2c89b69c2b068fc378daa952ba7f163c4a11628f55a4df523b3ef91a4949350505050565b6001600160a01b03821661191c576040517f64a0ae9200000000000000000000000000000000000000000000000000000000815260006004820152602401610834565b600061192a838360006117aa565b90506001600160a01b03811615610ba7576040517f73c6ac6e00000000000000000000000000000000000000000000000000000000815260006004820152602401610834565b6006546001600160a01b031633146119e4576040517f08c379a000000000000000000000000000000000000000000000000000000000815260206004820152601660248201527f4f6e6c792063616c6c61626c65206279206f776e6572000000000000000000006044820152606401610834565b565b6119ef816123bc565b600a80549060006119ff83612ba5565b90915550506000818152600c60205260408120819055600b805460018101825591527f0175b7a638427703f0dbe7bb9bbf987a2551717b34e79f33b5b1008d1fa01db90155565b6001600160a01b038216611a91576040517f5b08ba180000000000000000000000000000000000000000000000000000000081526001600160a01b0383166004820152602401610834565b6001600160a01b0383811660008181526005602090815260408083209487168084529482529182902080547fffffffffffffffffffffffffffffffffffffffffffffffffffffffffffffff001686151590811790915591519182527f17307eab39ab6107e8899845ad3d59bd9653f200f220920489ca2b5937696c31910160405180910390a3505050565b6001600160a01b0383163b156108fe576040517f150b7a020000000000000000000000000000000000000000000000000000000081526001600160a01b0384169063150b7a0290611b77903390889087908790600401612bda565b6020604051808303816000875af1925050508015611bd0575060408051601f3d9081017fffffffffffffffffffffffffffffffffffffffffffffffffffffffffffffffe0168201909252611bcd91810190612c16565b60015b611c52573d808015611bfe576040519150601f19603f3d011682016040523d82523d6000602084013e611c03565b606091505b508051600003611c4a576040517f64a0ae920000000000000000000000000000000000000000000000000000000081526001600160a01b0385166004820152602401610834565b805181602001fd5b7fffffffff0000000000000000000000000000000000000000000000000000000081167f150b7a020000000000000000000000000000000000000000000000000000000014611cd8576040517f64a0ae920000000000000000000000000000000000000000000000000000000081526001600160a01b0385166004820152602401610834565b5050505050565b60606000611cec83612410565b600101905060008167ffffffffffffffff811115611d0c57611d0c6126e6565b6040519080825280601f01601f191660200182016040528015611d36576020820181803683370190505b5090508181016020015b7fffffffffffffffffffffffffffffffffffffffffffffffffffffffffffffffff017f3031323334353637383961626364656600000000000000000000000000000000600a86061a8153600a8504945084611d4057509392505050565b6040517f4306d35400000000000000000000000000000000000000000000000000000000815263ffffffff841660048201526000906001600160a01b037f0000000000000000000000000000000000000000000000000000000000000000811691634000aea0917f00000000000000000000000000000000000000000000000000000000000000009190821690634306d35490602401602060405180830381865afa158015611e50573d6000803e3d6000fd5b505050506040513d601f19601f82011682018060405250810190611e749190612a32565b6040805163ffffffff808b16602083015261ffff8a169282019290925290871660608201526080016040516020818303038152906040526040518463ffffffff1660e01b8152600401611ec993929190612c33565b6020604051808303816000875af1158015611ee8573d6000803e3d6000fd5b505050506040513d601f19601f82011682018060405250810190611f0c9190612b0b565b507f00000000000000000000000000000000000000000000000000000000000000006001600160a01b031663fc2a88c36040518163ffffffff1660e01b8152600401602060405180830381865afa158015611f6b573d6000803e3d6000fd5b505050506040513d601f19601f82011682018060405250810190611f8f9190612a32565b949350505050565b336001600160a01b03821603612009576040517f08c379a000000000000000000000000000000000000000000000000000000000815260206004820152601760248201527f43616e6e6f74207472616e7366657220746f2073656c660000000000000000006044820152606401610834565b600780547fffffffffffffffffffffffff0000000000000000000000000000000000000000166001600160a01b03838116918217909255600654604051919216907fed8889f560326eb138920d842192f0eb3dd22b4f139c87a2c57538e05bae127890600090a350565b808061208757506001600160a01b03821615155b15612181576000612097846115e8565b90506001600160a01b038316158015906120c35750826001600160a01b0316816001600160a01b031614155b80156120f557506001600160a01b0380821660009081526005602090815260408083209387168352929052205460ff16155b15612137576040517fa9fbf51f0000000000000000000000000000000000000000000000000000000081526001600160a01b0384166004820152602401610834565b811561217f5783856001600160a01b0316826001600160a01b03167f8c5be1e5ebec7d5bd14f71427d1e84f3dd0314c0f7b2291e5b200ac8c7c3b92560405160405180910390a45b505b5050600090815260046020526040902080547fffffffffffffffffffffffff0000000000000000000000000000000000000000166001600160a01b0392909216919091179055565b600080806121d8606485612b57565b905060005b868160ff1610156122c9576040517f40c10f190000000000000000000000000000000000000000000000000000000081526001600160a01b038a81166004830152600160248301527f000000000000000000000000000000000000000000000000000000000000000016906340c10f1990604401600060405180830381600087803b15801561226b57600080fd5b505af115801561227f573d6000803e3d6000fd5b50505050838061228e90612a7a565b9450508582116122aa57600192506122a5886119e6565b6122c9565b816122b481612ba5565b925050806122c181612c64565b9150506121dd565b50604080516001600160a01b038a1681526020810189905290810184905282151560608201527faed94627f5668328a9dd00e7c8f89594a2bb1cb2e799b4bb0e35a96daf16f03f9060800160405180910390a15050505050505050565b6123318383836124f2565b610ba7576001600160a01b038316612378576040517f7e27328900000000000000000000000000000000000000000000000000000000815260048101829052602401610834565b6040517f177e802f0000000000000000000000000000000000000000000000000000000081526001600160a01b038316600482015260248101829052604401610834565b60006123cb60008360006117aa565b90506001600160a01b0381166107a2576040517f7e27328900000000000000000000000000000000000000000000000000000000815260048101839052602401610834565b6000807a184f03e93ff9f4daa797ed6e38ed64bf6a1f0100000000000000008310612459577a184f03e93ff9f4daa797ed6e38ed64bf6a1f010000000000000000830492506040015b6d04ee2d6d415b85acef81000000008310612485576d04ee2d6d415b85acef8100000000830492506020015b662386f26fc1000083106124a357662386f26fc10000830492506010015b6305f5e10083106124bb576305f5e100830492506008015b61271083106124cf57612710830492506004015b606483106124e1576064830492506002015b600a83106106d65760010192915050565b60006001600160a01b03831615801590611f8f5750826001600160a01b0316846001600160a01b0316148061254c57506001600160a01b0380851660009081526005602090815260408083209387168352929052205460ff165b80611f8f5750506000908152600460205260409020546001600160a01b03908116911614919050565b6040518060600160405280600081526020016000151581526020016125b6604051806040016040528060006001600160a01b03168152602001600081525090565b905290565b7fffffffff00000000000000000000000000000000000000000000000000000000811681146115e557600080fd5b6000602082840312156125fb57600080fd5b813561119d816125bb565b60005b83811015612621578181015183820152602001612609565b50506000910152565b60008151808452612642816020860160208601612606565b601f017fffffffffffffffffffffffffffffffffffffffffffffffffffffffffffffffe0169290920160200192915050565b60208152600061119d602083018461262a565b60006020828403121561269957600080fd5b5035919050565b80356001600160a01b03811681146126b757600080fd5b919050565b600080604083850312156126cf57600080fd5b6126d8836126a0565b946020939093013593505050565b7f4e487b7100000000000000000000000000000000000000000000000000000000600052604160045260246000fd5b604051601f82017fffffffffffffffffffffffffffffffffffffffffffffffffffffffffffffffe016810167ffffffffffffffff8111828210171561275c5761275c6126e6565b604052919050565b6000806040838503121561277757600080fd5b8235915060208084013567ffffffffffffffff8082111561279757600080fd5b818601915086601f8301126127ab57600080fd5b8135818111156127bd576127bd6126e6565b8060051b91506127ce848301612715565b81815291830184019184810190898411156127e857600080fd5b938501935b83851015612806578435825293850193908501906127ed565b8096505050505050509250929050565b60008060006060848603121561282b57600080fd5b612834846126a0565b9250612842602085016126a0565b9150604084013590509250925092565b60006020828403121561286457600080fd5b61119d826126a0565b80151581146115e557600080fd5b6000806040838503121561288e57600080fd5b612897836126a0565b915060208301356128a78161286d565b809150509250929050565b600080600080608085870312156128c857600080fd5b6128d1856126a0565b935060206128e08187016126a0565b935060408601359250606086013567ffffffffffffffff8082111561290457600080fd5b818801915088601f83011261291857600080fd5b81358181111561292a5761292a6126e6565b61295a847fffffffffffffffffffffffffffffffffffffffffffffffffffffffffffffffe0601f84011601612715565b9150808252898482850101111561297057600080fd5b808484018584013760008482840101525080935050505092959194509250565b600080604083850312156129a357600080fd5b6129ac836126a0565b91506129ba602084016126a0565b90509250929050565b600080604083850312156129d657600080fd5b50508035926020909101359150565b600181811c908216806129f957607f821691505b60208210810361150b577f4e487b7100000000000000000000000000000000000000000000000000000000600052602260045260246000fd5b600060208284031215612a4457600080fd5b5051919050565b7f4e487b7100000000000000000000000000000000000000000000000000000000600052601160045260246000fd5b60007fffffffffffffffffffffffffffffffffffffffffffffffffffffffffffffffff8203612aab57612aab612a4b565b5060010190565b7f4e487b7100000000000000000000000000000000000000000000000000000000600052603260045260246000fd5b808201808211156106d6576106d6612a4b565b80820281158282048414176106d6576106d6612a4b565b600060208284031215612b1d57600080fd5b815161119d8161286d565b60008351612b3a818460208801612606565b835190830190612b4e818360208801612606565b01949350505050565b600082612b8d577f4e487b7100000000000000000000000000000000000000000000000000000000600052601260045260246000fd5b500690565b818103818111156106d6576106d6612a4b565b600081612bb457612bb4612a4b565b507fffffffffffffffffffffffffffffffffffffffffffffffffffffffffffffffff0190565b60006001600160a01b03808716835280861660208401525083604083015260806060830152612c0c608083018461262a565b9695505050505050565b600060208284031215612c2857600080fd5b815161119d816125bb565b6001600160a01b0384168152826020820152606060408201526000612c5b606083018461262a565b95945050505050565b600060ff821660ff8103612c7a57612c7a612a4b565b6001019291505056fea2646970667358221220dcfb3c0b7429347a94100c81cf7ec20424264dced4802a48759f381f29a8861c64736f6c63430008140033","linkReferences":{}},"methodIdentifiers":{"OVIPOSITION_DELAY()":"2d577eef","acceptOwnership()":"79ba5097","approve(address,uint256)":"095ea7b3","balanceOf(address)":"70a08231","buyEggs(uint256)":"4fd53596","createAnt()":"2e61a7bf","eggs()":"e33f76cf","getAntPrice()":"248452bd","getAntsCreated()":"3d871229","getApproved(uint256)":"081812fc","getEggPrice()":"514b1570","getOvipositionPeriod(uint256)":"e5f9598c","getOvipositionRequest(uint256)":"86f47873","initOviposition(uint256)":"d72df5d5","isApprovedForAll(address,address)":"e985e9c5","name()":"06fdde03","owner()":"8da5cb5b","ownerOf(uint256)":"6352211e","rawFulfillRandomWords(uint256,uint256[])":"1fe543e3","safeTransferFrom(address,address,uint256)":"42842e0e","safeTransferFrom(address,address,uint256,bytes)":"b88d4fde","sellAnt(uint256)":"61dcb054","setApprovalForAll(address,bool)":"a22cb465","supportsInterface(bytes4)":"01ffc9a7","symbol()":"95d89b41","tokenURI(uint256)":"c87b56dd","transferFrom(address,address,uint256)":"23b872dd","transferOwnership(address)":"f2fde38b","updatePrices(uint256,uint256)":"ef88d7f0","withdrawLink(address,uint256)":"54b7faae"},"id":111}