{"abi":[{"type":"constructor","inputs":[{"name":"_eggs","type":"address","internalType":"address"},{"name":"governance","type":"address","internalType":"address"}],"stateMutability":"nonpayable"},{"type":"function","name":"approve","inputs":[{"name":"to","type":"address","internalType":"address"},{"name":"tokenId","type":"uint256","internalType":"uint256"}],"outputs":[],"stateMutability":"nonpayable"},{"type":"function","name":"balanceOf","inputs":[{"name":"owner","type":"address","internalType":"address"}],"outputs":[{"name":"","type":"uint256","internalType":"uint256"}],"stateMutability":"view"},{"type":"function","name":"buyEggs","inputs":[{"name":"_amount","type":"uint256","internalType":"uint256"}],"outputs":[],"stateMutability":"payable"},{"type":"function","name":"createAnt","inputs":[],"outputs":[],"stateMutability":"nonpayable"},{"type":"function","name":"eggs","inputs":[],"outputs":[{"name":"","type":"address","internalType":"contract IEgg"}],"stateMutability":"view"},{"type":"function","name":"getAntPrice","inputs":[],"outputs":[{"name":"","type":"uint256","internalType":"uint256"}],"stateMutability":"view"},{"type":"function","name":"getAntsCreated","inputs":[],"outputs":[{"name":"","type":"uint256","internalType":"uint256"}],"stateMutability":"view"},{"type":"function","name":"getApproved","inputs":[{"name":"tokenId","type":"uint256","internalType":"uint256"}],"outputs":[{"name":"","type":"address","internalType":"address"}],"stateMutability":"view"},{"type":"function","name":"getEggPrice","inputs":[],"outputs":[{"name":"","type":"uint256","internalType":"uint256"}],"stateMutability":"view"},{"type":"function","name":"isApprovedForAll","inputs":[{"name":"owner","type":"address","internalType":"address"},{"name":"operator","type":"address","internalType":"address"}],"outputs":[{"name":"","type":"bool","internalType":"bool"}],"stateMutability":"view"},{"type":"function","name":"name","inputs":[],"outputs":[{"name":"","type":"string","internalType":"string"}],"stateMutability":"view"},{"type":"function","name":"owner","inputs":[],"outputs":[{"name":"","type":"address","internalType":"address"}],"stateMutability":"view"},{"type":"function","name":"ownerOf","inputs":[{"name":"tokenId","type":"uint256","internalType":"uint256"}],"outputs":[{"name":"","type":"address","internalType":"address"}],"stateMutability":"view"},{"type":"function","name":"renounceOwnership","inputs":[],"outputs":[],"stateMutability":"nonpayable"},{"type":"function","name":"safeTransferFrom","inputs":[{"name":"from","type":"address","internalType":"address"},{"name":"to","type":"address","internalType":"address"},{"name":"tokenId","type":"uint256","internalType":"uint256"}],"outputs":[],"stateMutability":"nonpayable"},{"type":"function","name":"safeTransferFrom","inputs":[{"name":"from","type":"address","internalType":"address"},{"name":"to","type":"address","internalType":"address"},{"name":"tokenId","type":"uint256","internalType":"uint256"},{"name":"data","type":"bytes","internalType":"bytes"}],"outputs":[],"stateMutability":"nonpayable"},{"type":"function","name":"sellAnt","inputs":[{"name":"_antId","type":"uint256","internalType":"uint256"}],"outputs":[],"stateMutability":"nonpayable"},{"type":"function","name":"setApprovalForAll","inputs":[{"name":"operator","type":"address","internalType":"address"},{"name":"approved","type":"bool","internalType":"bool"}],"outputs":[],"stateMutability":"nonpayable"},{"type":"function","name":"supportsInterface","inputs":[{"name":"interfaceId","type":"bytes4","internalType":"bytes4"}],"outputs":[{"name":"","type":"bool","internalType":"bool"}],"stateMutability":"view"},{"type":"function","name":"symbol","inputs":[],"outputs":[{"name":"","type":"string","internalType":"string"}],"stateMutability":"view"},{"type":"function","name":"tokenURI","inputs":[{"name":"tokenId","type":"uint256","internalType":"uint256"}],"outputs":[{"name":"","type":"string","internalType":"string"}],"stateMutability":"view"},{"type":"function","name":"transferFrom","inputs":[{"name":"from","type":"address","internalType":"address"},{"name":"to","type":"address","internalType":"address"},{"name":"tokenId","type":"uint256","internalType":"uint256"}],"outputs":[],"stateMutability":"nonpayable"},{"type":"function","name":"transferOwnership","inputs":[{"name":"newOwner","type":"address","internalType":"address"}],"outputs":[],"stateMutability":"nonpayable"},{"type":"function","name":"updatePrices","inputs":[{"name":"newEggPrice","type":"uint256","internalType":"uint256"},{"name":"newAntPrice","type":"uint256","internalType":"uint256"}],"outputs":[],"stateMutability":"nonpayable"},{"type":"event","name":"AntCreated","inputs":[{"name":"owner","type":"address","indexed":false,"internalType":"address"},{"name":"antId","type":"uint256","indexed":false,"internalType":"uint256"}],"anonymous":false},{"type":"event","name":"AntCreated","inputs":[],"anonymous":false},{"type":"event","name":"AntSold","inputs":[{"name":"owner","type":"address","indexed":false,"internalType":"address"},{"name":"antId","type":"uint256","indexed":false,"internalType":"uint256"}],"anonymous":false},{"type":"event","name":"AntSold","inputs":[],"anonymous":false},{"type":"event","name":"Approval","inputs":[{"name":"owner","type":"address","indexed":true,"internalType":"address"},{"name":"approved","type":"address","indexed":true,"internalType":"address"},{"name":"tokenId","type":"uint256","indexed":true,"internalType":"uint256"}],"anonymous":false},{"type":"event","name":"ApprovalForAll","inputs":[{"name":"owner","type":"address","indexed":true,"internalType":"address"},{"name":"operator","type":"address","indexed":true,"internalType":"address"},{"name":"approved","type":"bool","indexed":false,"internalType":"bool"}],"anonymous":false},{"type":"event","name":"EggsBought","inputs":[{"name":"owner","type":"address","indexed":false,"internalType":"address"},{"name":"amount","type":"uint256","indexed":false,"internalType":"uint256"}],"anonymous":false},{"type":"event","name":"OwnershipTransferred","inputs":[{"name":"previousOwner","type":"address","indexed":true,"internalType":"address"},{"name":"newOwner","type":"address","indexed":true,"internalType":"address"}],"anonymous":false},{"type":"event","name":"PricesUpdated","inputs":[{"name":"newEggPrice","type":"uint256","indexed":false,"internalType":"uint256"},{"name":"newAntPrice","type":"uint256","indexed":false,"internalType":"uint256"}],"anonymous":false},{"type":"event","name":"Transfer","inputs":[{"name":"from","type":"address","indexed":true,"internalType":"address"},{"name":"to","type":"address","indexed":true,"internalType":"address"},{"name":"tokenId","type":"uint256","indexed":true,"internalType":"uint256"}],"anonymous":false},{"type":"error","name":"AlreadyExists","inputs":[]},{"type":"error","name":"AntPriceMustBeLessThanEggPrice","inputs":[]},{"type":"error","name":"ERC721IncorrectOwner","inputs":[{"name":"sender","type":"address","internalType":"address"},{"name":"tokenId","type":"uint256","internalType":"uint256"},{"name":"owner","type":"address","internalType":"address"}]},{"type":"error","name":"ERC721InsufficientApproval","inputs":[{"name":"operator","type":"address","internalType":"address"},{"name":"tokenId","type":"uint256","internalType":"uint256"}]},{"type":"error","name":"ERC721InvalidApprover","inputs":[{"name":"approver","type":"address","internalType":"address"}]},{"type":"error","name":"ERC721InvalidOperator","inputs":[{"name":"operator","type":"address","internalType":"address"}]},{"type":"error","name":"ERC721InvalidOwner","inputs":[{"name":"owner","type":"address","internalType":"address"}]},{"type":"error","name":"ERC721InvalidReceiver","inputs":[{"name":"receiver","type":"address","internalType":"address"}]},{"type":"error","name":"ERC721InvalidSender","inputs":[{"name":"sender","type":"address","internalType":"address"}]},{"type":"error","name":"ERC721NonexistentToken","inputs":[{"name":"tokenId","type":"uint256","internalType":"uint256"}]},{"type":"error","name":"NoEggs","inputs":[]},{"type":"error","name":"NoZeroAddress","inputs":[]},{"type":"error","name":"NotAntOwner","inputs":[]},{"type":"error","name":"OwnableInvalidOwner","inputs":[{"name":"owner","type":"address","internalType":"address"}]},{"type":"error","name":"OwnableUnauthorizedAccount","inputs":[{"name":"account","type":"address","internalType":"address"}]},{"type":"error","name":"TransferFailed","inputs":[]},{"type":"error","name":"WrongEtherSent","inputs":[]},{"type":"error","name":"ZeroAmount","inputs":[]}],"bytecode":{"object":"0x60a0604052662386f26fc10000600755660e35fa931a000060085560006009553480156200002c57600080fd5b5060405162002019380380620020198339810160408190526200004f9162000171565b806040518060400160405280600b81526020016a43727970746f20416e747360a81b81525060405180604001604052806004815260200163414e545360e01b8152508160009081620000a291906200024e565b506001620000b182826200024e565b5050506001600160a01b038116620000e357604051631e4fbdf760e01b81526000600482015260240160405180910390fd5b620000ee8162000102565b50506001600160a01b03166080526200031a565b600680546001600160a01b038381166001600160a01b0319831681179093556040519116919082907f8be0079c531659141344cd1fd0a4f28419497f9722a3daafe3b4186f6b6457e090600090a35050565b80516001600160a01b03811681146200016c57600080fd5b919050565b600080604083850312156200018557600080fd5b620001908362000154565b9150620001a06020840162000154565b90509250929050565b634e487b7160e01b600052604160045260246000fd5b600181811c90821680620001d457607f821691505b602082108103620001f557634e487b7160e01b600052602260045260246000fd5b50919050565b601f8211156200024957600081815260208120601f850160051c81016020861015620002245750805b601f850160051c820191505b81811015620002455782815560010162000230565b5050505b505050565b81516001600160401b038111156200026a576200026a620001a9565b62000282816200027b8454620001bf565b84620001fb565b602080601f831160018114620002ba5760008415620002a15750858301515b600019600386901b1c1916600185901b17855562000245565b600085815260208120601f198616915b82811015620002eb57888601518255948401946001909101908401620002ca565b50858210156200030a5787850151600019600388901b60f8161c191681555b5050505050600190811b01905550565b608051611cce6200034b6000396000818161040c01528181610759015281816108a10152610a210152611cce6000f3fe60806040526004361061018b5760003560e01c80636352211e116100d6578063b88d4fde1161007f578063e985e9c511610059578063e985e9c51461042e578063ef88d7f014610477578063f2fde38b1461049757600080fd5b8063b88d4fde146103ba578063c87b56dd146103da578063e33f76cf146103fa57600080fd5b80638da5cb5b116100b05780638da5cb5b1461036757806395d89b4114610385578063a22cb4651461039a57600080fd5b80636352211e1461031257806370a0823114610332578063715018a61461035257600080fd5b80632e61a7bf116101385780634fd53596116101125780634fd53596146102ca578063514b1570146102dd57806361dcb054146102f257600080fd5b80632e61a7bf146102805780633d8712291461029557806342842e0e146102aa57600080fd5b8063095ea7b311610169578063095ea7b31461021f57806323b872dd14610241578063248452bd1461026157600080fd5b806301ffc9a71461019057806306fdde03146101c5578063081812fc146101e7575b600080fd5b34801561019c57600080fd5b506101b06101ab366004611818565b6104b7565b60405190151581526020015b60405180910390f35b3480156101d157600080fd5b506101da61059c565b6040516101bc91906118a3565b3480156101f357600080fd5b506102076102023660046118b6565b61062e565b6040516001600160a01b0390911681526020016101bc565b34801561022b57600080fd5b5061023f61023a3660046118eb565b610657565b005b34801561024d57600080fd5b5061023f61025c366004611915565b610666565b34801561026d57600080fd5b506008545b6040519081526020016101bc565b34801561028c57600080fd5b5061023f610728565b3480156102a157600080fd5b50600954610272565b3480156102b657600080fd5b5061023f6102c5366004611915565b61094c565b61023f6102d83660046118b6565b61096c565b3480156102e957600080fd5b50600754610272565b3480156102fe57600080fd5b5061023f61030d3660046118b6565b610abc565b34801561031e57600080fd5b5061020761032d3660046118b6565b610bd6565b34801561033e57600080fd5b5061027261034d366004611951565b610be1565b34801561035e57600080fd5b5061023f610c42565b34801561037357600080fd5b506006546001600160a01b0316610207565b34801561039157600080fd5b506101da610c56565b3480156103a657600080fd5b5061023f6103b536600461196c565b610c65565b3480156103c657600080fd5b5061023f6103d53660046119d7565b610c70565b3480156103e657600080fd5b506101da6103f53660046118b6565b610c87565b34801561040657600080fd5b506102077f000000000000000000000000000000000000000000000000000000000000000081565b34801561043a57600080fd5b506101b0610449366004611ad1565b6001600160a01b03918216600090815260056020908152604080832093909416825291909152205460ff1690565b34801561048357600080fd5b5061023f610492366004611b04565b610cfc565b3480156104a357600080fd5b5061023f6104b2366004611951565b610dbf565b60007fffffffff0000000000000000000000000000000000000000000000000000000082167f80ac58cd00000000000000000000000000000000000000000000000000000000148061054a57507fffffffff0000000000000000000000000000000000000000000000000000000082167f5b5e139f00000000000000000000000000000000000000000000000000000000145b8061059657507f01ffc9a7000000000000000000000000000000000000000000000000000000007fffffffff000000000000000000000000000000000000000000000000000000008316145b92915050565b6060600080546105ab90611b26565b80601f01602080910402602001604051908101604052809291908181526020018280546105d790611b26565b80156106245780601f106105f957610100808354040283529160200191610624565b820191906000526020600020905b81548152906001019060200180831161060757829003601f168201915b5050505050905090565b600061063982610e16565b506000828152600460205260409020546001600160a01b0316610596565b610662828233610e68565b5050565b6001600160a01b0382166106ae576040517f64a0ae92000000000000000000000000000000000000000000000000000000008152600060048201526024015b60405180910390fd5b60006106bb838333610e75565b9050836001600160a01b0316816001600160a01b031614610722576040517f64283d7b0000000000000000000000000000000000000000000000000000000081526001600160a01b03808616600483015260248201849052821660448201526064016106a5565b50505050565b6040517f70a082310000000000000000000000000000000000000000000000000000000081523360048201526001907f00000000000000000000000000000000000000000000000000000000000000006001600160a01b0316906370a0823190602401602060405180830381865afa1580156107a8573d6000803e3d6000fd5b505050506040513d601f19601f820116820180604052508101906107cc9190611b79565b1015610804576040517f6c308a2f00000000000000000000000000000000000000000000000000000000815260040160405180910390fd5b600060096000815461081590611bc1565b91829055506000818152600260205260409020549091506001600160a01b03161561086c576040517f23369fa600000000000000000000000000000000000000000000000000000000815260040160405180910390fd5b6040517f9dc29fac000000000000000000000000000000000000000000000000000000008152336004820152600160248201527f00000000000000000000000000000000000000000000000000000000000000006001600160a01b031690639dc29fac90604401600060405180830381600087803b1580156108ed57600080fd5b505af1158015610901573d6000803e3d6000fd5b5050505061090f3382610fa4565b60408051338152602081018390527fb1cbc86b8a6c13dcf7e6ddddcd361135b8af8664acc668744eeb932a9beb4f2691015b60405180910390a150565b61096783838360405180602001604052806000815250610c70565b505050565b806000036109a6576040517f1f2a200500000000000000000000000000000000000000000000000000000000815260040160405180910390fd5b34600754826109b59190611bf9565b146109ec576040517f2f1e736300000000000000000000000000000000000000000000000000000000815260040160405180910390fd5b6040517f40c10f19000000000000000000000000000000000000000000000000000000008152336004820152602481018290527f00000000000000000000000000000000000000000000000000000000000000006001600160a01b0316906340c10f1990604401600060405180830381600087803b158015610a6d57600080fd5b505af1158015610a81573d6000803e3d6000fd5b505060408051338152602081018590527fecedcda9002dd5028204a70dddaa2155459b6dff3c3e20543450a189e736dc499350019050610941565b6000818152600260205260409020546001600160a01b03163314610b0c576040517f16bea89400000000000000000000000000000000000000000000000000000000815260040160405180910390fd5b610b158161103b565b60085460405160009133918381818185875af1925050503d8060008114610b58576040519150601f19603f3d011682016040523d82523d6000602084013e610b5d565b606091505b5050905080610b98576040517f90b8ec1800000000000000000000000000000000000000000000000000000000815260040160405180910390fd5b60408051338152602081018490527fe67bffe95663d01ae462a2e747de3f59667442026226e1ff426a25bfe4b81fb391015b60405180910390a15050565b600061059682610e16565b60006001600160a01b038216610c26576040517f89c62b64000000000000000000000000000000000000000000000000000000008152600060048201526024016106a5565b506001600160a01b031660009081526003602052604090205490565b610c4a61108f565b610c5460006110d5565b565b6060600180546105ab90611b26565b61066233838361113f565b610c7b848484610666565b61072284848484611215565b6060610c9282610e16565b506000610caa60408051602081019091526000815290565b90506000815111610cca5760405180602001604052806000815250610cf5565b80610cd4846113d8565b604051602001610ce5929190611c10565b6040516020818303038152906040525b9392505050565b610d0461108f565b811580610d0f575080155b15610d46576040517f1f2a200500000000000000000000000000000000000000000000000000000000815260040160405180910390fd5b818110610d7f576040517f28cf0d4c00000000000000000000000000000000000000000000000000000000815260040160405180910390fd5b6007829055600881905560408051838152602081018390527f6546f60f34df611fa42503098acc39d5ab88bc73febe64b3cc14e5a92e3a66a79101610bca565b610dc761108f565b6001600160a01b038116610e0a576040517f1e4fbdf7000000000000000000000000000000000000000000000000000000008152600060048201526024016106a5565b610e13816110d5565b50565b6000818152600260205260408120546001600160a01b031680610596576040517f7e273289000000000000000000000000000000000000000000000000000000008152600481018490526024016106a5565b6109678383836001611496565b6000828152600260205260408120546001600160a01b0390811690831615610ea257610ea28184866115ec565b6001600160a01b03811615610efe57610ebf600085600080611496565b6001600160a01b038116600090815260036020526040902080547fffffffffffffffffffffffffffffffffffffffffffffffffffffffffffffffff0190555b6001600160a01b03851615610f2d576001600160a01b0385166000908152600360205260409020805460010190555b60008481526002602052604080822080547fffffffffffffffffffffffff0000000000000000000000000000000000000000166001600160a01b0389811691821790925591518793918516917fddf252ad1be2c89b69c2b068fc378daa952ba7f163c4a11628f55a4df523b3ef91a4949350505050565b6001600160a01b038216610fe7576040517f64a0ae92000000000000000000000000000000000000000000000000000000008152600060048201526024016106a5565b6000610ff583836000610e75565b90506001600160a01b03811615610967576040517f73c6ac6e000000000000000000000000000000000000000000000000000000008152600060048201526024016106a5565b600061104a6000836000610e75565b90506001600160a01b038116610662576040517f7e273289000000000000000000000000000000000000000000000000000000008152600481018390526024016106a5565b6006546001600160a01b03163314610c54576040517f118cdaa70000000000000000000000000000000000000000000000000000000081523360048201526024016106a5565b600680546001600160a01b038381167fffffffffffffffffffffffff0000000000000000000000000000000000000000831681179093556040519116919082907f8be0079c531659141344cd1fd0a4f28419497f9722a3daafe3b4186f6b6457e090600090a35050565b6001600160a01b03821661118a576040517f5b08ba180000000000000000000000000000000000000000000000000000000081526001600160a01b03831660048201526024016106a5565b6001600160a01b0383811660008181526005602090815260408083209487168084529482529182902080547fffffffffffffffffffffffffffffffffffffffffffffffffffffffffffffff001686151590811790915591519182527f17307eab39ab6107e8899845ad3d59bd9653f200f220920489ca2b5937696c31910160405180910390a3505050565b6001600160a01b0383163b15610722576040517f150b7a020000000000000000000000000000000000000000000000000000000081526001600160a01b0384169063150b7a0290611270903390889087908790600401611c3f565b6020604051808303816000875af19250505080156112c9575060408051601f3d9081017fffffffffffffffffffffffffffffffffffffffffffffffffffffffffffffffe01682019092526112c691810190611c7b565b60015b61134b573d8080156112f7576040519150601f19603f3d011682016040523d82523d6000602084013e6112fc565b606091505b508051600003611343576040517f64a0ae920000000000000000000000000000000000000000000000000000000081526001600160a01b03851660048201526024016106a5565b805181602001fd5b7fffffffff0000000000000000000000000000000000000000000000000000000081167f150b7a0200000000000000000000000000000000000000000000000000000000146113d1576040517f64a0ae920000000000000000000000000000000000000000000000000000000081526001600160a01b03851660048201526024016106a5565b5050505050565b606060006113e583611682565b600101905060008167ffffffffffffffff811115611405576114056119a8565b6040519080825280601f01601f19166020018201604052801561142f576020820181803683370190505b5090508181016020015b7fffffffffffffffffffffffffffffffffffffffffffffffffffffffffffffffff017f3031323334353637383961626364656600000000000000000000000000000000600a86061a8153600a850494508461143957509392505050565b80806114aa57506001600160a01b03821615155b156115a45760006114ba84610e16565b90506001600160a01b038316158015906114e65750826001600160a01b0316816001600160a01b031614155b801561151857506001600160a01b0380821660009081526005602090815260408083209387168352929052205460ff16155b1561155a576040517fa9fbf51f0000000000000000000000000000000000000000000000000000000081526001600160a01b03841660048201526024016106a5565b81156115a25783856001600160a01b0316826001600160a01b03167f8c5be1e5ebec7d5bd14f71427d1e84f3dd0314c0f7b2291e5b200ac8c7c3b92560405160405180910390a45b505b5050600090815260046020526040902080547fffffffffffffffffffffffff0000000000000000000000000000000000000000166001600160a01b0392909216919091179055565b6115f7838383611764565b610967576001600160a01b03831661163e576040517f7e273289000000000000000000000000000000000000000000000000000000008152600481018290526024016106a5565b6040517f177e802f0000000000000000000000000000000000000000000000000000000081526001600160a01b0383166004820152602481018290526044016106a5565b6000807a184f03e93ff9f4daa797ed6e38ed64bf6a1f01000000000000000083106116cb577a184f03e93ff9f4daa797ed6e38ed64bf6a1f010000000000000000830492506040015b6d04ee2d6d415b85acef810000000083106116f7576d04ee2d6d415b85acef8100000000830492506020015b662386f26fc10000831061171557662386f26fc10000830492506010015b6305f5e100831061172d576305f5e100830492506008015b612710831061174157612710830492506004015b60648310611753576064830492506002015b600a83106105965760010192915050565b60006001600160a01b038316158015906117e25750826001600160a01b0316846001600160a01b031614806117be57506001600160a01b0380851660009081526005602090815260408083209387168352929052205460ff165b806117e257506000828152600460205260409020546001600160a01b038481169116145b949350505050565b7fffffffff0000000000000000000000000000000000000000000000000000000081168114610e1357600080fd5b60006020828403121561182a57600080fd5b8135610cf5816117ea565b60005b83811015611850578181015183820152602001611838565b50506000910152565b60008151808452611871816020860160208601611835565b601f017fffffffffffffffffffffffffffffffffffffffffffffffffffffffffffffffe0169290920160200192915050565b602081526000610cf56020830184611859565b6000602082840312156118c857600080fd5b5035919050565b80356001600160a01b03811681146118e657600080fd5b919050565b600080604083850312156118fe57600080fd5b611907836118cf565b946020939093013593505050565b60008060006060848603121561192a57600080fd5b611933846118cf565b9250611941602085016118cf565b9150604084013590509250925092565b60006020828403121561196357600080fd5b610cf5826118cf565b6000806040838503121561197f57600080fd5b611988836118cf565b91506020830135801515811461199d57600080fd5b809150509250929050565b7f4e487b7100000000000000000000000000000000000000000000000000000000600052604160045260246000fd5b600080600080608085870312156119ed57600080fd5b6119f6856118cf565b9350611a04602086016118cf565b925060408501359150606085013567ffffffffffffffff80821115611a2857600080fd5b818701915087601f830112611a3c57600080fd5b813581811115611a4e57611a4e6119a8565b604051601f82017fffffffffffffffffffffffffffffffffffffffffffffffffffffffffffffffe0908116603f01168101908382118183101715611a9457611a946119a8565b816040528281528a6020848701011115611aad57600080fd5b82602086016020830137600060208483010152809550505050505092959194509250565b60008060408385031215611ae457600080fd5b611aed836118cf565b9150611afb602084016118cf565b90509250929050565b60008060408385031215611b1757600080fd5b50508035926020909101359150565b600181811c90821680611b3a57607f821691505b602082108103611b73577f4e487b7100000000000000000000000000000000000000000000000000000000600052602260045260246000fd5b50919050565b600060208284031215611b8b57600080fd5b5051919050565b7f4e487b7100000000000000000000000000000000000000000000000000000000600052601160045260246000fd5b60007fffffffffffffffffffffffffffffffffffffffffffffffffffffffffffffffff8203611bf257611bf2611b92565b5060010190565b808202811582820484141761059657610596611b92565b60008351611c22818460208801611835565b835190830190611c36818360208801611835565b01949350505050565b60006001600160a01b03808716835280861660208401525083604083015260806060830152611c716080830184611859565b9695505050505050565b600060208284031215611c8d57600080fd5b8151610cf5816117ea56fea264697066735822122078d8281415de3cccea1bb3a3b454e2d075c0de4d07027108ca206b92b3c3845264736f6c63430008140033","linkReferences":{}},"methodIdentifiers":{"approve(address,uint256)":"095ea7b3","balanceOf(address)":"70a08231","buyEggs(uint256)":"4fd53596","createAnt()":"2e61a7bf","eggs()":"e33f76cf","getAntPrice()":"248452bd","getAntsCreated()":"3d871229","getApproved(uint256)":"081812fc","getEggPrice()":"514b1570","isApprovedForAll(address,address)":"e985e9c5","name()":"06fdde03","owner()":"8da5cb5b","ownerOf(uint256)":"6352211e","renounceOwnership()":"715018a6","safeTransferFrom(address,address,uint256)":"42842e0e","safeTransferFrom(address,address,uint256,bytes)":"b88d4fde","sellAnt(uint256)":"61dcb054","setApprovalForAll(address,bool)":"a22cb465","supportsInterface(bytes4)":"01ffc9a7","symbol()":"95d89b41","tokenURI(uint256)":"c87b56dd","transferFrom(address,address,uint256)":"23b872dd","transferOwnership(address)":"f2fde38b","updatePrices(uint256,uint256)":"ef88d7f0"},"id":73}