{"abi":[{"type":"constructor","inputs":[{"name":"_eggs","type":"address","internalType":"address"},{"name":"governance","type":"address","internalType":"address"}],"stateMutability":"nonpayable"},{"type":"function","name":"OVIPOSITION_DELAY","inputs":[],"outputs":[{"name":"","type":"uint256","internalType":"uint256"}],"stateMutability":"view"},{"type":"function","name":"approve","inputs":[{"name":"to","type":"address","internalType":"address"},{"name":"tokenId","type":"uint256","internalType":"uint256"}],"outputs":[],"stateMutability":"nonpayable"},{"type":"function","name":"balanceOf","inputs":[{"name":"owner","type":"address","internalType":"address"}],"outputs":[{"name":"","type":"uint256","internalType":"uint256"}],"stateMutability":"view"},{"type":"function","name":"buyEggs","inputs":[{"name":"_amount","type":"uint256","internalType":"uint256"}],"outputs":[],"stateMutability":"payable"},{"type":"function","name":"createAnt","inputs":[],"outputs":[],"stateMutability":"nonpayable"},{"type":"function","name":"eggs","inputs":[],"outputs":[{"name":"","type":"address","internalType":"contract IEgg"}],"stateMutability":"view"},{"type":"function","name":"getAntPrice","inputs":[],"outputs":[{"name":"","type":"uint256","internalType":"uint256"}],"stateMutability":"view"},{"type":"function","name":"getAntsCreated","inputs":[],"outputs":[{"name":"","type":"uint256","internalType":"uint256"}],"stateMutability":"view"},{"type":"function","name":"getApproved","inputs":[{"name":"tokenId","type":"uint256","internalType":"uint256"}],"outputs":[{"name":"","type":"address","internalType":"address"}],"stateMutability":"view"},{"type":"function","name":"getEggPrice","inputs":[],"outputs":[{"name":"","type":"uint256","internalType":"uint256"}],"stateMutability":"view"},{"type":"function","name":"isApprovedForAll","inputs":[{"name":"owner","type":"address","internalType":"address"},{"name":"operator","type":"address","internalType":"address"}],"outputs":[{"name":"","type":"bool","internalType":"bool"}],"stateMutability":"view"},{"type":"function","name":"name","inputs":[],"outputs":[{"name":"","type":"string","internalType":"string"}],"stateMutability":"view"},{"type":"function","name":"owner","inputs":[],"outputs":[{"name":"","type":"address","internalType":"address"}],"stateMutability":"view"},{"type":"function","name":"ownerOf","inputs":[{"name":"tokenId","type":"uint256","internalType":"uint256"}],"outputs":[{"name":"","type":"address","internalType":"address"}],"stateMutability":"view"},{"type":"function","name":"renounceOwnership","inputs":[],"outputs":[],"stateMutability":"nonpayable"},{"type":"function","name":"safeTransferFrom","inputs":[{"name":"from","type":"address","internalType":"address"},{"name":"to","type":"address","internalType":"address"},{"name":"tokenId","type":"uint256","internalType":"uint256"}],"outputs":[],"stateMutability":"nonpayable"},{"type":"function","name":"safeTransferFrom","inputs":[{"name":"from","type":"address","internalType":"address"},{"name":"to","type":"address","internalType":"address"},{"name":"tokenId","type":"uint256","internalType":"uint256"},{"name":"data","type":"bytes","internalType":"bytes"}],"outputs":[],"stateMutability":"nonpayable"},{"type":"function","name":"sellAnt","inputs":[{"name":"_antId","type":"uint256","internalType":"uint256"}],"outputs":[],"stateMutability":"nonpayable"},{"type":"function","name":"setApprovalForAll","inputs":[{"name":"operator","type":"address","internalType":"address"},{"name":"approved","type":"bool","internalType":"bool"}],"outputs":[],"stateMutability":"nonpayable"},{"type":"function","name":"supportsInterface","inputs":[{"name":"interfaceId","type":"bytes4","internalType":"bytes4"}],"outputs":[{"name":"","type":"bool","internalType":"bool"}],"stateMutability":"view"},{"type":"function","name":"symbol","inputs":[],"outputs":[{"name":"","type":"string","internalType":"string"}],"stateMutability":"view"},{"type":"function","name":"tokenURI","inputs":[{"name":"tokenId","type":"uint256","internalType":"uint256"}],"outputs":[{"name":"","type":"string","internalType":"string"}],"stateMutability":"view"},{"type":"function","name":"transferFrom","inputs":[{"name":"from","type":"address","internalType":"address"},{"name":"to","type":"address","internalType":"address"},{"name":"tokenId","type":"uint256","internalType":"uint256"}],"outputs":[],"stateMutability":"nonpayable"},{"type":"function","name":"transferOwnership","inputs":[{"name":"newOwner","type":"address","internalType":"address"}],"outputs":[],"stateMutability":"nonpayable"},{"type":"function","name":"updatePrices","inputs":[{"name":"newEggPrice","type":"uint256","internalType":"uint256"},{"name":"newAntPrice","type":"uint256","internalType":"uint256"}],"outputs":[],"stateMutability":"nonpayable"},{"type":"event","name":"AntCreated","inputs":[{"name":"owner","type":"address","indexed":false,"internalType":"address"},{"name":"antId","type":"uint256","indexed":false,"internalType":"uint256"}],"anonymous":false},{"type":"event","name":"AntCreated","inputs":[],"anonymous":false},{"type":"event","name":"AntSold","inputs":[{"name":"owner","type":"address","indexed":false,"internalType":"address"},{"name":"antId","type":"uint256","indexed":false,"internalType":"uint256"}],"anonymous":false},{"type":"event","name":"AntSold","inputs":[],"anonymous":false},{"type":"event","name":"Approval","inputs":[{"name":"owner","type":"address","indexed":true,"internalType":"address"},{"name":"approved","type":"address","indexed":true,"internalType":"address"},{"name":"tokenId","type":"uint256","indexed":true,"internalType":"uint256"}],"anonymous":false},{"type":"event","name":"ApprovalForAll","inputs":[{"name":"owner","type":"address","indexed":true,"internalType":"address"},{"name":"operator","type":"address","indexed":true,"internalType":"address"},{"name":"approved","type":"bool","indexed":false,"internalType":"bool"}],"anonymous":false},{"type":"event","name":"EggsBought","inputs":[{"name":"owner","type":"address","indexed":false,"internalType":"address"},{"name":"amount","type":"uint256","indexed":false,"internalType":"uint256"}],"anonymous":false},{"type":"event","name":"OwnershipTransferred","inputs":[{"name":"previousOwner","type":"address","indexed":true,"internalType":"address"},{"name":"newOwner","type":"address","indexed":true,"internalType":"address"}],"anonymous":false},{"type":"event","name":"PricesUpdated","inputs":[{"name":"newEggPrice","type":"uint256","indexed":false,"internalType":"uint256"},{"name":"newAntPrice","type":"uint256","indexed":false,"internalType":"uint256"}],"anonymous":false},{"type":"event","name":"Transfer","inputs":[{"name":"from","type":"address","indexed":true,"internalType":"address"},{"name":"to","type":"address","indexed":true,"internalType":"address"},{"name":"tokenId","type":"uint256","indexed":true,"internalType":"uint256"}],"anonymous":false},{"type":"error","name":"AlreadyExists","inputs":[]},{"type":"error","name":"AntPriceMustBeLessThanEggPrice","inputs":[]},{"type":"error","name":"ERC721IncorrectOwner","inputs":[{"name":"sender","type":"address","internalType":"address"},{"name":"tokenId","type":"uint256","internalType":"uint256"},{"name":"owner","type":"address","internalType":"address"}]},{"type":"error","name":"ERC721InsufficientApproval","inputs":[{"name":"operator","type":"address","internalType":"address"},{"name":"tokenId","type":"uint256","internalType":"uint256"}]},{"type":"error","name":"ERC721InvalidApprover","inputs":[{"name":"approver","type":"address","internalType":"address"}]},{"type":"error","name":"ERC721InvalidOperator","inputs":[{"name":"operator","type":"address","internalType":"address"}]},{"type":"error","name":"ERC721InvalidOwner","inputs":[{"name":"owner","type":"address","internalType":"address"}]},{"type":"error","name":"ERC721InvalidReceiver","inputs":[{"name":"receiver","type":"address","internalType":"address"}]},{"type":"error","name":"ERC721InvalidSender","inputs":[{"name":"sender","type":"address","internalType":"address"}]},{"type":"error","name":"ERC721NonexistentToken","inputs":[{"name":"tokenId","type":"uint256","internalType":"uint256"}]},{"type":"error","name":"NoEggs","inputs":[]},{"type":"error","name":"NoZeroAddress","inputs":[]},{"type":"error","name":"NotAntOwner","inputs":[]},{"type":"error","name":"OwnableInvalidOwner","inputs":[{"name":"owner","type":"address","internalType":"address"}]},{"type":"error","name":"OwnableUnauthorizedAccount","inputs":[{"name":"account","type":"address","internalType":"address"}]},{"type":"error","name":"TransferFailed","inputs":[]},{"type":"error","name":"WrongEtherSent","inputs":[]},{"type":"error","name":"ZeroAmount","inputs":[]}],"bytecode":{"object":"0x60a0604052662386f26fc10000600755660e35fa931a000060085560006009553480156200002c57600080fd5b506040516200216c3803806200216c8339810160408190526200004f9162000171565b806040518060400160405280600b81526020016a43727970746f20416e747360a81b81525060405180604001604052806004815260200163414e545360e01b8152508160009081620000a291906200024e565b506001620000b182826200024e565b5050506001600160a01b038116620000e357604051631e4fbdf760e01b81526000600482015260240160405180910390fd5b620000ee8162000102565b50506001600160a01b03166080526200031a565b600680546001600160a01b038381166001600160a01b0319831681179093556040519116919082907f8be0079c531659141344cd1fd0a4f28419497f9722a3daafe3b4186f6b6457e090600090a35050565b80516001600160a01b03811681146200016c57600080fd5b919050565b600080604083850312156200018557600080fd5b620001908362000154565b9150620001a06020840162000154565b90509250929050565b634e487b7160e01b600052604160045260246000fd5b600181811c90821680620001d457607f821691505b602082108103620001f557634e487b7160e01b600052602260045260246000fd5b50919050565b601f8211156200024957600081815260208120601f850160051c81016020861015620002245750805b601f850160051c820191505b81811015620002455782815560010162000230565b5050505b505050565b81516001600160401b038111156200026a576200026a620001a9565b62000282816200027b8454620001bf565b84620001fb565b602080601f831160018114620002ba5760008415620002a15750858301515b600019600386901b1c1916600185901b17855562000245565b600085815260208120601f198616915b82811015620002eb57888601518255948401946001909101908401620002ca565b50858210156200030a5787850151600019600388901b60f8161c191681555b5050505050600190811b01905550565b608051611e216200034b6000396000818161042e0152818161077b015281816109080152610aa70152611e216000f3fe6080604052600436106101965760003560e01c806361dcb054116100e1578063a22cb4651161008a578063e33f76cf11610064578063e33f76cf1461041c578063e985e9c514610450578063ef88d7f014610499578063f2fde38b146104b957600080fd5b8063a22cb465146103bc578063b88d4fde146103dc578063c87b56dd146103fc57600080fd5b8063715018a6116100bb578063715018a6146103745780638da5cb5b1461038957806395d89b41146103a757600080fd5b806361dcb054146103145780636352211e1461033457806370a082311461035457600080fd5b80632d577eef1161014357806342842e0e1161011d57806342842e0e146102cc5780634fd53596146102ec578063514b1570146102ff57600080fd5b80632d577eef1461028b5780632e61a7bf146102a25780633d871229146102b757600080fd5b8063095ea7b311610174578063095ea7b31461022a57806323b872dd1461024c578063248452bd1461026c57600080fd5b806301ffc9a71461019b57806306fdde03146101d0578063081812fc146101f2575b600080fd5b3480156101a757600080fd5b506101bb6101b63660046118f4565b6104d9565b60405190151581526020015b60405180910390f35b3480156101dc57600080fd5b506101e56105be565b6040516101c7919061197f565b3480156101fe57600080fd5b5061021261020d366004611992565b610650565b6040516001600160a01b0390911681526020016101c7565b34801561023657600080fd5b5061024a6102453660046119c7565b610679565b005b34801561025857600080fd5b5061024a6102673660046119f1565b610688565b34801561027857600080fd5b506008545b6040519081526020016101c7565b34801561029757600080fd5b5061027d6203f48081565b3480156102ae57600080fd5b5061024a61074a565b3480156102c357600080fd5b5060095461027d565b3480156102d857600080fd5b5061024a6102e73660046119f1565b6109d2565b61024a6102fa366004611992565b6109f2565b34801561030b57600080fd5b5060075461027d565b34801561032057600080fd5b5061024a61032f366004611992565b610b42565b34801561034057600080fd5b5061021261034f366004611992565b610cb2565b34801561036057600080fd5b5061027d61036f366004611a2d565b610cbd565b34801561038057600080fd5b5061024a610d1e565b34801561039557600080fd5b506006546001600160a01b0316610212565b3480156103b357600080fd5b506101e5610d32565b3480156103c857600080fd5b5061024a6103d7366004611a48565b610d41565b3480156103e857600080fd5b5061024a6103f7366004611ab3565b610d4c565b34801561040857600080fd5b506101e5610417366004611992565b610d63565b34801561042857600080fd5b506102127f000000000000000000000000000000000000000000000000000000000000000081565b34801561045c57600080fd5b506101bb61046b366004611bad565b6001600160a01b03918216600090815260056020908152604080832093909416825291909152205460ff1690565b3480156104a557600080fd5b5061024a6104b4366004611be0565b610dd8565b3480156104c557600080fd5b5061024a6104d4366004611a2d565b610e9b565b60007fffffffff0000000000000000000000000000000000000000000000000000000082167f80ac58cd00000000000000000000000000000000000000000000000000000000148061056c57507fffffffff0000000000000000000000000000000000000000000000000000000082167f5b5e139f00000000000000000000000000000000000000000000000000000000145b806105b857507f01ffc9a7000000000000000000000000000000000000000000000000000000007fffffffff000000000000000000000000000000000000000000000000000000008316145b92915050565b6060600080546105cd90611c02565b80601f01602080910402602001604051908101604052809291908181526020018280546105f990611c02565b80156106465780601f1061061b57610100808354040283529160200191610646565b820191906000526020600020905b81548152906001019060200180831161062957829003601f168201915b5050505050905090565b600061065b82610ef2565b506000828152600460205260409020546001600160a01b03166105b8565b610684828233610f44565b5050565b6001600160a01b0382166106d0576040517f64a0ae92000000000000000000000000000000000000000000000000000000008152600060048201526024015b60405180910390fd5b60006106dd838333610f51565b9050836001600160a01b0316816001600160a01b031614610744576040517f64283d7b0000000000000000000000000000000000000000000000000000000081526001600160a01b03808616600483015260248201849052821660448201526064016106c7565b50505050565b6040517f70a082310000000000000000000000000000000000000000000000000000000081523360048201526001907f00000000000000000000000000000000000000000000000000000000000000006001600160a01b0316906370a0823190602401602060405180830381865afa1580156107ca573d6000803e3d6000fd5b505050506040513d601f19601f820116820180604052508101906107ee9190611c55565b1015610826576040517f6c308a2f00000000000000000000000000000000000000000000000000000000815260040160405180910390fd5b600a54600090810361084d5760096000815461084190611c9d565b91829055509050610884565b600a60008154811061086157610861611cd5565b600091825260208220015460098054919350909161087e83611c9d565b91905055505b6000818152600260205260409020546001600160a01b0316156108d3576040517f23369fa600000000000000000000000000000000000000000000000000000000815260040160405180910390fd5b6040517f9dc29fac000000000000000000000000000000000000000000000000000000008152336004820152600160248201527f00000000000000000000000000000000000000000000000000000000000000006001600160a01b031690639dc29fac90604401600060405180830381600087803b15801561095457600080fd5b505af1158015610968573d6000803e3d6000fd5b505050506109763382611080565b61098242610258611d04565b6000828152600b60209081526040918290209290925580513381529182018390527fb1cbc86b8a6c13dcf7e6ddddcd361135b8af8664acc668744eeb932a9beb4f2691015b60405180910390a150565b6109ed83838360405180602001604052806000815250610d4c565b505050565b80600003610a2c576040517f1f2a200500000000000000000000000000000000000000000000000000000000815260040160405180910390fd5b3460075482610a3b9190611d17565b14610a72576040517f2f1e736300000000000000000000000000000000000000000000000000000000815260040160405180910390fd5b6040517f40c10f19000000000000000000000000000000000000000000000000000000008152336004820152602481018290527f00000000000000000000000000000000000000000000000000000000000000006001600160a01b0316906340c10f1990604401600060405180830381600087803b158015610af357600080fd5b505af1158015610b07573d6000803e3d6000fd5b505060408051338152602081018590527fecedcda9002dd5028204a70dddaa2155459b6dff3c3e20543450a189e736dc4993500190506109c7565b6000818152600260205260409020546001600160a01b03163314610b92576040517f16bea89400000000000000000000000000000000000000000000000000000000815260040160405180910390fd5b610b9b81611117565b60098054906000610bab83611d2e565b90915550506000818152600b6020526040808220829055600a80546001810182559083527fc65a7bb8d6351c1cf70c95a316cc6a92839c986682d98bc35f958f4883f9d2a80183905560085490513391908381818185875af1925050503d8060008114610c34576040519150601f19603f3d011682016040523d82523d6000602084013e610c39565b606091505b5050905080610c74576040517f90b8ec1800000000000000000000000000000000000000000000000000000000815260040160405180910390fd5b60408051338152602081018490527fe67bffe95663d01ae462a2e747de3f59667442026226e1ff426a25bfe4b81fb391015b60405180910390a15050565b60006105b882610ef2565b60006001600160a01b038216610d02576040517f89c62b64000000000000000000000000000000000000000000000000000000008152600060048201526024016106c7565b506001600160a01b031660009081526003602052604090205490565b610d2661116b565b610d3060006111b1565b565b6060600180546105cd90611c02565b61068433838361121b565b610d57848484610688565b610744848484846112f1565b6060610d6e82610ef2565b506000610d8660408051602081019091526000815290565b90506000815111610da65760405180602001604052806000815250610dd1565b80610db0846114b4565b604051602001610dc1929190611d63565b6040516020818303038152906040525b9392505050565b610de061116b565b811580610deb575080155b15610e22576040517f1f2a200500000000000000000000000000000000000000000000000000000000815260040160405180910390fd5b818110610e5b576040517f28cf0d4c00000000000000000000000000000000000000000000000000000000815260040160405180910390fd5b6007829055600881905560408051838152602081018390527f6546f60f34df611fa42503098acc39d5ab88bc73febe64b3cc14e5a92e3a66a79101610ca6565b610ea361116b565b6001600160a01b038116610ee6576040517f1e4fbdf7000000000000000000000000000000000000000000000000000000008152600060048201526024016106c7565b610eef816111b1565b50565b6000818152600260205260408120546001600160a01b0316806105b8576040517f7e273289000000000000000000000000000000000000000000000000000000008152600481018490526024016106c7565b6109ed8383836001611572565b6000828152600260205260408120546001600160a01b0390811690831615610f7e57610f7e8184866116c8565b6001600160a01b03811615610fda57610f9b600085600080611572565b6001600160a01b038116600090815260036020526040902080547fffffffffffffffffffffffffffffffffffffffffffffffffffffffffffffffff0190555b6001600160a01b03851615611009576001600160a01b0385166000908152600360205260409020805460010190555b60008481526002602052604080822080547fffffffffffffffffffffffff0000000000000000000000000000000000000000166001600160a01b0389811691821790925591518793918516917fddf252ad1be2c89b69c2b068fc378daa952ba7f163c4a11628f55a4df523b3ef91a4949350505050565b6001600160a01b0382166110c3576040517f64a0ae92000000000000000000000000000000000000000000000000000000008152600060048201526024016106c7565b60006110d183836000610f51565b90506001600160a01b038116156109ed576040517f73c6ac6e000000000000000000000000000000000000000000000000000000008152600060048201526024016106c7565b60006111266000836000610f51565b90506001600160a01b038116610684576040517f7e273289000000000000000000000000000000000000000000000000000000008152600481018390526024016106c7565b6006546001600160a01b03163314610d30576040517f118cdaa70000000000000000000000000000000000000000000000000000000081523360048201526024016106c7565b600680546001600160a01b038381167fffffffffffffffffffffffff0000000000000000000000000000000000000000831681179093556040519116919082907f8be0079c531659141344cd1fd0a4f28419497f9722a3daafe3b4186f6b6457e090600090a35050565b6001600160a01b038216611266576040517f5b08ba180000000000000000000000000000000000000000000000000000000081526001600160a01b03831660048201526024016106c7565b6001600160a01b0383811660008181526005602090815260408083209487168084529482529182902080547fffffffffffffffffffffffffffffffffffffffffffffffffffffffffffffff001686151590811790915591519182527f17307eab39ab6107e8899845ad3d59bd9653f200f220920489ca2b5937696c31910160405180910390a3505050565b6001600160a01b0383163b15610744576040517f150b7a020000000000000000000000000000000000000000000000000000000081526001600160a01b0384169063150b7a029061134c903390889087908790600401611d92565b6020604051808303816000875af19250505080156113a5575060408051601f3d9081017fffffffffffffffffffffffffffffffffffffffffffffffffffffffffffffffe01682019092526113a291810190611dce565b60015b611427573d8080156113d3576040519150601f19603f3d011682016040523d82523d6000602084013e6113d8565b606091505b50805160000361141f576040517f64a0ae920000000000000000000000000000000000000000000000000000000081526001600160a01b03851660048201526024016106c7565b805181602001fd5b7fffffffff0000000000000000000000000000000000000000000000000000000081167f150b7a0200000000000000000000000000000000000000000000000000000000146114ad576040517f64a0ae920000000000000000000000000000000000000000000000000000000081526001600160a01b03851660048201526024016106c7565b5050505050565b606060006114c18361175e565b600101905060008167ffffffffffffffff8111156114e1576114e1611a84565b6040519080825280601f01601f19166020018201604052801561150b576020820181803683370190505b5090508181016020015b7fffffffffffffffffffffffffffffffffffffffffffffffffffffffffffffffff017f3031323334353637383961626364656600000000000000000000000000000000600a86061a8153600a850494508461151557509392505050565b808061158657506001600160a01b03821615155b1561168057600061159684610ef2565b90506001600160a01b038316158015906115c25750826001600160a01b0316816001600160a01b031614155b80156115f457506001600160a01b0380821660009081526005602090815260408083209387168352929052205460ff16155b15611636576040517fa9fbf51f0000000000000000000000000000000000000000000000000000000081526001600160a01b03841660048201526024016106c7565b811561167e5783856001600160a01b0316826001600160a01b03167f8c5be1e5ebec7d5bd14f71427d1e84f3dd0314c0f7b2291e5b200ac8c7c3b92560405160405180910390a45b505b5050600090815260046020526040902080547fffffffffffffffffffffffff0000000000000000000000000000000000000000166001600160a01b0392909216919091179055565b6116d3838383611840565b6109ed576001600160a01b03831661171a576040517f7e273289000000000000000000000000000000000000000000000000000000008152600481018290526024016106c7565b6040517f177e802f0000000000000000000000000000000000000000000000000000000081526001600160a01b0383166004820152602481018290526044016106c7565b6000807a184f03e93ff9f4daa797ed6e38ed64bf6a1f01000000000000000083106117a7577a184f03e93ff9f4daa797ed6e38ed64bf6a1f010000000000000000830492506040015b6d04ee2d6d415b85acef810000000083106117d3576d04ee2d6d415b85acef8100000000830492506020015b662386f26fc1000083106117f157662386f26fc10000830492506010015b6305f5e1008310611809576305f5e100830492506008015b612710831061181d57612710830492506004015b6064831061182f576064830492506002015b600a83106105b85760010192915050565b60006001600160a01b038316158015906118be5750826001600160a01b0316846001600160a01b0316148061189a57506001600160a01b0380851660009081526005602090815260408083209387168352929052205460ff165b806118be57506000828152600460205260409020546001600160a01b038481169116145b949350505050565b7fffffffff0000000000000000000000000000000000000000000000000000000081168114610eef57600080fd5b60006020828403121561190657600080fd5b8135610dd1816118c6565b60005b8381101561192c578181015183820152602001611914565b50506000910152565b6000815180845261194d816020860160208601611911565b601f017fffffffffffffffffffffffffffffffffffffffffffffffffffffffffffffffe0169290920160200192915050565b602081526000610dd16020830184611935565b6000602082840312156119a457600080fd5b5035919050565b80356001600160a01b03811681146119c257600080fd5b919050565b600080604083850312156119da57600080fd5b6119e3836119ab565b946020939093013593505050565b600080600060608486031215611a0657600080fd5b611a0f846119ab565b9250611a1d602085016119ab565b9150604084013590509250925092565b600060208284031215611a3f57600080fd5b610dd1826119ab565b60008060408385031215611a5b57600080fd5b611a64836119ab565b915060208301358015158114611a7957600080fd5b809150509250929050565b7f4e487b7100000000000000000000000000000000000000000000000000000000600052604160045260246000fd5b60008060008060808587031215611ac957600080fd5b611ad2856119ab565b9350611ae0602086016119ab565b925060408501359150606085013567ffffffffffffffff80821115611b0457600080fd5b818701915087601f830112611b1857600080fd5b813581811115611b2a57611b2a611a84565b604051601f82017fffffffffffffffffffffffffffffffffffffffffffffffffffffffffffffffe0908116603f01168101908382118183101715611b7057611b70611a84565b816040528281528a6020848701011115611b8957600080fd5b82602086016020830137600060208483010152809550505050505092959194509250565b60008060408385031215611bc057600080fd5b611bc9836119ab565b9150611bd7602084016119ab565b90509250929050565b60008060408385031215611bf357600080fd5b50508035926020909101359150565b600181811c90821680611c1657607f821691505b602082108103611c4f577f4e487b7100000000000000000000000000000000000000000000000000000000600052602260045260246000fd5b50919050565b600060208284031215611c6757600080fd5b5051919050565b7f4e487b7100000000000000000000000000000000000000000000000000000000600052601160045260246000fd5b60007fffffffffffffffffffffffffffffffffffffffffffffffffffffffffffffffff8203611cce57611cce611c6e565b5060010190565b7f4e487b7100000000000000000000000000000000000000000000000000000000600052603260045260246000fd5b808201808211156105b8576105b8611c6e565b80820281158282048414176105b8576105b8611c6e565b600081611d3d57611d3d611c6e565b507fffffffffffffffffffffffffffffffffffffffffffffffffffffffffffffffff0190565b60008351611d75818460208801611911565b835190830190611d89818360208801611911565b01949350505050565b60006001600160a01b03808716835280861660208401525083604083015260806060830152611dc46080830184611935565b9695505050505050565b600060208284031215611de057600080fd5b8151610dd1816118c656fea2646970667358221220e87d009d27b96f35780fdd26612959f07d63e44bc80c2e4eb8bc1ce8d108c21764736f6c63430008140033","linkReferences":{}},"methodIdentifiers":{"OVIPOSITION_DELAY()":"2d577eef","approve(address,uint256)":"095ea7b3","balanceOf(address)":"70a08231","buyEggs(uint256)":"4fd53596","createAnt()":"2e61a7bf","eggs()":"e33f76cf","getAntPrice()":"248452bd","getAntsCreated()":"3d871229","getApproved(uint256)":"081812fc","getEggPrice()":"514b1570","isApprovedForAll(address,address)":"e985e9c5","name()":"06fdde03","owner()":"8da5cb5b","ownerOf(uint256)":"6352211e","renounceOwnership()":"715018a6","safeTransferFrom(address,address,uint256)":"42842e0e","safeTransferFrom(address,address,uint256,bytes)":"b88d4fde","sellAnt(uint256)":"61dcb054","setApprovalForAll(address,bool)":"a22cb465","supportsInterface(bytes4)":"01ffc9a7","symbol()":"95d89b41","tokenURI(uint256)":"c87b56dd","transferFrom(address,address,uint256)":"23b872dd","transferOwnership(address)":"f2fde38b","updatePrices(uint256,uint256)":"ef88d7f0"},"id":35}