{"abi":[{"type":"constructor","inputs":[{"name":"_eggs","type":"address","internalType":"address"}],"stateMutability":"nonpayable"},{"type":"function","name":"allAntsIds","inputs":[{"name":"","type":"uint256","internalType":"uint256"}],"outputs":[{"name":"","type":"uint256","internalType":"uint256"}],"stateMutability":"view"},{"type":"function","name":"antsCreated","inputs":[],"outputs":[{"name":"","type":"uint256","internalType":"uint256"}],"stateMutability":"view"},{"type":"function","name":"approve","inputs":[{"name":"to","type":"address","internalType":"address"},{"name":"tokenId","type":"uint256","internalType":"uint256"}],"outputs":[],"stateMutability":"nonpayable"},{"type":"function","name":"balanceOf","inputs":[{"name":"owner","type":"address","internalType":"address"}],"outputs":[{"name":"","type":"uint256","internalType":"uint256"}],"stateMutability":"view"},{"type":"function","name":"buyEggs","inputs":[{"name":"_amount","type":"uint256","internalType":"uint256"}],"outputs":[],"stateMutability":"payable"},{"type":"function","name":"createAnt","inputs":[],"outputs":[],"stateMutability":"nonpayable"},{"type":"function","name":"eggPrice","inputs":[],"outputs":[{"name":"","type":"uint256","internalType":"uint256"}],"stateMutability":"view"},{"type":"function","name":"eggs","inputs":[],"outputs":[{"name":"","type":"address","internalType":"contract IEgg"}],"stateMutability":"view"},{"type":"function","name":"getAntsCreated","inputs":[],"outputs":[{"name":"","type":"uint256","internalType":"uint256"}],"stateMutability":"view"},{"type":"function","name":"getApproved","inputs":[{"name":"tokenId","type":"uint256","internalType":"uint256"}],"outputs":[{"name":"","type":"address","internalType":"address"}],"stateMutability":"view"},{"type":"function","name":"getContractBalance","inputs":[],"outputs":[{"name":"","type":"uint256","internalType":"uint256"}],"stateMutability":"view"},{"type":"function","name":"isApprovedForAll","inputs":[{"name":"owner","type":"address","internalType":"address"},{"name":"operator","type":"address","internalType":"address"}],"outputs":[{"name":"","type":"bool","internalType":"bool"}],"stateMutability":"view"},{"type":"function","name":"locked","inputs":[],"outputs":[{"name":"","type":"bool","internalType":"bool"}],"stateMutability":"view"},{"type":"function","name":"name","inputs":[],"outputs":[{"name":"","type":"string","internalType":"string"}],"stateMutability":"view"},{"type":"function","name":"notLocked","inputs":[],"outputs":[{"name":"","type":"bool","internalType":"bool"}],"stateMutability":"view"},{"type":"function","name":"ownerOf","inputs":[{"name":"tokenId","type":"uint256","internalType":"uint256"}],"outputs":[{"name":"","type":"address","internalType":"address"}],"stateMutability":"view"},{"type":"function","name":"safeTransferFrom","inputs":[{"name":"from","type":"address","internalType":"address"},{"name":"to","type":"address","internalType":"address"},{"name":"tokenId","type":"uint256","internalType":"uint256"}],"outputs":[],"stateMutability":"nonpayable"},{"type":"function","name":"safeTransferFrom","inputs":[{"name":"from","type":"address","internalType":"address"},{"name":"to","type":"address","internalType":"address"},{"name":"tokenId","type":"uint256","internalType":"uint256"},{"name":"data","type":"bytes","internalType":"bytes"}],"outputs":[],"stateMutability":"nonpayable"},{"type":"function","name":"sellAnt","inputs":[{"name":"_antId","type":"uint256","internalType":"uint256"}],"outputs":[],"stateMutability":"nonpayable"},{"type":"function","name":"setApprovalForAll","inputs":[{"name":"operator","type":"address","internalType":"address"},{"name":"approved","type":"bool","internalType":"bool"}],"outputs":[],"stateMutability":"nonpayable"},{"type":"function","name":"supportsInterface","inputs":[{"name":"interfaceId","type":"bytes4","internalType":"bytes4"}],"outputs":[{"name":"","type":"bool","internalType":"bool"}],"stateMutability":"view"},{"type":"function","name":"symbol","inputs":[],"outputs":[{"name":"","type":"string","internalType":"string"}],"stateMutability":"view"},{"type":"function","name":"tokenURI","inputs":[{"name":"tokenId","type":"uint256","internalType":"uint256"}],"outputs":[{"name":"","type":"string","internalType":"string"}],"stateMutability":"view"},{"type":"function","name":"transferFrom","inputs":[{"name":"from","type":"address","internalType":"address"},{"name":"to","type":"address","internalType":"address"},{"name":"tokenId","type":"uint256","internalType":"uint256"}],"outputs":[],"stateMutability":"nonpayable"},{"type":"event","name":"AntCreated","inputs":[],"anonymous":false},{"type":"event","name":"AntSold","inputs":[],"anonymous":false},{"type":"event","name":"Approval","inputs":[{"name":"owner","type":"address","indexed":true,"internalType":"address"},{"name":"approved","type":"address","indexed":true,"internalType":"address"},{"name":"tokenId","type":"uint256","indexed":true,"internalType":"uint256"}],"anonymous":false},{"type":"event","name":"ApprovalForAll","inputs":[{"name":"owner","type":"address","indexed":true,"internalType":"address"},{"name":"operator","type":"address","indexed":true,"internalType":"address"},{"name":"approved","type":"bool","indexed":false,"internalType":"bool"}],"anonymous":false},{"type":"event","name":"EggsBought","inputs":[{"name":"","type":"address","indexed":false,"internalType":"address"},{"name":"","type":"uint256","indexed":false,"internalType":"uint256"}],"anonymous":false},{"type":"event","name":"Transfer","inputs":[{"name":"from","type":"address","indexed":true,"internalType":"address"},{"name":"to","type":"address","indexed":true,"internalType":"address"},{"name":"tokenId","type":"uint256","indexed":true,"internalType":"uint256"}],"anonymous":false},{"type":"error","name":"AlreadyExists","inputs":[]},{"type":"error","name":"NoEggs","inputs":[]},{"type":"error","name":"NoZeroAddress","inputs":[]},{"type":"error","name":"WrongEtherSent","inputs":[]}],"bytecode":{"object":"0x60a06040526006805460ff19908116909155662386f26fc100006007556009805490911690556000600a553480156200003757600080fd5b50604051620023e3380380620023e38339810160408190526200005a91620000d0565b6040518060400160405280600b81526020016a43727970746f20416e747360a81b81525060405180604001604052806004815260200163414e545360e01b8152508160009081620000ac9190620001a7565b506001620000bb8282620001a7565b5050506001600160a01b031660805262000273565b600060208284031215620000e357600080fd5b81516001600160a01b0381168114620000fb57600080fd5b9392505050565b634e487b7160e01b600052604160045260246000fd5b600181811c908216806200012d57607f821691505b6020821081036200014e57634e487b7160e01b600052602260045260246000fd5b50919050565b601f821115620001a257600081815260208120601f850160051c810160208610156200017d5750805b601f850160051c820191505b818110156200019e5782815560010162000189565b5050505b505050565b81516001600160401b03811115620001c357620001c362000102565b620001db81620001d4845462000118565b8462000154565b602080601f831160018114620002135760008415620001fa5750858301515b600019600386901b1c1916600185901b1785556200019e565b600085815260208120601f198616915b82811015620002445788860151825594840194600190910190840162000223565b5085821015620002635787850151600019600388901b60f8161c191681555b5050505050600190811b01905550565b60805161213f620002a4600039600081816104530152818161088b015281816109ed0152610b9a015261213f6000f3fe60806040526004361061018b5760003560e01c80636352211e116100d6578063b01109861161007f578063cf30901211610059578063cf30901214610427578063e33f76cf14610441578063e985e9c51461047557600080fd5b8063b0110986146103c7578063b88d4fde146103e7578063c87b56dd1461040757600080fd5b806395d89b41116100b057806395d89b411461037c578063a22cb46514610391578063a993efbc146103b157600080fd5b80636352211e146103295780636f9fb98a1461034957806370a082311461035c57600080fd5b80632e61a7bf1161013857806342842e0e1161011257806342842e0e146102d65780634fd53596146102f657806361dcb0541461030957600080fd5b80632e61a7bf14610288578063305e35521461029d5780633d871229146102c157600080fd5b8063095ea7b311610169578063095ea7b31461022c57806317e356a11461024e57806323b872dd1461026857600080fd5b806301ffc9a71461019057806306fdde03146101c5578063081812fc146101e7575b600080fd5b34801561019c57600080fd5b506101b06101ab366004611c75565b6104cb565b60405190151581526020015b60405180910390f35b3480156101d157600080fd5b506101da6105b0565b6040516101bc9190611d00565b3480156101f357600080fd5b50610207610202366004611d13565b610642565b60405173ffffffffffffffffffffffffffffffffffffffff90911681526020016101bc565b34801561023857600080fd5b5061024c610247366004611d55565b610676565b005b34801561025a57600080fd5b506009546101b09060ff1681565b34801561027457600080fd5b5061024c610283366004611d7f565b6107d3565b34801561029457600080fd5b5061024c61085a565b3480156102a957600080fd5b506102b360075481565b6040519081526020016101bc565b3480156102cd57600080fd5b50600a546102b3565b3480156102e257600080fd5b5061024c6102f1366004611d7f565b610a94565b61024c610304366004611d13565b610aaf565b34801561031557600080fd5b5061024c610324366004611d13565b610c80565b34801561033557600080fd5b50610207610344366004611d13565b610d9f565b34801561035557600080fd5b50476102b3565b34801561036857600080fd5b506102b3610377366004611dbb565b610e11565b34801561038857600080fd5b506101da610ec5565b34801561039d57600080fd5b5061024c6103ac366004611dd6565b610ed4565b3480156103bd57600080fd5b506102b3600a5481565b3480156103d357600080fd5b506102b36103e2366004611d13565b610edf565b3480156103f357600080fd5b5061024c610402366004611e41565b610f00565b34801561041357600080fd5b506101da610422366004611d13565b610f8e565b34801561043357600080fd5b506006546101b09060ff1681565b34801561044d57600080fd5b506102077f000000000000000000000000000000000000000000000000000000000000000081565b34801561048157600080fd5b506101b0610490366004611f3b565b73ffffffffffffffffffffffffffffffffffffffff918216600090815260056020908152604080832093909416825291909152205460ff1690565b60007fffffffff0000000000000000000000000000000000000000000000000000000082167f80ac58cd00000000000000000000000000000000000000000000000000000000148061055e57507fffffffff0000000000000000000000000000000000000000000000000000000082167f5b5e139f00000000000000000000000000000000000000000000000000000000145b806105aa57507f01ffc9a7000000000000000000000000000000000000000000000000000000007fffffffff000000000000000000000000000000000000000000000000000000008316145b92915050565b6060600080546105bf90611f6e565b80601f01602080910402602001604051908101604052809291908181526020018280546105eb90611f6e565b80156106385780601f1061060d57610100808354040283529160200191610638565b820191906000526020600020905b81548152906001019060200180831161061b57829003601f168201915b5050505050905090565b600061064d82611002565b5060009081526004602052604090205473ffffffffffffffffffffffffffffffffffffffff1690565b600061068182610d9f565b90508073ffffffffffffffffffffffffffffffffffffffff168373ffffffffffffffffffffffffffffffffffffffff16036107295760405162461bcd60e51b815260206004820152602160248201527f4552433732313a20617070726f76616c20746f2063757272656e74206f776e6560448201527f720000000000000000000000000000000000000000000000000000000000000060648201526084015b60405180910390fd5b3373ffffffffffffffffffffffffffffffffffffffff8216148061075257506107528133610490565b6107c45760405162461bcd60e51b815260206004820152603d60248201527f4552433732313a20617070726f76652063616c6c6572206973206e6f7420746f60448201527f6b656e206f776e6572206f7220617070726f76656420666f7220616c6c0000006064820152608401610720565b6107ce8383611076565b505050565b6107dd3382611116565b61084f5760405162461bcd60e51b815260206004820152602d60248201527f4552433732313a2063616c6c6572206973206e6f7420746f6b656e206f776e6560448201527f72206f7220617070726f766564000000000000000000000000000000000000006064820152608401610720565b6107ce8383836111d6565b6040517f70a082310000000000000000000000000000000000000000000000000000000081523360048201526001907f000000000000000000000000000000000000000000000000000000000000000073ffffffffffffffffffffffffffffffffffffffff16906370a0823190602401602060405180830381865afa1580156108e7573d6000803e3d6000fd5b505050506040513d601f19601f8201168201806040525081019061090b9190611fc1565b1015610943576040517f6c308a2f00000000000000000000000000000000000000000000000000000000815260040160405180910390fd5b6000600a6000815461095490611fda565b918290555060008181526002602052604090205490915073ffffffffffffffffffffffffffffffffffffffff16156109b8576040517f23369fa600000000000000000000000000000000000000000000000000000000815260040160405180910390fd5b6040517f9dc29fac000000000000000000000000000000000000000000000000000000008152336004820152600160248201527f000000000000000000000000000000000000000000000000000000000000000073ffffffffffffffffffffffffffffffffffffffff1690639dc29fac90604401600060405180830381600087803b158015610a4657600080fd5b505af1158015610a5a573d6000803e3d6000fd5b50505050610a683382611483565b6040517fa38da27c8afea1e833812265c5f9c3f1def6eaf2e7d9b42c1b4d9d8ea69b0b7590600090a150565b6107ce83838360405180602001604052806000815250610f00565b60065460ff1615610b285760405162461bcd60e51b815260206004820152602e60248201527f536f7272792c20796f7520617265206e6f7420616c6c6f77656420746f20726560448201527f2d656e7465722068657265203a290000000000000000000000000000000000006064820152608401610720565b600680547fffffffffffffffffffffffffffffffffffffffffffffffffffffffffffffff001660011790556007546000610b628234612039565b6040517f40c10f19000000000000000000000000000000000000000000000000000000008152336004820152602481018590529091507f000000000000000000000000000000000000000000000000000000000000000073ffffffffffffffffffffffffffffffffffffffff16906340c10f1990604401600060405180830381600087803b158015610bf357600080fd5b505af1158015610c07573d6000803e3d6000fd5b505060408051338152602081018590527fecedcda9002dd5028204a70dddaa2155459b6dff3c3e20543450a189e736dc49935001905060405180910390a15050600954600680547fffffffffffffffffffffffffffffffffffffffffffffffffffffffffffffff001660ff909216151591909117905550565b60008181526002602052604090205473ffffffffffffffffffffffffffffffffffffffff163314610cf35760405162461bcd60e51b815260206004820152600c60248201527f556e617574686f72697a656400000000000000000000000000000000000000006044820152606401610720565b6040516000903390660e35fa931a0000908381818185875af1925050503d8060008114610d3c576040519150601f19603f3d011682016040523d82523d6000602084013e610d41565b606091505b5050905080610d925760405162461bcd60e51b815260206004820152601960248201527f57686f6f70732c20746869732063616c6c206661696c656421000000000000006044820152606401610720565b610d9b8261165a565b5050565b60008181526002602052604081205473ffffffffffffffffffffffffffffffffffffffff16806105aa5760405162461bcd60e51b815260206004820152601860248201527f4552433732313a20696e76616c696420746f6b656e20494400000000000000006044820152606401610720565b600073ffffffffffffffffffffffffffffffffffffffff8216610e9c5760405162461bcd60e51b815260206004820152602960248201527f4552433732313a2061646472657373207a65726f206973206e6f74206120766160448201527f6c6964206f776e657200000000000000000000000000000000000000000000006064820152608401610720565b5073ffffffffffffffffffffffffffffffffffffffff1660009081526003602052604090205490565b6060600180546105bf90611f6e565b610d9b338383611732565b60088181548110610eef57600080fd5b600091825260209091200154905081565b610f0a3383611116565b610f7c5760405162461bcd60e51b815260206004820152602d60248201527f4552433732313a2063616c6c6572206973206e6f7420746f6b656e206f776e6560448201527f72206f7220617070726f766564000000000000000000000000000000000000006064820152608401610720565b610f8884848484611845565b50505050565b6060610f9982611002565b6000610fb060408051602081019091526000815290565b90506000815111610fd05760405180602001604052806000815250610ffb565b80610fda846118ce565b604051602001610feb929190612074565b6040516020818303038152906040525b9392505050565b60008181526002602052604090205473ffffffffffffffffffffffffffffffffffffffff166110735760405162461bcd60e51b815260206004820152601860248201527f4552433732313a20696e76616c696420746f6b656e20494400000000000000006044820152606401610720565b50565b600081815260046020526040902080547fffffffffffffffffffffffff00000000000000000000000000000000000000001673ffffffffffffffffffffffffffffffffffffffff841690811790915581906110d082610d9f565b73ffffffffffffffffffffffffffffffffffffffff167f8c5be1e5ebec7d5bd14f71427d1e84f3dd0314c0f7b2291e5b200ac8c7c3b92560405160405180910390a45050565b60008061112283610d9f565b90508073ffffffffffffffffffffffffffffffffffffffff168473ffffffffffffffffffffffffffffffffffffffff161480611190575073ffffffffffffffffffffffffffffffffffffffff80821660009081526005602090815260408083209388168352929052205460ff165b806111ce57508373ffffffffffffffffffffffffffffffffffffffff166111b684610642565b73ffffffffffffffffffffffffffffffffffffffff16145b949350505050565b8273ffffffffffffffffffffffffffffffffffffffff166111f682610d9f565b73ffffffffffffffffffffffffffffffffffffffff161461127f5760405162461bcd60e51b815260206004820152602560248201527f4552433732313a207472616e736665722066726f6d20696e636f72726563742060448201527f6f776e65720000000000000000000000000000000000000000000000000000006064820152608401610720565b73ffffffffffffffffffffffffffffffffffffffff82166113075760405162461bcd60e51b8152602060048201526024808201527f4552433732313a207472616e7366657220746f20746865207a65726f2061646460448201527f72657373000000000000000000000000000000000000000000000000000000006064820152608401610720565b8273ffffffffffffffffffffffffffffffffffffffff1661132782610d9f565b73ffffffffffffffffffffffffffffffffffffffff16146113b05760405162461bcd60e51b815260206004820152602560248201527f4552433732313a207472616e736665722066726f6d20696e636f72726563742060448201527f6f776e65720000000000000000000000000000000000000000000000000000006064820152608401610720565b600081815260046020908152604080832080547fffffffffffffffffffffffff000000000000000000000000000000000000000090811690915573ffffffffffffffffffffffffffffffffffffffff8781168086526003855283862080547fffffffffffffffffffffffffffffffffffffffffffffffffffffffffffffffff01905590871680865283862080546001019055868652600290945282852080549092168417909155905184937fddf252ad1be2c89b69c2b068fc378daa952ba7f163c4a11628f55a4df523b3ef91a4505050565b73ffffffffffffffffffffffffffffffffffffffff82166114e65760405162461bcd60e51b815260206004820181905260248201527f4552433732313a206d696e7420746f20746865207a65726f20616464726573736044820152606401610720565b60008181526002602052604090205473ffffffffffffffffffffffffffffffffffffffff16156115585760405162461bcd60e51b815260206004820152601c60248201527f4552433732313a20746f6b656e20616c7265616479206d696e746564000000006044820152606401610720565b60008181526002602052604090205473ffffffffffffffffffffffffffffffffffffffff16156115ca5760405162461bcd60e51b815260206004820152601c60248201527f4552433732313a20746f6b656e20616c7265616479206d696e746564000000006044820152606401610720565b73ffffffffffffffffffffffffffffffffffffffff8216600081815260036020908152604080832080546001019055848352600290915280822080547fffffffffffffffffffffffff0000000000000000000000000000000000000000168417905551839291907fddf252ad1be2c89b69c2b068fc378daa952ba7f163c4a11628f55a4df523b3ef908290a45050565b600061166582610d9f565b905061167082610d9f565b600083815260046020908152604080832080547fffffffffffffffffffffffff000000000000000000000000000000000000000090811690915573ffffffffffffffffffffffffffffffffffffffff85168085526003845282852080547fffffffffffffffffffffffffffffffffffffffffffffffffffffffffffffffff0190558785526002909352818420805490911690555192935084927fddf252ad1be2c89b69c2b068fc378daa952ba7f163c4a11628f55a4df523b3ef908390a45050565b8173ffffffffffffffffffffffffffffffffffffffff168373ffffffffffffffffffffffffffffffffffffffff16036117ad5760405162461bcd60e51b815260206004820152601960248201527f4552433732313a20617070726f766520746f2063616c6c6572000000000000006044820152606401610720565b73ffffffffffffffffffffffffffffffffffffffff83811660008181526005602090815260408083209487168084529482529182902080547fffffffffffffffffffffffffffffffffffffffffffffffffffffffffffffff001686151590811790915591519182527f17307eab39ab6107e8899845ad3d59bd9653f200f220920489ca2b5937696c31910160405180910390a3505050565b6118508484846111d6565b61185c8484848461198c565b610f885760405162461bcd60e51b815260206004820152603260248201527f4552433732313a207472616e7366657220746f206e6f6e20455243373231526560448201527f63656976657220696d706c656d656e74657200000000000000000000000000006064820152608401610720565b606060006118db83611b65565b600101905060008167ffffffffffffffff8111156118fb576118fb611e12565b6040519080825280601f01601f191660200182016040528015611925576020820181803683370190505b5090508181016020015b7fffffffffffffffffffffffffffffffffffffffffffffffffffffffffffffffff017f3031323334353637383961626364656600000000000000000000000000000000600a86061a8153600a850494508461192f57509392505050565b600073ffffffffffffffffffffffffffffffffffffffff84163b15611b5a576040517f150b7a0200000000000000000000000000000000000000000000000000000000815273ffffffffffffffffffffffffffffffffffffffff85169063150b7a0290611a039033908990889088906004016120a3565b6020604051808303816000875af1925050508015611a5c575060408051601f3d9081017fffffffffffffffffffffffffffffffffffffffffffffffffffffffffffffffe0168201909252611a59918101906120ec565b60015b611b0f573d808015611a8a576040519150601f19603f3d011682016040523d82523d6000602084013e611a8f565b606091505b508051600003611b075760405162461bcd60e51b815260206004820152603260248201527f4552433732313a207472616e7366657220746f206e6f6e20455243373231526560448201527f63656976657220696d706c656d656e74657200000000000000000000000000006064820152608401610720565b805181602001fd5b7fffffffff00000000000000000000000000000000000000000000000000000000167f150b7a02000000000000000000000000000000000000000000000000000000001490506111ce565b506001949350505050565b6000807a184f03e93ff9f4daa797ed6e38ed64bf6a1f0100000000000000008310611bae577a184f03e93ff9f4daa797ed6e38ed64bf6a1f010000000000000000830492506040015b6d04ee2d6d415b85acef81000000008310611bda576d04ee2d6d415b85acef8100000000830492506020015b662386f26fc100008310611bf857662386f26fc10000830492506010015b6305f5e1008310611c10576305f5e100830492506008015b6127108310611c2457612710830492506004015b60648310611c36576064830492506002015b600a83106105aa5760010192915050565b7fffffffff000000000000000000000000000000000000000000000000000000008116811461107357600080fd5b600060208284031215611c8757600080fd5b8135610ffb81611c47565b60005b83811015611cad578181015183820152602001611c95565b50506000910152565b60008151808452611cce816020860160208601611c92565b601f017fffffffffffffffffffffffffffffffffffffffffffffffffffffffffffffffe0169290920160200192915050565b602081526000610ffb6020830184611cb6565b600060208284031215611d2557600080fd5b5035919050565b803573ffffffffffffffffffffffffffffffffffffffff81168114611d5057600080fd5b919050565b60008060408385031215611d6857600080fd5b611d7183611d2c565b946020939093013593505050565b600080600060608486031215611d9457600080fd5b611d9d84611d2c565b9250611dab60208501611d2c565b9150604084013590509250925092565b600060208284031215611dcd57600080fd5b610ffb82611d2c565b60008060408385031215611de957600080fd5b611df283611d2c565b915060208301358015158114611e0757600080fd5b809150509250929050565b7f4e487b7100000000000000000000000000000000000000000000000000000000600052604160045260246000fd5b60008060008060808587031215611e5757600080fd5b611e6085611d2c565b9350611e6e60208601611d2c565b925060408501359150606085013567ffffffffffffffff80821115611e9257600080fd5b818701915087601f830112611ea657600080fd5b813581811115611eb857611eb8611e12565b604051601f82017fffffffffffffffffffffffffffffffffffffffffffffffffffffffffffffffe0908116603f01168101908382118183101715611efe57611efe611e12565b816040528281528a6020848701011115611f1757600080fd5b82602086016020830137600060208483010152809550505050505092959194509250565b60008060408385031215611f4e57600080fd5b611f5783611d2c565b9150611f6560208401611d2c565b90509250929050565b600181811c90821680611f8257607f821691505b602082108103611fbb577f4e487b7100000000000000000000000000000000000000000000000000000000600052602260045260246000fd5b50919050565b600060208284031215611fd357600080fd5b5051919050565b60007fffffffffffffffffffffffffffffffffffffffffffffffffffffffffffffffff8203612032577f4e487b7100000000000000000000000000000000000000000000000000000000600052601160045260246000fd5b5060010190565b60008261206f577f4e487b7100000000000000000000000000000000000000000000000000000000600052601260045260246000fd5b500490565b60008351612086818460208801611c92565b83519083019061209a818360208801611c92565b01949350505050565b600073ffffffffffffffffffffffffffffffffffffffff8087168352808616602084015250836040830152608060608301526120e26080830184611cb6565b9695505050505050565b6000602082840312156120fe57600080fd5b8151610ffb81611c4756fea2646970667358221220051cc60e8ad7bff4a9ebc8f635814af0504a621a8e63de60f658fbfb0397956a64736f6c63430008130033","linkReferences":{}},"methodIdentifiers":{"allAntsIds(uint256)":"b0110986","antsCreated()":"a993efbc","approve(address,uint256)":"095ea7b3","balanceOf(address)":"70a08231","buyEggs(uint256)":"4fd53596","createAnt()":"2e61a7bf","eggPrice()":"305e3552","eggs()":"e33f76cf","getAntsCreated()":"3d871229","getApproved(uint256)":"081812fc","getContractBalance()":"6f9fb98a","isApprovedForAll(address,address)":"e985e9c5","locked()":"cf309012","name()":"06fdde03","notLocked()":"17e356a1","ownerOf(uint256)":"6352211e","safeTransferFrom(address,address,uint256)":"42842e0e","safeTransferFrom(address,address,uint256,bytes)":"b88d4fde","sellAnt(uint256)":"61dcb054","setApprovalForAll(address,bool)":"a22cb465","supportsInterface(bytes4)":"01ffc9a7","symbol()":"95d89b41","tokenURI(uint256)":"c87b56dd","transferFrom(address,address,uint256)":"23b872dd"},"id":32}