{"abi":[{"type":"constructor","inputs":[{"name":"_eggs","type":"address","internalType":"address"}],"stateMutability":"nonpayable"},{"type":"function","name":"approve","inputs":[{"name":"to","type":"address","internalType":"address"},{"name":"tokenId","type":"uint256","internalType":"uint256"}],"outputs":[],"stateMutability":"nonpayable"},{"type":"function","name":"balanceOf","inputs":[{"name":"owner","type":"address","internalType":"address"}],"outputs":[{"name":"","type":"uint256","internalType":"uint256"}],"stateMutability":"view"},{"type":"function","name":"buyEggs","inputs":[{"name":"_amount","type":"uint256","internalType":"uint256"}],"outputs":[],"stateMutability":"payable"},{"type":"function","name":"createAnt","inputs":[],"outputs":[],"stateMutability":"nonpayable"},{"type":"function","name":"eggs","inputs":[],"outputs":[{"name":"","type":"address","internalType":"contract IEgg"}],"stateMutability":"view"},{"type":"function","name":"getAntPrice","inputs":[],"outputs":[{"name":"","type":"uint256","internalType":"uint256"}],"stateMutability":"view"},{"type":"function","name":"getAntsCreated","inputs":[],"outputs":[{"name":"","type":"uint256","internalType":"uint256"}],"stateMutability":"view"},{"type":"function","name":"getApproved","inputs":[{"name":"tokenId","type":"uint256","internalType":"uint256"}],"outputs":[{"name":"","type":"address","internalType":"address"}],"stateMutability":"view"},{"type":"function","name":"getEggPrice","inputs":[],"outputs":[{"name":"","type":"uint256","internalType":"uint256"}],"stateMutability":"view"},{"type":"function","name":"isApprovedForAll","inputs":[{"name":"owner","type":"address","internalType":"address"},{"name":"operator","type":"address","internalType":"address"}],"outputs":[{"name":"","type":"bool","internalType":"bool"}],"stateMutability":"view"},{"type":"function","name":"name","inputs":[],"outputs":[{"name":"","type":"string","internalType":"string"}],"stateMutability":"view"},{"type":"function","name":"ownerOf","inputs":[{"name":"tokenId","type":"uint256","internalType":"uint256"}],"outputs":[{"name":"","type":"address","internalType":"address"}],"stateMutability":"view"},{"type":"function","name":"safeTransferFrom","inputs":[{"name":"from","type":"address","internalType":"address"},{"name":"to","type":"address","internalType":"address"},{"name":"tokenId","type":"uint256","internalType":"uint256"}],"outputs":[],"stateMutability":"nonpayable"},{"type":"function","name":"safeTransferFrom","inputs":[{"name":"from","type":"address","internalType":"address"},{"name":"to","type":"address","internalType":"address"},{"name":"tokenId","type":"uint256","internalType":"uint256"},{"name":"data","type":"bytes","internalType":"bytes"}],"outputs":[],"stateMutability":"nonpayable"},{"type":"function","name":"sellAnt","inputs":[{"name":"_antId","type":"uint256","internalType":"uint256"}],"outputs":[],"stateMutability":"nonpayable"},{"type":"function","name":"setApprovalForAll","inputs":[{"name":"operator","type":"address","internalType":"address"},{"name":"approved","type":"bool","internalType":"bool"}],"outputs":[],"stateMutability":"nonpayable"},{"type":"function","name":"supportsInterface","inputs":[{"name":"interfaceId","type":"bytes4","internalType":"bytes4"}],"outputs":[{"name":"","type":"bool","internalType":"bool"}],"stateMutability":"view"},{"type":"function","name":"symbol","inputs":[],"outputs":[{"name":"","type":"string","internalType":"string"}],"stateMutability":"view"},{"type":"function","name":"tokenURI","inputs":[{"name":"tokenId","type":"uint256","internalType":"uint256"}],"outputs":[{"name":"","type":"string","internalType":"string"}],"stateMutability":"view"},{"type":"function","name":"transferFrom","inputs":[{"name":"from","type":"address","internalType":"address"},{"name":"to","type":"address","internalType":"address"},{"name":"tokenId","type":"uint256","internalType":"uint256"}],"outputs":[],"stateMutability":"nonpayable"},{"type":"function","name":"updatePrices","inputs":[{"name":"newEggPrice","type":"uint256","internalType":"uint256"},{"name":"newAntPrice","type":"uint256","internalType":"uint256"}],"outputs":[],"stateMutability":"nonpayable"},{"type":"event","name":"AntCreated","inputs":[{"name":"owner","type":"address","indexed":false,"internalType":"address"},{"name":"antId","type":"uint256","indexed":false,"internalType":"uint256"}],"anonymous":false},{"type":"event","name":"AntCreated","inputs":[],"anonymous":false},{"type":"event","name":"AntSold","inputs":[{"name":"owner","type":"address","indexed":false,"internalType":"address"},{"name":"antId","type":"uint256","indexed":false,"internalType":"uint256"}],"anonymous":false},{"type":"event","name":"AntSold","inputs":[],"anonymous":false},{"type":"event","name":"Approval","inputs":[{"name":"owner","type":"address","indexed":true,"internalType":"address"},{"name":"approved","type":"address","indexed":true,"internalType":"address"},{"name":"tokenId","type":"uint256","indexed":true,"internalType":"uint256"}],"anonymous":false},{"type":"event","name":"ApprovalForAll","inputs":[{"name":"owner","type":"address","indexed":true,"internalType":"address"},{"name":"operator","type":"address","indexed":true,"internalType":"address"},{"name":"approved","type":"bool","indexed":false,"internalType":"bool"}],"anonymous":false},{"type":"event","name":"EggsBought","inputs":[{"name":"owner","type":"address","indexed":false,"internalType":"address"},{"name":"amount","type":"uint256","indexed":false,"internalType":"uint256"}],"anonymous":false},{"type":"event","name":"PricesUpdated","inputs":[{"name":"newEggPrice","type":"uint256","indexed":false,"internalType":"uint256"},{"name":"newAntPrice","type":"uint256","indexed":false,"internalType":"uint256"}],"anonymous":false},{"type":"event","name":"Transfer","inputs":[{"name":"from","type":"address","indexed":true,"internalType":"address"},{"name":"to","type":"address","indexed":true,"internalType":"address"},{"name":"tokenId","type":"uint256","indexed":true,"internalType":"uint256"}],"anonymous":false},{"type":"error","name":"AlreadyExists","inputs":[]},{"type":"error","name":"AntPriceMustBeLessThanEggPrice","inputs":[]},{"type":"error","name":"NoEggs","inputs":[]},{"type":"error","name":"NoZeroAddress","inputs":[]},{"type":"error","name":"NotAntOwner","inputs":[]},{"type":"error","name":"TransferFailed","inputs":[]},{"type":"error","name":"WrongEtherSent","inputs":[]},{"type":"error","name":"ZeroAmount","inputs":[]}],"bytecode":{"object":"0x60a0604052662386f26fc10000600655660e35fa931a000060075560006008553480156200002c57600080fd5b50604051620023de380380620023de8339810160408190526200004f91620000c5565b6040518060400160405280600b81526020016a43727970746f20416e747360a81b81525060405180604001604052806004815260200163414e545360e01b8152508160009081620000a191906200019c565b506001620000b082826200019c565b5050506001600160a01b031660805262000268565b600060208284031215620000d857600080fd5b81516001600160a01b0381168114620000f057600080fd5b9392505050565b634e487b7160e01b600052604160045260246000fd5b600181811c908216806200012257607f821691505b6020821081036200014357634e487b7160e01b600052602260045260246000fd5b50919050565b601f8211156200019757600081815260208120601f850160051c81016020861015620001725750805b601f850160051c820191505b8181101562000193578281556001016200017e565b5050505b505050565b81516001600160401b03811115620001b857620001b8620000f7565b620001d081620001c984546200010d565b8462000149565b602080601f831160018114620002085760008415620001ef5750858301515b600019600386901b1c1916600185901b17855562000193565b600085815260208120601f198616915b82811015620002395788860151825594840194600190910190840162000218565b5085821015620002585787850151600019600388901b60f8161c191681555b5050505050600190811b01905550565b60805161214562000299600039600081816103c501528181610848015281816109aa0152610b3201526121456000f3fe60806040526004361061016a5760003560e01c8063514b1570116100cb578063a22cb4651161007f578063e33f76cf11610059578063e33f76cf146103b3578063e985e9c5146103e7578063ef88d7f01461043d57600080fd5b8063a22cb46514610353578063b88d4fde14610373578063c87b56dd1461039357600080fd5b80636352211e116100b05780636352211e146102fe57806370a082311461031e57806395d89b411461033e57600080fd5b8063514b1570146102c957806361dcb054146102de57600080fd5b8063248452bd116101225780633d871229116101075780633d8712291461028157806342842e0e146102965780634fd53596146102b657600080fd5b8063248452bd1461024d5780632e61a7bf1461026c57600080fd5b8063081812fc11610153578063081812fc146101c6578063095ea7b31461020b57806323b872dd1461022d57600080fd5b806301ffc9a71461016f57806306fdde03146101a4575b600080fd5b34801561017b57600080fd5b5061018f61018a366004611c75565b61045d565b60405190151581526020015b60405180910390f35b3480156101b057600080fd5b506101b9610542565b60405161019b9190611d00565b3480156101d257600080fd5b506101e66101e1366004611d13565b6105d4565b60405173ffffffffffffffffffffffffffffffffffffffff909116815260200161019b565b34801561021757600080fd5b5061022b610226366004611d55565b610608565b005b34801561023957600080fd5b5061022b610248366004611d7f565b610790565b34801561025957600080fd5b506007545b60405190815260200161019b565b34801561027857600080fd5b5061022b610817565b34801561028d57600080fd5b5060085461025e565b3480156102a257600080fd5b5061022b6102b1366004611d7f565b610a62565b61022b6102c4366004611d13565b610a7d565b3480156102d557600080fd5b5060065461025e565b3480156102ea57600080fd5b5061022b6102f9366004611d13565b610bda565b34801561030a57600080fd5b506101e6610319366004611d13565b610d01565b34801561032a57600080fd5b5061025e610339366004611dbb565b610d73565b34801561034a57600080fd5b506101b9610e27565b34801561035f57600080fd5b5061022b61036e366004611dd6565b610e36565b34801561037f57600080fd5b5061022b61038e366004611e41565b610e45565b34801561039f57600080fd5b506101b96103ae366004611d13565b610ed3565b3480156103bf57600080fd5b506101e67f000000000000000000000000000000000000000000000000000000000000000081565b3480156103f357600080fd5b5061018f610402366004611f3b565b73ffffffffffffffffffffffffffffffffffffffff918216600090815260056020908152604080832093909416825291909152205460ff1690565b34801561044957600080fd5b5061022b610458366004611f6e565b610f47565b60007fffffffff0000000000000000000000000000000000000000000000000000000082167f80ac58cd0000000000000000000000000000000000000000000000000000000014806104f057507fffffffff0000000000000000000000000000000000000000000000000000000082167f5b5e139f00000000000000000000000000000000000000000000000000000000145b8061053c57507f01ffc9a7000000000000000000000000000000000000000000000000000000007fffffffff000000000000000000000000000000000000000000000000000000008316145b92915050565b60606000805461055190611f90565b80601f016020809104026020016040519081016040528092919081815260200182805461057d90611f90565b80156105ca5780601f1061059f576101008083540402835291602001916105ca565b820191906000526020600020905b8154815290600101906020018083116105ad57829003601f168201915b5050505050905090565b60006105df82611002565b5060009081526004602052604090205473ffffffffffffffffffffffffffffffffffffffff1690565b600061061382610d01565b90508073ffffffffffffffffffffffffffffffffffffffff168373ffffffffffffffffffffffffffffffffffffffff16036106bb5760405162461bcd60e51b815260206004820152602160248201527f4552433732313a20617070726f76616c20746f2063757272656e74206f776e6560448201527f720000000000000000000000000000000000000000000000000000000000000060648201526084015b60405180910390fd5b3373ffffffffffffffffffffffffffffffffffffffff8216148061070f575073ffffffffffffffffffffffffffffffffffffffff8116600090815260056020908152604080832033845290915290205460ff165b6107815760405162461bcd60e51b815260206004820152603d60248201527f4552433732313a20617070726f76652063616c6c6572206973206e6f7420746f60448201527f6b656e206f776e6572206f7220617070726f76656420666f7220616c6c00000060648201526084016106b2565b61078b8383611076565b505050565b61079a3382611116565b61080c5760405162461bcd60e51b815260206004820152602d60248201527f4552433732313a2063616c6c6572206973206e6f7420746f6b656e206f776e6560448201527f72206f7220617070726f7665640000000000000000000000000000000000000060648201526084016106b2565b61078b8383836111d6565b6040517f70a082310000000000000000000000000000000000000000000000000000000081523360048201526001907f000000000000000000000000000000000000000000000000000000000000000073ffffffffffffffffffffffffffffffffffffffff16906370a0823190602401602060405180830381865afa1580156108a4573d6000803e3d6000fd5b505050506040513d601f19601f820116820180604052508101906108c89190611fe3565b1015610900576040517f6c308a2f00000000000000000000000000000000000000000000000000000000815260040160405180910390fd5b60006008600081546109119061202b565b918290555060008181526002602052604090205490915073ffffffffffffffffffffffffffffffffffffffff1615610975576040517f23369fa600000000000000000000000000000000000000000000000000000000815260040160405180910390fd5b6040517f9dc29fac000000000000000000000000000000000000000000000000000000008152336004820152600160248201527f000000000000000000000000000000000000000000000000000000000000000073ffffffffffffffffffffffffffffffffffffffff1690639dc29fac90604401600060405180830381600087803b158015610a0357600080fd5b505af1158015610a17573d6000803e3d6000fd5b50505050610a253382611483565b60408051338152602081018390527fb1cbc86b8a6c13dcf7e6ddddcd361135b8af8664acc668744eeb932a9beb4f2691015b60405180910390a150565b61078b83838360405180602001604052806000815250610e45565b80600003610ab7576040517f1f2a200500000000000000000000000000000000000000000000000000000000815260040160405180910390fd5b3460065482610ac69190612063565b14610afd576040517f2f1e736300000000000000000000000000000000000000000000000000000000815260040160405180910390fd5b6040517f40c10f19000000000000000000000000000000000000000000000000000000008152336004820152602481018290527f000000000000000000000000000000000000000000000000000000000000000073ffffffffffffffffffffffffffffffffffffffff16906340c10f1990604401600060405180830381600087803b158015610b8b57600080fd5b505af1158015610b9f573d6000803e3d6000fd5b505060408051338152602081018590527fecedcda9002dd5028204a70dddaa2155459b6dff3c3e20543450a189e736dc499350019050610a57565b60008181526002602052604090205473ffffffffffffffffffffffffffffffffffffffff163314610c37576040517f16bea89400000000000000000000000000000000000000000000000000000000815260040160405180910390fd5b610c408161165a565b60075460405160009133918381818185875af1925050503d8060008114610c83576040519150601f19603f3d011682016040523d82523d6000602084013e610c88565b606091505b5050905080610cc3576040517f90b8ec1800000000000000000000000000000000000000000000000000000000815260040160405180910390fd5b60408051338152602081018490527fe67bffe95663d01ae462a2e747de3f59667442026226e1ff426a25bfe4b81fb391015b60405180910390a15050565b60008181526002602052604081205473ffffffffffffffffffffffffffffffffffffffff168061053c5760405162461bcd60e51b815260206004820152601860248201527f4552433732313a20696e76616c696420746f6b656e204944000000000000000060448201526064016106b2565b600073ffffffffffffffffffffffffffffffffffffffff8216610dfe5760405162461bcd60e51b815260206004820152602960248201527f4552433732313a2061646472657373207a65726f206973206e6f74206120766160448201527f6c6964206f776e6572000000000000000000000000000000000000000000000060648201526084016106b2565b5073ffffffffffffffffffffffffffffffffffffffff1660009081526003602052604090205490565b60606001805461055190611f90565b610e41338383611732565b5050565b610e4f3383611116565b610ec15760405162461bcd60e51b815260206004820152602d60248201527f4552433732313a2063616c6c6572206973206e6f7420746f6b656e206f776e6560448201527f72206f7220617070726f7665640000000000000000000000000000000000000060648201526084016106b2565b610ecd84848484611845565b50505050565b6060610ede82611002565b6000610ef560408051602081019091526000815290565b90506000815111610f155760405180602001604052806000815250610f40565b80610f1f846118ce565b604051602001610f3092919061207a565b6040516020818303038152906040525b9392505050565b811580610f52575080155b15610f89576040517f1f2a200500000000000000000000000000000000000000000000000000000000815260040160405180910390fd5b818110610fc2576040517f28cf0d4c00000000000000000000000000000000000000000000000000000000815260040160405180910390fd5b6006829055600781905560408051838152602081018390527f6546f60f34df611fa42503098acc39d5ab88bc73febe64b3cc14e5a92e3a66a79101610cf5565b60008181526002602052604090205473ffffffffffffffffffffffffffffffffffffffff166110735760405162461bcd60e51b815260206004820152601860248201527f4552433732313a20696e76616c696420746f6b656e204944000000000000000060448201526064016106b2565b50565b600081815260046020526040902080547fffffffffffffffffffffffff00000000000000000000000000000000000000001673ffffffffffffffffffffffffffffffffffffffff841690811790915581906110d082610d01565b73ffffffffffffffffffffffffffffffffffffffff167f8c5be1e5ebec7d5bd14f71427d1e84f3dd0314c0f7b2291e5b200ac8c7c3b92560405160405180910390a45050565b60008061112283610d01565b90508073ffffffffffffffffffffffffffffffffffffffff168473ffffffffffffffffffffffffffffffffffffffff161480611190575073ffffffffffffffffffffffffffffffffffffffff80821660009081526005602090815260408083209388168352929052205460ff165b806111ce57508373ffffffffffffffffffffffffffffffffffffffff166111b6846105d4565b73ffffffffffffffffffffffffffffffffffffffff16145b949350505050565b8273ffffffffffffffffffffffffffffffffffffffff166111f682610d01565b73ffffffffffffffffffffffffffffffffffffffff161461127f5760405162461bcd60e51b815260206004820152602560248201527f4552433732313a207472616e736665722066726f6d20696e636f72726563742060448201527f6f776e657200000000000000000000000000000000000000000000000000000060648201526084016106b2565b73ffffffffffffffffffffffffffffffffffffffff82166113075760405162461bcd60e51b8152602060048201526024808201527f4552433732313a207472616e7366657220746f20746865207a65726f2061646460448201527f726573730000000000000000000000000000000000000000000000000000000060648201526084016106b2565b8273ffffffffffffffffffffffffffffffffffffffff1661132782610d01565b73ffffffffffffffffffffffffffffffffffffffff16146113b05760405162461bcd60e51b815260206004820152602560248201527f4552433732313a207472616e736665722066726f6d20696e636f72726563742060448201527f6f776e657200000000000000000000000000000000000000000000000000000060648201526084016106b2565b600081815260046020908152604080832080547fffffffffffffffffffffffff000000000000000000000000000000000000000090811690915573ffffffffffffffffffffffffffffffffffffffff8781168086526003855283862080547fffffffffffffffffffffffffffffffffffffffffffffffffffffffffffffffff01905590871680865283862080546001019055868652600290945282852080549092168417909155905184937fddf252ad1be2c89b69c2b068fc378daa952ba7f163c4a11628f55a4df523b3ef91a4505050565b73ffffffffffffffffffffffffffffffffffffffff82166114e65760405162461bcd60e51b815260206004820181905260248201527f4552433732313a206d696e7420746f20746865207a65726f206164647265737360448201526064016106b2565b60008181526002602052604090205473ffffffffffffffffffffffffffffffffffffffff16156115585760405162461bcd60e51b815260206004820152601c60248201527f4552433732313a20746f6b656e20616c7265616479206d696e7465640000000060448201526064016106b2565b60008181526002602052604090205473ffffffffffffffffffffffffffffffffffffffff16156115ca5760405162461bcd60e51b815260206004820152601c60248201527f4552433732313a20746f6b656e20616c7265616479206d696e7465640000000060448201526064016106b2565b73ffffffffffffffffffffffffffffffffffffffff8216600081815260036020908152604080832080546001019055848352600290915280822080547fffffffffffffffffffffffff0000000000000000000000000000000000000000168417905551839291907fddf252ad1be2c89b69c2b068fc378daa952ba7f163c4a11628f55a4df523b3ef908290a45050565b600061166582610d01565b905061167082610d01565b600083815260046020908152604080832080547fffffffffffffffffffffffff000000000000000000000000000000000000000090811690915573ffffffffffffffffffffffffffffffffffffffff85168085526003845282852080547fffffffffffffffffffffffffffffffffffffffffffffffffffffffffffffffff0190558785526002909352818420805490911690555192935084927fddf252ad1be2c89b69c2b068fc378daa952ba7f163c4a11628f55a4df523b3ef908390a45050565b8173ffffffffffffffffffffffffffffffffffffffff168373ffffffffffffffffffffffffffffffffffffffff16036117ad5760405162461bcd60e51b815260206004820152601960248201527f4552433732313a20617070726f766520746f2063616c6c65720000000000000060448201526064016106b2565b73ffffffffffffffffffffffffffffffffffffffff83811660008181526005602090815260408083209487168084529482529182902080547fffffffffffffffffffffffffffffffffffffffffffffffffffffffffffffff001686151590811790915591519182527f17307eab39ab6107e8899845ad3d59bd9653f200f220920489ca2b5937696c31910160405180910390a3505050565b6118508484846111d6565b61185c8484848461198c565b610ecd5760405162461bcd60e51b815260206004820152603260248201527f4552433732313a207472616e7366657220746f206e6f6e20455243373231526560448201527f63656976657220696d706c656d656e746572000000000000000000000000000060648201526084016106b2565b606060006118db83611b65565b600101905060008167ffffffffffffffff8111156118fb576118fb611e12565b6040519080825280601f01601f191660200182016040528015611925576020820181803683370190505b5090508181016020015b7fffffffffffffffffffffffffffffffffffffffffffffffffffffffffffffffff017f3031323334353637383961626364656600000000000000000000000000000000600a86061a8153600a850494508461192f57509392505050565b600073ffffffffffffffffffffffffffffffffffffffff84163b15611b5a576040517f150b7a0200000000000000000000000000000000000000000000000000000000815273ffffffffffffffffffffffffffffffffffffffff85169063150b7a0290611a039033908990889088906004016120a9565b6020604051808303816000875af1925050508015611a5c575060408051601f3d9081017fffffffffffffffffffffffffffffffffffffffffffffffffffffffffffffffe0168201909252611a59918101906120f2565b60015b611b0f573d808015611a8a576040519150601f19603f3d011682016040523d82523d6000602084013e611a8f565b606091505b508051600003611b075760405162461bcd60e51b815260206004820152603260248201527f4552433732313a207472616e7366657220746f206e6f6e20455243373231526560448201527f63656976657220696d706c656d656e746572000000000000000000000000000060648201526084016106b2565b805181602001fd5b7fffffffff00000000000000000000000000000000000000000000000000000000167f150b7a02000000000000000000000000000000000000000000000000000000001490506111ce565b506001949350505050565b6000807a184f03e93ff9f4daa797ed6e38ed64bf6a1f0100000000000000008310611bae577a184f03e93ff9f4daa797ed6e38ed64bf6a1f010000000000000000830492506040015b6d04ee2d6d415b85acef81000000008310611bda576d04ee2d6d415b85acef8100000000830492506020015b662386f26fc100008310611bf857662386f26fc10000830492506010015b6305f5e1008310611c10576305f5e100830492506008015b6127108310611c2457612710830492506004015b60648310611c36576064830492506002015b600a831061053c5760010192915050565b7fffffffff000000000000000000000000000000000000000000000000000000008116811461107357600080fd5b600060208284031215611c8757600080fd5b8135610f4081611c47565b60005b83811015611cad578181015183820152602001611c95565b50506000910152565b60008151808452611cce816020860160208601611c92565b601f017fffffffffffffffffffffffffffffffffffffffffffffffffffffffffffffffe0169290920160200192915050565b602081526000610f406020830184611cb6565b600060208284031215611d2557600080fd5b5035919050565b803573ffffffffffffffffffffffffffffffffffffffff81168114611d5057600080fd5b919050565b60008060408385031215611d6857600080fd5b611d7183611d2c565b946020939093013593505050565b600080600060608486031215611d9457600080fd5b611d9d84611d2c565b9250611dab60208501611d2c565b9150604084013590509250925092565b600060208284031215611dcd57600080fd5b610f4082611d2c565b60008060408385031215611de957600080fd5b611df283611d2c565b915060208301358015158114611e0757600080fd5b809150509250929050565b7f4e487b7100000000000000000000000000000000000000000000000000000000600052604160045260246000fd5b60008060008060808587031215611e5757600080fd5b611e6085611d2c565b9350611e6e60208601611d2c565b925060408501359150606085013567ffffffffffffffff80821115611e9257600080fd5b818701915087601f830112611ea657600080fd5b813581811115611eb857611eb8611e12565b604051601f82017fffffffffffffffffffffffffffffffffffffffffffffffffffffffffffffffe0908116603f01168101908382118183101715611efe57611efe611e12565b816040528281528a6020848701011115611f1757600080fd5b82602086016020830137600060208483010152809550505050505092959194509250565b60008060408385031215611f4e57600080fd5b611f5783611d2c565b9150611f6560208401611d2c565b90509250929050565b60008060408385031215611f8157600080fd5b50508035926020909101359150565b600181811c90821680611fa457607f821691505b602082108103611fdd577f4e487b7100000000000000000000000000000000000000000000000000000000600052602260045260246000fd5b50919050565b600060208284031215611ff557600080fd5b5051919050565b7f4e487b7100000000000000000000000000000000000000000000000000000000600052601160045260246000fd5b60007fffffffffffffffffffffffffffffffffffffffffffffffffffffffffffffffff820361205c5761205c611ffc565b5060010190565b808202811582820484141761053c5761053c611ffc565b6000835161208c818460208801611c92565b8351908301906120a0818360208801611c92565b01949350505050565b600073ffffffffffffffffffffffffffffffffffffffff8087168352808616602084015250836040830152608060608301526120e86080830184611cb6565b9695505050505050565b60006020828403121561210457600080fd5b8151610f4081611c4756fea2646970667358221220507b919f64437cb847949204774c8e47599f4d27825a6a2ac23b9359340ae68c64736f6c63430008130033","linkReferences":{}},"methodIdentifiers":{"approve(address,uint256)":"095ea7b3","balanceOf(address)":"70a08231","buyEggs(uint256)":"4fd53596","createAnt()":"2e61a7bf","eggs()":"e33f76cf","getAntPrice()":"248452bd","getAntsCreated()":"3d871229","getApproved(uint256)":"081812fc","getEggPrice()":"514b1570","isApprovedForAll(address,address)":"e985e9c5","name()":"06fdde03","ownerOf(uint256)":"6352211e","safeTransferFrom(address,address,uint256)":"42842e0e","safeTransferFrom(address,address,uint256,bytes)":"b88d4fde","sellAnt(uint256)":"61dcb054","setApprovalForAll(address,bool)":"a22cb465","supportsInterface(bytes4)":"01ffc9a7","symbol()":"95d89b41","tokenURI(uint256)":"c87b56dd","transferFrom(address,address,uint256)":"23b872dd","updatePrices(uint256,uint256)":"ef88d7f0"},"id":32}