{"abi":[{"type":"constructor","inputs":[{"name":"_eggs","type":"address","internalType":"address"},{"name":"_governance","type":"address","internalType":"address"},{"name":"_linkAddress","type":"address","internalType":"address"},{"name":"_wrapperAddress","type":"address","internalType":"address"}],"stateMutability":"nonpayable"},{"type":"function","name":"MAX_EGGS_FERTILIZED","inputs":[],"outputs":[{"name":"","type":"uint256","internalType":"uint256"}],"stateMutability":"view"},{"type":"function","name":"OVIPOSITION_DEADLINE","inputs":[],"outputs":[{"name":"","type":"uint256","internalType":"uint256"}],"stateMutability":"view"},{"type":"function","name":"PREOVIPOSITION_PERIOD","inputs":[],"outputs":[{"name":"","type":"uint256","internalType":"uint256"}],"stateMutability":"view"},{"type":"function","name":"acceptOwnership","inputs":[],"outputs":[],"stateMutability":"nonpayable"},{"type":"function","name":"approve","inputs":[{"name":"to","type":"address","internalType":"address"},{"name":"tokenId","type":"uint256","internalType":"uint256"}],"outputs":[],"stateMutability":"nonpayable"},{"type":"function","name":"balanceOf","inputs":[{"name":"owner","type":"address","internalType":"address"}],"outputs":[{"name":"","type":"uint256","internalType":"uint256"}],"stateMutability":"view"},{"type":"function","name":"buyEggs","inputs":[{"name":"_amount","type":"uint256","internalType":"uint256"}],"outputs":[],"stateMutability":"payable"},{"type":"function","name":"createAnt","inputs":[],"outputs":[{"name":"_antId","type":"uint256","internalType":"uint256"}],"stateMutability":"nonpayable"},{"type":"function","name":"getAntPrice","inputs":[],"outputs":[{"name":"","type":"uint256","internalType":"uint256"}],"stateMutability":"view"},{"type":"function","name":"getAntsCreated","inputs":[],"outputs":[{"name":"","type":"uint256","internalType":"uint256"}],"stateMutability":"view"},{"type":"function","name":"getApproved","inputs":[{"name":"tokenId","type":"uint256","internalType":"uint256"}],"outputs":[{"name":"","type":"address","internalType":"address"}],"stateMutability":"view"},{"type":"function","name":"getEggPrice","inputs":[],"outputs":[{"name":"","type":"uint256","internalType":"uint256"}],"stateMutability":"view"},{"type":"function","name":"getOvipositionPeriod","inputs":[{"name":"_antId","type":"uint256","internalType":"uint256"}],"outputs":[{"name":"ovipositionPeriod","type":"uint256","internalType":"uint256"}],"stateMutability":"view"},{"type":"function","name":"getOvipositionRequest","inputs":[{"name":"_requestId","type":"uint256","internalType":"uint256"}],"outputs":[{"name":"","type":"tuple","internalType":"struct ICryptoAnts.OvipositionRequest","components":[{"name":"paid","type":"uint256","internalType":"uint256"},{"name":"fulfilled","type":"bool","internalType":"bool"},{"name":"ant","type":"tuple","internalType":"struct ICryptoAnts.Ant","components":[{"name":"owner","type":"address","internalType":"address"},{"name":"id","type":"uint256","internalType":"uint256"}]}]}],"stateMutability":"view"},{"type":"function","name":"isApprovedForAll","inputs":[{"name":"owner","type":"address","internalType":"address"},{"name":"operator","type":"address","internalType":"address"}],"outputs":[{"name":"","type":"bool","internalType":"bool"}],"stateMutability":"view"},{"type":"function","name":"name","inputs":[],"outputs":[{"name":"","type":"string","internalType":"string"}],"stateMutability":"view"},{"type":"function","name":"owner","inputs":[],"outputs":[{"name":"","type":"address","internalType":"address"}],"stateMutability":"view"},{"type":"function","name":"ownerOf","inputs":[{"name":"tokenId","type":"uint256","internalType":"uint256"}],"outputs":[{"name":"","type":"address","internalType":"address"}],"stateMutability":"view"},{"type":"function","name":"rawFulfillRandomWords","inputs":[{"name":"_requestId","type":"uint256","internalType":"uint256"},{"name":"_randomWords","type":"uint256[]","internalType":"uint256[]"}],"outputs":[],"stateMutability":"nonpayable"},{"type":"function","name":"safeTransferFrom","inputs":[{"name":"from","type":"address","internalType":"address"},{"name":"to","type":"address","internalType":"address"},{"name":"tokenId","type":"uint256","internalType":"uint256"}],"outputs":[],"stateMutability":"nonpayable"},{"type":"function","name":"safeTransferFrom","inputs":[{"name":"from","type":"address","internalType":"address"},{"name":"to","type":"address","internalType":"address"},{"name":"tokenId","type":"uint256","internalType":"uint256"},{"name":"data","type":"bytes","internalType":"bytes"}],"outputs":[],"stateMutability":"nonpayable"},{"type":"function","name":"sellAnt","inputs":[{"name":"_antId","type":"uint256","internalType":"uint256"}],"outputs":[],"stateMutability":"nonpayable"},{"type":"function","name":"setApprovalForAll","inputs":[{"name":"operator","type":"address","internalType":"address"},{"name":"approved","type":"bool","internalType":"bool"}],"outputs":[],"stateMutability":"nonpayable"},{"type":"function","name":"startOviposition","inputs":[{"name":"_antId","type":"uint256","internalType":"uint256"}],"outputs":[{"name":"requestId","type":"uint256","internalType":"uint256"}],"stateMutability":"nonpayable"},{"type":"function","name":"supportsInterface","inputs":[{"name":"interfaceId","type":"bytes4","internalType":"bytes4"}],"outputs":[{"name":"","type":"bool","internalType":"bool"}],"stateMutability":"view"},{"type":"function","name":"symbol","inputs":[],"outputs":[{"name":"","type":"string","internalType":"string"}],"stateMutability":"view"},{"type":"function","name":"tokenURI","inputs":[{"name":"tokenId","type":"uint256","internalType":"uint256"}],"outputs":[{"name":"","type":"string","internalType":"string"}],"stateMutability":"view"},{"type":"function","name":"transferFrom","inputs":[{"name":"from","type":"address","internalType":"address"},{"name":"to","type":"address","internalType":"address"},{"name":"tokenId","type":"uint256","internalType":"uint256"}],"outputs":[],"stateMutability":"nonpayable"},{"type":"function","name":"transferOwnership","inputs":[{"name":"to","type":"address","internalType":"address"}],"outputs":[],"stateMutability":"nonpayable"},{"type":"function","name":"updatePrices","inputs":[{"name":"_newEggPrice","type":"uint256","internalType":"uint256"},{"name":"_newAntPrice","type":"uint256","internalType":"uint256"}],"outputs":[],"stateMutability":"nonpayable"},{"type":"function","name":"withdrawEther","inputs":[{"name":"_recipient","type":"address","internalType":"address payable"},{"name":"_amount","type":"uint256","internalType":"uint256"}],"outputs":[],"stateMutability":"nonpayable"},{"type":"function","name":"withdrawEtherBalance","inputs":[{"name":"_recipient","type":"address","internalType":"address payable"}],"outputs":[],"stateMutability":"nonpayable"},{"type":"function","name":"withdrawLink","inputs":[{"name":"_recipient","type":"address","internalType":"address"},{"name":"_amount","type":"uint256","internalType":"uint256"}],"outputs":[],"stateMutability":"nonpayable"},{"type":"function","name":"withdrawLinkBalance","inputs":[{"name":"_recipient","type":"address","internalType":"address"}],"outputs":[],"stateMutability":"nonpayable"},{"type":"event","name":"AntCreated","inputs":[{"name":"owner","type":"address","indexed":false,"internalType":"address"},{"name":"antId","type":"uint256","indexed":false,"internalType":"uint256"},{"name":"ovipositionPeriod","type":"uint256","indexed":false,"internalType":"uint256"}],"anonymous":false},{"type":"event","name":"AntSold","inputs":[{"name":"owner","type":"address","indexed":false,"internalType":"address"},{"name":"antId","type":"uint256","indexed":false,"internalType":"uint256"},{"name":"price","type":"uint256","indexed":false,"internalType":"uint256"}],"anonymous":false},{"type":"event","name":"Approval","inputs":[{"name":"owner","type":"address","indexed":true,"internalType":"address"},{"name":"approved","type":"address","indexed":true,"internalType":"address"},{"name":"tokenId","type":"uint256","indexed":true,"internalType":"uint256"}],"anonymous":false},{"type":"event","name":"ApprovalForAll","inputs":[{"name":"owner","type":"address","indexed":true,"internalType":"address"},{"name":"operator","type":"address","indexed":true,"internalType":"address"},{"name":"approved","type":"bool","indexed":false,"internalType":"bool"}],"anonymous":false},{"type":"event","name":"EggsBought","inputs":[{"name":"owner","type":"address","indexed":false,"internalType":"address"},{"name":"amount","type":"uint256","indexed":false,"internalType":"uint256"}],"anonymous":false},{"type":"event","name":"EggsLaid","inputs":[{"name":"owner","type":"address","indexed":false,"internalType":"address"},{"name":"antId","type":"uint256","indexed":false,"internalType":"uint256"},{"name":"eggsFertilized","type":"uint256","indexed":false,"internalType":"uint256"},{"name":"eggsLaid","type":"uint256","indexed":false,"internalType":"uint256"},{"name":"isAntDead","type":"bool","indexed":false,"internalType":"bool"}],"anonymous":false},{"type":"event","name":"OvipositionPeriodReset","inputs":[{"name":"antId","type":"uint256","indexed":false,"internalType":"uint256"},{"name":"ovipositionPeriod","type":"uint256","indexed":false,"internalType":"uint256"}],"anonymous":false},{"type":"event","name":"OvipositionRequestFulfilled","inputs":[{"name":"requestId","type":"uint256","indexed":false,"internalType":"uint256"},{"name":"paid","type":"uint256","indexed":false,"internalType":"uint256"}],"anonymous":false},{"type":"event","name":"OvipositionRequested","inputs":[{"name":"requestId","type":"uint256","indexed":false,"internalType":"uint256"},{"name":"paid","type":"uint256","indexed":false,"internalType":"uint256"}],"anonymous":false},{"type":"event","name":"OwnershipTransferRequested","inputs":[{"name":"from","type":"address","indexed":true,"internalType":"address"},{"name":"to","type":"address","indexed":true,"internalType":"address"}],"anonymous":false},{"type":"event","name":"OwnershipTransferred","inputs":[{"name":"from","type":"address","indexed":true,"internalType":"address"},{"name":"to","type":"address","indexed":true,"internalType":"address"}],"anonymous":false},{"type":"event","name":"PricesUpdated","inputs":[{"name":"newEggPrice","type":"uint256","indexed":false,"internalType":"uint256"},{"name":"newAntPrice","type":"uint256","indexed":false,"internalType":"uint256"}],"anonymous":false},{"type":"event","name":"Transfer","inputs":[{"name":"from","type":"address","indexed":true,"internalType":"address"},{"name":"to","type":"address","indexed":true,"internalType":"address"},{"name":"tokenId","type":"uint256","indexed":true,"internalType":"uint256"}],"anonymous":false},{"type":"error","name":"AlreadyExists","inputs":[]},{"type":"error","name":"AntPriceMustBeLessThanEggPrice","inputs":[]},{"type":"error","name":"ERC721IncorrectOwner","inputs":[{"name":"sender","type":"address","internalType":"address"},{"name":"tokenId","type":"uint256","internalType":"uint256"},{"name":"owner","type":"address","internalType":"address"}]},{"type":"error","name":"ERC721InsufficientApproval","inputs":[{"name":"operator","type":"address","internalType":"address"},{"name":"tokenId","type":"uint256","internalType":"uint256"}]},{"type":"error","name":"ERC721InvalidApprover","inputs":[{"name":"approver","type":"address","internalType":"address"}]},{"type":"error","name":"ERC721InvalidOperator","inputs":[{"name":"operator","type":"address","internalType":"address"}]},{"type":"error","name":"ERC721InvalidOwner","inputs":[{"name":"owner","type":"address","internalType":"address"}]},{"type":"error","name":"ERC721InvalidReceiver","inputs":[{"name":"receiver","type":"address","internalType":"address"}]},{"type":"error","name":"ERC721InvalidSender","inputs":[{"name":"sender","type":"address","internalType":"address"}]},{"type":"error","name":"ERC721NonexistentToken","inputs":[{"name":"tokenId","type":"uint256","internalType":"uint256"}]},{"type":"error","name":"InsufficientETH","inputs":[]},{"type":"error","name":"InsufficientLINKTokens","inputs":[{"name":"balance","type":"uint256","internalType":"uint256"},{"name":"paid","type":"uint256","internalType":"uint256"}]},{"type":"error","name":"NoEggs","inputs":[]},{"type":"error","name":"NotAntOwner","inputs":[]},{"type":"error","name":"PreOvipositionPeriod","inputs":[]},{"type":"error","name":"RequestNotFound","inputs":[{"name":"requestId","type":"uint256","internalType":"uint256"}]},{"type":"error","name":"TransferFailed","inputs":[]},{"type":"error","name":"WrongEtherSent","inputs":[]},{"type":"error","name":"ZeroAddress","inputs":[]},{"type":"error","name":"ZeroAmount","inputs":[]}],"bytecode":{"object":"0x610100604052662386f26fc10000600855660e35fa931a00006009553480156200002857600080fd5b50604051620035d6380380620035d68339810160408190526200004b9162000237565b8280600084846040518060400160405280600b81526020016a43727970746f20416e747360a81b81525060405180604001604052806004815260200163414e545360e01b8152508160009081620000a3919062000339565b506001620000b2828262000339565b5050506001600160a01b03918216608052811660a05282166200011c5760405162461bcd60e51b815260206004820152601860248201527f43616e6e6f7420736574206f776e657220746f207a65726f000000000000000060448201526064015b60405180910390fd5b600680546001600160a01b0319166001600160a01b03848116919091179091558116156200014f576200014f816200016e565b5050506001600160a01b0393841660c0525090911660e0525062000405565b336001600160a01b03821603620001c85760405162461bcd60e51b815260206004820152601760248201527f43616e6e6f74207472616e7366657220746f2073656c66000000000000000000604482015260640162000113565b600780546001600160a01b0319166001600160a01b03838116918217909255600654604051919216907fed8889f560326eb138920d842192f0eb3dd22b4f139c87a2c57538e05bae127890600090a350565b80516001600160a01b03811681146200023257600080fd5b919050565b600080600080608085870312156200024e57600080fd5b62000259856200021a565b935062000269602086016200021a565b925062000279604086016200021a565b915062000289606086016200021a565b905092959194509250565b634e487b7160e01b600052604160045260246000fd5b600181811c90821680620002bf57607f821691505b602082108103620002e057634e487b7160e01b600052602260045260246000fd5b50919050565b601f8211156200033457600081815260208120601f850160051c810160208610156200030f5750805b601f850160051c820191505b8181101562000330578281556001016200031b565b5050505b505050565b81516001600160401b0381111562000355576200035562000294565b6200036d81620003668454620002aa565b84620002e6565b602080601f831160018114620003a557600084156200038c5750858301515b600019600386901b1c1916600185901b17855562000330565b600085815260208120601f198616915b82811015620003d657888601518255948401946001909101908401620003b5565b5085821015620003f55787850151600019600388901b60f8161c191681555b5050505050600190811b01905550565b60805160a05160c05160e05161315f6200047760003960008181610b3601528181610c240152611527015260008181610d0301528181610e6d01528181611013015261268a01526000818161096a0152818161147801528181611f10015261201901526000611ee6015261315f6000f3fe6080604052600436106102195760003560e01c806354b7faae1161011d57806395d89b41116100b0578063c87b56dd1161007f578063e985e9c511610064578063e985e9c514610611578063ef88d7f01461065a578063f2fde38b1461067a57600080fd5b8063c87b56dd146105c4578063e5f9598c146105e457600080fd5b806395d89b4114610558578063a22cb4651461056d578063b0797c551461058d578063b88d4fde146105a457600080fd5b806373edb143116100ec57806373edb143146104ab57806379ba5097146104cb57806386f47873146104e05780638da5cb5b1461053a57600080fd5b806354b7faae1461042b57806361dcb0541461044b5780636352211e1461046b57806370a082311461048b57600080fd5b8063273f0f27116101b057806342842e0e1161017f578063514b157011610164578063514b1570146103e0578063522f6815146103f5578063538795d51461041557600080fd5b806342842e0e146103ad5780634fd53596146103cd57600080fd5b8063273f0f271461034e5780632e61a7bf1461036e5780633c6ab61d146103835780633d8712291461039857600080fd5b80630dd4c758116101ec5780630dd4c758146102cf5780631fe543e3146102ef57806323b872dd1461030f578063248452bd1461032f57600080fd5b806301ffc9a71461021e57806306fdde0314610253578063081812fc14610275578063095ea7b3146102ad575b600080fd5b34801561022a57600080fd5b5061023e610239366004612a5d565b61069a565b60405190151581526020015b60405180910390f35b34801561025f57600080fd5b5061026861077f565b60405161024a9190612ae8565b34801561028157600080fd5b50610295610290366004612afb565b610811565b6040516001600160a01b03909116815260200161024a565b3480156102b957600080fd5b506102cd6102c8366004612b29565b61083a565b005b3480156102db57600080fd5b506102cd6102ea366004612b55565b610849565b3480156102fb57600080fd5b506102cd61030a366004612bf0565b61095f565b34801561031b57600080fd5b506102cd61032a366004612ca2565b610a00565b34801561033b57600080fd5b506009545b60405190815260200161024a565b34801561035a57600080fd5b506102cd610369366004612b55565b610abd565b34801561037a57600080fd5b50610340610cc7565b34801561038f57600080fd5b50610340600a81565b3480156103a457600080fd5b50600a54610340565b3480156103b957600080fd5b506102cd6103c8366004612ca2565b610f43565b6102cd6103db366004612afb565b610f5e565b3480156103ec57600080fd5b50600854610340565b34801561040157600080fd5b506102cd610410366004612b29565b6110b4565b34801561042157600080fd5b5061034061025881565b34801561043757600080fd5b506102cd610446366004612b29565b611170565b34801561045757600080fd5b506102cd610466366004612afb565b6111f2565b34801561047757600080fd5b50610295610486366004612afb565b611316565b34801561049757600080fd5b506103406104a6366004612b55565b611321565b3480156104b757600080fd5b506103406104c6366004612afb565b611382565b3480156104d757600080fd5b506102cd6116e1565b3480156104ec57600080fd5b506105006104fb366004612afb565b6117c8565b60408051825181526020808401511515818301529282015180516001600160a01b031692820192909252910151606082015260800161024a565b34801561054657600080fd5b506006546001600160a01b0316610295565b34801561056457600080fd5b5061026861182b565b34801561057957600080fd5b506102cd610588366004612cf1565b61183a565b34801561059957600080fd5b506103406203f48081565b3480156105b057600080fd5b506102cd6105bf366004612d2a565b611845565b3480156105d057600080fd5b506102686105df366004612afb565b61185c565b3480156105f057600080fd5b506103406105ff366004612afb565b6000908152600c602052604090205490565b34801561061d57600080fd5b5061023e61062c366004612e0c565b6001600160a01b03918216600090815260056020908152604080832093909416825291909152205460ff1690565b34801561066657600080fd5b506102cd610675366004612e3a565b6118d1565b34801561068657600080fd5b506102cd610695366004612b55565b61199c565b60007fffffffff0000000000000000000000000000000000000000000000000000000082167f80ac58cd00000000000000000000000000000000000000000000000000000000148061072d57507fffffffff0000000000000000000000000000000000000000000000000000000082167f5b5e139f00000000000000000000000000000000000000000000000000000000145b8061077957507f01ffc9a7000000000000000000000000000000000000000000000000000000007fffffffff000000000000000000000000000000000000000000000000000000008316145b92915050565b60606000805461078e90612e5c565b80601f01602080910402602001604051908101604052809291908181526020018280546107ba90612e5c565b80156108075780601f106107dc57610100808354040283529160200191610807565b820191906000526020600020905b8154815290600101906020018083116107ea57829003601f168201915b5050505050905090565b600061081c826119b0565b506000828152600460205260409020546001600160a01b0316610779565b610845828233611a02565b5050565b610851611a0f565b6001600160a01b038116610891576040517fd92e233d00000000000000000000000000000000000000000000000000000000815260040160405180910390fd5b4760008190036108cd576040517f1f2a200500000000000000000000000000000000000000000000000000000000815260040160405180910390fd5b6000826001600160a01b03168260405160006040518083038185875af1925050503d806000811461091a576040519150601f19603f3d011682016040523d82523d6000602084013e61091f565b606091505b505090508061095a576040517f90b8ec1800000000000000000000000000000000000000000000000000000000815260040160405180910390fd5b505050565b336001600160a01b037f000000000000000000000000000000000000000000000000000000000000000016146109f6576040517f08c379a000000000000000000000000000000000000000000000000000000000815260206004820152601f60248201527f6f6e6c792056524620563220777261707065722063616e2066756c66696c6c0060448201526064015b60405180910390fd5b6108458282611a85565b6001600160a01b038216610a43576040517f64a0ae92000000000000000000000000000000000000000000000000000000008152600060048201526024016109ed565b6000610a50838333611c28565b9050836001600160a01b0316816001600160a01b031614610ab7576040517f64283d7b0000000000000000000000000000000000000000000000000000000081526001600160a01b03808616600483015260248201849052821660448201526064016109ed565b50505050565b610ac5611a0f565b6001600160a01b038116610b05576040517fd92e233d00000000000000000000000000000000000000000000000000000000815260040160405180910390fd5b6040517f70a082310000000000000000000000000000000000000000000000000000000081523060048201526000907f00000000000000000000000000000000000000000000000000000000000000006001600160a01b0316906370a0823190602401602060405180830381865afa158015610b85573d6000803e3d6000fd5b505050506040513d601f19601f82011682018060405250810190610ba99190612ea9565b905080600003610be5576040517f1f2a200500000000000000000000000000000000000000000000000000000000815260040160405180910390fd5b6040517fa9059cbb0000000000000000000000000000000000000000000000000000000081526001600160a01b038381166004830152602482018390527f0000000000000000000000000000000000000000000000000000000000000000169063a9059cbb906044016020604051808303816000875af1158015610c6d573d6000803e3d6000fd5b505050506040513d601f19601f82011682018060405250810190610c919190612ec2565b610845576040517f90b8ec1800000000000000000000000000000000000000000000000000000000815260040160405180910390fd5b6040517f70a082310000000000000000000000000000000000000000000000000000000081523360048201526000906001906001600160a01b037f000000000000000000000000000000000000000000000000000000000000000016906370a0823190602401602060405180830381865afa158015610d4a573d6000803e3d6000fd5b505050506040513d601f19601f82011682018060405250810190610d6e9190612ea9565b1015610da6576040517f6c308a2f00000000000000000000000000000000000000000000000000000000815260040160405180910390fd5b600b54600003610dcb57600a60008154610dbf90612f0e565b91829055509050610e38565b600b8054610ddb90600190612f46565b81548110610deb57610deb612f59565b90600052602060002001549050600b805480610e0957610e09612f88565b60019003818190600052602060002001600090559055600a6000815480929190610e3290612f0e565b91905055505b6040517f9dc29fac000000000000000000000000000000000000000000000000000000008152336004820152600160248201527f00000000000000000000000000000000000000000000000000000000000000006001600160a01b031690639dc29fac90604401600060405180830381600087803b158015610eb957600080fd5b505af1158015610ecd573d6000803e3d6000fd5b50505050610edb3382611d57565b6000610ee961025842612fb7565b6000838152600c602090815260409182902083905581513381529081018590529081018290529091507f0cbdf51017fa3db672d6f94a941b3b47f2c1c169bf808bac7391b8a9269cffab9060600160405180910390a15090565b61095a83838360405180602001604052806000815250611845565b80600003610f98576040517f1f2a200500000000000000000000000000000000000000000000000000000000815260040160405180910390fd5b3460085482610fa79190612fca565b14610fde576040517f2f1e736300000000000000000000000000000000000000000000000000000000815260040160405180910390fd5b6040517f40c10f19000000000000000000000000000000000000000000000000000000008152336004820152602481018290527f00000000000000000000000000000000000000000000000000000000000000006001600160a01b0316906340c10f1990604401600060405180830381600087803b15801561105f57600080fd5b505af1158015611073573d6000803e3d6000fd5b505060408051338152602081018590527fecedcda9002dd5028204a70dddaa2155459b6dff3c3e20543450a189e736dc49935001905060405180910390a150565b6110bc611a0f565b6001600160a01b0382166110fc576040517fd92e233d00000000000000000000000000000000000000000000000000000000815260040160405180910390fd5b80600003611136576040517f1f2a200500000000000000000000000000000000000000000000000000000000815260040160405180910390fd5b804710156108cd576040517f6a12f10400000000000000000000000000000000000000000000000000000000815260040160405180910390fd5b611178611a0f565b6001600160a01b0382166111b8576040517fd92e233d00000000000000000000000000000000000000000000000000000000815260040160405180910390fd5b80600003610be5576040517f1f2a200500000000000000000000000000000000000000000000000000000000815260040160405180910390fd5b6000818152600260205260409020546001600160a01b03163314611242576040517f16bea89400000000000000000000000000000000000000000000000000000000815260040160405180910390fd5b61124b81611dee565b600954604051600090339083908381818185875af1925050503d8060008114611290576040519150601f19603f3d011682016040523d82523d6000602084013e611295565b606091505b50509050806112d0576040517f90b8ec1800000000000000000000000000000000000000000000000000000000815260040160405180910390fd5b60408051338152602081018590529081018390527f3369562294f6e2ef65ca6e38e7a7c581bd2dfb228a017e746217c6880cbeab009060600160405180910390a1505050565b6000610779826119b0565b60006001600160a01b038216611366576040517f89c62b64000000000000000000000000000000000000000000000000000000008152600060048201526024016109ed565b506001600160a01b031660009081526003602052604090205490565b6000818152600260205260408120546001600160a01b031633146113d2576040517f16bea89400000000000000000000000000000000000000000000000000000000815260040160405180910390fd5b6000828152600c60205260409020544281111561141b576040517f53ea709100000000000000000000000000000000000000000000000000000000815260040160405180910390fd5b61142483611e4e565b80421015801561143f575061143c6203f48082612fb7565b42105b156116db576040517f4306d354000000000000000000000000000000000000000000000000000000008152620493e060048201526000907f00000000000000000000000000000000000000000000000000000000000000006001600160a01b031690634306d35490602401602060405180830381865afa1580156114c7573d6000803e3d6000fd5b505050506040513d601f19601f820116820180604052508101906114eb9190612ea9565b6040517f70a082310000000000000000000000000000000000000000000000000000000081523060048201529091506000906001600160a01b037f000000000000000000000000000000000000000000000000000000000000000016906370a0823190602401602060405180830381865afa15801561156e573d6000803e3d6000fd5b505050506040513d601f19601f820116820180604052508101906115929190612ea9565b9050818110156115d8576040517f1876a02e00000000000000000000000000000000000000000000000000000000815260048101829052602481018390526044016109ed565b6115e8620493e060036002611ea7565b6040805160608101825284815260006020808301828152845180860186523381528083018c9052848601908152868452600d83529285902093518455516001840180547fffffffffffffffffffffffffffffffffffffffffffffffffffffffffffffff0016911515919091179055905180516002840180547fffffffffffffffffffffffff0000000000000000000000000000000000000000166001600160a01b0390921691909117905581015160039092019190915581518381529081018590529195507f03bdba022a54045a6998cc489ac4b9dc1de59e776f960b46f69f44fe7676927d910160405180910390a150505b50919050565b6007546001600160a01b03163314611755576040517f08c379a000000000000000000000000000000000000000000000000000000000815260206004820152601660248201527f4d7573742062652070726f706f736564206f776e65720000000000000000000060448201526064016109ed565b600680547fffffffffffffffffffffffff0000000000000000000000000000000000000000808216339081179093556007805490911690556040516001600160a01b03909116919082907f8be0079c531659141344cd1fd0a4f28419497f9722a3daafe3b4186f6b6457e090600090a350565b6117d06129e9565b506000908152600d6020908152604091829020825160608101845281548152600182015460ff161515818401528351808501855260028301546001600160a01b03168152600390920154928201929092529181019190915290565b60606001805461078e90612e5c565b6108453383836120a1565b611850848484610a00565b610ab784848484612177565b6060611867826119b0565b50600061187f60408051602081019091526000815290565b9050600081511161189f57604051806020016040528060008152506118ca565b806118a98461233a565b6040516020016118ba929190612fe1565b6040516020818303038152906040525b9392505050565b6118d9611a0f565b8115806118e4575080155b1561191b576040517f1f2a200500000000000000000000000000000000000000000000000000000000815260040160405180910390fd5b818110611954576040517f28cf0d4c00000000000000000000000000000000000000000000000000000000815260040160405180910390fd5b6008829055600981905560408051838152602081018390527f6546f60f34df611fa42503098acc39d5ab88bc73febe64b3cc14e5a92e3a66a791015b60405180910390a15050565b6119a4611a0f565b6119ad816123f8565b50565b6000818152600260205260408120546001600160a01b031680610779576040517f7e273289000000000000000000000000000000000000000000000000000000008152600481018490526024016109ed565b61095a83838360016124d4565b6006546001600160a01b03163314611a83576040517f08c379a000000000000000000000000000000000000000000000000000000000815260206004820152601660248201527f4f6e6c792063616c6c61626c65206279206f776e65720000000000000000000060448201526064016109ed565b565b6000828152600d60209081526040808320815180830183526002808301546001600160a01b03908116808452600385015484880181905288529190955292909420549093921614611b02576040517f16bea89400000000000000000000000000000000000000000000000000000000815260040160405180910390fd5b8154600003611b40576040517f4ec726c7000000000000000000000000000000000000000000000000000000008152600481018590526024016109ed565b600182810180547fffffffffffffffffffffffffffffffffffffffffffffffffffffffffffffff0016909117905581546040805186815260208101929092527fbd03fc99dbe54c7b82300ba22cb10a54cde8d793ba3d99933518fe8ad46723e1910160405180910390a16000600a84600081518110611bc157611bc1612f59565b6020026020010151611bd39190613010565b611bde906001612fb7565b90506000600a611bee8382612fca565b611bf89190612f46565b9050611c2083838388600181518110611c1357611c13612f59565b602002602001015161262a565b505050505050565b6000828152600260205260408120546001600160a01b0390811690831615611c5557611c5581848661279a565b6001600160a01b03811615611cb157611c726000856000806124d4565b6001600160a01b038116600090815260036020526040902080547fffffffffffffffffffffffffffffffffffffffffffffffffffffffffffffffff0190555b6001600160a01b03851615611ce0576001600160a01b0385166000908152600360205260409020805460010190555b60008481526002602052604080822080547fffffffffffffffffffffffff0000000000000000000000000000000000000000166001600160a01b0389811691821790925591518793918516917fddf252ad1be2c89b69c2b068fc378daa952ba7f163c4a11628f55a4df523b3ef91a4949350505050565b6001600160a01b038216611d9a576040517f64a0ae92000000000000000000000000000000000000000000000000000000008152600060048201526024016109ed565b6000611da883836000611c28565b90506001600160a01b0381161561095a576040517f73c6ac6e000000000000000000000000000000000000000000000000000000008152600060048201526024016109ed565b611df781612830565b600a8054906000611e078361304b565b90915550506000818152600c60205260408120819055600b805460018101825591527f0175b7a638427703f0dbe7bb9bbf987a2551717b34e79f33b5b1008d1fa01db90155565b6000611e5c61025842612fb7565b6000838152600c602090815260409182902083905581518581529081018390529192507f47fe2b07cdc878aa5c25511db2d5ce596c91cc281fee8c41a0800e7a70a8e1ad9101611990565b6040517f4306d35400000000000000000000000000000000000000000000000000000000815263ffffffff841660048201526000906001600160a01b037f0000000000000000000000000000000000000000000000000000000000000000811691634000aea0917f00000000000000000000000000000000000000000000000000000000000000009190821690634306d35490602401602060405180830381865afa158015611f5a573d6000803e3d6000fd5b505050506040513d601f19601f82011682018060405250810190611f7e9190612ea9565b6040805163ffffffff808b16602083015261ffff8a169282019290925290871660608201526080016040516020818303038152906040526040518463ffffffff1660e01b8152600401611fd393929190613080565b6020604051808303816000875af1158015611ff2573d6000803e3d6000fd5b505050506040513d601f19601f820116820180604052508101906120169190612ec2565b507f00000000000000000000000000000000000000000000000000000000000000006001600160a01b031663fc2a88c36040518163ffffffff1660e01b8152600401602060405180830381865afa158015612075573d6000803e3d6000fd5b505050506040513d601f19601f820116820180604052508101906120999190612ea9565b949350505050565b6001600160a01b0382166120ec576040517f5b08ba180000000000000000000000000000000000000000000000000000000081526001600160a01b03831660048201526024016109ed565b6001600160a01b0383811660008181526005602090815260408083209487168084529482529182902080547fffffffffffffffffffffffffffffffffffffffffffffffffffffffffffffff001686151590811790915591519182527f17307eab39ab6107e8899845ad3d59bd9653f200f220920489ca2b5937696c31910160405180910390a3505050565b6001600160a01b0383163b15610ab7576040517f150b7a020000000000000000000000000000000000000000000000000000000081526001600160a01b0384169063150b7a02906121d29033908890879087906004016130b1565b6020604051808303816000875af192505050801561222b575060408051601f3d9081017fffffffffffffffffffffffffffffffffffffffffffffffffffffffffffffffe0168201909252612228918101906130ed565b60015b6122ad573d808015612259576040519150601f19603f3d011682016040523d82523d6000602084013e61225e565b606091505b5080516000036122a5576040517f64a0ae920000000000000000000000000000000000000000000000000000000081526001600160a01b03851660048201526024016109ed565b805181602001fd5b7fffffffff0000000000000000000000000000000000000000000000000000000081167f150b7a020000000000000000000000000000000000000000000000000000000014612333576040517f64a0ae920000000000000000000000000000000000000000000000000000000081526001600160a01b03851660048201526024016109ed565b5050505050565b6060600061234783612884565b600101905060008167ffffffffffffffff81111561236757612367612b72565b6040519080825280601f01601f191660200182016040528015612391576020820181803683370190505b5090508181016020015b7fffffffffffffffffffffffffffffffffffffffffffffffffffffffffffffffff017f3031323334353637383961626364656600000000000000000000000000000000600a86061a8153600a850494508461239b57509392505050565b336001600160a01b0382160361246a576040517f08c379a000000000000000000000000000000000000000000000000000000000815260206004820152601760248201527f43616e6e6f74207472616e7366657220746f2073656c6600000000000000000060448201526064016109ed565b600780547fffffffffffffffffffffffff0000000000000000000000000000000000000000166001600160a01b03838116918217909255600654604051919216907fed8889f560326eb138920d842192f0eb3dd22b4f139c87a2c57538e05bae127890600090a350565b80806124e857506001600160a01b03821615155b156125e25760006124f8846119b0565b90506001600160a01b038316158015906125245750826001600160a01b0316816001600160a01b031614155b801561255657506001600160a01b0380821660009081526005602090815260408083209387168352929052205460ff16155b15612598576040517fa9fbf51f0000000000000000000000000000000000000000000000000000000081526001600160a01b03841660048201526024016109ed565b81156125e05783856001600160a01b0316826001600160a01b03167f8c5be1e5ebec7d5bd14f71427d1e84f3dd0314c0f7b2291e5b200ac8c7c3b92560405160405180910390a45b505b5050600090815260046020526040902080547fffffffffffffffffffffffff0000000000000000000000000000000000000000166001600160a01b0392909216919091179055565b60008080612639606485613010565b905060005b868160ff1610156127325787516040517f40c10f190000000000000000000000000000000000000000000000000000000081526001600160a01b039182166004820152600160248201527f0000000000000000000000000000000000000000000000000000000000000000909116906340c10f1990604401600060405180830381600087803b1580156126d057600080fd5b505af11580156126e4573d6000803e3d6000fd5b5050505083806126f390612f0e565b945050858211612713576001925061270e8860200151611dee565b612732565b8161271d8161304b565b9250508061272a8161310a565b91505061263e565b508651602080890151604080516001600160a01b0390941684529183015281018790526060810184905282151560808201527f351843ffd250084c50a4c6bd8a2bb10d719c7b74c7064a7a7a21f83c5d6343e49060a00160405180910390a150505050505050565b6127a5838383612966565b61095a576001600160a01b0383166127ec576040517f7e273289000000000000000000000000000000000000000000000000000000008152600481018290526024016109ed565b6040517f177e802f0000000000000000000000000000000000000000000000000000000081526001600160a01b0383166004820152602481018290526044016109ed565b600061283f6000836000611c28565b90506001600160a01b038116610845576040517f7e273289000000000000000000000000000000000000000000000000000000008152600481018390526024016109ed565b6000807a184f03e93ff9f4daa797ed6e38ed64bf6a1f01000000000000000083106128cd577a184f03e93ff9f4daa797ed6e38ed64bf6a1f010000000000000000830492506040015b6d04ee2d6d415b85acef810000000083106128f9576d04ee2d6d415b85acef8100000000830492506020015b662386f26fc10000831061291757662386f26fc10000830492506010015b6305f5e100831061292f576305f5e100830492506008015b612710831061294357612710830492506004015b60648310612955576064830492506002015b600a83106107795760010192915050565b60006001600160a01b038316158015906120995750826001600160a01b0316846001600160a01b031614806129c057506001600160a01b0380851660009081526005602090815260408083209387168352929052205460ff165b806120995750506000908152600460205260409020546001600160a01b03908116911614919050565b604051806060016040528060008152602001600015158152602001612a2a604051806040016040528060006001600160a01b03168152602001600081525090565b905290565b7fffffffff00000000000000000000000000000000000000000000000000000000811681146119ad57600080fd5b600060208284031215612a6f57600080fd5b81356118ca81612a2f565b60005b83811015612a95578181015183820152602001612a7d565b50506000910152565b60008151808452612ab6816020860160208601612a7a565b601f017fffffffffffffffffffffffffffffffffffffffffffffffffffffffffffffffe0169290920160200192915050565b6020815260006118ca6020830184612a9e565b600060208284031215612b0d57600080fd5b5035919050565b6001600160a01b03811681146119ad57600080fd5b60008060408385031215612b3c57600080fd5b8235612b4781612b14565b946020939093013593505050565b600060208284031215612b6757600080fd5b81356118ca81612b14565b7f4e487b7100000000000000000000000000000000000000000000000000000000600052604160045260246000fd5b604051601f82017fffffffffffffffffffffffffffffffffffffffffffffffffffffffffffffffe016810167ffffffffffffffff81118282101715612be857612be8612b72565b604052919050565b60008060408385031215612c0357600080fd5b8235915060208084013567ffffffffffffffff80821115612c2357600080fd5b818601915086601f830112612c3757600080fd5b813581811115612c4957612c49612b72565b8060051b9150612c5a848301612ba1565b8181529183018401918481019089841115612c7457600080fd5b938501935b83851015612c9257843582529385019390850190612c79565b8096505050505050509250929050565b600080600060608486031215612cb757600080fd5b8335612cc281612b14565b92506020840135612cd281612b14565b929592945050506040919091013590565b80151581146119ad57600080fd5b60008060408385031215612d0457600080fd5b8235612d0f81612b14565b91506020830135612d1f81612ce3565b809150509250929050565b60008060008060808587031215612d4057600080fd5b8435612d4b81612b14565b9350602085810135612d5c81612b14565b935060408601359250606086013567ffffffffffffffff80821115612d8057600080fd5b818801915088601f830112612d9457600080fd5b813581811115612da657612da6612b72565b612dd6847fffffffffffffffffffffffffffffffffffffffffffffffffffffffffffffffe0601f84011601612ba1565b91508082528984828501011115612dec57600080fd5b808484018584013760008482840101525080935050505092959194509250565b60008060408385031215612e1f57600080fd5b8235612e2a81612b14565b91506020830135612d1f81612b14565b60008060408385031215612e4d57600080fd5b50508035926020909101359150565b600181811c90821680612e7057607f821691505b6020821081036116db577f4e487b7100000000000000000000000000000000000000000000000000000000600052602260045260246000fd5b600060208284031215612ebb57600080fd5b5051919050565b600060208284031215612ed457600080fd5b81516118ca81612ce3565b7f4e487b7100000000000000000000000000000000000000000000000000000000600052601160045260246000fd5b60007fffffffffffffffffffffffffffffffffffffffffffffffffffffffffffffffff8203612f3f57612f3f612edf565b5060010190565b8181038181111561077957610779612edf565b7f4e487b7100000000000000000000000000000000000000000000000000000000600052603260045260246000fd5b7f4e487b7100000000000000000000000000000000000000000000000000000000600052603160045260246000fd5b8082018082111561077957610779612edf565b808202811582820484141761077957610779612edf565b60008351612ff3818460208801612a7a565b835190830190613007818360208801612a7a565b01949350505050565b600082613046577f4e487b7100000000000000000000000000000000000000000000000000000000600052601260045260246000fd5b500690565b60008161305a5761305a612edf565b507fffffffffffffffffffffffffffffffffffffffffffffffffffffffffffffffff0190565b6001600160a01b03841681528260208201526060604082015260006130a86060830184612a9e565b95945050505050565b60006001600160a01b038087168352808616602084015250836040830152608060608301526130e36080830184612a9e565b9695505050505050565b6000602082840312156130ff57600080fd5b81516118ca81612a2f565b600060ff821660ff810361312057613120612edf565b6001019291505056fea26469706673582212203c38edab0e1259bb79bc353aacf895179e2f6019060d5a14ab97549ce2e2bb2d64736f6c63430008140033","linkReferences":{}},"methodIdentifiers":{"MAX_EGGS_FERTILIZED()":"3c6ab61d","OVIPOSITION_DEADLINE()":"b0797c55","PREOVIPOSITION_PERIOD()":"538795d5","acceptOwnership()":"79ba5097","approve(address,uint256)":"095ea7b3","balanceOf(address)":"70a08231","buyEggs(uint256)":"4fd53596","createAnt()":"2e61a7bf","getAntPrice()":"248452bd","getAntsCreated()":"3d871229","getApproved(uint256)":"081812fc","getEggPrice()":"514b1570","getOvipositionPeriod(uint256)":"e5f9598c","getOvipositionRequest(uint256)":"86f47873","isApprovedForAll(address,address)":"e985e9c5","name()":"06fdde03","owner()":"8da5cb5b","ownerOf(uint256)":"6352211e","rawFulfillRandomWords(uint256,uint256[])":"1fe543e3","safeTransferFrom(address,address,uint256)":"42842e0e","safeTransferFrom(address,address,uint256,bytes)":"b88d4fde","sellAnt(uint256)":"61dcb054","setApprovalForAll(address,bool)":"a22cb465","startOviposition(uint256)":"73edb143","supportsInterface(bytes4)":"01ffc9a7","symbol()":"95d89b41","tokenURI(uint256)":"c87b56dd","transferFrom(address,address,uint256)":"23b872dd","transferOwnership(address)":"f2fde38b","updatePrices(uint256,uint256)":"ef88d7f0","withdrawEther(address,uint256)":"522f6815","withdrawEtherBalance(address)":"0dd4c758","withdrawLink(address,uint256)":"54b7faae","withdrawLinkBalance(address)":"273f0f27"},"id":109}