{"abi":[{"type":"constructor","inputs":[{"name":"_eggs","type":"address","internalType":"address"}],"stateMutability":"nonpayable"},{"type":"function","name":"approve","inputs":[{"name":"to","type":"address","internalType":"address"},{"name":"tokenId","type":"uint256","internalType":"uint256"}],"outputs":[],"stateMutability":"nonpayable"},{"type":"function","name":"balanceOf","inputs":[{"name":"owner","type":"address","internalType":"address"}],"outputs":[{"name":"","type":"uint256","internalType":"uint256"}],"stateMutability":"view"},{"type":"function","name":"buyEggs","inputs":[{"name":"_amount","type":"uint256","internalType":"uint256"}],"outputs":[],"stateMutability":"payable"},{"type":"function","name":"createAnt","inputs":[],"outputs":[],"stateMutability":"nonpayable"},{"type":"function","name":"eggs","inputs":[],"outputs":[{"name":"","type":"address","internalType":"contract IEgg"}],"stateMutability":"view"},{"type":"function","name":"getAntsCreated","inputs":[],"outputs":[{"name":"","type":"uint256","internalType":"uint256"}],"stateMutability":"view"},{"type":"function","name":"getApproved","inputs":[{"name":"tokenId","type":"uint256","internalType":"uint256"}],"outputs":[{"name":"","type":"address","internalType":"address"}],"stateMutability":"view"},{"type":"function","name":"getContractBalance","inputs":[],"outputs":[{"name":"","type":"uint256","internalType":"uint256"}],"stateMutability":"view"},{"type":"function","name":"isApprovedForAll","inputs":[{"name":"owner","type":"address","internalType":"address"},{"name":"operator","type":"address","internalType":"address"}],"outputs":[{"name":"","type":"bool","internalType":"bool"}],"stateMutability":"view"},{"type":"function","name":"name","inputs":[],"outputs":[{"name":"","type":"string","internalType":"string"}],"stateMutability":"view"},{"type":"function","name":"ownerOf","inputs":[{"name":"tokenId","type":"uint256","internalType":"uint256"}],"outputs":[{"name":"","type":"address","internalType":"address"}],"stateMutability":"view"},{"type":"function","name":"s_antsCreated","inputs":[],"outputs":[{"name":"","type":"uint256","internalType":"uint256"}],"stateMutability":"view"},{"type":"function","name":"s_eggPrice","inputs":[],"outputs":[{"name":"","type":"uint256","internalType":"uint256"}],"stateMutability":"view"},{"type":"function","name":"safeTransferFrom","inputs":[{"name":"from","type":"address","internalType":"address"},{"name":"to","type":"address","internalType":"address"},{"name":"tokenId","type":"uint256","internalType":"uint256"}],"outputs":[],"stateMutability":"nonpayable"},{"type":"function","name":"safeTransferFrom","inputs":[{"name":"from","type":"address","internalType":"address"},{"name":"to","type":"address","internalType":"address"},{"name":"tokenId","type":"uint256","internalType":"uint256"},{"name":"data","type":"bytes","internalType":"bytes"}],"outputs":[],"stateMutability":"nonpayable"},{"type":"function","name":"sellAnt","inputs":[{"name":"_antId","type":"uint256","internalType":"uint256"}],"outputs":[],"stateMutability":"nonpayable"},{"type":"function","name":"setApprovalForAll","inputs":[{"name":"operator","type":"address","internalType":"address"},{"name":"approved","type":"bool","internalType":"bool"}],"outputs":[],"stateMutability":"nonpayable"},{"type":"function","name":"supportsInterface","inputs":[{"name":"interfaceId","type":"bytes4","internalType":"bytes4"}],"outputs":[{"name":"","type":"bool","internalType":"bool"}],"stateMutability":"view"},{"type":"function","name":"symbol","inputs":[],"outputs":[{"name":"","type":"string","internalType":"string"}],"stateMutability":"view"},{"type":"function","name":"tokenURI","inputs":[{"name":"tokenId","type":"uint256","internalType":"uint256"}],"outputs":[{"name":"","type":"string","internalType":"string"}],"stateMutability":"view"},{"type":"function","name":"transferFrom","inputs":[{"name":"from","type":"address","internalType":"address"},{"name":"to","type":"address","internalType":"address"},{"name":"tokenId","type":"uint256","internalType":"uint256"}],"outputs":[],"stateMutability":"nonpayable"},{"type":"event","name":"AntCreated","inputs":[],"anonymous":false},{"type":"event","name":"AntSold","inputs":[],"anonymous":false},{"type":"event","name":"Approval","inputs":[{"name":"owner","type":"address","indexed":true,"internalType":"address"},{"name":"approved","type":"address","indexed":true,"internalType":"address"},{"name":"tokenId","type":"uint256","indexed":true,"internalType":"uint256"}],"anonymous":false},{"type":"event","name":"ApprovalForAll","inputs":[{"name":"owner","type":"address","indexed":true,"internalType":"address"},{"name":"operator","type":"address","indexed":true,"internalType":"address"},{"name":"approved","type":"bool","indexed":false,"internalType":"bool"}],"anonymous":false},{"type":"event","name":"EggsBought","inputs":[{"name":"","type":"address","indexed":false,"internalType":"address"},{"name":"","type":"uint256","indexed":false,"internalType":"uint256"}],"anonymous":false},{"type":"event","name":"Transfer","inputs":[{"name":"from","type":"address","indexed":true,"internalType":"address"},{"name":"to","type":"address","indexed":true,"internalType":"address"},{"name":"tokenId","type":"uint256","indexed":true,"internalType":"uint256"}],"anonymous":false},{"type":"error","name":"AlreadyExists","inputs":[]},{"type":"error","name":"NoEggs","inputs":[]},{"type":"error","name":"NoZeroAddress","inputs":[]},{"type":"error","name":"WrongEtherSent","inputs":[]},{"type":"error","name":"ZeroAmount","inputs":[]}],"bytecode":{"object":"0x60a0604052662386f26fc1000060065560006007553480156200002157600080fd5b50604051620022d8380380620022d88339810160408190526200004491620000ba565b6040518060400160405280600b81526020016a43727970746f20416e747360a81b81525060405180604001604052806004815260200163414e545360e01b815250816000908162000096919062000191565b506001620000a5828262000191565b5050506001600160a01b03166080526200025d565b600060208284031215620000cd57600080fd5b81516001600160a01b0381168114620000e557600080fd5b9392505050565b634e487b7160e01b600052604160045260246000fd5b600181811c908216806200011757607f821691505b6020821081036200013857634e487b7160e01b600052602260045260246000fd5b50919050565b601f8211156200018c57600081815260208120601f850160051c81016020861015620001675750805b601f850160051c820191505b81811015620001885782815560010162000173565b5050505b505050565b81516001600160401b03811115620001ad57620001ad620000ec565b620001c581620001be845462000102565b846200013e565b602080601f831160018114620001fd5760008415620001e45750858301515b600019600386901b1c1916600185901b17855562000188565b600085815260208120601f198616915b828110156200022e578886015182559484019460019091019084016200020d565b50858210156200024d5787850151600019600388901b60f8161c191681555b5050505050600190811b01905550565b60805161204a6200028e600039600081816103de01528181610841015281816109a30152610b1a015261204a6000f3fe60806040526004361061016a5760003560e01c806361dcb054116100cb578063a22cb4651161007f578063cf65167511610059578063cf651675146103b6578063e33f76cf146103cc578063e985e9c51461040057600080fd5b8063a22cb46514610356578063b88d4fde14610376578063c87b56dd1461039657600080fd5b80636f9fb98a116100b05780636f9fb98a1461030e57806370a082311461032157806395d89b411461034157600080fd5b806361dcb054146102ce5780636352211e146102ee57600080fd5b80632e61a7bf116101225780633d871229116101075780633d8712291461028657806342842e0e1461029b5780634fd53596146102bb57600080fd5b80632e61a7bf1461024d57806335c29ab51461026257600080fd5b8063081812fc11610153578063081812fc146101c6578063095ea7b31461020b57806323b872dd1461022d57600080fd5b806301ffc9a71461016f57806306fdde03146101a4575b600080fd5b34801561017b57600080fd5b5061018f61018a366004611b9c565b610456565b60405190151581526020015b60405180910390f35b3480156101b057600080fd5b506101b961053b565b60405161019b9190611c27565b3480156101d257600080fd5b506101e66101e1366004611c3a565b6105cd565b60405173ffffffffffffffffffffffffffffffffffffffff909116815260200161019b565b34801561021757600080fd5b5061022b610226366004611c7c565b610601565b005b34801561023957600080fd5b5061022b610248366004611ca6565b610789565b34801561025957600080fd5b5061022b610810565b34801561026e57600080fd5b5061027860075481565b60405190815260200161019b565b34801561029257600080fd5b50600754610278565b3480156102a757600080fd5b5061022b6102b6366004611ca6565b610a4a565b61022b6102c9366004611c3a565b610a65565b3480156102da57600080fd5b5061022b6102e9366004611c3a565b610bc8565b3480156102fa57600080fd5b506101e6610309366004611c3a565b610ce7565b34801561031a57600080fd5b5047610278565b34801561032d57600080fd5b5061027861033c366004611ce2565b610d59565b34801561034d57600080fd5b506101b9610e0d565b34801561036257600080fd5b5061022b610371366004611cfd565b610e1c565b34801561038257600080fd5b5061022b610391366004611d68565b610e27565b3480156103a257600080fd5b506101b96103b1366004611c3a565b610eb5565b3480156103c257600080fd5b5061027860065481565b3480156103d857600080fd5b506101e67f000000000000000000000000000000000000000000000000000000000000000081565b34801561040c57600080fd5b5061018f61041b366004611e62565b73ffffffffffffffffffffffffffffffffffffffff918216600090815260056020908152604080832093909416825291909152205460ff1690565b60007fffffffff0000000000000000000000000000000000000000000000000000000082167f80ac58cd0000000000000000000000000000000000000000000000000000000014806104e957507fffffffff0000000000000000000000000000000000000000000000000000000082167f5b5e139f00000000000000000000000000000000000000000000000000000000145b8061053557507f01ffc9a7000000000000000000000000000000000000000000000000000000007fffffffff000000000000000000000000000000000000000000000000000000008316145b92915050565b60606000805461054a90611e95565b80601f016020809104026020016040519081016040528092919081815260200182805461057690611e95565b80156105c35780601f10610598576101008083540402835291602001916105c3565b820191906000526020600020905b8154815290600101906020018083116105a657829003601f168201915b5050505050905090565b60006105d882610f29565b5060009081526004602052604090205473ffffffffffffffffffffffffffffffffffffffff1690565b600061060c82610ce7565b90508073ffffffffffffffffffffffffffffffffffffffff168373ffffffffffffffffffffffffffffffffffffffff16036106b45760405162461bcd60e51b815260206004820152602160248201527f4552433732313a20617070726f76616c20746f2063757272656e74206f776e6560448201527f720000000000000000000000000000000000000000000000000000000000000060648201526084015b60405180910390fd5b3373ffffffffffffffffffffffffffffffffffffffff82161480610708575073ffffffffffffffffffffffffffffffffffffffff8116600090815260056020908152604080832033845290915290205460ff165b61077a5760405162461bcd60e51b815260206004820152603d60248201527f4552433732313a20617070726f76652063616c6c6572206973206e6f7420746f60448201527f6b656e206f776e6572206f7220617070726f76656420666f7220616c6c00000060648201526084016106ab565b6107848383610f9d565b505050565b610793338261103d565b6108055760405162461bcd60e51b815260206004820152602d60248201527f4552433732313a2063616c6c6572206973206e6f7420746f6b656e206f776e6560448201527f72206f7220617070726f7665640000000000000000000000000000000000000060648201526084016106ab565b6107848383836110fd565b6040517f70a082310000000000000000000000000000000000000000000000000000000081523360048201526001907f000000000000000000000000000000000000000000000000000000000000000073ffffffffffffffffffffffffffffffffffffffff16906370a0823190602401602060405180830381865afa15801561089d573d6000803e3d6000fd5b505050506040513d601f19601f820116820180604052508101906108c19190611ee8565b10156108f9576040517f6c308a2f00000000000000000000000000000000000000000000000000000000815260040160405180910390fd5b600060076000815461090a90611f30565b918290555060008181526002602052604090205490915073ffffffffffffffffffffffffffffffffffffffff161561096e576040517f23369fa600000000000000000000000000000000000000000000000000000000815260040160405180910390fd5b6040517f9dc29fac000000000000000000000000000000000000000000000000000000008152336004820152600160248201527f000000000000000000000000000000000000000000000000000000000000000073ffffffffffffffffffffffffffffffffffffffff1690639dc29fac90604401600060405180830381600087803b1580156109fc57600080fd5b505af1158015610a10573d6000803e3d6000fd5b50505050610a1e33826113aa565b6040517fa38da27c8afea1e833812265c5f9c3f1def6eaf2e7d9b42c1b4d9d8ea69b0b7590600090a150565b61078483838360405180602001604052806000815250610e27565b80600003610a9f576040517f1f2a200500000000000000000000000000000000000000000000000000000000815260040160405180910390fd5b3460065482610aae9190611f68565b14610ae5576040517f2f1e736300000000000000000000000000000000000000000000000000000000815260040160405180910390fd5b6040517f40c10f19000000000000000000000000000000000000000000000000000000008152336004820152602481018290527f000000000000000000000000000000000000000000000000000000000000000073ffffffffffffffffffffffffffffffffffffffff16906340c10f1990604401600060405180830381600087803b158015610b7357600080fd5b505af1158015610b87573d6000803e3d6000fd5b505060408051338152602081018590527fecedcda9002dd5028204a70dddaa2155459b6dff3c3e20543450a189e736dc49935001905060405180910390a150565b60008181526002602052604090205473ffffffffffffffffffffffffffffffffffffffff163314610c3b5760405162461bcd60e51b815260206004820152600c60248201527f556e617574686f72697a6564000000000000000000000000000000000000000060448201526064016106ab565b6040516000903390660e35fa931a0000908381818185875af1925050503d8060008114610c84576040519150601f19603f3d011682016040523d82523d6000602084013e610c89565b606091505b5050905080610cda5760405162461bcd60e51b815260206004820152601960248201527f57686f6f70732c20746869732063616c6c206661696c6564210000000000000060448201526064016106ab565b610ce382611581565b5050565b60008181526002602052604081205473ffffffffffffffffffffffffffffffffffffffff16806105355760405162461bcd60e51b815260206004820152601860248201527f4552433732313a20696e76616c696420746f6b656e204944000000000000000060448201526064016106ab565b600073ffffffffffffffffffffffffffffffffffffffff8216610de45760405162461bcd60e51b815260206004820152602960248201527f4552433732313a2061646472657373207a65726f206973206e6f74206120766160448201527f6c6964206f776e6572000000000000000000000000000000000000000000000060648201526084016106ab565b5073ffffffffffffffffffffffffffffffffffffffff1660009081526003602052604090205490565b60606001805461054a90611e95565b610ce3338383611659565b610e31338361103d565b610ea35760405162461bcd60e51b815260206004820152602d60248201527f4552433732313a2063616c6c6572206973206e6f7420746f6b656e206f776e6560448201527f72206f7220617070726f7665640000000000000000000000000000000000000060648201526084016106ab565b610eaf8484848461176c565b50505050565b6060610ec082610f29565b6000610ed760408051602081019091526000815290565b90506000815111610ef75760405180602001604052806000815250610f22565b80610f01846117f5565b604051602001610f12929190611f7f565b6040516020818303038152906040525b9392505050565b60008181526002602052604090205473ffffffffffffffffffffffffffffffffffffffff16610f9a5760405162461bcd60e51b815260206004820152601860248201527f4552433732313a20696e76616c696420746f6b656e204944000000000000000060448201526064016106ab565b50565b600081815260046020526040902080547fffffffffffffffffffffffff00000000000000000000000000000000000000001673ffffffffffffffffffffffffffffffffffffffff84169081179091558190610ff782610ce7565b73ffffffffffffffffffffffffffffffffffffffff167f8c5be1e5ebec7d5bd14f71427d1e84f3dd0314c0f7b2291e5b200ac8c7c3b92560405160405180910390a45050565b60008061104983610ce7565b90508073ffffffffffffffffffffffffffffffffffffffff168473ffffffffffffffffffffffffffffffffffffffff1614806110b7575073ffffffffffffffffffffffffffffffffffffffff80821660009081526005602090815260408083209388168352929052205460ff165b806110f557508373ffffffffffffffffffffffffffffffffffffffff166110dd846105cd565b73ffffffffffffffffffffffffffffffffffffffff16145b949350505050565b8273ffffffffffffffffffffffffffffffffffffffff1661111d82610ce7565b73ffffffffffffffffffffffffffffffffffffffff16146111a65760405162461bcd60e51b815260206004820152602560248201527f4552433732313a207472616e736665722066726f6d20696e636f72726563742060448201527f6f776e657200000000000000000000000000000000000000000000000000000060648201526084016106ab565b73ffffffffffffffffffffffffffffffffffffffff821661122e5760405162461bcd60e51b8152602060048201526024808201527f4552433732313a207472616e7366657220746f20746865207a65726f2061646460448201527f726573730000000000000000000000000000000000000000000000000000000060648201526084016106ab565b8273ffffffffffffffffffffffffffffffffffffffff1661124e82610ce7565b73ffffffffffffffffffffffffffffffffffffffff16146112d75760405162461bcd60e51b815260206004820152602560248201527f4552433732313a207472616e736665722066726f6d20696e636f72726563742060448201527f6f776e657200000000000000000000000000000000000000000000000000000060648201526084016106ab565b600081815260046020908152604080832080547fffffffffffffffffffffffff000000000000000000000000000000000000000090811690915573ffffffffffffffffffffffffffffffffffffffff8781168086526003855283862080547fffffffffffffffffffffffffffffffffffffffffffffffffffffffffffffffff01905590871680865283862080546001019055868652600290945282852080549092168417909155905184937fddf252ad1be2c89b69c2b068fc378daa952ba7f163c4a11628f55a4df523b3ef91a4505050565b73ffffffffffffffffffffffffffffffffffffffff821661140d5760405162461bcd60e51b815260206004820181905260248201527f4552433732313a206d696e7420746f20746865207a65726f206164647265737360448201526064016106ab565b60008181526002602052604090205473ffffffffffffffffffffffffffffffffffffffff161561147f5760405162461bcd60e51b815260206004820152601c60248201527f4552433732313a20746f6b656e20616c7265616479206d696e7465640000000060448201526064016106ab565b60008181526002602052604090205473ffffffffffffffffffffffffffffffffffffffff16156114f15760405162461bcd60e51b815260206004820152601c60248201527f4552433732313a20746f6b656e20616c7265616479206d696e7465640000000060448201526064016106ab565b73ffffffffffffffffffffffffffffffffffffffff8216600081815260036020908152604080832080546001019055848352600290915280822080547fffffffffffffffffffffffff0000000000000000000000000000000000000000168417905551839291907fddf252ad1be2c89b69c2b068fc378daa952ba7f163c4a11628f55a4df523b3ef908290a45050565b600061158c82610ce7565b905061159782610ce7565b600083815260046020908152604080832080547fffffffffffffffffffffffff000000000000000000000000000000000000000090811690915573ffffffffffffffffffffffffffffffffffffffff85168085526003845282852080547fffffffffffffffffffffffffffffffffffffffffffffffffffffffffffffffff0190558785526002909352818420805490911690555192935084927fddf252ad1be2c89b69c2b068fc378daa952ba7f163c4a11628f55a4df523b3ef908390a45050565b8173ffffffffffffffffffffffffffffffffffffffff168373ffffffffffffffffffffffffffffffffffffffff16036116d45760405162461bcd60e51b815260206004820152601960248201527f4552433732313a20617070726f766520746f2063616c6c65720000000000000060448201526064016106ab565b73ffffffffffffffffffffffffffffffffffffffff83811660008181526005602090815260408083209487168084529482529182902080547fffffffffffffffffffffffffffffffffffffffffffffffffffffffffffffff001686151590811790915591519182527f17307eab39ab6107e8899845ad3d59bd9653f200f220920489ca2b5937696c31910160405180910390a3505050565b6117778484846110fd565b611783848484846118b3565b610eaf5760405162461bcd60e51b815260206004820152603260248201527f4552433732313a207472616e7366657220746f206e6f6e20455243373231526560448201527f63656976657220696d706c656d656e746572000000000000000000000000000060648201526084016106ab565b6060600061180283611a8c565b600101905060008167ffffffffffffffff81111561182257611822611d39565b6040519080825280601f01601f19166020018201604052801561184c576020820181803683370190505b5090508181016020015b7fffffffffffffffffffffffffffffffffffffffffffffffffffffffffffffffff017f3031323334353637383961626364656600000000000000000000000000000000600a86061a8153600a850494508461185657509392505050565b600073ffffffffffffffffffffffffffffffffffffffff84163b15611a81576040517f150b7a0200000000000000000000000000000000000000000000000000000000815273ffffffffffffffffffffffffffffffffffffffff85169063150b7a029061192a903390899088908890600401611fae565b6020604051808303816000875af1925050508015611983575060408051601f3d9081017fffffffffffffffffffffffffffffffffffffffffffffffffffffffffffffffe016820190925261198091810190611ff7565b60015b611a36573d8080156119b1576040519150601f19603f3d011682016040523d82523d6000602084013e6119b6565b606091505b508051600003611a2e5760405162461bcd60e51b815260206004820152603260248201527f4552433732313a207472616e7366657220746f206e6f6e20455243373231526560448201527f63656976657220696d706c656d656e746572000000000000000000000000000060648201526084016106ab565b805181602001fd5b7fffffffff00000000000000000000000000000000000000000000000000000000167f150b7a02000000000000000000000000000000000000000000000000000000001490506110f5565b506001949350505050565b6000807a184f03e93ff9f4daa797ed6e38ed64bf6a1f0100000000000000008310611ad5577a184f03e93ff9f4daa797ed6e38ed64bf6a1f010000000000000000830492506040015b6d04ee2d6d415b85acef81000000008310611b01576d04ee2d6d415b85acef8100000000830492506020015b662386f26fc100008310611b1f57662386f26fc10000830492506010015b6305f5e1008310611b37576305f5e100830492506008015b6127108310611b4b57612710830492506004015b60648310611b5d576064830492506002015b600a83106105355760010192915050565b7fffffffff0000000000000000000000000000000000000000000000000000000081168114610f9a57600080fd5b600060208284031215611bae57600080fd5b8135610f2281611b6e565b60005b83811015611bd4578181015183820152602001611bbc565b50506000910152565b60008151808452611bf5816020860160208601611bb9565b601f017fffffffffffffffffffffffffffffffffffffffffffffffffffffffffffffffe0169290920160200192915050565b602081526000610f226020830184611bdd565b600060208284031215611c4c57600080fd5b5035919050565b803573ffffffffffffffffffffffffffffffffffffffff81168114611c7757600080fd5b919050565b60008060408385031215611c8f57600080fd5b611c9883611c53565b946020939093013593505050565b600080600060608486031215611cbb57600080fd5b611cc484611c53565b9250611cd260208501611c53565b9150604084013590509250925092565b600060208284031215611cf457600080fd5b610f2282611c53565b60008060408385031215611d1057600080fd5b611d1983611c53565b915060208301358015158114611d2e57600080fd5b809150509250929050565b7f4e487b7100000000000000000000000000000000000000000000000000000000600052604160045260246000fd5b60008060008060808587031215611d7e57600080fd5b611d8785611c53565b9350611d9560208601611c53565b925060408501359150606085013567ffffffffffffffff80821115611db957600080fd5b818701915087601f830112611dcd57600080fd5b813581811115611ddf57611ddf611d39565b604051601f82017fffffffffffffffffffffffffffffffffffffffffffffffffffffffffffffffe0908116603f01168101908382118183101715611e2557611e25611d39565b816040528281528a6020848701011115611e3e57600080fd5b82602086016020830137600060208483010152809550505050505092959194509250565b60008060408385031215611e7557600080fd5b611e7e83611c53565b9150611e8c60208401611c53565b90509250929050565b600181811c90821680611ea957607f821691505b602082108103611ee2577f4e487b7100000000000000000000000000000000000000000000000000000000600052602260045260246000fd5b50919050565b600060208284031215611efa57600080fd5b5051919050565b7f4e487b7100000000000000000000000000000000000000000000000000000000600052601160045260246000fd5b60007fffffffffffffffffffffffffffffffffffffffffffffffffffffffffffffffff8203611f6157611f61611f01565b5060010190565b808202811582820484141761053557610535611f01565b60008351611f91818460208801611bb9565b835190830190611fa5818360208801611bb9565b01949350505050565b600073ffffffffffffffffffffffffffffffffffffffff808716835280861660208401525083604083015260806060830152611fed6080830184611bdd565b9695505050505050565b60006020828403121561200957600080fd5b8151610f2281611b6e56fea2646970667358221220e7d7317cbfbfc85e1e9804dae4adb75e7efa859d8abd70b30a6ccf156e5e116d64736f6c63430008130033","linkReferences":{}},"methodIdentifiers":{"approve(address,uint256)":"095ea7b3","balanceOf(address)":"70a08231","buyEggs(uint256)":"4fd53596","createAnt()":"2e61a7bf","eggs()":"e33f76cf","getAntsCreated()":"3d871229","getApproved(uint256)":"081812fc","getContractBalance()":"6f9fb98a","isApprovedForAll(address,address)":"e985e9c5","name()":"06fdde03","ownerOf(uint256)":"6352211e","s_antsCreated()":"35c29ab5","s_eggPrice()":"cf651675","safeTransferFrom(address,address,uint256)":"42842e0e","safeTransferFrom(address,address,uint256,bytes)":"b88d4fde","sellAnt(uint256)":"61dcb054","setApprovalForAll(address,bool)":"a22cb465","supportsInterface(bytes4)":"01ffc9a7","symbol()":"95d89b41","tokenURI(uint256)":"c87b56dd","transferFrom(address,address,uint256)":"23b872dd"},"id":32}