{"abi":[{"type":"constructor","inputs":[{"name":"_eggs","type":"address","internalType":"address"}],"stateMutability":"nonpayable"},{"type":"function","name":"allAntsIds","inputs":[{"name":"","type":"uint256","internalType":"uint256"}],"outputs":[{"name":"","type":"uint256","internalType":"uint256"}],"stateMutability":"view"},{"type":"function","name":"antToOwner","inputs":[{"name":"","type":"uint256","internalType":"uint256"}],"outputs":[{"name":"","type":"address","internalType":"address"}],"stateMutability":"view"},{"type":"function","name":"antsCreated","inputs":[],"outputs":[{"name":"","type":"uint256","internalType":"uint256"}],"stateMutability":"view"},{"type":"function","name":"approve","inputs":[{"name":"to","type":"address","internalType":"address"},{"name":"tokenId","type":"uint256","internalType":"uint256"}],"outputs":[],"stateMutability":"nonpayable"},{"type":"function","name":"balanceOf","inputs":[{"name":"owner","type":"address","internalType":"address"}],"outputs":[{"name":"","type":"uint256","internalType":"uint256"}],"stateMutability":"view"},{"type":"function","name":"buyEggs","inputs":[{"name":"_amount","type":"uint256","internalType":"uint256"}],"outputs":[],"stateMutability":"payable"},{"type":"function","name":"createAnt","inputs":[],"outputs":[],"stateMutability":"nonpayable"},{"type":"function","name":"eggPrice","inputs":[],"outputs":[{"name":"","type":"uint256","internalType":"uint256"}],"stateMutability":"view"},{"type":"function","name":"eggs","inputs":[],"outputs":[{"name":"","type":"address","internalType":"contract IEgg"}],"stateMutability":"view"},{"type":"function","name":"getAntsCreated","inputs":[],"outputs":[{"name":"","type":"uint256","internalType":"uint256"}],"stateMutability":"view"},{"type":"function","name":"getApproved","inputs":[{"name":"tokenId","type":"uint256","internalType":"uint256"}],"outputs":[{"name":"","type":"address","internalType":"address"}],"stateMutability":"view"},{"type":"function","name":"getContractBalance","inputs":[],"outputs":[{"name":"","type":"uint256","internalType":"uint256"}],"stateMutability":"view"},{"type":"function","name":"isApprovedForAll","inputs":[{"name":"owner","type":"address","internalType":"address"},{"name":"operator","type":"address","internalType":"address"}],"outputs":[{"name":"","type":"bool","internalType":"bool"}],"stateMutability":"view"},{"type":"function","name":"locked","inputs":[],"outputs":[{"name":"","type":"bool","internalType":"bool"}],"stateMutability":"view"},{"type":"function","name":"name","inputs":[],"outputs":[{"name":"","type":"string","internalType":"string"}],"stateMutability":"view"},{"type":"function","name":"notLocked","inputs":[],"outputs":[{"name":"","type":"bool","internalType":"bool"}],"stateMutability":"view"},{"type":"function","name":"ownerOf","inputs":[{"name":"tokenId","type":"uint256","internalType":"uint256"}],"outputs":[{"name":"","type":"address","internalType":"address"}],"stateMutability":"view"},{"type":"function","name":"safeTransferFrom","inputs":[{"name":"from","type":"address","internalType":"address"},{"name":"to","type":"address","internalType":"address"},{"name":"tokenId","type":"uint256","internalType":"uint256"}],"outputs":[],"stateMutability":"nonpayable"},{"type":"function","name":"safeTransferFrom","inputs":[{"name":"from","type":"address","internalType":"address"},{"name":"to","type":"address","internalType":"address"},{"name":"tokenId","type":"uint256","internalType":"uint256"},{"name":"data","type":"bytes","internalType":"bytes"}],"outputs":[],"stateMutability":"nonpayable"},{"type":"function","name":"sellAnt","inputs":[{"name":"_antId","type":"uint256","internalType":"uint256"}],"outputs":[],"stateMutability":"nonpayable"},{"type":"function","name":"setApprovalForAll","inputs":[{"name":"operator","type":"address","internalType":"address"},{"name":"approved","type":"bool","internalType":"bool"}],"outputs":[],"stateMutability":"nonpayable"},{"type":"function","name":"supportsInterface","inputs":[{"name":"interfaceId","type":"bytes4","internalType":"bytes4"}],"outputs":[{"name":"","type":"bool","internalType":"bool"}],"stateMutability":"view"},{"type":"function","name":"symbol","inputs":[],"outputs":[{"name":"","type":"string","internalType":"string"}],"stateMutability":"view"},{"type":"function","name":"tokenURI","inputs":[{"name":"tokenId","type":"uint256","internalType":"uint256"}],"outputs":[{"name":"","type":"string","internalType":"string"}],"stateMutability":"view"},{"type":"function","name":"transferFrom","inputs":[{"name":"from","type":"address","internalType":"address"},{"name":"to","type":"address","internalType":"address"},{"name":"tokenId","type":"uint256","internalType":"uint256"}],"outputs":[],"stateMutability":"nonpayable"},{"type":"event","name":"AntCreated","inputs":[],"anonymous":false},{"type":"event","name":"AntSold","inputs":[],"anonymous":false},{"type":"event","name":"Approval","inputs":[{"name":"owner","type":"address","indexed":true,"internalType":"address"},{"name":"approved","type":"address","indexed":true,"internalType":"address"},{"name":"tokenId","type":"uint256","indexed":true,"internalType":"uint256"}],"anonymous":false},{"type":"event","name":"ApprovalForAll","inputs":[{"name":"owner","type":"address","indexed":true,"internalType":"address"},{"name":"operator","type":"address","indexed":true,"internalType":"address"},{"name":"approved","type":"bool","indexed":false,"internalType":"bool"}],"anonymous":false},{"type":"event","name":"EggsBought","inputs":[{"name":"","type":"address","indexed":false,"internalType":"address"},{"name":"","type":"uint256","indexed":false,"internalType":"uint256"}],"anonymous":false},{"type":"event","name":"Transfer","inputs":[{"name":"from","type":"address","indexed":true,"internalType":"address"},{"name":"to","type":"address","indexed":true,"internalType":"address"},{"name":"tokenId","type":"uint256","indexed":true,"internalType":"uint256"}],"anonymous":false},{"type":"error","name":"AlreadyExists","inputs":[]},{"type":"error","name":"NoEggs","inputs":[]},{"type":"error","name":"NoZeroAddress","inputs":[]},{"type":"error","name":"WrongEtherSent","inputs":[]}],"bytecode":{"object":"0x60a06040526006805460ff19908116909155662386f26fc10000600855600a805490911690556000600b553480156200003757600080fd5b5060405162002465380380620024658339810160408190526200005a91620000d0565b6040518060400160405280600b81526020016a43727970746f20416e747360a81b81525060405180604001604052806004815260200163414e545360e01b8152508160009081620000ac9190620001a7565b506001620000bb8282620001a7565b5050506001600160a01b031660805262000273565b600060208284031215620000e357600080fd5b81516001600160a01b0381168114620000fb57600080fd5b9392505050565b634e487b7160e01b600052604160045260246000fd5b600181811c908216806200012d57607f821691505b6020821081036200014e57634e487b7160e01b600052602260045260246000fd5b50919050565b601f821115620001a257600081815260208120601f850160051c810160208610156200017d5750805b601f850160051c820191505b818110156200019e5782815560010162000189565b5050505b505050565b81516001600160401b03811115620001c357620001c362000102565b620001db81620001d4845462000118565b8462000154565b602080601f831160018114620002135760008415620001fa5750858301515b600019600386901b1c1916600185901b1785556200019e565b600085815260208120601f198616915b82811015620002445788860151825594840194600190910190840162000223565b5085821015620002635787850151600019600388901b60f8161c191681555b5050505050600190811b01905550565b6080516121c86200029d6000396000818161045e015281816108d90152610bc001526121c86000f3fe6080604052600436106101965760003560e01c80636352211e116100e1578063b01109861161008a578063cf30901211610064578063cf30901214610432578063e33f76cf1461044c578063e985e9c514610480578063f770031c146104d657600080fd5b8063b0110986146103d2578063b88d4fde146103f2578063c87b56dd1461041257600080fd5b806395d89b41116100bb57806395d89b4114610387578063a22cb4651461039c578063a993efbc146103bc57600080fd5b80636352211e146103345780636f9fb98a1461035457806370a082311461036757600080fd5b80632e61a7bf1161014357806342842e0e1161011d57806342842e0e146102e15780634fd535961461030157806361dcb0541461031457600080fd5b80632e61a7bf14610293578063305e3552146102a85780633d871229146102cc57600080fd5b8063095ea7b311610174578063095ea7b31461023757806317e356a11461025957806323b872dd1461027357600080fd5b806301ffc9a71461019b57806306fdde03146101d0578063081812fc146101f2575b600080fd5b3480156101a757600080fd5b506101bb6101b6366004611ccf565b610519565b60405190151581526020015b60405180910390f35b3480156101dc57600080fd5b506101e56105fe565b6040516101c79190611d5a565b3480156101fe57600080fd5b5061021261020d366004611d6d565b610690565b60405173ffffffffffffffffffffffffffffffffffffffff90911681526020016101c7565b34801561024357600080fd5b50610257610252366004611daf565b6106c4565b005b34801561026557600080fd5b50600a546101bb9060ff1681565b34801561027f57600080fd5b5061025761028e366004611dd9565b610821565b34801561029f57600080fd5b506102576108a8565b3480156102b457600080fd5b506102be60085481565b6040519081526020016101c7565b3480156102d857600080fd5b50600b546102be565b3480156102ed57600080fd5b506102576102fc366004611dd9565b610aba565b61025761030f366004611d6d565b610ad5565b34801561032057600080fd5b5061025761032f366004611d6d565b610ca6565b34801561034057600080fd5b5061021261034f366004611d6d565b610df9565b34801561036057600080fd5b50476102be565b34801561037357600080fd5b506102be610382366004611e15565b610e6b565b34801561039357600080fd5b506101e5610f1f565b3480156103a857600080fd5b506102576103b7366004611e30565b610f2e565b3480156103c857600080fd5b506102be600b5481565b3480156103de57600080fd5b506102be6103ed366004611d6d565b610f39565b3480156103fe57600080fd5b5061025761040d366004611e9b565b610f5a565b34801561041e57600080fd5b506101e561042d366004611d6d565b610fe8565b34801561043e57600080fd5b506006546101bb9060ff1681565b34801561045857600080fd5b506102127f000000000000000000000000000000000000000000000000000000000000000081565b34801561048c57600080fd5b506101bb61049b366004611f95565b73ffffffffffffffffffffffffffffffffffffffff918216600090815260056020908152604080832093909416825291909152205460ff1690565b3480156104e257600080fd5b506102126104f1366004611d6d565b60076020526000908152604090205473ffffffffffffffffffffffffffffffffffffffff1681565b60007fffffffff0000000000000000000000000000000000000000000000000000000082167f80ac58cd0000000000000000000000000000000000000000000000000000000014806105ac57507fffffffff0000000000000000000000000000000000000000000000000000000082167f5b5e139f00000000000000000000000000000000000000000000000000000000145b806105f857507f01ffc9a7000000000000000000000000000000000000000000000000000000007fffffffff000000000000000000000000000000000000000000000000000000008316145b92915050565b60606000805461060d90611fc8565b80601f016020809104026020016040519081016040528092919081815260200182805461063990611fc8565b80156106865780601f1061065b57610100808354040283529160200191610686565b820191906000526020600020905b81548152906001019060200180831161066957829003601f168201915b5050505050905090565b600061069b8261105c565b5060009081526004602052604090205473ffffffffffffffffffffffffffffffffffffffff1690565b60006106cf82610df9565b90508073ffffffffffffffffffffffffffffffffffffffff168373ffffffffffffffffffffffffffffffffffffffff16036107775760405162461bcd60e51b815260206004820152602160248201527f4552433732313a20617070726f76616c20746f2063757272656e74206f776e6560448201527f720000000000000000000000000000000000000000000000000000000000000060648201526084015b60405180910390fd5b3373ffffffffffffffffffffffffffffffffffffffff821614806107a057506107a0813361049b565b6108125760405162461bcd60e51b815260206004820152603d60248201527f4552433732313a20617070726f76652063616c6c6572206973206e6f7420746f60448201527f6b656e206f776e6572206f7220617070726f76656420666f7220616c6c000000606482015260840161076e565b61081c83836110d0565b505050565b61082b3382611170565b61089d5760405162461bcd60e51b815260206004820152602d60248201527f4552433732313a2063616c6c6572206973206e6f7420746f6b656e206f776e6560448201527f72206f7220617070726f76656400000000000000000000000000000000000000606482015260840161076e565b61081c838383611230565b6040517f70a082310000000000000000000000000000000000000000000000000000000081523360048201526001907f000000000000000000000000000000000000000000000000000000000000000073ffffffffffffffffffffffffffffffffffffffff16906370a0823190602401602060405180830381865afa158015610935573d6000803e3d6000fd5b505050506040513d601f19601f82011682018060405250810190610959919061201b565b1015610991576040517f6c308a2f00000000000000000000000000000000000000000000000000000000815260040160405180910390fd5b6000600b600081546109a290612034565b9182905550905060005b600954811015610a1e5781600982815481106109ca576109ca612093565b906000526020600020015403610a0c576040517f23369fa600000000000000000000000000000000000000000000000000000000815260040160405180910390fd5b80610a1681612034565b9150506109ac565b50610a2933826114dd565b60008181526007602052604080822080547fffffffffffffffffffffffff00000000000000000000000000000000000000001633179055600980546001810182559083527f6e1540171b6c0c960b71a7020d9f60077f6af931a8bbf590da0223dacf75c7af01839055517fa38da27c8afea1e833812265c5f9c3f1def6eaf2e7d9b42c1b4d9d8ea69b0b759190a150565b61081c83838360405180602001604052806000815250610f5a565b60065460ff1615610b4e5760405162461bcd60e51b815260206004820152602e60248201527f536f7272792c20796f7520617265206e6f7420616c6c6f77656420746f20726560448201527f2d656e7465722068657265203a29000000000000000000000000000000000000606482015260840161076e565b600680547fffffffffffffffffffffffffffffffffffffffffffffffffffffffffffffff001660011790556008546000610b8882346120c2565b6040517f40c10f19000000000000000000000000000000000000000000000000000000008152336004820152602481018590529091507f000000000000000000000000000000000000000000000000000000000000000073ffffffffffffffffffffffffffffffffffffffff16906340c10f1990604401600060405180830381600087803b158015610c1957600080fd5b505af1158015610c2d573d6000803e3d6000fd5b505060408051338152602081018590527fecedcda9002dd5028204a70dddaa2155459b6dff3c3e20543450a189e736dc49935001905060405180910390a15050600a54600680547fffffffffffffffffffffffffffffffffffffffffffffffffffffffffffffff001660ff909216151591909117905550565b60008181526007602052604090205473ffffffffffffffffffffffffffffffffffffffff163314610d195760405162461bcd60e51b815260206004820152600c60248201527f556e617574686f72697a65640000000000000000000000000000000000000000604482015260640161076e565b6040516000903390660e35fa931a0000908381818185875af1925050503d8060008114610d62576040519150601f19603f3d011682016040523d82523d6000602084013e610d67565b606091505b5050905080610db85760405162461bcd60e51b815260206004820152601960248201527f57686f6f70732c20746869732063616c6c206661696c65642100000000000000604482015260640161076e565b600082815260076020526040902080547fffffffffffffffffffffffff0000000000000000000000000000000000000000169055610df5826116b4565b5050565b60008181526002602052604081205473ffffffffffffffffffffffffffffffffffffffff16806105f85760405162461bcd60e51b815260206004820152601860248201527f4552433732313a20696e76616c696420746f6b656e2049440000000000000000604482015260640161076e565b600073ffffffffffffffffffffffffffffffffffffffff8216610ef65760405162461bcd60e51b815260206004820152602960248201527f4552433732313a2061646472657373207a65726f206973206e6f74206120766160448201527f6c6964206f776e65720000000000000000000000000000000000000000000000606482015260840161076e565b5073ffffffffffffffffffffffffffffffffffffffff1660009081526003602052604090205490565b60606001805461060d90611fc8565b610df533838361178c565b60098181548110610f4957600080fd5b600091825260209091200154905081565b610f643383611170565b610fd65760405162461bcd60e51b815260206004820152602d60248201527f4552433732313a2063616c6c6572206973206e6f7420746f6b656e206f776e6560448201527f72206f7220617070726f76656400000000000000000000000000000000000000606482015260840161076e565b610fe28484848461189f565b50505050565b6060610ff38261105c565b600061100a60408051602081019091526000815290565b9050600081511161102a5760405180602001604052806000815250611055565b8061103484611928565b6040516020016110459291906120fd565b6040516020818303038152906040525b9392505050565b60008181526002602052604090205473ffffffffffffffffffffffffffffffffffffffff166110cd5760405162461bcd60e51b815260206004820152601860248201527f4552433732313a20696e76616c696420746f6b656e2049440000000000000000604482015260640161076e565b50565b600081815260046020526040902080547fffffffffffffffffffffffff00000000000000000000000000000000000000001673ffffffffffffffffffffffffffffffffffffffff8416908117909155819061112a82610df9565b73ffffffffffffffffffffffffffffffffffffffff167f8c5be1e5ebec7d5bd14f71427d1e84f3dd0314c0f7b2291e5b200ac8c7c3b92560405160405180910390a45050565b60008061117c83610df9565b90508073ffffffffffffffffffffffffffffffffffffffff168473ffffffffffffffffffffffffffffffffffffffff1614806111ea575073ffffffffffffffffffffffffffffffffffffffff80821660009081526005602090815260408083209388168352929052205460ff165b8061122857508373ffffffffffffffffffffffffffffffffffffffff1661121084610690565b73ffffffffffffffffffffffffffffffffffffffff16145b949350505050565b8273ffffffffffffffffffffffffffffffffffffffff1661125082610df9565b73ffffffffffffffffffffffffffffffffffffffff16146112d95760405162461bcd60e51b815260206004820152602560248201527f4552433732313a207472616e736665722066726f6d20696e636f72726563742060448201527f6f776e6572000000000000000000000000000000000000000000000000000000606482015260840161076e565b73ffffffffffffffffffffffffffffffffffffffff82166113615760405162461bcd60e51b8152602060048201526024808201527f4552433732313a207472616e7366657220746f20746865207a65726f2061646460448201527f7265737300000000000000000000000000000000000000000000000000000000606482015260840161076e565b8273ffffffffffffffffffffffffffffffffffffffff1661138182610df9565b73ffffffffffffffffffffffffffffffffffffffff161461140a5760405162461bcd60e51b815260206004820152602560248201527f4552433732313a207472616e736665722066726f6d20696e636f72726563742060448201527f6f776e6572000000000000000000000000000000000000000000000000000000606482015260840161076e565b600081815260046020908152604080832080547fffffffffffffffffffffffff000000000000000000000000000000000000000090811690915573ffffffffffffffffffffffffffffffffffffffff8781168086526003855283862080547fffffffffffffffffffffffffffffffffffffffffffffffffffffffffffffffff01905590871680865283862080546001019055868652600290945282852080549092168417909155905184937fddf252ad1be2c89b69c2b068fc378daa952ba7f163c4a11628f55a4df523b3ef91a4505050565b73ffffffffffffffffffffffffffffffffffffffff82166115405760405162461bcd60e51b815260206004820181905260248201527f4552433732313a206d696e7420746f20746865207a65726f2061646472657373604482015260640161076e565b60008181526002602052604090205473ffffffffffffffffffffffffffffffffffffffff16156115b25760405162461bcd60e51b815260206004820152601c60248201527f4552433732313a20746f6b656e20616c7265616479206d696e74656400000000604482015260640161076e565b60008181526002602052604090205473ffffffffffffffffffffffffffffffffffffffff16156116245760405162461bcd60e51b815260206004820152601c60248201527f4552433732313a20746f6b656e20616c7265616479206d696e74656400000000604482015260640161076e565b73ffffffffffffffffffffffffffffffffffffffff8216600081815260036020908152604080832080546001019055848352600290915280822080547fffffffffffffffffffffffff0000000000000000000000000000000000000000168417905551839291907fddf252ad1be2c89b69c2b068fc378daa952ba7f163c4a11628f55a4df523b3ef908290a45050565b60006116bf82610df9565b90506116ca82610df9565b600083815260046020908152604080832080547fffffffffffffffffffffffff000000000000000000000000000000000000000090811690915573ffffffffffffffffffffffffffffffffffffffff85168085526003845282852080547fffffffffffffffffffffffffffffffffffffffffffffffffffffffffffffffff0190558785526002909352818420805490911690555192935084927fddf252ad1be2c89b69c2b068fc378daa952ba7f163c4a11628f55a4df523b3ef908390a45050565b8173ffffffffffffffffffffffffffffffffffffffff168373ffffffffffffffffffffffffffffffffffffffff16036118075760405162461bcd60e51b815260206004820152601960248201527f4552433732313a20617070726f766520746f2063616c6c657200000000000000604482015260640161076e565b73ffffffffffffffffffffffffffffffffffffffff83811660008181526005602090815260408083209487168084529482529182902080547fffffffffffffffffffffffffffffffffffffffffffffffffffffffffffffff001686151590811790915591519182527f17307eab39ab6107e8899845ad3d59bd9653f200f220920489ca2b5937696c31910160405180910390a3505050565b6118aa848484611230565b6118b6848484846119e6565b610fe25760405162461bcd60e51b815260206004820152603260248201527f4552433732313a207472616e7366657220746f206e6f6e20455243373231526560448201527f63656976657220696d706c656d656e7465720000000000000000000000000000606482015260840161076e565b6060600061193583611bbf565b600101905060008167ffffffffffffffff81111561195557611955611e6c565b6040519080825280601f01601f19166020018201604052801561197f576020820181803683370190505b5090508181016020015b7fffffffffffffffffffffffffffffffffffffffffffffffffffffffffffffffff017f3031323334353637383961626364656600000000000000000000000000000000600a86061a8153600a850494508461198957509392505050565b600073ffffffffffffffffffffffffffffffffffffffff84163b15611bb4576040517f150b7a0200000000000000000000000000000000000000000000000000000000815273ffffffffffffffffffffffffffffffffffffffff85169063150b7a0290611a5d90339089908890889060040161212c565b6020604051808303816000875af1925050508015611ab6575060408051601f3d9081017fffffffffffffffffffffffffffffffffffffffffffffffffffffffffffffffe0168201909252611ab391810190612175565b60015b611b69573d808015611ae4576040519150601f19603f3d011682016040523d82523d6000602084013e611ae9565b606091505b508051600003611b615760405162461bcd60e51b815260206004820152603260248201527f4552433732313a207472616e7366657220746f206e6f6e20455243373231526560448201527f63656976657220696d706c656d656e7465720000000000000000000000000000606482015260840161076e565b805181602001fd5b7fffffffff00000000000000000000000000000000000000000000000000000000167f150b7a0200000000000000000000000000000000000000000000000000000000149050611228565b506001949350505050565b6000807a184f03e93ff9f4daa797ed6e38ed64bf6a1f0100000000000000008310611c08577a184f03e93ff9f4daa797ed6e38ed64bf6a1f010000000000000000830492506040015b6d04ee2d6d415b85acef81000000008310611c34576d04ee2d6d415b85acef8100000000830492506020015b662386f26fc100008310611c5257662386f26fc10000830492506010015b6305f5e1008310611c6a576305f5e100830492506008015b6127108310611c7e57612710830492506004015b60648310611c90576064830492506002015b600a83106105f85760010192915050565b7fffffffff00000000000000000000000000000000000000000000000000000000811681146110cd57600080fd5b600060208284031215611ce157600080fd5b813561105581611ca1565b60005b83811015611d07578181015183820152602001611cef565b50506000910152565b60008151808452611d28816020860160208601611cec565b601f017fffffffffffffffffffffffffffffffffffffffffffffffffffffffffffffffe0169290920160200192915050565b6020815260006110556020830184611d10565b600060208284031215611d7f57600080fd5b5035919050565b803573ffffffffffffffffffffffffffffffffffffffff81168114611daa57600080fd5b919050565b60008060408385031215611dc257600080fd5b611dcb83611d86565b946020939093013593505050565b600080600060608486031215611dee57600080fd5b611df784611d86565b9250611e0560208501611d86565b9150604084013590509250925092565b600060208284031215611e2757600080fd5b61105582611d86565b60008060408385031215611e4357600080fd5b611e4c83611d86565b915060208301358015158114611e6157600080fd5b809150509250929050565b7f4e487b7100000000000000000000000000000000000000000000000000000000600052604160045260246000fd5b60008060008060808587031215611eb157600080fd5b611eba85611d86565b9350611ec860208601611d86565b925060408501359150606085013567ffffffffffffffff80821115611eec57600080fd5b818701915087601f830112611f0057600080fd5b813581811115611f1257611f12611e6c565b604051601f82017fffffffffffffffffffffffffffffffffffffffffffffffffffffffffffffffe0908116603f01168101908382118183101715611f5857611f58611e6c565b816040528281528a6020848701011115611f7157600080fd5b82602086016020830137600060208483010152809550505050505092959194509250565b60008060408385031215611fa857600080fd5b611fb183611d86565b9150611fbf60208401611d86565b90509250929050565b600181811c90821680611fdc57607f821691505b602082108103612015577f4e487b7100000000000000000000000000000000000000000000000000000000600052602260045260246000fd5b50919050565b60006020828403121561202d57600080fd5b5051919050565b60007fffffffffffffffffffffffffffffffffffffffffffffffffffffffffffffffff820361208c577f4e487b7100000000000000000000000000000000000000000000000000000000600052601160045260246000fd5b5060010190565b7f4e487b7100000000000000000000000000000000000000000000000000000000600052603260045260246000fd5b6000826120f8577f4e487b7100000000000000000000000000000000000000000000000000000000600052601260045260246000fd5b500490565b6000835161210f818460208801611cec565b835190830190612123818360208801611cec565b01949350505050565b600073ffffffffffffffffffffffffffffffffffffffff80871683528086166020840152508360408301526080606083015261216b6080830184611d10565b9695505050505050565b60006020828403121561218757600080fd5b815161105581611ca156fea264697066735822122018dff2029cd5bc55c66f9bb34d974c1deee7360901022e27dd91acf99acfc5fc64736f6c63430008130033","linkReferences":{}},"methodIdentifiers":{"allAntsIds(uint256)":"b0110986","antToOwner(uint256)":"f770031c","antsCreated()":"a993efbc","approve(address,uint256)":"095ea7b3","balanceOf(address)":"70a08231","buyEggs(uint256)":"4fd53596","createAnt()":"2e61a7bf","eggPrice()":"305e3552","eggs()":"e33f76cf","getAntsCreated()":"3d871229","getApproved(uint256)":"081812fc","getContractBalance()":"6f9fb98a","isApprovedForAll(address,address)":"e985e9c5","locked()":"cf309012","name()":"06fdde03","notLocked()":"17e356a1","ownerOf(uint256)":"6352211e","safeTransferFrom(address,address,uint256)":"42842e0e","safeTransferFrom(address,address,uint256,bytes)":"b88d4fde","sellAnt(uint256)":"61dcb054","setApprovalForAll(address,bool)":"a22cb465","supportsInterface(bytes4)":"01ffc9a7","symbol()":"95d89b41","tokenURI(uint256)":"c87b56dd","transferFrom(address,address,uint256)":"23b872dd"},"id":32}