{"abi":[{"type":"constructor","inputs":[{"name":"_eggs","type":"address","internalType":"address"},{"name":"_governance","type":"address","internalType":"address"}],"stateMutability":"nonpayable"},{"type":"function","name":"OVIPOSITION_DELAY","inputs":[],"outputs":[{"name":"","type":"uint256","internalType":"uint256"}],"stateMutability":"view"},{"type":"function","name":"acceptOwnership","inputs":[],"outputs":[],"stateMutability":"nonpayable"},{"type":"function","name":"approve","inputs":[{"name":"to","type":"address","internalType":"address"},{"name":"tokenId","type":"uint256","internalType":"uint256"}],"outputs":[],"stateMutability":"nonpayable"},{"type":"function","name":"balanceOf","inputs":[{"name":"owner","type":"address","internalType":"address"}],"outputs":[{"name":"","type":"uint256","internalType":"uint256"}],"stateMutability":"view"},{"type":"function","name":"buyEggs","inputs":[{"name":"_amount","type":"uint256","internalType":"uint256"}],"outputs":[],"stateMutability":"payable"},{"type":"function","name":"createAnt","inputs":[],"outputs":[],"stateMutability":"nonpayable"},{"type":"function","name":"eggs","inputs":[],"outputs":[{"name":"","type":"address","internalType":"contract IEgg"}],"stateMutability":"view"},{"type":"function","name":"getAntPrice","inputs":[],"outputs":[{"name":"","type":"uint256","internalType":"uint256"}],"stateMutability":"view"},{"type":"function","name":"getAntsCreated","inputs":[],"outputs":[{"name":"","type":"uint256","internalType":"uint256"}],"stateMutability":"view"},{"type":"function","name":"getApproved","inputs":[{"name":"tokenId","type":"uint256","internalType":"uint256"}],"outputs":[{"name":"","type":"address","internalType":"address"}],"stateMutability":"view"},{"type":"function","name":"getEggPrice","inputs":[],"outputs":[{"name":"","type":"uint256","internalType":"uint256"}],"stateMutability":"view"},{"type":"function","name":"getOvipositionPeriod","inputs":[{"name":"_antId","type":"uint256","internalType":"uint256"}],"outputs":[{"name":"ovipositionPeriod","type":"uint256","internalType":"uint256"}],"stateMutability":"view"},{"type":"function","name":"initOviposition","inputs":[{"name":"_antId","type":"uint256","internalType":"uint256"}],"outputs":[{"name":"requestId","type":"uint256","internalType":"uint256"}],"stateMutability":"nonpayable"},{"type":"function","name":"isApprovedForAll","inputs":[{"name":"owner","type":"address","internalType":"address"},{"name":"operator","type":"address","internalType":"address"}],"outputs":[{"name":"","type":"bool","internalType":"bool"}],"stateMutability":"view"},{"type":"function","name":"name","inputs":[],"outputs":[{"name":"","type":"string","internalType":"string"}],"stateMutability":"view"},{"type":"function","name":"owner","inputs":[],"outputs":[{"name":"","type":"address","internalType":"address"}],"stateMutability":"view"},{"type":"function","name":"ownerOf","inputs":[{"name":"tokenId","type":"uint256","internalType":"uint256"}],"outputs":[{"name":"","type":"address","internalType":"address"}],"stateMutability":"view"},{"type":"function","name":"rawFulfillRandomWords","inputs":[{"name":"_requestId","type":"uint256","internalType":"uint256"},{"name":"_randomWords","type":"uint256[]","internalType":"uint256[]"}],"outputs":[],"stateMutability":"nonpayable"},{"type":"function","name":"safeTransferFrom","inputs":[{"name":"from","type":"address","internalType":"address"},{"name":"to","type":"address","internalType":"address"},{"name":"tokenId","type":"uint256","internalType":"uint256"}],"outputs":[],"stateMutability":"nonpayable"},{"type":"function","name":"safeTransferFrom","inputs":[{"name":"from","type":"address","internalType":"address"},{"name":"to","type":"address","internalType":"address"},{"name":"tokenId","type":"uint256","internalType":"uint256"},{"name":"data","type":"bytes","internalType":"bytes"}],"outputs":[],"stateMutability":"nonpayable"},{"type":"function","name":"sellAnt","inputs":[{"name":"_antId","type":"uint256","internalType":"uint256"}],"outputs":[],"stateMutability":"nonpayable"},{"type":"function","name":"setApprovalForAll","inputs":[{"name":"operator","type":"address","internalType":"address"},{"name":"approved","type":"bool","internalType":"bool"}],"outputs":[],"stateMutability":"nonpayable"},{"type":"function","name":"supportsInterface","inputs":[{"name":"interfaceId","type":"bytes4","internalType":"bytes4"}],"outputs":[{"name":"","type":"bool","internalType":"bool"}],"stateMutability":"view"},{"type":"function","name":"symbol","inputs":[],"outputs":[{"name":"","type":"string","internalType":"string"}],"stateMutability":"view"},{"type":"function","name":"tokenURI","inputs":[{"name":"tokenId","type":"uint256","internalType":"uint256"}],"outputs":[{"name":"","type":"string","internalType":"string"}],"stateMutability":"view"},{"type":"function","name":"transferFrom","inputs":[{"name":"from","type":"address","internalType":"address"},{"name":"to","type":"address","internalType":"address"},{"name":"tokenId","type":"uint256","internalType":"uint256"}],"outputs":[],"stateMutability":"nonpayable"},{"type":"function","name":"transferOwnership","inputs":[{"name":"to","type":"address","internalType":"address"}],"outputs":[],"stateMutability":"nonpayable"},{"type":"function","name":"updatePrices","inputs":[{"name":"newEggPrice","type":"uint256","internalType":"uint256"},{"name":"newAntPrice","type":"uint256","internalType":"uint256"}],"outputs":[],"stateMutability":"nonpayable"},{"type":"function","name":"withdrawLink","inputs":[{"name":"_receiver","type":"address","internalType":"address"}],"outputs":[],"stateMutability":"nonpayable"},{"type":"event","name":"AntCreated","inputs":[{"name":"owner","type":"address","indexed":false,"internalType":"address"},{"name":"antId","type":"uint256","indexed":false,"internalType":"uint256"}],"anonymous":false},{"type":"event","name":"AntCreated","inputs":[],"anonymous":false},{"type":"event","name":"AntSold","inputs":[{"name":"owner","type":"address","indexed":false,"internalType":"address"},{"name":"antId","type":"uint256","indexed":false,"internalType":"uint256"}],"anonymous":false},{"type":"event","name":"AntSold","inputs":[],"anonymous":false},{"type":"event","name":"Approval","inputs":[{"name":"owner","type":"address","indexed":true,"internalType":"address"},{"name":"approved","type":"address","indexed":true,"internalType":"address"},{"name":"tokenId","type":"uint256","indexed":true,"internalType":"uint256"}],"anonymous":false},{"type":"event","name":"ApprovalForAll","inputs":[{"name":"owner","type":"address","indexed":true,"internalType":"address"},{"name":"operator","type":"address","indexed":true,"internalType":"address"},{"name":"approved","type":"bool","indexed":false,"internalType":"bool"}],"anonymous":false},{"type":"event","name":"EggsBought","inputs":[{"name":"owner","type":"address","indexed":false,"internalType":"address"},{"name":"amount","type":"uint256","indexed":false,"internalType":"uint256"}],"anonymous":false},{"type":"event","name":"EggsLayed","inputs":[{"name":"owner","type":"address","indexed":false,"internalType":"address"},{"name":"antId","type":"uint256","indexed":false,"internalType":"uint256"},{"name":"eggsLayed","type":"uint256","indexed":false,"internalType":"uint256"},{"name":"isAntDead","type":"bool","indexed":false,"internalType":"bool"}],"anonymous":false},{"type":"event","name":"OwnershipTransferRequested","inputs":[{"name":"from","type":"address","indexed":true,"internalType":"address"},{"name":"to","type":"address","indexed":true,"internalType":"address"}],"anonymous":false},{"type":"event","name":"OwnershipTransferred","inputs":[{"name":"from","type":"address","indexed":true,"internalType":"address"},{"name":"to","type":"address","indexed":true,"internalType":"address"}],"anonymous":false},{"type":"event","name":"PricesUpdated","inputs":[{"name":"newEggPrice","type":"uint256","indexed":false,"internalType":"uint256"},{"name":"newAntPrice","type":"uint256","indexed":false,"internalType":"uint256"}],"anonymous":false},{"type":"event","name":"Transfer","inputs":[{"name":"from","type":"address","indexed":true,"internalType":"address"},{"name":"to","type":"address","indexed":true,"internalType":"address"},{"name":"tokenId","type":"uint256","indexed":true,"internalType":"uint256"}],"anonymous":false},{"type":"error","name":"AlreadyExists","inputs":[]},{"type":"error","name":"AntPriceMustBeLessThanEggPrice","inputs":[]},{"type":"error","name":"ERC721IncorrectOwner","inputs":[{"name":"sender","type":"address","internalType":"address"},{"name":"tokenId","type":"uint256","internalType":"uint256"},{"name":"owner","type":"address","internalType":"address"}]},{"type":"error","name":"ERC721InsufficientApproval","inputs":[{"name":"operator","type":"address","internalType":"address"},{"name":"tokenId","type":"uint256","internalType":"uint256"}]},{"type":"error","name":"ERC721InvalidApprover","inputs":[{"name":"approver","type":"address","internalType":"address"}]},{"type":"error","name":"ERC721InvalidOperator","inputs":[{"name":"operator","type":"address","internalType":"address"}]},{"type":"error","name":"ERC721InvalidOwner","inputs":[{"name":"owner","type":"address","internalType":"address"}]},{"type":"error","name":"ERC721InvalidReceiver","inputs":[{"name":"receiver","type":"address","internalType":"address"}]},{"type":"error","name":"ERC721InvalidSender","inputs":[{"name":"sender","type":"address","internalType":"address"}]},{"type":"error","name":"ERC721NonexistentToken","inputs":[{"name":"tokenId","type":"uint256","internalType":"uint256"}]},{"type":"error","name":"NoEggs","inputs":[]},{"type":"error","name":"NotAntOwner","inputs":[]},{"type":"error","name":"PreOvipositionPeriod","inputs":[]},{"type":"error","name":"RequestNotFound","inputs":[]},{"type":"error","name":"TransferFailed","inputs":[]},{"type":"error","name":"WrongEtherSent","inputs":[]},{"type":"error","name":"ZeroAddress","inputs":[]},{"type":"error","name":"ZeroAmount","inputs":[]}],"bytecode":{"object":"0x60e0604052662386f26fc10000600855660e35fa931a00006009556000600a553480156200002c57600080fd5b5060405162002de238038062002de28339810160408190526200004f916200025a565b8080600073779877a7b0d9e8603169ddbd7836e478b462478973ab18414cd93297b0d12ac29e63ca20f515b3db466040518060400160405280600b81526020016a43727970746f20416e747360a81b81525060405180604001604052806004815260200163414e545360e01b8152508160009081620000cf919062000337565b506001620000de828262000337565b5050506001600160a01b03918216608052811660a0528216620001485760405162461bcd60e51b815260206004820152601860248201527f43616e6e6f7420736574206f776e657220746f207a65726f000000000000000060448201526064015b60405180910390fd5b600680546001600160a01b0319166001600160a01b03848116919091179091558116156200017b576200017b8162000191565b505050506001600160a01b031660c05262000403565b336001600160a01b03821603620001eb5760405162461bcd60e51b815260206004820152601760248201527f43616e6e6f74207472616e7366657220746f2073656c6600000000000000000060448201526064016200013f565b600780546001600160a01b0319166001600160a01b03838116918217909255600654604051919216907fed8889f560326eb138920d842192f0eb3dd22b4f139c87a2c57538e05bae127890600090a350565b80516001600160a01b03811681146200025557600080fd5b919050565b600080604083850312156200026e57600080fd5b62000279836200023d565b915062000289602084016200023d565b90509250929050565b634e487b7160e01b600052604160045260246000fd5b600181811c90821680620002bd57607f821691505b602082108103620002de57634e487b7160e01b600052602260045260246000fd5b50919050565b601f8211156200033257600081815260208120601f850160051c810160208610156200030d5750805b601f850160051c820191505b818110156200032e5782815560010162000319565b5050505b505050565b81516001600160401b0381111562000353576200035362000292565b6200036b81620003648454620002a8565b84620002e4565b602080601f831160018114620003a357600084156200038a5750858301515b600019600386901b1c1916600185901b1785556200032e565b600085815260208120601f198616915b82811015620003d457888601518255948401946001909101908401620003b3565b5085821015620003f35787850151600019600388901b60f8161c191681555b5050505050600190811b01905550565b60805160a05160c0516129856200045d600039600081816104ba015281816108d001528181610a5d01528181610bfc0152611f2c01526000818161074c01528181611b0b0152611c1401526000611ae101526129856000f3fe6080604052600436106101c25760003560e01c80636352211e116100f7578063b88d4fde11610095578063e5f9598c11610064578063e5f9598c146104dc578063e985e9c514610509578063ef88d7f014610552578063f2fde38b1461057257600080fd5b8063b88d4fde14610448578063c87b56dd14610468578063d72df5d514610488578063e33f76cf146104a857600080fd5b80638da5cb5b116100d15780638da5cb5b146103d557806390e9ca7f146103f357806395d89b4114610413578063a22cb4651461042857600080fd5b80636352211e1461038057806370a08231146103a057806379ba5097146103c057600080fd5b80632d577eef1161016457806342842e0e1161013e57806342842e0e146103185780634fd5359614610338578063514b15701461034b57806361dcb0541461036057600080fd5b80632d577eef146102d75780632e61a7bf146102ee5780633d8712291461030357600080fd5b8063095ea7b3116101a0578063095ea7b3146102565780631fe543e31461027857806323b872dd14610298578063248452bd146102b857600080fd5b806301ffc9a7146101c757806306fdde03146101fc578063081812fc1461021e575b600080fd5b3480156101d357600080fd5b506101e76101e23660046122b5565b610592565b60405190151581526020015b60405180910390f35b34801561020857600080fd5b50610211610677565b6040516101f39190612340565b34801561022a57600080fd5b5061023e610239366004612353565b610709565b6040516001600160a01b0390911681526020016101f3565b34801561026257600080fd5b50610276610271366004612388565b610732565b005b34801561028457600080fd5b50610276610293366004612430565b610741565b3480156102a457600080fd5b506102766102b33660046124e2565b6107e2565b3480156102c457600080fd5b506009545b6040519081526020016101f3565b3480156102e357600080fd5b506102c96203f48081565b3480156102fa57600080fd5b5061027661089f565b34801561030f57600080fd5b50600a546102c9565b34801561032457600080fd5b506102766103333660046124e2565b610b27565b610276610346366004612353565b610b47565b34801561035757600080fd5b506008546102c9565b34801561036c57600080fd5b5061027661037b366004612353565b610c97565b34801561038c57600080fd5b5061023e61039b366004612353565b610db1565b3480156103ac57600080fd5b506102c96103bb36600461251e565b610dbc565b3480156103cc57600080fd5b50610276610e1d565b3480156103e157600080fd5b506006546001600160a01b031661023e565b3480156103ff57600080fd5b5061027661040e36600461251e565b610f04565b34801561041f57600080fd5b506102116110a6565b34801561043457600080fd5b50610276610443366004612547565b6110b5565b34801561045457600080fd5b5061027661046336600461257e565b6110c0565b34801561047457600080fd5b50610211610483366004612353565b6110d7565b34801561049457600080fd5b506102c96104a3366004612353565b61114c565b3480156104b457600080fd5b5061023e7f000000000000000000000000000000000000000000000000000000000000000081565b3480156104e857600080fd5b506102c96104f7366004612353565b6000908152600c602052604090205490565b34801561051557600080fd5b506101e761052436600461265c565b6001600160a01b03918216600090815260056020908152604080832093909416825291909152205460ff1690565b34801561055e57600080fd5b5061027661056d36600461268f565b61128f565b34801561057e57600080fd5b5061027661058d36600461251e565b611352565b60007fffffffff0000000000000000000000000000000000000000000000000000000082167f80ac58cd00000000000000000000000000000000000000000000000000000000148061062557507fffffffff0000000000000000000000000000000000000000000000000000000082167f5b5e139f00000000000000000000000000000000000000000000000000000000145b8061067157507f01ffc9a7000000000000000000000000000000000000000000000000000000007fffffffff000000000000000000000000000000000000000000000000000000008316145b92915050565b606060008054610686906126b1565b80601f01602080910402602001604051908101604052809291908181526020018280546106b2906126b1565b80156106ff5780601f106106d4576101008083540402835291602001916106ff565b820191906000526020600020905b8154815290600101906020018083116106e257829003601f168201915b5050505050905090565b600061071482611366565b506000828152600460205260409020546001600160a01b0316610671565b61073d8282336113b8565b5050565b336001600160a01b037f000000000000000000000000000000000000000000000000000000000000000016146107d8576040517f08c379a000000000000000000000000000000000000000000000000000000000815260206004820152601f60248201527f6f6e6c792056524620563220777261707065722063616e2066756c66696c6c0060448201526064015b60405180910390fd5b61073d82826113c5565b6001600160a01b038216610825576040517f64a0ae92000000000000000000000000000000000000000000000000000000008152600060048201526024016107cf565b60006108328383336114b6565b9050836001600160a01b0316816001600160a01b031614610899576040517f64283d7b0000000000000000000000000000000000000000000000000000000081526001600160a01b03808616600483015260248201849052821660448201526064016107cf565b50505050565b6040517f70a082310000000000000000000000000000000000000000000000000000000081523360048201526001907f00000000000000000000000000000000000000000000000000000000000000006001600160a01b0316906370a0823190602401602060405180830381865afa15801561091f573d6000803e3d6000fd5b505050506040513d601f19601f8201168201806040525081019061094391906126fe565b101561097b576040517f6c308a2f00000000000000000000000000000000000000000000000000000000815260040160405180910390fd5b600b5460009081036109a257600a6000815461099690612746565b918290555090506109d9565b600b6000815481106109b6576109b661277e565b6000918252602082200154600a805491935090916109d383612746565b91905055505b6000818152600260205260409020546001600160a01b031615610a28576040517f23369fa600000000000000000000000000000000000000000000000000000000815260040160405180910390fd5b6040517f9dc29fac000000000000000000000000000000000000000000000000000000008152336004820152600160248201527f00000000000000000000000000000000000000000000000000000000000000006001600160a01b031690639dc29fac90604401600060405180830381600087803b158015610aa957600080fd5b505af1158015610abd573d6000803e3d6000fd5b50505050610acb33826115e5565b610ad7426102586127ad565b6000828152600c60209081526040918290209290925580513381529182018390527fb1cbc86b8a6c13dcf7e6ddddcd361135b8af8664acc668744eeb932a9beb4f2691015b60405180910390a150565b610b42838383604051806020016040528060008152506110c0565b505050565b80600003610b81576040517f1f2a200500000000000000000000000000000000000000000000000000000000815260040160405180910390fd5b3460085482610b9091906127c0565b14610bc7576040517f2f1e736300000000000000000000000000000000000000000000000000000000815260040160405180910390fd5b6040517f40c10f19000000000000000000000000000000000000000000000000000000008152336004820152602481018290527f00000000000000000000000000000000000000000000000000000000000000006001600160a01b0316906340c10f1990604401600060405180830381600087803b158015610c4857600080fd5b505af1158015610c5c573d6000803e3d6000fd5b505060408051338152602081018590527fecedcda9002dd5028204a70dddaa2155459b6dff3c3e20543450a189e736dc499350019050610b1c565b6000818152600260205260409020546001600160a01b03163314610ce7576040517f16bea89400000000000000000000000000000000000000000000000000000000815260040160405180910390fd5b610cf08161167c565b60095460405160009133918381818185875af1925050503d8060008114610d33576040519150601f19603f3d011682016040523d82523d6000602084013e610d38565b606091505b5050905080610d73576040517f90b8ec1800000000000000000000000000000000000000000000000000000000815260040160405180910390fd5b60408051338152602081018490527fe67bffe95663d01ae462a2e747de3f59667442026226e1ff426a25bfe4b81fb391015b60405180910390a15050565b600061067182611366565b60006001600160a01b038216610e01576040517f89c62b64000000000000000000000000000000000000000000000000000000008152600060048201526024016107cf565b506001600160a01b031660009081526003602052604090205490565b6007546001600160a01b03163314610e91576040517f08c379a000000000000000000000000000000000000000000000000000000000815260206004820152601660248201527f4d7573742062652070726f706f736564206f776e65720000000000000000000060448201526064016107cf565b600680547fffffffffffffffffffffffff0000000000000000000000000000000000000000808216339081179093556007805490911690556040516001600160a01b03909116919082907f8be0079c531659141344cd1fd0a4f28419497f9722a3daafe3b4186f6b6457e090600090a350565b610f0c6116dc565b6001600160a01b038116610f4c576040517fd92e233d00000000000000000000000000000000000000000000000000000000815260040160405180910390fd5b6040517f70a0823100000000000000000000000000000000000000000000000000000000815230600482015273779877a7b0d9e8603169ddbd7836e478b462478990819063a9059cbb90849083906370a0823190602401602060405180830381865afa158015610fc0573d6000803e3d6000fd5b505050506040513d601f19601f82011682018060405250810190610fe491906126fe565b6040517fffffffff0000000000000000000000000000000000000000000000000000000060e085901b1681526001600160a01b03909216600483015260248201526044016020604051808303816000875af1158015611047573d6000803e3d6000fd5b505050506040513d601f19601f8201168201806040525081019061106b91906127d7565b151560000361073d576040517f90b8ec1800000000000000000000000000000000000000000000000000000000815260040160405180910390fd5b606060018054610686906126b1565b61073d338383611752565b6110cb8484846107e2565b61089984848484611828565b60606110e282611366565b5060006110fa60408051602081019091526000815290565b9050600081511161111a5760405180602001604052806000815250611145565b80611124846119e4565b6040516020016111359291906127f4565b6040516020818303038152906040525b9392505050565b6000818152600260205260408120546001600160a01b0316331461119c576040517f16bea89400000000000000000000000000000000000000000000000000000000815260040160405180910390fd5b6000828152600c6020526040902054428111156111e5576040517f53ea709100000000000000000000000000000000000000000000000000000000815260040160405180910390fd5b6111f26203f480826127ad565b42111561121957611205426102586127ad565b6000848152600c6020526040902055611289565b611229620186a060036002611aa2565b60408051808201825233815260208082018781526000858152600d909252929020905181547fffffffffffffffffffffffff0000000000000000000000000000000000000000166001600160a01b03909116178155905160019091015591505b50919050565b6112976116dc565b8115806112a2575080155b156112d9576040517f1f2a200500000000000000000000000000000000000000000000000000000000815260040160405180910390fd5b818110611312576040517f28cf0d4c00000000000000000000000000000000000000000000000000000000815260040160405180910390fd5b6008829055600981905560408051838152602081018390527f6546f60f34df611fa42503098acc39d5ab88bc73febe64b3cc14e5a92e3a66a79101610da5565b61135a6116dc565b61136381611c9c565b50565b6000818152600260205260408120546001600160a01b031680610671576040517f7e273289000000000000000000000000000000000000000000000000000000008152600481018490526024016107cf565b610b428383836001611d78565b6000828152600d6020908152604091829020825180840190935280546001600160a01b031680845260019091015491830191909152611430576040517f4b13b31e00000000000000000000000000000000000000000000000000000000815260040160405180910390fd5b6000600a836000815181106114475761144761277e565b60200260200101516114599190612823565b6114649060016127ad565b90506000600a61147483826127c0565b61147e919061285e565b90506114af836000015184602001518484886001815181106114a2576114a261277e565b6020026020010151611ece565b5050505050565b6000828152600260205260408120546001600160a01b03908116908316156114e3576114e3818486612038565b6001600160a01b0381161561153f57611500600085600080611d78565b6001600160a01b038116600090815260036020526040902080547fffffffffffffffffffffffffffffffffffffffffffffffffffffffffffffffff0190555b6001600160a01b0385161561156e576001600160a01b0385166000908152600360205260409020805460010190555b60008481526002602052604080822080547fffffffffffffffffffffffff0000000000000000000000000000000000000000166001600160a01b0389811691821790925591518793918516917fddf252ad1be2c89b69c2b068fc378daa952ba7f163c4a11628f55a4df523b3ef91a4949350505050565b6001600160a01b038216611628576040517f64a0ae92000000000000000000000000000000000000000000000000000000008152600060048201526024016107cf565b6000611636838360006114b6565b90506001600160a01b03811615610b42576040517f73c6ac6e000000000000000000000000000000000000000000000000000000008152600060048201526024016107cf565b611685816120ce565b600a805490600061169583612871565b90915550506000818152600c60205260408120819055600b805460018101825591527f0175b7a638427703f0dbe7bb9bbf987a2551717b34e79f33b5b1008d1fa01db90155565b6006546001600160a01b03163314611750576040517f08c379a000000000000000000000000000000000000000000000000000000000815260206004820152601660248201527f4f6e6c792063616c6c61626c65206279206f776e65720000000000000000000060448201526064016107cf565b565b6001600160a01b03821661179d576040517f5b08ba180000000000000000000000000000000000000000000000000000000081526001600160a01b03831660048201526024016107cf565b6001600160a01b0383811660008181526005602090815260408083209487168084529482529182902080547fffffffffffffffffffffffffffffffffffffffffffffffffffffffffffffff001686151590811790915591519182527f17307eab39ab6107e8899845ad3d59bd9653f200f220920489ca2b5937696c31910160405180910390a3505050565b6001600160a01b0383163b15610899576040517f150b7a020000000000000000000000000000000000000000000000000000000081526001600160a01b0384169063150b7a02906118839033908890879087906004016128a6565b6020604051808303816000875af19250505080156118dc575060408051601f3d9081017fffffffffffffffffffffffffffffffffffffffffffffffffffffffffffffffe01682019092526118d9918101906128e2565b60015b61195e573d80801561190a576040519150601f19603f3d011682016040523d82523d6000602084013e61190f565b606091505b508051600003611956576040517f64a0ae920000000000000000000000000000000000000000000000000000000081526001600160a01b03851660048201526024016107cf565b805181602001fd5b7fffffffff0000000000000000000000000000000000000000000000000000000081167f150b7a0200000000000000000000000000000000000000000000000000000000146114af576040517f64a0ae920000000000000000000000000000000000000000000000000000000081526001600160a01b03851660048201526024016107cf565b606060006119f183612122565b600101905060008167ffffffffffffffff811115611a1157611a116123b2565b6040519080825280601f01601f191660200182016040528015611a3b576020820181803683370190505b5090508181016020015b7fffffffffffffffffffffffffffffffffffffffffffffffffffffffffffffffff017f3031323334353637383961626364656600000000000000000000000000000000600a86061a8153600a8504945084611a4557509392505050565b6040517f4306d35400000000000000000000000000000000000000000000000000000000815263ffffffff841660048201526000906001600160a01b037f0000000000000000000000000000000000000000000000000000000000000000811691634000aea0917f00000000000000000000000000000000000000000000000000000000000000009190821690634306d35490602401602060405180830381865afa158015611b55573d6000803e3d6000fd5b505050506040513d601f19601f82011682018060405250810190611b7991906126fe565b6040805163ffffffff808b16602083015261ffff8a169282019290925290871660608201526080016040516020818303038152906040526040518463ffffffff1660e01b8152600401611bce939291906128ff565b6020604051808303816000875af1158015611bed573d6000803e3d6000fd5b505050506040513d601f19601f82011682018060405250810190611c1191906127d7565b507f00000000000000000000000000000000000000000000000000000000000000006001600160a01b031663fc2a88c36040518163ffffffff1660e01b8152600401602060405180830381865afa158015611c70573d6000803e3d6000fd5b505050506040513d601f19601f82011682018060405250810190611c9491906126fe565b949350505050565b336001600160a01b03821603611d0e576040517f08c379a000000000000000000000000000000000000000000000000000000000815260206004820152601760248201527f43616e6e6f74207472616e7366657220746f2073656c6600000000000000000060448201526064016107cf565b600780547fffffffffffffffffffffffff0000000000000000000000000000000000000000166001600160a01b03838116918217909255600654604051919216907fed8889f560326eb138920d842192f0eb3dd22b4f139c87a2c57538e05bae127890600090a350565b8080611d8c57506001600160a01b03821615155b15611e86576000611d9c84611366565b90506001600160a01b03831615801590611dc85750826001600160a01b0316816001600160a01b031614155b8015611dfa57506001600160a01b0380821660009081526005602090815260408083209387168352929052205460ff16155b15611e3c576040517fa9fbf51f0000000000000000000000000000000000000000000000000000000081526001600160a01b03841660048201526024016107cf565b8115611e845783856001600160a01b0316826001600160a01b03167f8c5be1e5ebec7d5bd14f71427d1e84f3dd0314c0f7b2291e5b200ac8c7c3b92560405160405180910390a45b505b5050600090815260046020526040902080547fffffffffffffffffffffffff0000000000000000000000000000000000000000166001600160a01b0392909216919091179055565b60008080611edd606485612823565b905060005b868160ff161015611fdb576040517f40c10f190000000000000000000000000000000000000000000000000000000081526001600160a01b038a81166004830152600160248301527f000000000000000000000000000000000000000000000000000000000000000016906340c10f1990604401600060405180830381600087803b158015611f7057600080fd5b505af1158015611f84573d6000803e3d6000fd5b505050508380611f9390612746565b94505085821015611fa75760019250611fb5565b81611fb181612871565b9250505b8215611fc957611fc48861167c565b611fdb565b80611fd381612930565b915050611ee2565b50604080516001600160a01b038a1681526020810189905290810184905282151560608201527faed94627f5668328a9dd00e7c8f89594a2bb1cb2e799b4bb0e35a96daf16f03f9060800160405180910390a15050505050505050565b612043838383612204565b610b42576001600160a01b03831661208a576040517f7e273289000000000000000000000000000000000000000000000000000000008152600481018290526024016107cf565b6040517f177e802f0000000000000000000000000000000000000000000000000000000081526001600160a01b0383166004820152602481018290526044016107cf565b60006120dd60008360006114b6565b90506001600160a01b03811661073d576040517f7e273289000000000000000000000000000000000000000000000000000000008152600481018390526024016107cf565b6000807a184f03e93ff9f4daa797ed6e38ed64bf6a1f010000000000000000831061216b577a184f03e93ff9f4daa797ed6e38ed64bf6a1f010000000000000000830492506040015b6d04ee2d6d415b85acef81000000008310612197576d04ee2d6d415b85acef8100000000830492506020015b662386f26fc1000083106121b557662386f26fc10000830492506010015b6305f5e10083106121cd576305f5e100830492506008015b61271083106121e157612710830492506004015b606483106121f3576064830492506002015b600a83106106715760010192915050565b60006001600160a01b03831615801590611c945750826001600160a01b0316846001600160a01b0316148061225e57506001600160a01b0380851660009081526005602090815260408083209387168352929052205460ff165b80611c945750506000908152600460205260409020546001600160a01b03908116911614919050565b7fffffffff000000000000000000000000000000000000000000000000000000008116811461136357600080fd5b6000602082840312156122c757600080fd5b813561114581612287565b60005b838110156122ed5781810151838201526020016122d5565b50506000910152565b6000815180845261230e8160208601602086016122d2565b601f017fffffffffffffffffffffffffffffffffffffffffffffffffffffffffffffffe0169290920160200192915050565b60208152600061114560208301846122f6565b60006020828403121561236557600080fd5b5035919050565b80356001600160a01b038116811461238357600080fd5b919050565b6000806040838503121561239b57600080fd5b6123a48361236c565b946020939093013593505050565b7f4e487b7100000000000000000000000000000000000000000000000000000000600052604160045260246000fd5b604051601f82017fffffffffffffffffffffffffffffffffffffffffffffffffffffffffffffffe016810167ffffffffffffffff81118282101715612428576124286123b2565b604052919050565b6000806040838503121561244357600080fd5b8235915060208084013567ffffffffffffffff8082111561246357600080fd5b818601915086601f83011261247757600080fd5b813581811115612489576124896123b2565b8060051b915061249a8483016123e1565b81815291830184019184810190898411156124b457600080fd5b938501935b838510156124d2578435825293850193908501906124b9565b8096505050505050509250929050565b6000806000606084860312156124f757600080fd5b6125008461236c565b925061250e6020850161236c565b9150604084013590509250925092565b60006020828403121561253057600080fd5b6111458261236c565b801515811461136357600080fd5b6000806040838503121561255a57600080fd5b6125638361236c565b9150602083013561257381612539565b809150509250929050565b6000806000806080858703121561259457600080fd5b61259d8561236c565b935060206125ac81870161236c565b935060408601359250606086013567ffffffffffffffff808211156125d057600080fd5b818801915088601f8301126125e457600080fd5b8135818111156125f6576125f66123b2565b612626847fffffffffffffffffffffffffffffffffffffffffffffffffffffffffffffffe0601f840116016123e1565b9150808252898482850101111561263c57600080fd5b808484018584013760008482840101525080935050505092959194509250565b6000806040838503121561266f57600080fd5b6126788361236c565b91506126866020840161236c565b90509250929050565b600080604083850312156126a257600080fd5b50508035926020909101359150565b600181811c908216806126c557607f821691505b602082108103611289577f4e487b7100000000000000000000000000000000000000000000000000000000600052602260045260246000fd5b60006020828403121561271057600080fd5b5051919050565b7f4e487b7100000000000000000000000000000000000000000000000000000000600052601160045260246000fd5b60007fffffffffffffffffffffffffffffffffffffffffffffffffffffffffffffffff820361277757612777612717565b5060010190565b7f4e487b7100000000000000000000000000000000000000000000000000000000600052603260045260246000fd5b8082018082111561067157610671612717565b808202811582820484141761067157610671612717565b6000602082840312156127e957600080fd5b815161114581612539565b600083516128068184602088016122d2565b83519083019061281a8183602088016122d2565b01949350505050565b600082612859577f4e487b7100000000000000000000000000000000000000000000000000000000600052601260045260246000fd5b500690565b8181038181111561067157610671612717565b60008161288057612880612717565b507fffffffffffffffffffffffffffffffffffffffffffffffffffffffffffffffff0190565b60006001600160a01b038087168352808616602084015250836040830152608060608301526128d860808301846122f6565b9695505050505050565b6000602082840312156128f457600080fd5b815161114581612287565b6001600160a01b038416815282602082015260606040820152600061292760608301846122f6565b95945050505050565b600060ff821660ff810361294657612946612717565b6001019291505056fea2646970667358221220685a1eb9ab82c1ce94216db8670ea5f11b291be281b537f88919f91e0a344e0664736f6c63430008140033","linkReferences":{}},"methodIdentifiers":{"OVIPOSITION_DELAY()":"2d577eef","acceptOwnership()":"79ba5097","approve(address,uint256)":"095ea7b3","balanceOf(address)":"70a08231","buyEggs(uint256)":"4fd53596","createAnt()":"2e61a7bf","eggs()":"e33f76cf","getAntPrice()":"248452bd","getAntsCreated()":"3d871229","getApproved(uint256)":"081812fc","getEggPrice()":"514b1570","getOvipositionPeriod(uint256)":"e5f9598c","initOviposition(uint256)":"d72df5d5","isApprovedForAll(address,address)":"e985e9c5","name()":"06fdde03","owner()":"8da5cb5b","ownerOf(uint256)":"6352211e","rawFulfillRandomWords(uint256,uint256[])":"1fe543e3","safeTransferFrom(address,address,uint256)":"42842e0e","safeTransferFrom(address,address,uint256,bytes)":"b88d4fde","sellAnt(uint256)":"61dcb054","setApprovalForAll(address,bool)":"a22cb465","supportsInterface(bytes4)":"01ffc9a7","symbol()":"95d89b41","tokenURI(uint256)":"c87b56dd","transferFrom(address,address,uint256)":"23b872dd","transferOwnership(address)":"f2fde38b","updatePrices(uint256,uint256)":"ef88d7f0","withdrawLink(address)":"90e9ca7f"},"id":79}